{
  "address": "0xA0b662559d726fF8d6DD8d03e944bF12889C989F",
  "abi": [
    {
      "inputs": [],
      "name": "EnforcedPause",
      "type": "error"
    },
    {
      "inputs": [
        {
          "internalType": "uint256",
          "name": "amountOfTrades",
          "type": "uint256"
        },
        {
          "internalType": "uint256",
          "name": "maxTradesAmount",
          "type": "uint256"
        }
      ],
      "name": "ExceedMaxTradeCount",
      "type": "error"
    },
    {
      "inputs": [],
      "name": "ExpectedPause",
      "type": "error"
    },
    {
      "inputs": [],
      "name": "FactoryManagerOnly",
      "type": "error"
    },
    {
      "inputs": [
        {
          "internalType": "uint256",
          "name": "expectedLength",
          "type": "uint256"
        },
        {
          "internalType": "uint256",
          "name": "actualLength",
          "type": "uint256"
        }
      ],
      "name": "IncorrectTradeData",
      "type": "error"
    },
    {
      "inputs": [],
      "name": "InsufficientBalance",
      "type": "error"
    },
    {
      "inputs": [],
      "name": "InvalidAction",
      "type": "error"
    },
    {
      "inputs": [],
      "name": "MathOverflowedMulDiv",
      "type": "error"
    },
    {
      "inputs": [],
      "name": "NeedCallback",
      "type": "error"
    },
    {
      "inputs": [],
      "name": "NoAction",
      "type": "error"
    },
    {
      "inputs": [],
      "name": "NoTradesDuringWithdrawPeriod",
      "type": "error"
    },
    {
      "inputs": [],
      "name": "NoWithdrawPeriodSet",
      "type": "error"
    },
    {
      "inputs": [
        {
          "internalType": "address",
          "name": "user",
          "type": "address"
        }
      ],
      "name": "NotTokenHolder",
      "type": "error"
    },
    {
      "inputs": [
        {
          "internalType": "uint256",
          "name": "timeRemaining",
          "type": "uint256"
        }
      ],
      "name": "NotYetWithdrawPeriod",
      "type": "error"
    },
    {
      "inputs": [
        {
          "internalType": "uint256",
          "name": "timeAfter",
          "type": "uint256"
        }
      ],
      "name": "PastWithdrawPeriod",
      "type": "error"
    },
    {
      "inputs": [],
      "name": "Slippage",
      "type": "error"
    },
    {
      "inputs": [],
      "name": "StrategyAlreadyActive",
      "type": "error"
    },
    {
      "inputs": [],
      "name": "StrategyNotActive",
      "type": "error"
    },
    {
      "inputs": [
        {
          "internalType": "uint256",
          "name": "timeStampDifference",
          "type": "uint256"
        }
      ],
      "name": "TimeStampDifferenceTooLarge",
      "type": "error"
    },
    {
      "inputs": [],
      "name": "VaultManagerOnly",
      "type": "error"
    },
    {
      "inputs": [],
      "name": "WithdrawPeriodAlreadyActive",
      "type": "error"
    },
    {
      "inputs": [],
      "name": "WithdrawPeriodAlreadyEnded",
      "type": "error"
    },
    {
      "inputs": [],
      "name": "WithdrawPeriodAlreadySet",
      "type": "error"
    },
    {
      "anonymous": false,
      "inputs": [
        {
          "indexed": true,
          "internalType": "address",
          "name": "owner",
          "type": "address"
        },
        {
          "indexed": true,
          "internalType": "address",
          "name": "spender",
          "type": "address"
        },
        {
          "indexed": false,
          "internalType": "uint256",
          "name": "value",
          "type": "uint256"
        }
      ],
      "name": "Approval",
      "type": "event"
    },
    {
      "anonymous": false,
      "inputs": [
        {
          "indexed": true,
          "internalType": "address",
          "name": "msgSender",
          "type": "address"
        }
      ],
      "name": "ApprovalExtended",
      "type": "event"
    },
    {
      "anonymous": false,
      "inputs": [
        {
          "indexed": true,
          "internalType": "bytes32",
          "name": "id",
          "type": "bytes32"
        }
      ],
      "name": "ChainlinkCancelled",
      "type": "event"
    },
    {
      "anonymous": false,
      "inputs": [
        {
          "indexed": true,
          "internalType": "bytes32",
          "name": "id",
          "type": "bytes32"
        }
      ],
      "name": "ChainlinkFulfilled",
      "type": "event"
    },
    {
      "anonymous": false,
      "inputs": [
        {
          "indexed": true,
          "internalType": "bytes32",
          "name": "id",
          "type": "bytes32"
        }
      ],
      "name": "ChainlinkRequested",
      "type": "event"
    },
    {
      "anonymous": false,
      "inputs": [
        {
          "indexed": true,
          "internalType": "address",
          "name": "sender",
          "type": "address"
        },
        {
          "indexed": true,
          "internalType": "address",
          "name": "owner",
          "type": "address"
        },
        {
          "indexed": false,
          "internalType": "uint256",
          "name": "assets",
          "type": "uint256"
        },
        {
          "indexed": false,
          "internalType": "uint256",
          "name": "shares",
          "type": "uint256"
        }
      ],
      "name": "Deposit",
      "type": "event"
    },
    {
      "anonymous": false,
      "inputs": [
        {
          "indexed": false,
          "internalType": "uint8",
          "name": "version",
          "type": "uint8"
        }
      ],
      "name": "Initialized",
      "type": "event"
    },
    {
      "anonymous": false,
      "inputs": [
        {
          "indexed": true,
          "internalType": "address",
          "name": "sender",
          "type": "address"
        },
        {
          "indexed": true,
          "internalType": "uint256",
          "name": "amount",
          "type": "uint256"
        }
      ],
      "name": "OracleFeeSet",
      "type": "event"
    },
    {
      "anonymous": false,
      "inputs": [
        {
          "indexed": false,
          "internalType": "address",
          "name": "account",
          "type": "address"
        }
      ],
      "name": "Paused",
      "type": "event"
    },
    {
      "anonymous": false,
      "inputs": [
        {
          "indexed": true,
          "internalType": "address",
          "name": "from",
          "type": "address"
        },
        {
          "indexed": true,
          "internalType": "address",
          "name": "to",
          "type": "address"
        },
        {
          "indexed": false,
          "internalType": "uint256",
          "name": "value",
          "type": "uint256"
        }
      ],
      "name": "Transfer",
      "type": "event"
    },
    {
      "anonymous": false,
      "inputs": [
        {
          "indexed": false,
          "internalType": "address",
          "name": "account",
          "type": "address"
        }
      ],
      "name": "Unpaused",
      "type": "event"
    },
    {
      "anonymous": false,
      "inputs": [
        {
          "indexed": true,
          "internalType": "address",
          "name": "sender",
          "type": "address"
        },
        {
          "indexed": true,
          "internalType": "address",
          "name": "receiver",
          "type": "address"
        },
        {
          "indexed": true,
          "internalType": "address",
          "name": "owner",
          "type": "address"
        },
        {
          "indexed": false,
          "internalType": "uint256",
          "name": "assets",
          "type": "uint256"
        },
        {
          "indexed": false,
          "internalType": "uint256",
          "name": "shares",
          "type": "uint256"
        }
      ],
      "name": "Withdraw",
      "type": "event"
    },
    {
      "anonymous": false,
      "inputs": [],
      "name": "WithdrawPeriodEnded",
      "type": "event"
    },
    {
      "anonymous": false,
      "inputs": [
        {
          "indexed": false,
          "internalType": "uint256",
          "name": "date",
          "type": "uint256"
        }
      ],
      "name": "WithdrawPeriodSet",
      "type": "event"
    },
    {
      "anonymous": false,
      "inputs": [],
      "name": "WithdrawPeriodStarted",
      "type": "event"
    },
    {
      "anonymous": false,
      "inputs": [],
      "name": "WithdrawPeriodTriggered",
      "type": "event"
    },
    {
      "inputs": [],
      "name": "ENTRY_FEE",
      "outputs": [
        {
          "internalType": "uint256",
          "name": "",
          "type": "uint256"
        }
      ],
      "stateMutability": "view",
      "type": "function"
    },
    {
      "inputs": [],
      "name": "EXIT_FEE",
      "outputs": [
        {
          "internalType": "uint256",
          "name": "",
          "type": "uint256"
        }
      ],
      "stateMutability": "view",
      "type": "function"
    },
    {
      "inputs": [],
      "name": "GainsNetwork",
      "outputs": [
        {
          "internalType": "contract IGainsNetwork",
          "name": "",
          "type": "address"
        }
      ],
      "stateMutability": "view",
      "type": "function"
    },
    {
      "inputs": [],
      "name": "MAX_NUMBER_TRADES",
      "outputs": [
        {
          "internalType": "uint256",
          "name": "",
          "type": "uint256"
        }
      ],
      "stateMutability": "view",
      "type": "function"
    },
    {
      "inputs": [],
      "name": "MAX_TIME_DIFFERENCE",
      "outputs": [
        {
          "internalType": "uint256",
          "name": "",
          "type": "uint256"
        }
      ],
      "stateMutability": "view",
      "type": "function"
    },
    {
      "inputs": [],
      "name": "MIN_PERIOD_TIME",
      "outputs": [
        {
          "internalType": "uint256",
          "name": "",
          "type": "uint256"
        }
      ],
      "stateMutability": "view",
      "type": "function"
    },
    {
      "inputs": [],
      "name": "SWAP_FEE",
      "outputs": [
        {
          "internalType": "uint256",
          "name": "",
          "type": "uint256"
        }
      ],
      "stateMutability": "view",
      "type": "function"
    },
    {
      "inputs": [
        {
          "internalType": "address",
          "name": "owner",
          "type": "address"
        },
        {
          "internalType": "address",
          "name": "spender",
          "type": "address"
        }
      ],
      "name": "allowance",
      "outputs": [
        {
          "internalType": "uint256",
          "name": "",
          "type": "uint256"
        }
      ],
      "stateMutability": "view",
      "type": "function"
    },
    {
      "inputs": [
        {
          "internalType": "address",
          "name": "spender",
          "type": "address"
        },
        {
          "internalType": "uint256",
          "name": "amount",
          "type": "uint256"
        }
      ],
      "name": "approve",
      "outputs": [
        {
          "internalType": "bool",
          "name": "",
          "type": "bool"
        }
      ],
      "stateMutability": "nonpayable",
      "type": "function"
    },
    {
      "inputs": [],
      "name": "asset",
      "outputs": [
        {
          "internalType": "address",
          "name": "",
          "type": "address"
        }
      ],
      "stateMutability": "view",
      "type": "function"
    },
    {
      "inputs": [
        {
          "internalType": "address",
          "name": "account",
          "type": "address"
        }
      ],
      "name": "balanceOf",
      "outputs": [
        {
          "internalType": "uint256",
          "name": "",
          "type": "uint256"
        }
      ],
      "stateMutability": "view",
      "type": "function"
    },
    {
      "inputs": [
        {
          "internalType": "uint256",
          "name": "shares",
          "type": "uint256"
        }
      ],
      "name": "convertToAssets",
      "outputs": [
        {
          "internalType": "uint256",
          "name": "",
          "type": "uint256"
        }
      ],
      "stateMutability": "view",
      "type": "function"
    },
    {
      "inputs": [
        {
          "internalType": "uint256",
          "name": "assets",
          "type": "uint256"
        }
      ],
      "name": "convertToShares",
      "outputs": [
        {
          "internalType": "uint256",
          "name": "",
          "type": "uint256"
        }
      ],
      "stateMutability": "view",
      "type": "function"
    },
    {
      "inputs": [],
      "name": "currentUser",
      "outputs": [
        {
          "internalType": "uint256",
          "name": "__placeholder",
          "type": "uint256"
        }
      ],
      "stateMutability": "view",
      "type": "function"
    },
    {
      "inputs": [],
      "name": "decimals",
      "outputs": [
        {
          "internalType": "uint8",
          "name": "",
          "type": "uint8"
        }
      ],
      "stateMutability": "view",
      "type": "function"
    },
    {
      "inputs": [
        {
          "internalType": "address",
          "name": "spender",
          "type": "address"
        },
        {
          "internalType": "uint256",
          "name": "subtractedValue",
          "type": "uint256"
        }
      ],
      "name": "decreaseAllowance",
      "outputs": [
        {
          "internalType": "bool",
          "name": "",
          "type": "bool"
        }
      ],
      "stateMutability": "nonpayable",
      "type": "function"
    },
    {
      "inputs": [
        {
          "internalType": "uint256",
          "name": "assets",
          "type": "uint256"
        },
        {
          "internalType": "address",
          "name": "receiver",
          "type": "address"
        }
      ],
      "name": "deposit",
      "outputs": [
        {
          "internalType": "uint256",
          "name": "",
          "type": "uint256"
        }
      ],
      "stateMutability": "nonpayable",
      "type": "function"
    },
    {
      "inputs": [],
      "name": "endWithdrawPeriod",
      "outputs": [],
      "stateMutability": "nonpayable",
      "type": "function"
    },
    {
      "inputs": [
        {
          "internalType": "uint256",
          "name": "strategy",
          "type": "uint256"
        }
      ],
      "name": "executeStrategy",
      "outputs": [
        {
          "internalType": "bytes32",
          "name": "requestId",
          "type": "bytes32"
        }
      ],
      "stateMutability": "nonpayable",
      "type": "function"
    },
    {
      "inputs": [],
      "name": "extendApproval",
      "outputs": [],
      "stateMutability": "nonpayable",
      "type": "function"
    },
    {
      "inputs": [],
      "name": "forceWithdrawPeriod",
      "outputs": [],
      "stateMutability": "nonpayable",
      "type": "function"
    },
    {
      "inputs": [
        {
          "internalType": "bytes32",
          "name": "requestId",
          "type": "bytes32"
        },
        {
          "internalType": "uint256[]",
          "name": "data",
          "type": "uint256[]"
        }
      ],
      "name": "fulfill",
      "outputs": [],
      "stateMutability": "nonpayable",
      "type": "function"
    },
    {
      "inputs": [
        {
          "internalType": "address",
          "name": "spender",
          "type": "address"
        },
        {
          "internalType": "uint256",
          "name": "addedValue",
          "type": "uint256"
        }
      ],
      "name": "increaseAllowance",
      "outputs": [
        {
          "internalType": "bool",
          "name": "",
          "type": "bool"
        }
      ],
      "stateMutability": "nonpayable",
      "type": "function"
    },
    {
      "inputs": [
        {
          "internalType": "uint32",
          "name": "",
          "type": "uint32"
        }
      ],
      "name": "indexToStrategy",
      "outputs": [
        {
          "internalType": "uint256",
          "name": "",
          "type": "uint256"
        }
      ],
      "stateMutability": "view",
      "type": "function"
    },
    {
      "inputs": [
        {
          "internalType": "contract IERC20Upgradeable",
          "name": "__asset",
          "type": "address"
        },
        {
          "internalType": "uint256",
          "name": "startingBalance",
          "type": "uint256"
        },
        {
          "components": [
            {
              "internalType": "address",
              "name": "factoryOwner",
              "type": "address"
            },
            {
              "internalType": "address",
              "name": "vaultManager",
              "type": "address"
            },
            {
              "internalType": "address",
              "name": "chainLinkToken",
              "type": "address"
            },
            {
              "internalType": "address",
              "name": "oracleAddress",
              "type": "address"
            },
            {
              "internalType": "address",
              "name": "gainsAddress",
              "type": "address"
            }
          ],
          "internalType": "struct StartInfo",
          "name": "startingInfo",
          "type": "tuple"
        },
        {
          "internalType": "string",
          "name": "_name",
          "type": "string"
        },
        {
          "internalType": "string",
          "name": "_symbol",
          "type": "string"
        },
        {
          "internalType": "address[]",
          "name": "_equations",
          "type": "address[]"
        }
      ],
      "name": "initialize",
      "outputs": [],
      "stateMutability": "nonpayable",
      "type": "function"
    },
    {
      "inputs": [],
      "name": "isWithdrawPeriod",
      "outputs": [
        {
          "internalType": "bool",
          "name": "",
          "type": "bool"
        }
      ],
      "stateMutability": "view",
      "type": "function"
    },
    {
      "inputs": [
        {
          "internalType": "address",
          "name": "",
          "type": "address"
        }
      ],
      "name": "maxDeposit",
      "outputs": [
        {
          "internalType": "uint256",
          "name": "",
          "type": "uint256"
        }
      ],
      "stateMutability": "view",
      "type": "function"
    },
    {
      "inputs": [
        {
          "internalType": "address",
          "name": "",
          "type": "address"
        }
      ],
      "name": "maxMint",
      "outputs": [
        {
          "internalType": "uint256",
          "name": "",
          "type": "uint256"
        }
      ],
      "stateMutability": "view",
      "type": "function"
    },
    {
      "inputs": [
        {
          "internalType": "address",
          "name": "owner",
          "type": "address"
        }
      ],
      "name": "maxRedeem",
      "outputs": [
        {
          "internalType": "uint256",
          "name": "",
          "type": "uint256"
        }
      ],
      "stateMutability": "view",
      "type": "function"
    },
    {
      "inputs": [
        {
          "internalType": "address",
          "name": "owner",
          "type": "address"
        }
      ],
      "name": "maxWithdraw",
      "outputs": [
        {
          "internalType": "uint256",
          "name": "",
          "type": "uint256"
        }
      ],
      "stateMutability": "view",
      "type": "function"
    },
    {
      "inputs": [
        {
          "internalType": "uint256",
          "name": "shares",
          "type": "uint256"
        },
        {
          "internalType": "address",
          "name": "receiver",
          "type": "address"
        }
      ],
      "name": "mint",
      "outputs": [
        {
          "internalType": "uint256",
          "name": "",
          "type": "uint256"
        }
      ],
      "stateMutability": "nonpayable",
      "type": "function"
    },
    {
      "inputs": [],
      "name": "name",
      "outputs": [
        {
          "internalType": "string",
          "name": "",
          "type": "string"
        }
      ],
      "stateMutability": "view",
      "type": "function"
    },
    {
      "inputs": [],
      "name": "nextWithdrawPeriod",
      "outputs": [
        {
          "internalType": "uint256",
          "name": "",
          "type": "uint256"
        }
      ],
      "stateMutability": "view",
      "type": "function"
    },
    {
      "inputs": [],
      "name": "owner",
      "outputs": [
        {
          "internalType": "address",
          "name": "",
          "type": "address"
        }
      ],
      "stateMutability": "view",
      "type": "function"
    },
    {
      "inputs": [],
      "name": "pause",
      "outputs": [],
      "stateMutability": "nonpayable",
      "type": "function"
    },
    {
      "inputs": [],
      "name": "paused",
      "outputs": [
        {
          "internalType": "bool",
          "name": "",
          "type": "bool"
        }
      ],
      "stateMutability": "view",
      "type": "function"
    },
    {
      "inputs": [
        {
          "internalType": "bytes32",
          "name": "requestId",
          "type": "bytes32"
        },
        {
          "internalType": "uint256[]",
          "name": "data",
          "type": "uint256[]"
        }
      ],
      "name": "preformAction",
      "outputs": [],
      "stateMutability": "nonpayable",
      "type": "function"
    },
    {
      "inputs": [
        {
          "internalType": "uint256",
          "name": "assets",
          "type": "uint256"
        }
      ],
      "name": "previewDeposit",
      "outputs": [
        {
          "internalType": "uint256",
          "name": "",
          "type": "uint256"
        }
      ],
      "stateMutability": "view",
      "type": "function"
    },
    {
      "inputs": [
        {
          "internalType": "uint256",
          "name": "shares",
          "type": "uint256"
        }
      ],
      "name": "previewMint",
      "outputs": [
        {
          "internalType": "uint256",
          "name": "",
          "type": "uint256"
        }
      ],
      "stateMutability": "view",
      "type": "function"
    },
    {
      "inputs": [
        {
          "internalType": "uint256",
          "name": "shares",
          "type": "uint256"
        }
      ],
      "name": "previewRedeem",
      "outputs": [
        {
          "internalType": "uint256",
          "name": "",
          "type": "uint256"
        }
      ],
      "stateMutability": "view",
      "type": "function"
    },
    {
      "inputs": [
        {
          "internalType": "uint256",
          "name": "assets",
          "type": "uint256"
        }
      ],
      "name": "previewWithdraw",
      "outputs": [
        {
          "internalType": "uint256",
          "name": "",
          "type": "uint256"
        }
      ],
      "stateMutability": "view",
      "type": "function"
    },
    {
      "inputs": [
        {
          "internalType": "uint256",
          "name": "strategy",
          "type": "uint256"
        },
        {
          "internalType": "uint256[]",
          "name": "inputs",
          "type": "uint256[]"
        }
      ],
      "name": "processStrategy",
      "outputs": [
        {
          "internalType": "uint256",
          "name": "action",
          "type": "uint256"
        }
      ],
      "stateMutability": "view",
      "type": "function"
    },
    {
      "inputs": [
        {
          "internalType": "uint256",
          "name": "shares",
          "type": "uint256"
        },
        {
          "internalType": "address",
          "name": "receiver",
          "type": "address"
        },
        {
          "internalType": "address",
          "name": "owner",
          "type": "address"
        }
      ],
      "name": "redeem",
      "outputs": [
        {
          "internalType": "uint256",
          "name": "",
          "type": "uint256"
        }
      ],
      "stateMutability": "nonpayable",
      "type": "function"
    },
    {
      "inputs": [
        {
          "internalType": "bytes32",
          "name": "",
          "type": "bytes32"
        }
      ],
      "name": "requestToAction",
      "outputs": [
        {
          "internalType": "address",
          "name": "msgSender",
          "type": "address"
        },
        {
          "internalType": "address",
          "name": "receiver",
          "type": "address"
        },
        {
          "internalType": "uint256",
          "name": "amount",
          "type": "uint256"
        },
        {
          "internalType": "enum Choice",
          "name": "choice",
          "type": "uint8"
        },
        {
          "internalType": "uint256",
          "name": "slippage",
          "type": "uint256"
        }
      ],
      "stateMutability": "view",
      "type": "function"
    },
    {
      "inputs": [
        {
          "internalType": "bytes32",
          "name": "",
          "type": "bytes32"
        }
      ],
      "name": "requestToStrategy",
      "outputs": [
        {
          "internalType": "uint256",
          "name": "",
          "type": "uint256"
        }
      ],
      "stateMutability": "view",
      "type": "function"
    },
    {
      "inputs": [],
      "name": "returnStrategies",
      "outputs": [
        {
          "internalType": "address[]",
          "name": "",
          "type": "address[]"
        }
      ],
      "stateMutability": "view",
      "type": "function"
    },
    {
      "inputs": [
        {
          "internalType": "bytes32",
          "name": "",
          "type": "bytes32"
        }
      ],
      "name": "rewardBot",
      "outputs": [
        {
          "internalType": "uint256",
          "name": "masterFee",
          "type": "uint256"
        },
        {
          "internalType": "uint256",
          "name": "feeMultiplier",
          "type": "uint256"
        },
        {
          "internalType": "address",
          "name": "caller",
          "type": "address"
        }
      ],
      "stateMutability": "view",
      "type": "function"
    },
    {
      "inputs": [],
      "name": "setWithdrawPeriod",
      "outputs": [],
      "stateMutability": "nonpayable",
      "type": "function"
    },
    {
      "inputs": [],
      "name": "specialRefer",
      "outputs": [
        {
          "internalType": "address",
          "name": "",
          "type": "address"
        }
      ],
      "stateMutability": "view",
      "type": "function"
    },
    {
      "inputs": [
        {
          "internalType": "address",
          "name": "receiver",
          "type": "address"
        },
        {
          "internalType": "uint256",
          "name": "amount",
          "type": "uint256"
        },
        {
          "internalType": "enum Choice",
          "name": "choice",
          "type": "uint8"
        },
        {
          "internalType": "uint256",
          "name": "slippage",
          "type": "uint256"
        }
      ],
      "name": "startAction",
      "outputs": [
        {
          "internalType": "bytes32",
          "name": "requestId",
          "type": "bytes32"
        }
      ],
      "stateMutability": "nonpayable",
      "type": "function"
    },
    {
      "inputs": [
        {
          "internalType": "uint256",
          "name": "",
          "type": "uint256"
        }
      ],
      "name": "strategies",
      "outputs": [
        {
          "internalType": "address",
          "name": "",
          "type": "address"
        }
      ],
      "stateMutability": "view",
      "type": "function"
    },
    {
      "inputs": [
        {
          "internalType": "uint256",
          "name": "",
          "type": "uint256"
        }
      ],
      "name": "strategyToIndex",
      "outputs": [
        {
          "internalType": "uint32",
          "name": "",
          "type": "uint32"
        }
      ],
      "stateMutability": "view",
      "type": "function"
    },
    {
      "inputs": [],
      "name": "symbol",
      "outputs": [
        {
          "internalType": "string",
          "name": "",
          "type": "string"
        }
      ],
      "stateMutability": "view",
      "type": "function"
    },
    {
      "inputs": [],
      "name": "totalAssets",
      "outputs": [
        {
          "internalType": "uint256",
          "name": "",
          "type": "uint256"
        }
      ],
      "stateMutability": "view",
      "type": "function"
    },
    {
      "inputs": [],
      "name": "totalSupply",
      "outputs": [
        {
          "internalType": "uint256",
          "name": "",
          "type": "uint256"
        }
      ],
      "stateMutability": "view",
      "type": "function"
    },
    {
      "inputs": [],
      "name": "totalValueCollateral",
      "outputs": [
        {
          "internalType": "uint256",
          "name": "__placeholder",
          "type": "uint256"
        }
      ],
      "stateMutability": "view",
      "type": "function"
    },
    {
      "inputs": [
        {
          "internalType": "address",
          "name": "to",
          "type": "address"
        },
        {
          "internalType": "uint256",
          "name": "amount",
          "type": "uint256"
        }
      ],
      "name": "transfer",
      "outputs": [
        {
          "internalType": "bool",
          "name": "",
          "type": "bool"
        }
      ],
      "stateMutability": "nonpayable",
      "type": "function"
    },
    {
      "inputs": [
        {
          "internalType": "address",
          "name": "from",
          "type": "address"
        },
        {
          "internalType": "address",
          "name": "to",
          "type": "address"
        },
        {
          "internalType": "uint256",
          "name": "amount",
          "type": "uint256"
        }
      ],
      "name": "transferFrom",
      "outputs": [
        {
          "internalType": "bool",
          "name": "",
          "type": "bool"
        }
      ],
      "stateMutability": "nonpayable",
      "type": "function"
    },
    {
      "inputs": [],
      "name": "unpause",
      "outputs": [],
      "stateMutability": "nonpayable",
      "type": "function"
    },
    {
      "inputs": [],
      "name": "vaultManager",
      "outputs": [
        {
          "internalType": "address",
          "name": "",
          "type": "address"
        }
      ],
      "stateMutability": "view",
      "type": "function"
    },
    {
      "inputs": [
        {
          "internalType": "uint256",
          "name": "assets",
          "type": "uint256"
        },
        {
          "internalType": "address",
          "name": "receiver",
          "type": "address"
        },
        {
          "internalType": "address",
          "name": "owner",
          "type": "address"
        }
      ],
      "name": "withdraw",
      "outputs": [
        {
          "internalType": "uint256",
          "name": "",
          "type": "uint256"
        }
      ],
      "stateMutability": "nonpayable",
      "type": "function"
    },
    {
      "inputs": [],
      "name": "withdrawPeriodLength",
      "outputs": [
        {
          "internalType": "uint256",
          "name": "",
          "type": "uint256"
        }
      ],
      "stateMutability": "view",
      "type": "function"
    }
  ],
  "transactionHash": "0xdd237f49e0662f61d2f9d1d12aec064f9e8187181c98a0ab2906e3cdfca96b29",
  "args": [],
  "numDeployments": 1,
  "solcInputHash": "bf9015d70df5cbb197ee78ca7c742ef0",
  "bytecode": "0x60806040526001609b5560a080546001600160a01b03191673b46838207d4cdc3b0f6d8862b8f0d29fee9380511790553480156039575f80fd5b50609d805460ff19169055615b7c806100515f395ff3fe608060405234801561000f575f80fd5b50600436106102c8575f3560e01c806301e1d114146102cc57806306fdde03146102e757806307a2d13a146102fc578063095ea7b31461030f5780630a28a47714610332578063139a061a1461034557806318160ddd1461034e57806323b872dd1461035657806328e9edb914610369578063294ae5e41461037e5780632aa94add1461038b578063313ce567146103ab578063378f9ba1146103c557806338d52e0f146103cd57806339509351146103d55780633f4ba83a146103e8578063402d267d146103f05780634594726d146104035780634add7a0e146104165780634cdad506146104715780635c975abb1461048457806366c700061461048f57806368d31659146104a75780636e553f65146104bc57806370a08231146104cf57806375d1ff61146104e2578063768aebde146104eb5780637b22d40d146104f45780637d229d79146105135780637ea487971461054d5780638456cb591461055757806387666dbc1461055f578063887a2f72146105675780638a4adf241461057a5780638da5cb5b1461058d57806392ee03341461059e57806394bf804d146105a857806395d89b41146105bb5780639b785736146105c3578063a457c2d714610620578063a9059cbb14610633578063af8ff3a814610646578063b3d7f6b91461064e578063b460af9414610661578063ba08765214610674578063bceec4de14610687578063c63d75b6146103f0578063c6580d121461068f578063c6e6f59214610697578063ce96cb77146106aa578063d3520d2f146106bd578063d574ea3d146106d0578063d905777e146106e3578063d9599cf8146106f6578063d9966fb7146106fe578063dd62ed3e1461071d578063e7181f8314610730578063e973557114610743578063ec60640b1461074d578063ef8b30f714610760578063f6d361cc1461068f578063f97312be14610773575b5f80fd5b6102d461077b565b6040519081526020015b60405180910390f35b6102ef610845565b6040516102de919061490d565b6102d461030a36600461491f565b6108d5565b61032261031d36600461494a565b6108e6565b60405190151581526020016102de565b6102d461034036600461491f565b610907565b6102d4611c2081565b6035546102d4565b610322610364366004614974565b610938565b61037c610377366004614b3f565b610965565b005b60a2546103229060ff1681565b60a05461039e906001600160a01b031681565b6040516102de9190614c70565b6103b3610bad565b60405160ff90911681526020016102de565b61037c610bcb565b61039e610c51565b6103226103e336600461494a565b610c60565b61037c610c8b565b6102d46103fe366004614c84565b610cc8565b6102d4610411366004614cab565b610cce565b61044d61042436600461491f565b60aa6020525f90815260409020805460018201546002909201549091906001600160a01b031683565b6040805193845260208401929092526001600160a01b0316908201526060016102de565b6102d461047f36600461491f565b610e45565b609d5460ff16610322565b609d5461039e9061010090046001600160a01b031681565b6104af610e70565b6040516102de9190614cf0565b6102d46104ca366004614d3b565b610ecf565b6102d46104dd366004614c84565b610f47565b6102d460a15481565b6102d46107d081565b6102d4610502366004614d7a565b60a56020525f908152604090205481565b61053861052136600461491f565b60a46020525f908152604090205463ffffffff1681565b60405163ffffffff90911681526020016102de565b6102d462093a8081565b61037c610f61565b61037c610f9c565b6102d461057536600461491f565b611096565b609e5461039e906001600160a01b031681565b609e546001600160a01b031661039e565b60a9546102d49081565b6102d46105b6366004614d3b565b6112c5565b6102ef61133b565b61060f6105d136600461491f565b60a66020525f9081526040902080546001820154600283015460038401546004909401546001600160a01b03938416949290931692909160ff169085565b6040516102de959493929190614db9565b61032261062e36600461494a565b61134a565b61032261064136600461494a565b6113ce565b6102d4601481565b6102d461065c36600461491f565b6113e5565b6102d461066f366004614df4565b611407565b6102d4610682366004614df4565b611488565b61037c611501565b6102d4605081565b6102d46106a536600461491f565b61155c565b6102d46106b8366004614c84565b611567565b61037c6106cb366004614e33565b61157a565b61039e6106de36600461491f565b61193a565b6102d46106f1366004614c84565b611962565b6102d4600581565b6102d461070c36600461491f565b60a36020525f908152604090205481565b6102d461072b366004614ecf565b61196c565b6102d461073e366004614f42565b611996565b60a8546102d49081565b61037c61075b366004614f42565b6119d9565b6102d461076e36600461491f565b611d80565b61037c611ddd565b609d5460405163012feb5f60e61b81525f9182916101009091046001600160a01b031690634bfad7c0906107b3903090600401614c70565b5f60405180830381865afa1580156107cd573d5f803e3d5ffd5b505050506040513d5f823e601f3d908101601f191682016040526107f49190810190615135565b511561082c5760a85c5f0361081c576040516365207ee360e01b815260040160405180910390fd5b610829600160a85c6151db565b90505b80610835611e5e565b61083f91906151ee565b91505090565b60606036805461085490615201565b80601f016020809104026020016040519081016040528092919081815260200182805461088090615201565b80156108cb5780601f106108a2576101008083540402835291602001916108cb565b820191905f5260205f20905b8154815290600101906020018083116108ae57829003601f168201915b5050505050905090565b5f6108e0825f611ecd565b92915050565b5f806108f0611f05565b90506108fd818585611f1b565b5060019392505050565b5f8061091d8360505b610918611f05565b61203e565b905061093161092c82856151ee565b6120f0565b9392505050565b5f80610942611f05565b905061094f8582856120fc565b61095a85858561216e565b506001949350505050565b5f54610100900460ff161580801561098357505f54600160ff909116105b806109a3575061099230612304565b1580156109a357505f5460ff166001145b610a0b5760405162461bcd60e51b815260206004820152602e60248201527f496e697469616c697a61626c653a20636f6e747261637420697320616c72656160448201526d191e481a5b9a5d1a585b1a5e995960921b60648201526084015b60405180910390fd5b5f805460ff191660011790558015610a2c575f805461ff0019166101001790555b610a3587612313565b610a3f8484612345565b8151610a529060a7906020850190614868565b506080850151609d80546001600160a01b0392831661010002610100600160a81b03199091161790556020860151609e80549282166001600160a01b0319938416179055609f80549092163317909155610aad908790612379565b610ab961271030612379565b610aeb610ac8612710886151ee565b6040518060400160405280600581526020016414d510549560da1b8152506123c1565b608085015160405163095ea7b360e01b81526001600160a01b0389169163095ea7b391610b1e91905f1990600401615233565b6020604051808303815f875af1158015610b3a573d5f803e3d5ffd5b505050506040513d601f19601f82011682018060405250810190610b5e919061524c565b508015610ba4575f805461ff0019169055604051600181527f7f26b83ff96e1f2b6a682f133852f6798a09c465da95921460cefb38474024989060200160405180910390a15b50505050505050565b5f80606554610bc69190600160a01b900460ff16615265565b905090565b609e546001600160a01b03163314610bf657604051635da1b0cd60e01b815260040160405180910390fd5b60a25460ff1615610c1a5760405163e924646d60e01b815260040160405180910390fd5b60a2805460ff191660011790556040517fd74c5fa9af4590aee270bd27cd4ab3b9c25a31f9baf15e37647f759fc7fc3478905f90a1565b6065546001600160a01b031690565b5f80610c6a611f05565b90506108fd818585610c7c858961196c565b610c8691906151ee565b611f1b565b610c93612406565b609e546001600160a01b03163314610cbe57604051635da1b0cd60e01b815260040160405180910390fd5b610cc6612429565b565b505f1990565b5f6002836002811115610ce357610ce3614d95565b03610cf057610cf0612471565b609f5460ab5460405163df7b659f60e01b81526001600160a01b039092169163df7b659f91610d259160040190815260200190565b6020604051808303815f875af1158015610d41573d5f803e3d5ffd5b505050506040513d601f19601f82011682018060405250810190610d65919061527e565b90506040518060a00160405280336001600160a01b03168152602001866001600160a01b03168152602001858152602001846002811115610da857610da8614d95565b815260209081018490525f83815260a68252604090819020835181546001600160a01b039182166001600160a01b03199182161783559385015160018084018054929093169190951617905590830151600280830191909155606084015160038301805493949193909260ff1990911691908490811115610e2b57610e2b614d95565b021790555060808201518160040155905050949350505050565b5f80610e50836108d5565b9050610e668160505b610e61611f05565b612521565b61093190826151db565b606060a78054806020026020016040519081016040528092919081815260200182805480156108cb57602002820191905f5260205f20905b81546001600160a01b03168152600190910190602001808311610ea8575050505050905090565b5f610ed982610cc8565b831115610f285760405162461bcd60e51b815260206004820152601e60248201527f455243343632363a206465706f736974206d6f7265207468616e206d617800006044820152606401610a02565b5f610f3284611d80565b9050610931610f3f611f05565b848684612595565b6001600160a01b03165f9081526033602052604090205490565b610f69612650565b609e546001600160a01b03163314610f9457604051635da1b0cd60e01b815260040160405180910390fd5b610cc6612674565b6040516370a0823160e01b815230906370a0823190610fbf903390600401614c70565b602060405180830381865afa158015610fda573d5f803e3d5ffd5b505050506040513d601f19601f82011682018060405250810190610ffe919061527e565b5f0361101f5733604051635b9d0f5f60e01b8152600401610a029190614c70565b611c2060a15461102f91906151ee565b421161104e57604051630845abdd60e11b815260040160405180910390fd5b61105b62093a80426151ee565b60a18190556040519081527fb8e909941cb1dd3235722e1e2906514c50bc5ebd9f57302e8a4a21aee75a6750906020015b60405180910390a1565b5f61109f612650565b60a15442101580156110c05750611c2060a1546110bc91906151ee565b4211155b156110de57604051632d477bfb60e21b815260040160405180910390fd5b60a25460ff161561110257604051632d477bfb60e21b815260040160405180910390fd5b5f8061113360a7858154811061111a5761111a615295565b5f918252602090912001546001600160a01b03166126b2565b8060200190518101906111469190615365565b50609f5460ab54604051631f0fa37560e21b81529395509193506001600160a01b031691637c3e8dd491611180913391869160040161544a565b6020604051808303815f875af115801561119c573d5f803e3d5ffd5b505050506040513d601f19601f820116820180604052508101906111c0919061527e565b5f81815260a3602052604090819020869055805160608101909152609f54919450908190611270906001600160a01b0316632e46f0366111fe610c51565b6040518263ffffffff1660e01b815260040161121a9190614c70565b602060405180830381865afa158015611235573d5f803e3d5ffd5b505050506040513d601f19601f82011682018060405250810190611259919061527e565b6112649060026154d5565b85620f424060016126d3565b8152602080820194909452336040918201525f85815260aa8552819020825181559382015160018501550151600290920180546001600160a01b0319166001600160a01b039093169290921790915550919050565b5f6112cf82610cc8565b83111561131c5760405162461bcd60e51b815260206004820152601b60248201527a08aa486686c646c7440dad2dce840dadee4ca40e8d0c2dc40dac2f602b1b6044820152606401610a02565b5f611326846113e5565b9050610931611333611f05565b848387612595565b60606037805461085490615201565b5f80611354611f05565b90505f611361828661196c565b9050838110156113c15760405162461bcd60e51b815260206004820152602560248201527f45524332303a2064656372656173656420616c6c6f77616e63652062656c6f77604482015264207a65726f60d81b6064820152608401610a02565b61095a8286868403611f1b565b5f806113d8611f05565b90506108fd81858561216e565b5f806113f083612716565b90506113fd816050610910565b61093190826151ee565b5f61141182611567565b8411156114605760405162461bcd60e51b815260206004820152601f60248201527f455243343632363a207769746864726177206d6f7265207468616e206d6178006044820152606401610a02565b5f61146a85610907565b9050611480611477611f05565b85858885612722565b949350505050565b5f61149282611962565b8411156114e15760405162461bcd60e51b815260206004820152601d60248201527f455243343632363a2072656465656d206d6f7265207468616e206d61780000006044820152606401610a02565b5f6114eb85610e45565b90506114806114f8611f05565b85858489612722565b609d546115309061010090046001600160a01b03165f196115206127ef565b6001600160a01b031691906127f8565b60405133907fc024f0024e98f69c1d2646892abdc79f3dba1964f11b19bd049a78283d94e1c6905f90a2565b5f6108e0825f6128c2565b5f6108e061157483610f47565b5f611ecd565b609f546001600160a01b031633146115a557604051631e0b442760e31b815260040160405180910390fd5b5f82815260a660209081526040808320815160a08101835281546001600160a01b039081168252600183015416938101939093526002808201549284019290925260038101549091606084019160ff169081111561160557611605614d95565b600281111561161657611616614d95565b81526004919091015460209091015280519091506116369060a990612934565b611665825f8151811061164b5761164b615295565b6020026020010151601261165d610bad565b60ff1661293b565b825f8151811061167757611677615295565b6020026020010181815250506116db5f835f8151811061169957611699615295565b6020026020010151116116ad5760016116d3565b825f815181106116bf576116bf615295565b602002602001015160016116d391906151ee565b60a890612934565b4260146116ea6012600a6155c7565b846001815181106116fd576116fd615295565b602002602001015161170f91906155e6565b61171991906151ee565b10156117765761172b6012600a6155c7565b8260018151811061173e5761173e615295565b602002602001015161175091906155e6565b61175a90426151db565b60405163bc6739ef60e01b8152600401610a0291815260200190565b5f808260600151600281111561178e5761178e614d95565b0361182d5760408083015160208401519151636e553f6560e01b81523092636e553f65926117c1929091906004016155f9565b6020604051808303815f875af11580156117dd573d5f803e3d5ffd5b505050506040513d601f19601f82011682018060405250810190611801919061527e565b90508082608001511115611828576040516307dd37f760e41b815260040160405180910390fd5b61191e565b60018260600151600281111561184557611845614d95565b036118df57604080830151602084015191516394bf804d60e01b815230926394bf804d92611878929091906004016155f9565b6020604051808303815f875af1158015611894573d5f803e3d5ffd5b505050506040513d601f19601f820116820180604052508101906118b8919061527e565b90508082608001511015611828576040516307dd37f760e41b815260040160405180910390fd5b6002826060015160028111156118f7576118f7614d95565b03611905576118288361299c565b604051634a7f394f60e01b815260040160405180910390fd5b61192960a85f612934565b61193460a95f612934565b50505050565b60a78181548110611949575f80fd5b5f918252602090912001546001600160a01b0316905081565b5f6108e082610f47565b6001600160a01b039182165f90815260346020908152604080832093909416825291909152205490565b5f806119ae60a7868154811061111a5761111a615295565b8060200190518101906119c19190615365565b925050506119d0818585612c01565b95945050505050565b6119e1612650565b609f546001600160a01b03163314611a0c57604051631e0b442760e31b815260040160405180910390fd5b60a1544210158015611a2d5750611c2060a154611a2991906151ee565b4211155b15611a4b57604051632d477bfb60e21b815260040160405180910390fd5b60a25460ff1615611a6f57604051632d477bfb60e21b815260040160405180910390fd5b426014611a7e6012600a6155c7565b84846001818110611a9157611a91615295565b90506020020135611aa291906155e6565b611aac91906151ee565b1015611ae257611abe6012600a6155c7565b82826001818110611ad157611ad1615295565b9050602002013561175091906155e6565b5f83815260a3602052604081205490611b028261073e8560028189615610565b9050805f03611b24576040516397587a3360e01b815260040160405180910390fd5b5f82815260a4602052604081205463ffffffff1690819003611bca57609d54604051630109786b60e11b81525f9161010090046001600160a01b031690630212f0d690611b77903090859060040161563b565b606060405180830381865afa158015611b92573d5f803e3d5ffd5b505050506040513d601f19601f82011682018060405250810190611bb69190615668565b8051909150611bc69060016156d7565b9150505b5f86815260aa6020908152604091829020825160608101845281548152600180830154938201939093526002909101546001600160a01b031692810192909252611c4c90611c1890846156f3565b6305f5e10088885f818110611c2f57611c2f615295565b90506020020135611c4091906155e6565b83602001518688612c19565b6040810151609f54611cef91906003906001600160a01b0316632e46f036611c72610c51565b6040518263ffffffff1660e01b8152600401611c8e9190614c70565b602060405180830381865afa158015611ca9573d5f803e3d5ffd5b505050506040513d601f19601f82011682018060405250810190611ccd919061527e565b611cd791906155e6565b611cdf6127ef565b6001600160a01b031691906134f2565b609f54610ba4906001600160a01b0316600381632e46f036611d0f610c51565b6040518263ffffffff1660e01b8152600401611d2b9190614c70565b602060405180830381865afa158015611d46573d5f803e3d5ffd5b505050506040513d601f19601f82011682018060405250810190611d6a919061527e565b611d7491906155e6565b8351611cd791906151db565b5f80611d8d836050610e59565b9050611dd06040518060400160405280600f81526020016e1c1c995d9a595dc819195c1bdcda5d608a1b8152508483611dcb85886106a591906151db565b613511565b6109316106a582856151db565b609e546001600160a01b03163314611e0857604051635da1b0cd60e01b815260040160405180910390fd5b60a25460ff16611e2a57604051621dc89d60eb1b815260040160405180910390fd5b60a2805460ff191690556040517f30f7f671b7b3f1721d1dc2ec24eacfaa4d1af9ee1606f8ed90892cc86721a97b905f90a1565b6065546040516370a0823160e01b81525f916001600160a01b0316906370a0823190611e8e903090600401614c70565b602060405180830381865afa158015611ea9573d5f803e3d5ffd5b505050506040513d601f19601f82011682018060405250810190610bc6919061527e565b5f610931611ed961077b565b611ee49060016151ee565b611eef5f600a61570f565b603554611efc91906151ee565b8591908561355a565b5f60a85c5f03611f1457503390565b5060a95c90565b6001600160a01b038316611f7d5760405162461bcd60e51b8152602060048201526024808201527f45524332303a20617070726f76652066726f6d20746865207a65726f206164646044820152637265737360e01b6064820152608401610a02565b6001600160a01b038216611fde5760405162461bcd60e51b815260206004820152602260248201527f45524332303a20617070726f766520746f20746865207a65726f206164647265604482015261737360f01b6064820152608401610a02565b6001600160a01b038381165f8181526034602090815260408083209487168084529482529182902085905590518481527f8c5be1e5ebec7d5bd14f71427d1e84f3dd0314c0f7b2291e5b200ac8c7c3b925910160405180910390a3505050565b5f805f612049613594565b91509150816001600160a01b0316846001600160a01b0316148061207e5750806001600160a01b0316846001600160a01b0316145b156120c75760a85c15155b156120bd5760026120986135ab565b6120a291906155e6565b6120aa6135ab565b6120b491906151db565b92505050610931565b5f92505050610931565b6120e66120d26135ab565b6120e18888612710600161355a565b6136bb565b9695505050505050565b5f6108e08260016128c2565b5f612107848461196c565b90505f19811461193457818110156121615760405162461bcd60e51b815260206004820152601d60248201527f45524332303a20696e73756666696369656e7420616c6c6f77616e63650000006044820152606401610a02565b6119348484848403611f1b565b6001600160a01b0383166121d25760405162461bcd60e51b815260206004820152602560248201527f45524332303a207472616e736665722066726f6d20746865207a65726f206164604482015264647265737360d81b6064820152608401610a02565b6001600160a01b0382166122345760405162461bcd60e51b815260206004820152602360248201527f45524332303a207472616e7366657220746f20746865207a65726f206164647260448201526265737360e81b6064820152608401610a02565b6001600160a01b0383165f90815260336020526040902054818110156122ab5760405162461bcd60e51b815260206004820152602660248201527f45524332303a207472616e7366657220616d6f756e7420657863656564732062604482015265616c616e636560d01b6064820152608401610a02565b6001600160a01b038085165f8181526033602052604080822086860390559286168082529083902080548601905591515f80516020615b07833981519152906122f79086815260200190565b60405180910390a3611934565b6001600160a01b03163b151590565b5f54610100900460ff166123395760405162461bcd60e51b8152600401610a029061571d565b612342816136d0565b50565b5f54610100900460ff1661236b5760405162461bcd60e51b8152600401610a029061571d565b6123758282613753565b5050565b6123838183613792565b806001600160a01b0316816001600160a01b03165f80516020615b2783398151915284856040516123b5929190615768565b60405180910390a35050565b61237582826040516024016123d7929190615776565b60408051601f198184030181529190526020810180516001600160e01b031663643fd0df60e01b17905261383e565b609d5460ff16610cc657604051638dfc202b60e01b815260040160405180910390fd5b612431612406565b609d805460ff191690557f5db9ee0a495bf2e6ff9c91a7834c1ba4fdd244a5e8aa4e537bd38aeae4b073aa612464611f05565b60405161108c9190614c70565b60a25460ff161561247e57565b60a1545f036124a057604051631a74eea960e11b815260040160405180910390fd5b60a1544210156124d4574260a1546124b891906151db565b604051632974c4e760e01b8152600401610a0291815260200190565b60a1546124e390611c206151ee565b421115610cc657611c2060a154426124fb91906151db565b61250591906151db565b6040516370f2e52b60e01b8152600401610a0291815260200190565b5f805f61252c613594565b91509150816001600160a01b0316846001600160a01b031614806125615750806001600160a01b0316846001600160a01b0316145b156125705760a85c1515612089565b6120e661257b6135ab565b6120e18761258b612710826151ee565b8a9190600161355a565b5f6125a1836050610e59565b90505f806125ad613594565b915091506125bd87878787613847565b5f831180156125dd5750856001600160a01b0316816001600160a01b0316145b156125f9576125f46125ed610c51565b83856134f2565b610ba4565b5f8311801561261157506001600160a01b0381163014155b156125f4575f80612621856138a9565b91509150612637612630610c51565b85846134f2565b612649612642610c51565b84836134f2565b5050610ba4565b609d5460ff1615610cc65760405163d93c066560e01b815260040160405180910390fd5b61267c612650565b609d805460ff191660011790557f62e78cea01bee320cd4e420270b5ea74000d11b0c9f74754ebdbfc544b05a258612464611f05565b60606108e08260016126ce816001600160a01b0384163b6151db565b6138d4565b5f806126e08686866138f7565b90506126eb836139b6565b801561270657505f8480612701576127016155d2565b868809115b156119d0576120e66001826151ee565b5f6108e0826001611ecd565b5f61272e836050610910565b90505f8061273a613594565b915091505f8311801561275e5750866001600160a01b0316816001600160a01b0316145b156127735761276e6125ed610c51565b6127d8565b5f831180156127935750866001600160a01b0316826001600160a01b0316145b156127aa5761276e6127a3610c51565b82856134f2565b82156127d8575f806127bb856138a9565b915091506127ca612630610c51565b6127d5612642610c51565b50505b6127e588888888886139e2565b5050505050505050565b5f610bc6610c51565b5f63095ea7b360e01b8383604051602401612814929190615233565b60408051601f198184030181529190526020810180516001600160e01b03166001600160e01b03199093169290921790915290506128528482613a85565b611934576040516001600160a01b03841660248201525f60448201526128b890859063095ea7b360e01b906064015b60408051601f198184030181529190526020810180516001600160e01b03166001600160e01b031990931692909217909152613b18565b6119348482613b18565b5f61290660405180604001604052806011815260200170436f6e7665727420746f2073686172657360781b8152506128f960355490565b61290161077b565b613beb565b6109316129145f600a61570f565b60355461292191906151ee565b61292961077b565b611efc9060016151ee565b80825d5050565b5f8282101561296e575f61294f83856151db565b905061295c81600a6155c7565b61296690866155e6565b945050612994565b5f61297984846151db565b905061298681600a6155c7565b61299090866154d5565b9450505b509192915050565b6040517fcbc5bf20f93ea8eb1cc4d5eb40f34e927aa598cd803e6810532654d45750accc905f90a1609d5460405163012feb5f60e61b81525f9161010090046001600160a01b031690634bfad7c0906129f9903090600401614c70565b5f60405180830381865afa158015612a13573d5f803e3d5ffd5b505050506040513d5f823e601f3d908101601f19168201604052612a3a9190810190615135565b905080515f03612a48575050565b80518251612a58906002906151db565b8114612a7b57825160405163285251c760e01b8152610a02918391600401615768565b60025b8351811015612b8257609d5461010090046001600160a01b03166336ce736b84612aa96002856151db565b81518110612ab957612ab9615295565b602002602001015160200151612aeb878581518110612ada57612ada615295565b60200260200101516012600a61293b565b6040518363ffffffff1660e01b8152600401612b0892919061578e565b5f604051808303815f87803b158015612b1f575f80fd5b505af1158015612b31573d5f803e3d5ffd5b505050505f60a55f85600285612b4791906151db565b81518110612b5757612b57615295565b60209081029190910181015181015163ffffffff1682528101919091526040015f2055600101612a7e565b50609f54612bfc906001600160a01b03168063bb9b3d91612ba1610c51565b6040518263ffffffff1660e01b8152600401612bbd9190614c70565b602060405180830381865afa158015612bd8573d5f803e3d5ffd5b505050506040513d601f19601f82011682018060405250810190611cd7919061527e565b505050565b5f80612c0f855f8686613c32565b5095945050505050565b60fc82901c80158015612c3e57505f82815260a4602052604090205463ffffffff1615155b15612c5c5760405163c976754d60e01b815260040160405180910390fd5b8015801590612c7c57505f82815260a4602052604090205463ffffffff16155b15612c9a57604051631b92e95360e31b815260040160405180910390fd5b80158015612d1d5750609d5460405163012feb5f60e61b815260059161010090046001600160a01b031690634bfad7c090612cd9903090600401614c70565b5f60405180830381865afa158015612cf3573d5f803e3d5ffd5b505050506040513d5f823e601f3d908101601f19168201604052612d1a9190810190615135565b51145b15612dc057609d5460405163012feb5f60e61b81526101009091046001600160a01b031690634bfad7c090612d56903090600401614c70565b5f60405180830381865afa158015612d70573d5f803e3d5ffd5b505050506040513d5f823e601f3d908101601f19168201604052612d979190810190615135565b51612da39060016151ee565b6005604051636cf5825960e11b8152600401610a02929190615768565b805f03612ed5575f80612dd4858989613f7b565b91509150612df08261010001516001600160781b03168761424c565b8261010001818151612e0291906157ad565b6001600160781b0316905250609d5460a05460405163111970f960e21b81526001600160a01b03610100909304831692634465c3e492612e4e92879260ec8c901c9216906004016157d9565b5f604051808303815f87803b158015612e65575f80fd5b505af1158015612e77573d5f803e3d5ffd5b50505050836001612e8891906151ee565b63ffffffff89165f90815260a56020526040902055612ea88860016156d7565b5f85815260a460205260409020805463ffffffff191663ffffffff92909216919091179055506134ea9050565b80600103612f6457609d5461010090046001600160a01b031663b5d9e9d087612f156001600160401b03891660dc88901c63ffffffff16620f42406138f7565b6040518363ffffffff1660e01b8152600401612f3292919061578e565b5f604051808303815f87803b158015612f49575f80fd5b505af1158015612f5b573d5f803e3d5ffd5b505050506134ea565b80600203612fa457609d5461010090046001600160a01b031663f401f2bb87612f156001600160401b03891660dc88901c63ffffffff16620f42406138f7565b8060030361307c57609d5461010090046001600160a01b031663a4bb127e87612fe46001600160401b03891660cc88901c63ffffffff16620f42406138f7565b613005896001600160401b031660ac89901c63ffffffff16620f42406138f7565b6130268a6001600160401b0316608c8a901c63ffffffff16620f42406138f7565b6040516001600160e01b031960e087901b16815263ffffffff9490941660048501526001600160401b039283166024850152908216604484015216606482015261ffff60ec87901c16608482015260a401612f32565b8060040361310057609d54604051638588633360e01b815263ffffffff881660048201526101009091046001600160a01b0316906385886333906024015f604051808303815f87803b1580156130d0575f80fd5b505af11580156130e2573d5f803e3d5ffd5b50505063ffffffff87165f90815260a56020526040812055506134ea565b8060050361319f57609d546040516336ce736b60e01b81526101009091046001600160a01b0316906336ce736b9061313e908990899060040161578e565b5f604051808303815f87803b158015613155575f80fd5b505af1158015613167573d5f803e3d5ffd5b50505063ffffffff87165f90815260a56020908152604080832083905585835260a49091529020805463ffffffff19169055506134ea565b806006036131f057609d546040516305e74d5560e11b815263ffffffff8816600482015262ffffff60e486901c1660248201526101009091046001600160a01b031690630bce9aaa90604401612f32565b8060070361335757609d546040516315878e0760e01b81525f9161010090046001600160a01b0316906315878e079061322f9030908b9060040161592b565b6101a060405180830381865afa15801561324b573d5f803e3d5ffd5b505050506040513d601f19601f8201168201806040525081019061326f919061594a565b609d54610100808301519293506001600160a01b039104169063a7cac5729089906132b1906001600160781b031663ffffffff60dc8a901c16620f42406138f7565b60c488901c6132d78b6001600160401b031660a48b901c63ffffffff16620f42406138f7565b6040516001600160e01b031960e087901b16815263ffffffff9490941660048501526001600160781b03909216602484015262ffffff1660448301526001600160401b031660648201526084015f604051808303815f87803b15801561333b575f80fd5b505af115801561334d573d5f803e3d5ffd5b50505050506134ea565b806008036134ea57609d546040516315878e0760e01b81525f9161010090046001600160a01b0316906315878e07906133969030908b9060040161592b565b6101a060405180830381865afa1580156133b2573d5f803e3d5ffd5b505050506040513d601f19601f820116820180604052508101906133d6919061594a565b90505f6133ff8261010001516001600160781b031660cc87901c63ffffffff16620f42406138f7565b9050613414816001600160781b03168761424c565b61341e90826157ad565b609d5490915061010090046001600160a01b03166324058ad3898360b489901c61345f6001600160401b038d1660948c901c63ffffffff16620f42406138f7565b6040516001600160e01b031960e087901b16815263ffffffff9490941660048501526001600160781b03909216602484015262ffffff1660448301526001600160401b0316606482015261ffff60ec89901c16608482015260a4015f604051808303815f87803b1580156134d1575f80fd5b505af11580156134e3573d5f803e3d5ffd5b5050505050505b505050505050565b612bfc8363a9059cbb60e01b8484604051602401612881929190615233565b6119348484848460405160240161352b9493929190615965565b60408051601f198184030181529190526020810180516001600160e01b031663a7a8785360e01b17905261383e565b5f8061356786868661429f565b9050600183600281111561357d5761357d614d95565b14801561270657505f8480612701576127016155d2565b609f54609e546001600160a01b0391821692911690565b609d5460405163012feb5f60e61b81525f9182916101009091046001600160a01b031690634bfad7c0906135e3903090600401614c70565b5f60405180830381865afa1580156135fd573d5f803e3d5ffd5b505050506040513d5f823e601f3d908101601f191682016040526136249190810190615135565b905080515f036136a257609f546001600160a01b031663bb9b3d91613647610c51565b6040518263ffffffff1660e01b81526004016136639190614c70565b602060405180830381865afa15801561367e573d5f803e3d5ffd5b505050506040513d601f19601f8201168201806040525081019061083f919061527e565b609f546001600160a01b0316632e46f036613647610c51565b5f8183116136c95781610931565b5090919050565b5f54610100900460ff166136f65760405162461bcd60e51b8152600401610a029061571d565b5f806137018361437a565b9150915081613711576012613713565b805b606580546001600160a01b039095166001600160a01b031960ff93909316600160a01b02929092166001600160a81b031990951694909417179092555050565b5f54610100900460ff166137795760405162461bcd60e51b8152600401610a029061571d565b603661378583826159de565b506037612bfc82826159de565b6001600160a01b0382166137e85760405162461bcd60e51b815260206004820152601f60248201527f45524332303a206d696e7420746f20746865207a65726f2061646472657373006044820152606401610a02565b8060355f8282546137f991906151ee565b90915550506001600160a01b0382165f818152603360209081526040808320805486019055518481525f80516020615b07833981519152910160405180910390a35050565b61234281614450565b60655461385f906001600160a01b031685308561446f565b6138698382613792565b826001600160a01b0316846001600160a01b03165f80516020615b27833981519152848460405161389b929190615768565b60405180910390a350505050565b5f806138b66002846155e6565b6138c16002856155e6565b6138cb90856151db565b91509150915091565b60408051603f8301601f19168101909152818152818360208301863c9392505050565b5f838302815f1985870982811083820303915050805f0361392b57838281613921576139216155d2565b0492505050610931565b80841161394b5760405163227bc15360e01b815260040160405180910390fd5b5f848688095f868103871696879004966002600389028118808a02820302808a02820302808a02820302808a02820302808a02820302808a02909103029181900381900460010186841190950394909402919094039290920491909117919091029150509392505050565b5f60028260038111156139cb576139cb614d95565b6139d59190615a98565b60ff166001149050919050565b826001600160a01b0316856001600160a01b031614613a0657613a068386836120fc565b613a1083826144a7565b606554613a27906001600160a01b031685846134f2565b826001600160a01b0316846001600160a01b0316866001600160a01b03167ffbde797d201c681b91056529119e0b02407c7bb96a4a2c75c01fc9667232c8db8585604051613a76929190615768565b60405180910390a45050505050565b5f805f846001600160a01b031684604051613aa09190615ab9565b5f604051808303815f865af19150503d805f8114613ad9576040519150601f19603f3d011682016040523d82523d5f602084013e613ade565b606091505b5091509150818015613b08575080511580613b08575080806020019051810190613b08919061524c565b80156119d057506119d085612304565b5f613b6c826040518060400160405280602081526020017f5361666545524332303a206c6f772d6c6576656c2063616c6c206661696c6564815250856001600160a01b03166145c69092919063ffffffff16565b905080515f1480613b8c575080806020019051810190613b8c919061524c565b612bfc5760405162461bcd60e51b815260206004820152602a60248201527f5361666545524332303a204552433230206f7065726174696f6e20646964206e6044820152691bdd081cdd58d8d9595960b21b6064820152608401610a02565b612bfc838383604051602401613c0393929190615acf565b60408051601f198184030181529190526020810180516001600160e01b031663ca47c4eb60e01b17905261383e565b5f805f868681518110613c4757613c47615295565b016020015160f81c90505f613c5d8760016151ee565b905060ff8216613c8757613c7188826145d4565b613c7c8260206151ee565b935093505050613f72565b5f1960ff831601613d19575f613c9d89836145d4565b9050858110613ce75760405162461bcd60e51b8152602060048201526016602482015275092dcecc2d8d2c840ecc2e4d2c2c4d8ca40d2dcc8caf60531b6044820152606401610a02565b868682818110613cf957613cf9615295565b90506020020135826020613d0d91906151ee565b94509450505050613f72565b5f80613d278a848a8a613c32565b9350915060011960ff851601613d4e57613d408261462a565b839550955050505050613f72565b60021960ff851601613d7a578115613d66575f613d69565b60015b60ff169550919350613f7292505050565b613d868a848a8a613c32565b9350905060031960ff851601613da057613d4081836151ee565b60041960ff851601613db657613d4081836151db565b60051960ff851601613dcc57613d4081836154d5565b60061960ff851601613de257613d4081836155e6565b60071960ff851601613df857613d4082826146a0565b60081960ff851601613e2157670de0b6b3a7640000613e1782846154d5565b613d4091906155e6565b60091960ff851601613e3a57808214613d66575f613d69565b600a1960ff851601613e5357808203613d66575f613d69565b600b1960ff851601613e6c57808210613d66575f613d69565b600c1960ff851601613e8557808211613d66575f613d69565b600d1960ff851601613e9f5780821115613d66575f613d69565b600e1960ff851601613eb95780821015613d66575f613d69565b600f1960ff851601613edd578115801590613ed357508015155b613d66575f613d69565b60101960ff851601613efd5781151580613ed3575080613d66575f613d69565b60111960ff851601613f39575f613f168b858b8b613c32565b945090505f839003613f285780613f2a565b815b84965096505050505050613f72565b60405162461bcd60e51b815260206004820152600e60248201526d496e76616c6964206f70636f646560901b6044820152606401610a02565b94509492505050565b604080516101a0810182525f80825260208201819052918101829052606081018290526080810182905260a0810182905260c0810182905260e081018290526101008101829052610120810182905261014081018290526101608101829052610180810191909152609884901c5f61406e613ff4610c51565b6001600160a01b03166370a08231306040518263ffffffff1660e01b815260040161401f9190614c70565b602060405180830381865afa15801561403a573d5f803e3d5ffd5b505050506040513d601f19601f8201168201806040525081019061405e919061527e565b8363ffffffff16620f42406138f7565b9050614078610c51565b6001600160a01b03166370a08231306040518263ffffffff1660e01b81526004016140a39190614c70565b602060405180830381865afa1580156140be573d5f803e3d5ffd5b505050506040513d601f19601f820116820180604052508101906140e2919061527e565b816001600160781b0316111561410b57604051631e9acf1760e31b815260040160405180910390fd5b604080516101a08101825230815263ffffffff8716602082015261ffff60dc89901c169181019190915262ffffff60c488901c166060820152600160c31b871615156080820152600160c21b8716151560a082015260ff60ba88901c1660c082015260e08101600360b889901c16600281111561418a5761418a614d95565b600281111561419b5761419b614d95565b8152602001826001600160781b031681526020016141d0866001600160401b031660788a901c63ffffffff16620f42406138f7565b6001600160401b031681526020016141ff866001600160401b031660588a901c63ffffffff16620f42406138f7565b6001600160401b0316815260200161422e866001600160401b031660388a901c63ffffffff16620f42406138f7565b6001600160401b031681525f6020909101529250505b935093915050565b5f61425f836107d0620f424060016126d3565b905061427a816001600160781b031683620f424060016126d3565b609f549091506108e0906001600160a01b03166001600160781b038316611cdf6127ef565b5f80805f19858709858702925082811083820303915050805f036142cc57838281613921576139216155d2565b8084116143135760405162461bcd60e51b81526020600482015260156024820152744d6174683a206d756c446976206f766572666c6f7760581b6044820152606401610a02565b5f8486880960026001871981018816978890046003810283188082028403028082028403028082028403028082028403028082028403029081029092039091025f889003889004909101858311909403939093029303949094049190911702949350505050565b60408051600481526024810182526020810180516001600160e01b031663313ce56760e01b17905290515f918291829182916001600160a01b038716916143c091615ab9565b5f60405180830381855afa9150503d805f81146143f8576040519150601f19603f3d011682016040523d82523d5f602084013e6143fd565b606091505b509150915081801561441157506020815110155b15614444575f8180602001905181019061442b919061527e565b905060ff8111614442576001969095509350505050565b505b505f9485945092505050565b5f6a636f6e736f6c652e6c6f6790505f80835160208501845afa505050565b6040516001600160a01b03808516602483015283166044820152606481018290526119349085906323b872dd60e01b90608401612881565b6001600160a01b0382166145075760405162461bcd60e51b815260206004820152602160248201527f45524332303a206275726e2066726f6d20746865207a65726f206164647265736044820152607360f81b6064820152608401610a02565b6001600160a01b0382165f908152603360205260409020548181101561457a5760405162461bcd60e51b815260206004820152602260248201527f45524332303a206275726e20616d6f756e7420657863656564732062616c616e604482015261636560f01b6064820152608401610a02565b6001600160a01b0383165f8181526033602090815260408083208686039055603580548790039055518581529192915f80516020615b07833981519152910160405180910390a3505050565b606061148084845f856146f6565b81515f906145e38360206151ee565b11156146215760405162461bcd60e51b815260206004820152600d60248201526c4f7574206f6620626f756e647360981b6044820152606401610a02565b50016020015190565b5f815f0361463957505f919050565b6003821161464957506001919050565b5f60026146578460016151ee565b61466191906155e6565b90508291505b8181101561469a5790508060028161467f81866155e6565b61468991906151ee565b61469391906155e6565b9050614667565b50919050565b5f815f036146b0575060016108e0565b60015b8215610931576146c4600284615af3565b6001036146d8576146d584826154d5565b90505b6146e284806154d5565b93506146ef6002846155e6565b92506146b3565b6060824710156147575760405162461bcd60e51b815260206004820152602660248201527f416464726573733a20696e73756666696369656e742062616c616e636520666f6044820152651c8818d85b1b60d21b6064820152608401610a02565b5f80866001600160a01b031685876040516147729190615ab9565b5f6040518083038185875af1925050503d805f81146147ac576040519150601f19603f3d011682016040523d82523d5f602084013e6147b1565b606091505b50915091506147c2878383876147cd565b979650505050505050565b606083156148395782515f03614832576147e685612304565b6148325760405162461bcd60e51b815260206004820152601d60248201527f416464726573733a2063616c6c20746f206e6f6e2d636f6e74726163740000006044820152606401610a02565b5081611480565b611480838381511561484e5781518083602001fd5b8060405162461bcd60e51b8152600401610a02919061490d565b828054828255905f5260205f209081019282156148bb579160200282015b828111156148bb57825182546001600160a01b0319166001600160a01b03909116178255602090920191600190910190614886565b506148c79291506148cb565b5090565b5b808211156148c7575f81556001016148cc565b5f81518084528060208401602086015e5f602082860101526020601f19601f83011685010191505092915050565b602081525f61093160208301846148df565b5f6020828403121561492f575f80fd5b5035919050565b6001600160a01b0381168114612342575f80fd5b5f806040838503121561495b575f80fd5b823561496681614936565b946020939093013593505050565b5f805f60608486031215614986575f80fd5b833561499181614936565b925060208401356149a181614936565b929592945050506040919091013590565b634e487b7160e01b5f52604160045260245ffd5b60405160a081016001600160401b03811182821017156149e8576149e86149b2565b60405290565b6040516101a081016001600160401b03811182821017156149e8576149e86149b2565b604051601f8201601f191681016001600160401b0381118282101715614a3957614a396149b2565b604052919050565b5f6001600160401b03821115614a5957614a596149b2565b50601f01601f191660200190565b5f82601f830112614a76575f80fd5b8135614a89614a8482614a41565b614a11565b818152846020838601011115614a9d575f80fd5b816020850160208301375f918101602001919091529392505050565b5f6001600160401b03821115614ad157614ad16149b2565b5060051b60200190565b5f82601f830112614aea575f80fd5b8135614af8614a8482614ab9565b8082825260208201915060208360051b860101925085831115614b19575f80fd5b602085015b83811015612c0f578035614b3181614936565b835260209283019201614b1e565b5f805f805f80868803610140811215614b56575f80fd5b8735614b6181614936565b96506020880135955060a0603f1982011215614b7b575f80fd5b50614b846149c6565b6040880135614b9281614936565b81526060880135614ba281614936565b60208201526080880135614bb581614936565b604082015260a0880135614bc881614936565b606082015260c0880135614bdb81614936565b6080820152935060e08701356001600160401b03811115614bfa575f80fd5b614c0689828a01614a67565b9350506101008701356001600160401b03811115614c22575f80fd5b614c2e89828a01614a67565b9250506101208701356001600160401b03811115614c4a575f80fd5b614c5689828a01614adb565b9150509295509295509295565b6001600160a01b03169052565b6001600160a01b0391909116815260200190565b5f60208284031215614c94575f80fd5b813561093181614936565b60038110612342575f80fd5b5f805f8060808587031215614cbe575f80fd5b8435614cc981614936565b9350602085013592506040850135614ce081614c9f565b9396929550929360600135925050565b602080825282518282018190525f918401906040840190835b81811015614d305783516001600160a01b0316835260209384019390920191600101614d09565b509095945050505050565b5f8060408385031215614d4c575f80fd5b823591506020830135614d5e81614936565b809150509250929050565b63ffffffff81168114612342575f80fd5b5f60208284031215614d8a575f80fd5b813561093181614d69565b634e487b7160e01b5f52602160045260245ffd5b6003811061234257612342614d95565b6001600160a01b038681168252851660208201526040810184905260a08101614de184614da9565b6060820193909352608001529392505050565b5f805f60608486031215614e06575f80fd5b833592506020840135614e1881614936565b91506040840135614e2881614936565b809150509250925092565b5f8060408385031215614e44575f80fd5b8235915060208301356001600160401b03811115614e60575f80fd5b8301601f81018513614e70575f80fd5b8035614e7e614a8482614ab9565b8082825260208201915060208360051b850101925087831115614e9f575f80fd5b6020840193505b82841015614ec1578335825260209384019390910190614ea6565b809450505050509250929050565b5f8060408385031215614ee0575f80fd5b8235614eeb81614936565b91506020830135614d5e81614936565b5f8083601f840112614f0b575f80fd5b5081356001600160401b03811115614f21575f80fd5b6020830191508360208260051b8501011115614f3b575f80fd5b9250929050565b5f805f60408486031215614f54575f80fd5b8335925060208401356001600160401b03811115614f70575f80fd5b614f7c86828701614efb565b9497909650939450505050565b8051614f9481614936565b919050565b8051614f9481614d69565b805161ffff81168114614f94575f80fd5b805162ffffff81168114614f94575f80fd5b80518015158114614f94575f80fd5b805160ff81168114614f94575f80fd5b8051614f9481614c9f565b80516001600160781b0381168114614f94575f80fd5b80516001600160401b0381168114614f94575f80fd5b80516001600160c01b0381168114614f94575f80fd5b5f6101a08284031215615044575f80fd5b61504c6149ee565b905061505782614f89565b815261506560208301614f99565b602082015261507660408301614fa4565b604082015261508760608301614fb5565b606082015261509860808301614fc7565b60808201526150a960a08301614fc7565b60a08201526150ba60c08301614fd6565b60c08201526150cb60e08301614fe6565b60e08201526150dd6101008301614ff1565b6101008201526150f06101208301615007565b6101208201526151036101408301615007565b6101408201526151166101608301615007565b610160820152615129610180830161501d565b61018082015292915050565b5f60208284031215615145575f80fd5b81516001600160401b0381111561515a575f80fd5b8201601f8101841361516a575f80fd5b8051615178614a8482614ab9565b8082825260208201915060206101a0840285010192508683111561519a575f80fd5b6020840193505b828410156120e6576151b38785615033565b82526020820191506101a0840193506151a1565b634e487b7160e01b5f52601160045260245ffd5b818103818111156108e0576108e06151c7565b808201808211156108e0576108e06151c7565b600181811c9082168061521557607f821691505b60208210810361469a57634e487b7160e01b5f52602260045260245ffd5b6001600160a01b03929092168252602082015260400190565b5f6020828403121561525c575f80fd5b61093182614fc7565b60ff81811683821601908111156108e0576108e06151c7565b5f6020828403121561528e575f80fd5b5051919050565b634e487b7160e01b5f52603260045260245ffd5b5f82601f8301126152b8575f80fd5b81516152c6614a8482614a41565b8181528460208386010111156152da575f80fd5b8160208501602083015e5f918101602001919091529392505050565b5f60408284031215615306575f80fd5b604080519081016001600160401b0381118282101715615328576153286149b2565b604052825190915081906001600160401b03811115615345575f80fd5b615351858286016152a9565b825250602092830151920191909152919050565b5f805f60608486031215615377575f80fd5b835160208501519093506001600160401b03811115615394575f80fd5b840160a081870312156153a5575f80fd5b6153ad6149c6565b8151815260208201516153bf81614936565b602082015260408201516001600160e01b0319811681146153de575f80fd5b60408201526060828101519082015260808201516001600160401b03811115615405575f80fd5b615411888285016152f6565b608083015250604086015190935090506001600160401b03811115615434575f80fd5b615440868287016152a9565b9150509250925092565b60018060a01b0384168152606060208201528251606082015260018060a01b03602084015116608082015263ffffffff60e01b60408401511660a0820152606083015160c08201525f608084015160a060e0840152805160406101008501526154b76101408501826148df565b60209290920151610120850152506040909201929092529392505050565b80820281158282048414176108e0576108e06151c7565b6001815b60018411156142445780850481111561550b5761550b6151c7565b600184161561551957908102905b60019390931c9280026154f0565b5f82615535575060016108e0565b8161554157505f6108e0565b816001811461555757600281146155615761557d565b60019150506108e0565b60ff841115615572576155726151c7565b50506001821b6108e0565b5060208310610133831016604e8410600b84101617156155a0575081810a6108e0565b6155ac5f1984846154ec565b805f19048211156155bf576155bf6151c7565b029392505050565b5f6109318383615527565b634e487b7160e01b5f52601260045260245ffd5b5f826155f4576155f46155d2565b500490565b9182526001600160a01b0316602082015260400190565b5f808585111561561e575f80fd5b8386111561562a575f80fd5b5050600583901b0193919092039150565b6001600160a01b0383168152604081016002831061565b5761565b614d95565b8260208301529392505050565b5f6060828403128015615679575f80fd5b50604051606081016001600160401b038111828210171561569c5761569c6149b2565b60405282516156aa81614d69565b815260208301516156ba81614d69565b60208201526156cb6040840161501d565b60408201529392505050565b63ffffffff81811683821601908111156108e0576108e06151c7565b63ffffffff82811682821603908111156108e0576108e06151c7565b5f61093160ff841683615527565b6020808252602b908201527f496e697469616c697a61626c653a20636f6e7472616374206973206e6f74206960408201526a6e697469616c697a696e6760a81b606082015260800190565b918252602082015260400190565b828152604060208201525f61148060408301846148df565b63ffffffff9290921682526001600160401b0316602082015260400190565b6001600160781b0382811682821603908111156108e0576108e06151c7565b6157d581614da9565b9052565b5f6101e0820190506157ec828651614c63565b6020850151615803602084018263ffffffff169052565b506040850151615819604084018261ffff169052565b506060850151615830606084018262ffffff169052565b506080850151615844608084018215159052565b5060a085015161585860a084018215159052565b5060c085015161586d60c084018260ff169052565b5060e085015161588060e08401826157cc565b5061010085015161589d6101008401826001600160781b03169052565b506101208501516158ba6101208401826001600160401b03169052565b506101408501516158d76101408401826001600160401b03169052565b506101608501516158f46101608401826001600160401b03169052565b506101808501516159116101808401826001600160c01b03169052565b5061ffff84166101a08301526114806101c0830184614c63565b6001600160a01b0392909216825263ffffffff16602082015260400190565b5f6101a0828403121561595b575f80fd5b6109318383615033565b608081525f61597760808301876148df565b6020830195909552506040810192909252606090910152919050565b601f821115612bfc57805f5260205f20601f840160051c810160208510156159b85750805b601f840160051c820191505b818110156159d7575f81556001016159c4565b5050505050565b81516001600160401b038111156159f7576159f76149b2565b615a0b81615a058454615201565b84615993565b6020601f821160018114615a3d575f8315615a265750848201515b5f19600385901b1c1916600184901b1784556159d7565b5f84815260208120601f198516915b82811015615a6c5787850151825560209485019460019092019101615a4c565b5084821015615a8957868401515f19600387901b60f8161c191681555b50505050600190811b01905550565b5f60ff831680615aaa57615aaa6155d2565b8060ff84160691505092915050565b5f82518060208501845e5f920191825250919050565b606081525f615ae160608301866148df565b60208301949094525060400152919050565b5f82615b0157615b016155d2565b50069056feddf252ad1be2c89b69c2b068fc378daa952ba7f163c4a11628f55a4df523b3efdcbc1c05240f31ff3ad067ef1ee35ce4997762752e3a095284754544f4c709d7a26469706673582212205ce23220ee48203f492e289a798b11534942e388a2fac7264c6a4d08d5c2f74b64736f6c634300081a0033",
  "devdoc": {
    "errors": {
      "EnforcedPause()": [
        {
          "details": "The operation failed because the contract is paused."
        }
      ],
      "ExpectedPause()": [
        {
          "details": "The operation failed because the contract is not paused."
        }
      ],
      "MathOverflowedMulDiv()": [
        {
          "details": "Muldiv operation overflow."
        }
      ]
    },
    "events": {
      "Approval(address,address,uint256)": {
        "details": "Emitted when the allowance of a `spender` for an `owner` is set by a call to {approve}. `value` is the new allowance."
      },
      "Initialized(uint8)": {
        "details": "Triggered when the contract has been initialized or reinitialized."
      },
      "Paused(address)": {
        "details": "Emitted when the pause is triggered by `account`."
      },
      "Transfer(address,address,uint256)": {
        "details": "Emitted when `value` tokens are moved from one account (`from`) to another (`to`). Note that `value` may be zero."
      },
      "Unpaused(address)": {
        "details": "Emitted when the pause is lifted by `account`."
      }
    },
    "kind": "dev",
    "methods": {
      "allowance(address,address)": {
        "details": "See {IERC20-allowance}."
      },
      "approve(address,uint256)": {
        "details": "See {IERC20-approve}. NOTE: If `amount` is the maximum `uint256`, the allowance is not updated on `transferFrom`. This is semantically equivalent to an infinite approval. Requirements: - `spender` cannot be the zero address."
      },
      "asset()": {
        "details": "See {IERC4626-asset}. "
      },
      "balanceOf(address)": {
        "details": "See {IERC20-balanceOf}."
      },
      "convertToAssets(uint256)": {
        "details": "See {IERC4626-convertToAssets}. "
      },
      "convertToShares(uint256)": {
        "details": "See {IERC4626-convertToShares}. "
      },
      "decimals()": {
        "details": "Decimals are computed by adding the decimal offset on top of the underlying asset's decimals. This \"original\" value is cached during construction of the vault contract. If this read operation fails (e.g., the asset has not been created yet), a default of 18 is used to represent the underlying asset's decimals. See {IERC20Metadata-decimals}."
      },
      "decreaseAllowance(address,uint256)": {
        "details": "Atomically decreases the allowance granted to `spender` by the caller. This is an alternative to {approve} that can be used as a mitigation for problems described in {IERC20-approve}. Emits an {Approval} event indicating the updated allowance. Requirements: - `spender` cannot be the zero address. - `spender` must have allowance for the caller of at least `subtractedValue`."
      },
      "deposit(uint256,address)": {
        "details": "See {IERC4626-deposit}. "
      },
      "endWithdrawPeriod()": {
        "details": "Allows the vault manager to end the current withdraw period."
      },
      "executeStrategy(uint256)": {
        "details": "Executes a trading strategy.",
        "params": {
          "strategy": "The index of the strategy to execute."
        },
        "returns": {
          "requestId": "The ID of the Chainlink request."
        }
      },
      "extendApproval()": {
        "details": "Extends the approval for the GainsNetwork contract."
      },
      "forceWithdrawPeriod()": {
        "details": "Allows the vault manager to forcefully start a withdraw period."
      },
      "fulfill(bytes32,uint256[])": {
        "details": "Fulfills the Chainlink request and executes the trading action.",
        "params": {
          "data": "The data returned by the Chainlink oracle.",
          "requestId": "The ID of the Chainlink request."
        }
      },
      "increaseAllowance(address,uint256)": {
        "details": "Atomically increases the allowance granted to `spender` by the caller. This is an alternative to {approve} that can be used as a mitigation for problems described in {IERC20-approve}. Emits an {Approval} event indicating the updated allowance. Requirements: - `spender` cannot be the zero address."
      },
      "initialize(address,uint256,(address,address,address,address,address),string,string,address[])": {
        "details": "Initializes the AutoVault. This function is used instead of a constructor for upgradeable contracts.",
        "params": {
          "__asset": "The underlying asset token that the vault will use for trading",
          "_equations": "Array of addresses containing encoded strategy information",
          "_name": "The name of the vault token",
          "_symbol": "The symbol of the vault token",
          "startingBalance": "The initial balance of the vault",
          "startingInfo": "Struct containing addresses for various components (factory, manager, tokens, etc.)"
        }
      },
      "maxDeposit(address)": {
        "details": "See {IERC4626-maxDeposit}. "
      },
      "maxMint(address)": {
        "details": "See {IERC4626-maxMint}. "
      },
      "maxRedeem(address)": {
        "details": "See {IERC4626-maxRedeem}. "
      },
      "maxWithdraw(address)": {
        "details": "See {IERC4626-maxWithdraw}. "
      },
      "mint(uint256,address)": {
        "details": "See {IERC4626-mint}. As opposed to {deposit}, minting is allowed even if the vault is in a state where the price of a share is zero. In this case, the shares will be minted without requiring any assets to be deposited."
      },
      "name()": {
        "details": "Returns the name of the token."
      },
      "owner()": {
        "details": "Returns the owner of the vault.",
        "returns": {
          "_0": "The address of the vault manager."
        }
      },
      "pause()": {
        "details": "Pauses the contract. Requirements: - The contract must NOT be paused. - Only the vault maker can call this."
      },
      "paused()": {
        "details": "Returns true if the contract is paused, and false otherwise."
      },
      "preformAction(bytes32,uint256[])": {
        "details": "Executes the vault action initiated by startAction. This function is called by the Chainlink oracle.",
        "params": {
          "data": "The data returned by the Chainlink oracle.",
          "requestId": "The ID of the Chainlink request."
        }
      },
      "previewDeposit(uint256)": {
        "details": "Preview taking an entry fee on deposit. See {IERC4626-previewDeposit}."
      },
      "previewMint(uint256)": {
        "details": "Preview adding an entry fee on mint. See {IERC4626-previewMint}."
      },
      "previewRedeem(uint256)": {
        "details": "Preview taking an exit fee on redeem. See {IERC4626-previewRedeem}."
      },
      "previewWithdraw(uint256)": {
        "details": "Preview adding an exit fee on withdraw. See {IERC4626-previewWithdraw}."
      },
      "processStrategy(uint256,uint256[])": {
        "details": "Processes the strategy and returns the action to be executed.",
        "params": {
          "inputs": "The input data for the strategy.",
          "strategy": "The index of the strategy to process."
        },
        "returns": {
          "action": "The action to be executed."
        }
      },
      "redeem(uint256,address,address)": {
        "details": "See {IERC4626-redeem}. "
      },
      "returnStrategies()": {
        "details": "Gives all of the strategies being used",
        "returns": {
          "_0": "Array of addresses each being a contract that contains fee multiplier + api + encoded abstract tree"
        }
      },
      "setWithdrawPeriod()": {
        "details": "Sets the next withdraw period. Can be called by any token holder."
      },
      "startAction(address,uint256,uint8,uint256)": {
        "details": "Initiates a vault action (deposit, mint, or enter withdraw period).",
        "params": {
          "amount": "The amount of tokens or shares for the action.",
          "choice": "The type of action to perform (DEPOSIT, MINT, or WITHDRAW_PERIOD).",
          "receiver": "The address that will receive the tokens or shares.",
          "slippage": "The maximum allowed slippage for the action."
        },
        "returns": {
          "requestId": "The ID of the Chainlink request."
        }
      },
      "symbol()": {
        "details": "Returns the symbol of the token, usually a shorter version of the name."
      },
      "totalAssets()": {
        "details": "See {IERC4626-totalAssets}. "
      },
      "totalSupply()": {
        "details": "See {IERC20-totalSupply}."
      },
      "transfer(address,uint256)": {
        "details": "See {IERC20-transfer}. Requirements: - `to` cannot be the zero address. - the caller must have a balance of at least `amount`."
      },
      "transferFrom(address,address,uint256)": {
        "details": "See {IERC20-transferFrom}. Emits an {Approval} event indicating the updated allowance. This is not required by the EIP. See the note at the beginning of {ERC20}. NOTE: Does not update the allowance if the current allowance is the maximum `uint256`. Requirements: - `from` and `to` cannot be the zero address. - `from` must have a balance of at least `amount`. - the caller must have allowance for ``from``'s tokens of at least `amount`."
      },
      "unpause()": {
        "details": "Returns to normal state. Requirements: - The contract must be paused. - Only the vault maker can call this."
      },
      "withdraw(uint256,address,address)": {
        "details": "See {IERC4626-withdraw}. "
      }
    },
    "stateVariables": {
      "DECIMAL_COUNT": {
        "details": "The `requestDecimals` variable in vaultFactory is related to this one"
      },
      "ENTRY_FEE": {
        "details": "80 basis points = 0.8% entry fee"
      },
      "EXIT_FEE": {
        "details": "80 basis points = 0.8% exit fee"
      },
      "GainsNetwork": {
        "details": "Interface for interacting with the GainsNetwork trading platform"
      },
      "MAX_NUMBER_TRADES": {
        "details": "This limit is in place so that the gas to preform the fufillment doesn't go too high"
      },
      "MAX_TIME_DIFFERENCE": {
        "details": "Used to ensure oracle data is recent"
      },
      "MIN_PERIOD_TIME": {
        "details": "7 days (604800 seconds)"
      },
      "SWAP_FEE": {
        "details": "2000 basis points = 0.2% swap fee"
      },
      "currentUser": {
        "details": "Transient variable to store the current user's address"
      },
      "fee": {
        "details": "Fee given to the chainlink oracle, usually 0 as its prepaid"
      },
      "indexToStrategy": {
        "details": "Mapping of index to strategy IDs"
      },
      "isWithdrawPeriod": {
        "details": "Flag to indicate if the vault is currently in a withdraw period"
      },
      "minimumDeposit": {
        "details": "This constant is used to ensure a minimum initial deposit when creating a new vault"
      },
      "nextWithdrawPeriod": {
        "details": "Timestamp for the next available withdraw period"
      },
      "requestToAction": {
        "details": "Mapping of request IDs to VaultActions"
      },
      "requestToStrategy": {
        "details": "Mapping of request IDs to their corresponding strategies"
      },
      "rewardBot": {
        "details": "Mapping used to track the fees associated with a requestID"
      },
      "specialRefer": {
        "details": "Referral address for all trades executed by this vault"
      },
      "strategies": {
        "details": "Array of strategy addresses"
      },
      "strategyToIndex": {
        "details": "Mapping of strategy IDs to their corresponding index"
      },
      "totalValueCollateral": {
        "details": "Transient variable to store the total value of collateral"
      },
      "vaultFactory": {
        "details": "Address of the VaultFactory contract that created this vault"
      },
      "vaultManager": {
        "details": "Address of the vault manager (owner) who can pause and manage the vault"
      },
      "withdrawPeriodLength": {
        "details": "2 hours (7200 seconds)"
      }
    },
    "version": 1
  },
  "userdoc": {
    "kind": "user",
    "methods": {
      "ENTRY_FEE()": {
        "notice": "Entry fee percentage in basis points"
      },
      "EXIT_FEE()": {
        "notice": "Exit fee percentage in basis points"
      },
      "MAX_NUMBER_TRADES()": {
        "notice": "Maximum number of concurrent trades that a vault can hold"
      },
      "MAX_TIME_DIFFERENCE()": {
        "notice": "Maximum allowed time difference (in seconds) for oracle responses"
      },
      "MIN_PERIOD_TIME()": {
        "notice": "Minimum time between setting withdraw periods"
      },
      "SWAP_FEE()": {
        "notice": "Swap fee percentage in basis points"
      },
      "endWithdrawPeriod()": {
        "notice": "This function can only be called by the vault manager."
      },
      "forceWithdrawPeriod()": {
        "notice": "This function can only be called by the vault manager."
      },
      "setWithdrawPeriod()": {
        "notice": "This function can only be called if there's no active withdraw period set."
      },
      "withdrawPeriodLength()": {
        "notice": "Duration of the withdraw period in seconds"
      }
    },
    "version": 1
  },
  "storageLayout": {
    "storage": [
      {
        "astId": 2537,
        "contract": "contracts/AutoVault.sol:AutoVault",
        "label": "_initialized",
        "offset": 0,
        "slot": "0",
        "type": "t_uint8"
      },
      {
        "astId": 2540,
        "contract": "contracts/AutoVault.sol:AutoVault",
        "label": "_initializing",
        "offset": 1,
        "slot": "0",
        "type": "t_bool"
      },
      {
        "astId": 4858,
        "contract": "contracts/AutoVault.sol:AutoVault",
        "label": "__gap",
        "offset": 0,
        "slot": "1",
        "type": "t_array(t_uint256)50_storage"
      },
      {
        "astId": 2718,
        "contract": "contracts/AutoVault.sol:AutoVault",
        "label": "_balances",
        "offset": 0,
        "slot": "51",
        "type": "t_mapping(t_address,t_uint256)"
      },
      {
        "astId": 2724,
        "contract": "contracts/AutoVault.sol:AutoVault",
        "label": "_allowances",
        "offset": 0,
        "slot": "52",
        "type": "t_mapping(t_address,t_mapping(t_address,t_uint256))"
      },
      {
        "astId": 2726,
        "contract": "contracts/AutoVault.sol:AutoVault",
        "label": "_totalSupply",
        "offset": 0,
        "slot": "53",
        "type": "t_uint256"
      },
      {
        "astId": 2728,
        "contract": "contracts/AutoVault.sol:AutoVault",
        "label": "_name",
        "offset": 0,
        "slot": "54",
        "type": "t_string_storage"
      },
      {
        "astId": 2730,
        "contract": "contracts/AutoVault.sol:AutoVault",
        "label": "_symbol",
        "offset": 0,
        "slot": "55",
        "type": "t_string_storage"
      },
      {
        "astId": 3310,
        "contract": "contracts/AutoVault.sol:AutoVault",
        "label": "__gap",
        "offset": 0,
        "slot": "56",
        "type": "t_array(t_uint256)45_storage"
      },
      {
        "astId": 3410,
        "contract": "contracts/AutoVault.sol:AutoVault",
        "label": "_asset",
        "offset": 0,
        "slot": "101",
        "type": "t_contract(IERC20Upgradeable)3389"
      },
      {
        "astId": 3412,
        "contract": "contracts/AutoVault.sol:AutoVault",
        "label": "_underlyingDecimals",
        "offset": 20,
        "slot": "101",
        "type": "t_uint8"
      },
      {
        "astId": 4049,
        "contract": "contracts/AutoVault.sol:AutoVault",
        "label": "__gap",
        "offset": 0,
        "slot": "102",
        "type": "t_array(t_uint256)49_storage"
      },
      {
        "astId": 325,
        "contract": "contracts/AutoVault.sol:AutoVault",
        "label": "s_ens",
        "offset": 0,
        "slot": "151",
        "type": "t_contract(ENSInterface)982"
      },
      {
        "astId": 327,
        "contract": "contracts/AutoVault.sol:AutoVault",
        "label": "s_ensNode",
        "offset": 0,
        "slot": "152",
        "type": "t_bytes32"
      },
      {
        "astId": 330,
        "contract": "contracts/AutoVault.sol:AutoVault",
        "label": "s_link",
        "offset": 0,
        "slot": "153",
        "type": "t_contract(LinkTokenInterface)1382"
      },
      {
        "astId": 333,
        "contract": "contracts/AutoVault.sol:AutoVault",
        "label": "s_oracle",
        "offset": 0,
        "slot": "154",
        "type": "t_contract(OperatorInterface)1047"
      },
      {
        "astId": 336,
        "contract": "contracts/AutoVault.sol:AutoVault",
        "label": "s_requestCount",
        "offset": 0,
        "slot": "155",
        "type": "t_uint256"
      },
      {
        "astId": 340,
        "contract": "contracts/AutoVault.sol:AutoVault",
        "label": "s_pendingRequests",
        "offset": 0,
        "slot": "156",
        "type": "t_mapping(t_bytes32,t_address)"
      },
      {
        "astId": 7332,
        "contract": "contracts/AutoVault.sol:AutoVault",
        "label": "_paused",
        "offset": 0,
        "slot": "157",
        "type": "t_bool"
      },
      {
        "astId": 8913,
        "contract": "contracts/AutoVault.sol:AutoVault",
        "label": "GainsNetwork",
        "offset": 1,
        "slot": "157",
        "type": "t_contract(IGainsNetwork)11175"
      },
      {
        "astId": 8916,
        "contract": "contracts/AutoVault.sol:AutoVault",
        "label": "vaultManager",
        "offset": 0,
        "slot": "158",
        "type": "t_address"
      },
      {
        "astId": 8919,
        "contract": "contracts/AutoVault.sol:AutoVault",
        "label": "vaultFactory",
        "offset": 0,
        "slot": "159",
        "type": "t_address"
      },
      {
        "astId": 8923,
        "contract": "contracts/AutoVault.sol:AutoVault",
        "label": "specialRefer",
        "offset": 0,
        "slot": "160",
        "type": "t_address"
      },
      {
        "astId": 8926,
        "contract": "contracts/AutoVault.sol:AutoVault",
        "label": "nextWithdrawPeriod",
        "offset": 0,
        "slot": "161",
        "type": "t_uint256"
      },
      {
        "astId": 8929,
        "contract": "contracts/AutoVault.sol:AutoVault",
        "label": "isWithdrawPeriod",
        "offset": 0,
        "slot": "162",
        "type": "t_bool"
      },
      {
        "astId": 8934,
        "contract": "contracts/AutoVault.sol:AutoVault",
        "label": "requestToStrategy",
        "offset": 0,
        "slot": "163",
        "type": "t_mapping(t_bytes32,t_uint256)"
      },
      {
        "astId": 8939,
        "contract": "contracts/AutoVault.sol:AutoVault",
        "label": "strategyToIndex",
        "offset": 0,
        "slot": "164",
        "type": "t_mapping(t_uint256,t_uint32)"
      },
      {
        "astId": 8944,
        "contract": "contracts/AutoVault.sol:AutoVault",
        "label": "indexToStrategy",
        "offset": 0,
        "slot": "165",
        "type": "t_mapping(t_uint32,t_uint256)"
      },
      {
        "astId": 8950,
        "contract": "contracts/AutoVault.sol:AutoVault",
        "label": "requestToAction",
        "offset": 0,
        "slot": "166",
        "type": "t_mapping(t_bytes32,t_struct(VaultAction)12891_storage)"
      },
      {
        "astId": 8954,
        "contract": "contracts/AutoVault.sol:AutoVault",
        "label": "strategies",
        "offset": 0,
        "slot": "167",
        "type": "t_array(t_address)dyn_storage"
      },
      {
        "astId": 8958,
        "contract": "contracts/AutoVault.sol:AutoVault",
        "label": "totalValueCollateral",
        "offset": 0,
        "slot": "168",
        "type": "t_struct(tuint256)12721_storage"
      },
      {
        "astId": 8962,
        "contract": "contracts/AutoVault.sol:AutoVault",
        "label": "currentUser",
        "offset": 0,
        "slot": "169",
        "type": "t_struct(taddress)12724_storage"
      },
      {
        "astId": 8968,
        "contract": "contracts/AutoVault.sol:AutoVault",
        "label": "rewardBot",
        "offset": 0,
        "slot": "170",
        "type": "t_mapping(t_bytes32,t_struct(RewardInfo)12911_storage)"
      },
      {
        "astId": 8971,
        "contract": "contracts/AutoVault.sol:AutoVault",
        "label": "fee",
        "offset": 0,
        "slot": "171",
        "type": "t_uint256"
      }
    ],
    "types": {
      "t_address": {
        "encoding": "inplace",
        "label": "address",
        "numberOfBytes": "20"
      },
      "t_array(t_address)dyn_storage": {
        "base": "t_address",
        "encoding": "dynamic_array",
        "label": "address[]",
        "numberOfBytes": "32"
      },
      "t_array(t_uint256)45_storage": {
        "base": "t_uint256",
        "encoding": "inplace",
        "label": "uint256[45]",
        "numberOfBytes": "1440"
      },
      "t_array(t_uint256)49_storage": {
        "base": "t_uint256",
        "encoding": "inplace",
        "label": "uint256[49]",
        "numberOfBytes": "1568"
      },
      "t_array(t_uint256)50_storage": {
        "base": "t_uint256",
        "encoding": "inplace",
        "label": "uint256[50]",
        "numberOfBytes": "1600"
      },
      "t_bool": {
        "encoding": "inplace",
        "label": "bool",
        "numberOfBytes": "1"
      },
      "t_bytes32": {
        "encoding": "inplace",
        "label": "bytes32",
        "numberOfBytes": "32"
      },
      "t_contract(ENSInterface)982": {
        "encoding": "inplace",
        "label": "contract ENSInterface",
        "numberOfBytes": "20"
      },
      "t_contract(IERC20Upgradeable)3389": {
        "encoding": "inplace",
        "label": "contract IERC20Upgradeable",
        "numberOfBytes": "20"
      },
      "t_contract(IGainsNetwork)11175": {
        "encoding": "inplace",
        "label": "contract IGainsNetwork",
        "numberOfBytes": "20"
      },
      "t_contract(LinkTokenInterface)1382": {
        "encoding": "inplace",
        "label": "contract LinkTokenInterface",
        "numberOfBytes": "20"
      },
      "t_contract(OperatorInterface)1047": {
        "encoding": "inplace",
        "label": "contract OperatorInterface",
        "numberOfBytes": "20"
      },
      "t_enum(Choice)12878": {
        "encoding": "inplace",
        "label": "enum Choice",
        "numberOfBytes": "1"
      },
      "t_mapping(t_address,t_mapping(t_address,t_uint256))": {
        "encoding": "mapping",
        "key": "t_address",
        "label": "mapping(address => mapping(address => uint256))",
        "numberOfBytes": "32",
        "value": "t_mapping(t_address,t_uint256)"
      },
      "t_mapping(t_address,t_uint256)": {
        "encoding": "mapping",
        "key": "t_address",
        "label": "mapping(address => uint256)",
        "numberOfBytes": "32",
        "value": "t_uint256"
      },
      "t_mapping(t_bytes32,t_address)": {
        "encoding": "mapping",
        "key": "t_bytes32",
        "label": "mapping(bytes32 => address)",
        "numberOfBytes": "32",
        "value": "t_address"
      },
      "t_mapping(t_bytes32,t_struct(RewardInfo)12911_storage)": {
        "encoding": "mapping",
        "key": "t_bytes32",
        "label": "mapping(bytes32 => struct RewardInfo)",
        "numberOfBytes": "32",
        "value": "t_struct(RewardInfo)12911_storage"
      },
      "t_mapping(t_bytes32,t_struct(VaultAction)12891_storage)": {
        "encoding": "mapping",
        "key": "t_bytes32",
        "label": "mapping(bytes32 => struct VaultAction)",
        "numberOfBytes": "32",
        "value": "t_struct(VaultAction)12891_storage"
      },
      "t_mapping(t_bytes32,t_uint256)": {
        "encoding": "mapping",
        "key": "t_bytes32",
        "label": "mapping(bytes32 => uint256)",
        "numberOfBytes": "32",
        "value": "t_uint256"
      },
      "t_mapping(t_uint256,t_uint32)": {
        "encoding": "mapping",
        "key": "t_uint256",
        "label": "mapping(uint256 => uint32)",
        "numberOfBytes": "32",
        "value": "t_uint32"
      },
      "t_mapping(t_uint32,t_uint256)": {
        "encoding": "mapping",
        "key": "t_uint32",
        "label": "mapping(uint32 => uint256)",
        "numberOfBytes": "32",
        "value": "t_uint256"
      },
      "t_string_storage": {
        "encoding": "bytes",
        "label": "string",
        "numberOfBytes": "32"
      },
      "t_struct(RewardInfo)12911_storage": {
        "encoding": "inplace",
        "label": "struct RewardInfo",
        "members": [
          {
            "astId": 12906,
            "contract": "contracts/AutoVault.sol:AutoVault",
            "label": "masterFee",
            "offset": 0,
            "slot": "0",
            "type": "t_uint256"
          },
          {
            "astId": 12908,
            "contract": "contracts/AutoVault.sol:AutoVault",
            "label": "feeMultiplier",
            "offset": 0,
            "slot": "1",
            "type": "t_uint256"
          },
          {
            "astId": 12910,
            "contract": "contracts/AutoVault.sol:AutoVault",
            "label": "caller",
            "offset": 0,
            "slot": "2",
            "type": "t_address"
          }
        ],
        "numberOfBytes": "96"
      },
      "t_struct(VaultAction)12891_storage": {
        "encoding": "inplace",
        "label": "struct VaultAction",
        "members": [
          {
            "astId": 12881,
            "contract": "contracts/AutoVault.sol:AutoVault",
            "label": "msgSender",
            "offset": 0,
            "slot": "0",
            "type": "t_address"
          },
          {
            "astId": 12883,
            "contract": "contracts/AutoVault.sol:AutoVault",
            "label": "receiver",
            "offset": 0,
            "slot": "1",
            "type": "t_address"
          },
          {
            "astId": 12885,
            "contract": "contracts/AutoVault.sol:AutoVault",
            "label": "amount",
            "offset": 0,
            "slot": "2",
            "type": "t_uint256"
          },
          {
            "astId": 12888,
            "contract": "contracts/AutoVault.sol:AutoVault",
            "label": "choice",
            "offset": 0,
            "slot": "3",
            "type": "t_enum(Choice)12878"
          },
          {
            "astId": 12890,
            "contract": "contracts/AutoVault.sol:AutoVault",
            "label": "slippage",
            "offset": 0,
            "slot": "4",
            "type": "t_uint256"
          }
        ],
        "numberOfBytes": "160"
      },
      "t_struct(taddress)12724_storage": {
        "encoding": "inplace",
        "label": "struct taddress",
        "members": [
          {
            "astId": 12723,
            "contract": "contracts/AutoVault.sol:AutoVault",
            "label": "__placeholder",
            "offset": 0,
            "slot": "0",
            "type": "t_uint256"
          }
        ],
        "numberOfBytes": "32"
      },
      "t_struct(tuint256)12721_storage": {
        "encoding": "inplace",
        "label": "struct tuint256",
        "members": [
          {
            "astId": 12720,
            "contract": "contracts/AutoVault.sol:AutoVault",
            "label": "__placeholder",
            "offset": 0,
            "slot": "0",
            "type": "t_uint256"
          }
        ],
        "numberOfBytes": "32"
      },
      "t_uint256": {
        "encoding": "inplace",
        "label": "uint256",
        "numberOfBytes": "32"
      },
      "t_uint32": {
        "encoding": "inplace",
        "label": "uint32",
        "numberOfBytes": "4"
      },
      "t_uint8": {
        "encoding": "inplace",
        "label": "uint8",
        "numberOfBytes": "1"
      }
    }
  }
}