{
  "address": "0x1B56A3794f1874557f0cDD10E078E4Db83dac4d3",
  "abi": [
    {
      "inputs": [
        {
          "internalType": "address",
          "name": "target",
          "type": "address"
        }
      ],
      "name": "AddressEmptyCode",
      "type": "error"
    },
    {
      "inputs": [
        {
          "internalType": "address",
          "name": "account",
          "type": "address"
        }
      ],
      "name": "AddressInsufficientBalance",
      "type": "error"
    },
    {
      "inputs": [
        {
          "internalType": "uint256",
          "name": "blockDifference",
          "type": "uint256"
        }
      ],
      "name": "BlockDifferenceTooLarge",
      "type": "error"
    },
    {
      "inputs": [],
      "name": "CoolDownViolated",
      "type": "error"
    },
    {
      "inputs": [
        {
          "internalType": "address",
          "name": "spender",
          "type": "address"
        },
        {
          "internalType": "uint256",
          "name": "allowance",
          "type": "uint256"
        },
        {
          "internalType": "uint256",
          "name": "needed",
          "type": "uint256"
        }
      ],
      "name": "ERC20InsufficientAllowance",
      "type": "error"
    },
    {
      "inputs": [
        {
          "internalType": "address",
          "name": "sender",
          "type": "address"
        },
        {
          "internalType": "uint256",
          "name": "balance",
          "type": "uint256"
        },
        {
          "internalType": "uint256",
          "name": "needed",
          "type": "uint256"
        }
      ],
      "name": "ERC20InsufficientBalance",
      "type": "error"
    },
    {
      "inputs": [
        {
          "internalType": "address",
          "name": "approver",
          "type": "address"
        }
      ],
      "name": "ERC20InvalidApprover",
      "type": "error"
    },
    {
      "inputs": [
        {
          "internalType": "address",
          "name": "receiver",
          "type": "address"
        }
      ],
      "name": "ERC20InvalidReceiver",
      "type": "error"
    },
    {
      "inputs": [
        {
          "internalType": "address",
          "name": "sender",
          "type": "address"
        }
      ],
      "name": "ERC20InvalidSender",
      "type": "error"
    },
    {
      "inputs": [
        {
          "internalType": "address",
          "name": "spender",
          "type": "address"
        }
      ],
      "name": "ERC20InvalidSpender",
      "type": "error"
    },
    {
      "inputs": [
        {
          "internalType": "address",
          "name": "receiver",
          "type": "address"
        },
        {
          "internalType": "uint256",
          "name": "assets",
          "type": "uint256"
        },
        {
          "internalType": "uint256",
          "name": "max",
          "type": "uint256"
        }
      ],
      "name": "ERC4626ExceededMaxDeposit",
      "type": "error"
    },
    {
      "inputs": [
        {
          "internalType": "address",
          "name": "receiver",
          "type": "address"
        },
        {
          "internalType": "uint256",
          "name": "shares",
          "type": "uint256"
        },
        {
          "internalType": "uint256",
          "name": "max",
          "type": "uint256"
        }
      ],
      "name": "ERC4626ExceededMaxMint",
      "type": "error"
    },
    {
      "inputs": [
        {
          "internalType": "address",
          "name": "owner",
          "type": "address"
        },
        {
          "internalType": "uint256",
          "name": "shares",
          "type": "uint256"
        },
        {
          "internalType": "uint256",
          "name": "max",
          "type": "uint256"
        }
      ],
      "name": "ERC4626ExceededMaxRedeem",
      "type": "error"
    },
    {
      "inputs": [
        {
          "internalType": "address",
          "name": "owner",
          "type": "address"
        },
        {
          "internalType": "uint256",
          "name": "assets",
          "type": "uint256"
        },
        {
          "internalType": "uint256",
          "name": "max",
          "type": "uint256"
        }
      ],
      "name": "ERC4626ExceededMaxWithdraw",
      "type": "error"
    },
    {
      "inputs": [],
      "name": "EnforcedPause",
      "type": "error"
    },
    {
      "inputs": [],
      "name": "ExpectedPause",
      "type": "error"
    },
    {
      "inputs": [],
      "name": "FactoryManagerOnly",
      "type": "error"
    },
    {
      "inputs": [],
      "name": "FailedInnerCall",
      "type": "error"
    },
    {
      "inputs": [],
      "name": "IndexOutOfBounds",
      "type": "error"
    },
    {
      "inputs": [],
      "name": "InsufficientBalance",
      "type": "error"
    },
    {
      "inputs": [],
      "name": "InvalidAction",
      "type": "error"
    },
    {
      "inputs": [],
      "name": "InvalidInitialization",
      "type": "error"
    },
    {
      "inputs": [],
      "name": "MathOverflowedMulDiv",
      "type": "error"
    },
    {
      "inputs": [],
      "name": "NeedCallback",
      "type": "error"
    },
    {
      "inputs": [],
      "name": "NoAction",
      "type": "error"
    },
    {
      "inputs": [],
      "name": "NotInitializing",
      "type": "error"
    },
    {
      "inputs": [
        {
          "internalType": "address",
          "name": "token",
          "type": "address"
        }
      ],
      "name": "SafeERC20FailedOperation",
      "type": "error"
    },
    {
      "inputs": [],
      "name": "Slippage",
      "type": "error"
    },
    {
      "inputs": [],
      "name": "StrategyNotActive",
      "type": "error"
    },
    {
      "inputs": [],
      "name": "vaultManagerOnly",
      "type": "error"
    },
    {
      "anonymous": false,
      "inputs": [
        {
          "indexed": true,
          "internalType": "address",
          "name": "owner",
          "type": "address"
        },
        {
          "indexed": true,
          "internalType": "address",
          "name": "spender",
          "type": "address"
        },
        {
          "indexed": false,
          "internalType": "uint256",
          "name": "value",
          "type": "uint256"
        }
      ],
      "name": "Approval",
      "type": "event"
    },
    {
      "anonymous": false,
      "inputs": [
        {
          "indexed": true,
          "internalType": "address",
          "name": "msgSender",
          "type": "address"
        }
      ],
      "name": "ApprovalExtended",
      "type": "event"
    },
    {
      "anonymous": false,
      "inputs": [
        {
          "indexed": true,
          "internalType": "bytes32",
          "name": "id",
          "type": "bytes32"
        }
      ],
      "name": "ChainlinkCancelled",
      "type": "event"
    },
    {
      "anonymous": false,
      "inputs": [
        {
          "indexed": true,
          "internalType": "bytes32",
          "name": "id",
          "type": "bytes32"
        }
      ],
      "name": "ChainlinkFulfilled",
      "type": "event"
    },
    {
      "anonymous": false,
      "inputs": [
        {
          "indexed": true,
          "internalType": "bytes32",
          "name": "id",
          "type": "bytes32"
        }
      ],
      "name": "ChainlinkRequested",
      "type": "event"
    },
    {
      "anonymous": false,
      "inputs": [
        {
          "indexed": true,
          "internalType": "address",
          "name": "sender",
          "type": "address"
        },
        {
          "indexed": true,
          "internalType": "address",
          "name": "owner",
          "type": "address"
        },
        {
          "indexed": false,
          "internalType": "uint256",
          "name": "assets",
          "type": "uint256"
        },
        {
          "indexed": false,
          "internalType": "uint256",
          "name": "shares",
          "type": "uint256"
        }
      ],
      "name": "Deposit",
      "type": "event"
    },
    {
      "anonymous": false,
      "inputs": [
        {
          "indexed": false,
          "internalType": "uint64",
          "name": "version",
          "type": "uint64"
        }
      ],
      "name": "Initialized",
      "type": "event"
    },
    {
      "anonymous": false,
      "inputs": [
        {
          "indexed": true,
          "internalType": "address",
          "name": "sender",
          "type": "address"
        },
        {
          "indexed": true,
          "internalType": "uint256",
          "name": "amount",
          "type": "uint256"
        }
      ],
      "name": "OracleFeeSet",
      "type": "event"
    },
    {
      "anonymous": false,
      "inputs": [
        {
          "indexed": false,
          "internalType": "address",
          "name": "account",
          "type": "address"
        }
      ],
      "name": "Paused",
      "type": "event"
    },
    {
      "anonymous": false,
      "inputs": [
        {
          "indexed": true,
          "internalType": "address",
          "name": "from",
          "type": "address"
        },
        {
          "indexed": true,
          "internalType": "address",
          "name": "to",
          "type": "address"
        },
        {
          "indexed": false,
          "internalType": "uint256",
          "name": "value",
          "type": "uint256"
        }
      ],
      "name": "Transfer",
      "type": "event"
    },
    {
      "anonymous": false,
      "inputs": [
        {
          "indexed": false,
          "internalType": "address",
          "name": "account",
          "type": "address"
        }
      ],
      "name": "Unpaused",
      "type": "event"
    },
    {
      "anonymous": false,
      "inputs": [
        {
          "indexed": true,
          "internalType": "address",
          "name": "sender",
          "type": "address"
        },
        {
          "indexed": true,
          "internalType": "address",
          "name": "receiver",
          "type": "address"
        },
        {
          "indexed": true,
          "internalType": "address",
          "name": "owner",
          "type": "address"
        },
        {
          "indexed": false,
          "internalType": "uint256",
          "name": "assets",
          "type": "uint256"
        },
        {
          "indexed": false,
          "internalType": "uint256",
          "name": "shares",
          "type": "uint256"
        }
      ],
      "name": "Withdraw",
      "type": "event"
    },
    {
      "inputs": [],
      "name": "GainsNetwork",
      "outputs": [
        {
          "internalType": "contract IGainsNetwork",
          "name": "",
          "type": "address"
        }
      ],
      "stateMutability": "view",
      "type": "function"
    },
    {
      "inputs": [],
      "name": "MAX_BLOCK_DIFFERENCE",
      "outputs": [
        {
          "internalType": "uint256",
          "name": "",
          "type": "uint256"
        }
      ],
      "stateMutability": "view",
      "type": "function"
    },
    {
      "inputs": [],
      "name": "SWAP_FEE",
      "outputs": [
        {
          "internalType": "uint256",
          "name": "",
          "type": "uint256"
        }
      ],
      "stateMutability": "view",
      "type": "function"
    },
    {
      "inputs": [],
      "name": "_asset",
      "outputs": [
        {
          "internalType": "contract IERC20Metadata",
          "name": "",
          "type": "address"
        }
      ],
      "stateMutability": "view",
      "type": "function"
    },
    {
      "inputs": [
        {
          "internalType": "address",
          "name": "owner",
          "type": "address"
        },
        {
          "internalType": "address",
          "name": "spender",
          "type": "address"
        }
      ],
      "name": "allowance",
      "outputs": [
        {
          "internalType": "uint256",
          "name": "",
          "type": "uint256"
        }
      ],
      "stateMutability": "view",
      "type": "function"
    },
    {
      "inputs": [
        {
          "internalType": "address",
          "name": "spender",
          "type": "address"
        },
        {
          "internalType": "uint256",
          "name": "value",
          "type": "uint256"
        }
      ],
      "name": "approve",
      "outputs": [
        {
          "internalType": "bool",
          "name": "",
          "type": "bool"
        }
      ],
      "stateMutability": "nonpayable",
      "type": "function"
    },
    {
      "inputs": [],
      "name": "asset",
      "outputs": [
        {
          "internalType": "address",
          "name": "",
          "type": "address"
        }
      ],
      "stateMutability": "view",
      "type": "function"
    },
    {
      "inputs": [
        {
          "internalType": "address",
          "name": "account",
          "type": "address"
        }
      ],
      "name": "balanceOf",
      "outputs": [
        {
          "internalType": "uint256",
          "name": "",
          "type": "uint256"
        }
      ],
      "stateMutability": "view",
      "type": "function"
    },
    {
      "inputs": [],
      "name": "balanceRequest",
      "outputs": [
        {
          "internalType": "bytes32",
          "name": "id",
          "type": "bytes32"
        },
        {
          "internalType": "address",
          "name": "callbackAddress",
          "type": "address"
        },
        {
          "internalType": "bytes4",
          "name": "callbackFunctionId",
          "type": "bytes4"
        },
        {
          "internalType": "uint256",
          "name": "nonce",
          "type": "uint256"
        },
        {
          "components": [
            {
              "internalType": "bytes",
              "name": "buf",
              "type": "bytes"
            },
            {
              "internalType": "uint256",
              "name": "capacity",
              "type": "uint256"
            }
          ],
          "internalType": "struct BufferChainlink.buffer",
          "name": "buf",
          "type": "tuple"
        }
      ],
      "stateMutability": "view",
      "type": "function"
    },
    {
      "inputs": [
        {
          "internalType": "uint256",
          "name": "",
          "type": "uint256"
        }
      ],
      "name": "c",
      "outputs": [
        {
          "internalType": "uint256",
          "name": "",
          "type": "uint256"
        }
      ],
      "stateMutability": "view",
      "type": "function"
    },
    {
      "inputs": [
        {
          "internalType": "uint256",
          "name": "shares",
          "type": "uint256"
        }
      ],
      "name": "convertToAssets",
      "outputs": [
        {
          "internalType": "uint256",
          "name": "",
          "type": "uint256"
        }
      ],
      "stateMutability": "nonpayable",
      "type": "function"
    },
    {
      "inputs": [
        {
          "internalType": "uint256",
          "name": "assets",
          "type": "uint256"
        }
      ],
      "name": "convertToShares",
      "outputs": [
        {
          "internalType": "uint256",
          "name": "",
          "type": "uint256"
        }
      ],
      "stateMutability": "nonpayable",
      "type": "function"
    },
    {
      "inputs": [],
      "name": "currentUser",
      "outputs": [
        {
          "internalType": "uint256",
          "name": "__placeholder",
          "type": "uint256"
        }
      ],
      "stateMutability": "view",
      "type": "function"
    },
    {
      "inputs": [],
      "name": "decimals",
      "outputs": [
        {
          "internalType": "uint8",
          "name": "",
          "type": "uint8"
        }
      ],
      "stateMutability": "view",
      "type": "function"
    },
    {
      "inputs": [
        {
          "internalType": "uint256",
          "name": "assets",
          "type": "uint256"
        },
        {
          "internalType": "address",
          "name": "receiver",
          "type": "address"
        }
      ],
      "name": "deposit",
      "outputs": [
        {
          "internalType": "uint256",
          "name": "",
          "type": "uint256"
        }
      ],
      "stateMutability": "nonpayable",
      "type": "function"
    },
    {
      "inputs": [
        {
          "internalType": "uint256",
          "name": "strategy",
          "type": "uint256"
        }
      ],
      "name": "executeStrategy",
      "outputs": [
        {
          "internalType": "bytes32",
          "name": "requestId",
          "type": "bytes32"
        }
      ],
      "stateMutability": "nonpayable",
      "type": "function"
    },
    {
      "inputs": [],
      "name": "extendApproval",
      "outputs": [],
      "stateMutability": "nonpayable",
      "type": "function"
    },
    {
      "inputs": [
        {
          "internalType": "bytes32",
          "name": "requestId",
          "type": "bytes32"
        },
        {
          "internalType": "uint256[]",
          "name": "data",
          "type": "uint256[]"
        }
      ],
      "name": "fulfill",
      "outputs": [],
      "stateMutability": "nonpayable",
      "type": "function"
    },
    {
      "inputs": [],
      "name": "getC",
      "outputs": [
        {
          "internalType": "uint256[]",
          "name": "",
          "type": "uint256[]"
        }
      ],
      "stateMutability": "view",
      "type": "function"
    },
    {
      "inputs": [
        {
          "internalType": "uint256",
          "name": "",
          "type": "uint256"
        }
      ],
      "name": "indexToPercentPosition",
      "outputs": [
        {
          "internalType": "uint256",
          "name": "",
          "type": "uint256"
        }
      ],
      "stateMutability": "view",
      "type": "function"
    },
    {
      "inputs": [
        {
          "internalType": "contract IERC20Metadata",
          "name": "__asset",
          "type": "address"
        },
        {
          "components": [
            {
              "internalType": "bytes32",
              "name": "id",
              "type": "bytes32"
            },
            {
              "internalType": "address",
              "name": "callbackAddress",
              "type": "address"
            },
            {
              "internalType": "bytes4",
              "name": "callbackFunctionId",
              "type": "bytes4"
            },
            {
              "internalType": "uint256",
              "name": "nonce",
              "type": "uint256"
            },
            {
              "components": [
                {
                  "internalType": "bytes",
                  "name": "buf",
                  "type": "bytes"
                },
                {
                  "internalType": "uint256",
                  "name": "capacity",
                  "type": "uint256"
                }
              ],
              "internalType": "struct BufferChainlink.buffer",
              "name": "buf",
              "type": "tuple"
            }
          ],
          "internalType": "struct Chainlink.Request",
          "name": "_req",
          "type": "tuple"
        },
        {
          "internalType": "uint256",
          "name": "startingBalance",
          "type": "uint256"
        },
        {
          "components": [
            {
              "internalType": "address",
              "name": "factoryOwner",
              "type": "address"
            },
            {
              "internalType": "address",
              "name": "vaultManager",
              "type": "address"
            },
            {
              "internalType": "address",
              "name": "chainLinkToken",
              "type": "address"
            },
            {
              "internalType": "address",
              "name": "oracleAddress",
              "type": "address"
            },
            {
              "internalType": "address",
              "name": "gainsAddress",
              "type": "address"
            }
          ],
          "internalType": "struct AutoVault.StartInfo",
          "name": "startingInfo",
          "type": "tuple"
        },
        {
          "internalType": "uint256[2]",
          "name": "startingFee",
          "type": "uint256[2]"
        },
        {
          "internalType": "string",
          "name": "_name",
          "type": "string"
        },
        {
          "internalType": "string",
          "name": "_symbol",
          "type": "string"
        },
        {
          "internalType": "address[]",
          "name": "_equations",
          "type": "address[]"
        }
      ],
      "name": "initialize",
      "outputs": [],
      "stateMutability": "nonpayable",
      "type": "function"
    },
    {
      "inputs": [
        {
          "internalType": "address",
          "name": "",
          "type": "address"
        }
      ],
      "name": "maxDeposit",
      "outputs": [
        {
          "internalType": "uint256",
          "name": "",
          "type": "uint256"
        }
      ],
      "stateMutability": "view",
      "type": "function"
    },
    {
      "inputs": [
        {
          "internalType": "address",
          "name": "",
          "type": "address"
        }
      ],
      "name": "maxMint",
      "outputs": [
        {
          "internalType": "uint256",
          "name": "",
          "type": "uint256"
        }
      ],
      "stateMutability": "view",
      "type": "function"
    },
    {
      "inputs": [
        {
          "internalType": "address",
          "name": "owner",
          "type": "address"
        }
      ],
      "name": "maxRedeem",
      "outputs": [
        {
          "internalType": "uint256",
          "name": "",
          "type": "uint256"
        }
      ],
      "stateMutability": "view",
      "type": "function"
    },
    {
      "inputs": [
        {
          "internalType": "address",
          "name": "owner",
          "type": "address"
        }
      ],
      "name": "maxWithdraw",
      "outputs": [
        {
          "internalType": "uint256",
          "name": "",
          "type": "uint256"
        }
      ],
      "stateMutability": "nonpayable",
      "type": "function"
    },
    {
      "inputs": [
        {
          "internalType": "uint256",
          "name": "shares",
          "type": "uint256"
        },
        {
          "internalType": "address",
          "name": "receiver",
          "type": "address"
        }
      ],
      "name": "mint",
      "outputs": [
        {
          "internalType": "uint256",
          "name": "",
          "type": "uint256"
        }
      ],
      "stateMutability": "nonpayable",
      "type": "function"
    },
    {
      "inputs": [],
      "name": "name",
      "outputs": [
        {
          "internalType": "string",
          "name": "",
          "type": "string"
        }
      ],
      "stateMutability": "view",
      "type": "function"
    },
    {
      "inputs": [],
      "name": "oracleFee",
      "outputs": [
        {
          "internalType": "uint256",
          "name": "",
          "type": "uint256"
        }
      ],
      "stateMutability": "view",
      "type": "function"
    },
    {
      "inputs": [],
      "name": "owner",
      "outputs": [
        {
          "internalType": "address",
          "name": "",
          "type": "address"
        }
      ],
      "stateMutability": "view",
      "type": "function"
    },
    {
      "inputs": [],
      "name": "pause",
      "outputs": [],
      "stateMutability": "nonpayable",
      "type": "function"
    },
    {
      "inputs": [],
      "name": "paused",
      "outputs": [
        {
          "internalType": "bool",
          "name": "",
          "type": "bool"
        }
      ],
      "stateMutability": "view",
      "type": "function"
    },
    {
      "inputs": [
        {
          "internalType": "bytes32",
          "name": "requestId",
          "type": "bytes32"
        },
        {
          "internalType": "uint256[]",
          "name": "data",
          "type": "uint256[]"
        }
      ],
      "name": "preformAction",
      "outputs": [],
      "stateMutability": "nonpayable",
      "type": "function"
    },
    {
      "inputs": [
        {
          "internalType": "uint256",
          "name": "assets",
          "type": "uint256"
        }
      ],
      "name": "previewDeposit",
      "outputs": [
        {
          "internalType": "uint256",
          "name": "",
          "type": "uint256"
        }
      ],
      "stateMutability": "nonpayable",
      "type": "function"
    },
    {
      "inputs": [
        {
          "internalType": "uint256",
          "name": "shares",
          "type": "uint256"
        }
      ],
      "name": "previewMint",
      "outputs": [
        {
          "internalType": "uint256",
          "name": "",
          "type": "uint256"
        }
      ],
      "stateMutability": "nonpayable",
      "type": "function"
    },
    {
      "inputs": [
        {
          "internalType": "uint256",
          "name": "shares",
          "type": "uint256"
        }
      ],
      "name": "previewRedeem",
      "outputs": [
        {
          "internalType": "uint256",
          "name": "",
          "type": "uint256"
        }
      ],
      "stateMutability": "nonpayable",
      "type": "function"
    },
    {
      "inputs": [
        {
          "internalType": "uint256",
          "name": "assets",
          "type": "uint256"
        }
      ],
      "name": "previewWithdraw",
      "outputs": [
        {
          "internalType": "uint256",
          "name": "",
          "type": "uint256"
        }
      ],
      "stateMutability": "nonpayable",
      "type": "function"
    },
    {
      "inputs": [
        {
          "internalType": "uint256",
          "name": "strategy",
          "type": "uint256"
        },
        {
          "internalType": "uint256[]",
          "name": "inputs",
          "type": "uint256[]"
        }
      ],
      "name": "processStrategy",
      "outputs": [
        {
          "internalType": "uint256",
          "name": "action",
          "type": "uint256"
        }
      ],
      "stateMutability": "view",
      "type": "function"
    },
    {
      "inputs": [
        {
          "internalType": "uint256",
          "name": "shares",
          "type": "uint256"
        },
        {
          "internalType": "address",
          "name": "receiver",
          "type": "address"
        },
        {
          "internalType": "address",
          "name": "owner",
          "type": "address"
        }
      ],
      "name": "redeem",
      "outputs": [
        {
          "internalType": "uint256",
          "name": "",
          "type": "uint256"
        }
      ],
      "stateMutability": "nonpayable",
      "type": "function"
    },
    {
      "inputs": [
        {
          "internalType": "bytes32",
          "name": "",
          "type": "bytes32"
        }
      ],
      "name": "requestToAction",
      "outputs": [
        {
          "internalType": "address",
          "name": "msgSender",
          "type": "address"
        },
        {
          "internalType": "address",
          "name": "receiver",
          "type": "address"
        },
        {
          "internalType": "uint256",
          "name": "amount",
          "type": "uint256"
        },
        {
          "internalType": "enum AutoVault.Choice",
          "name": "choice",
          "type": "uint8"
        },
        {
          "internalType": "uint256",
          "name": "slippage",
          "type": "uint256"
        }
      ],
      "stateMutability": "view",
      "type": "function"
    },
    {
      "inputs": [
        {
          "internalType": "bytes32",
          "name": "",
          "type": "bytes32"
        }
      ],
      "name": "requestToStrategy",
      "outputs": [
        {
          "internalType": "uint256",
          "name": "",
          "type": "uint256"
        }
      ],
      "stateMutability": "view",
      "type": "function"
    },
    {
      "inputs": [],
      "name": "returnStrategies",
      "outputs": [
        {
          "internalType": "address[]",
          "name": "",
          "type": "address[]"
        }
      ],
      "stateMutability": "view",
      "type": "function"
    },
    {
      "inputs": [
        {
          "internalType": "bytes32",
          "name": "",
          "type": "bytes32"
        }
      ],
      "name": "rewardBot",
      "outputs": [
        {
          "internalType": "uint256",
          "name": "masterFee",
          "type": "uint256"
        },
        {
          "internalType": "uint256",
          "name": "feeMultiplier",
          "type": "uint256"
        },
        {
          "internalType": "address",
          "name": "caller",
          "type": "address"
        }
      ],
      "stateMutability": "view",
      "type": "function"
    },
    {
      "inputs": [
        {
          "internalType": "uint256",
          "name": "amount",
          "type": "uint256"
        }
      ],
      "name": "setOracleFee",
      "outputs": [],
      "stateMutability": "nonpayable",
      "type": "function"
    },
    {
      "inputs": [],
      "name": "specialRefer",
      "outputs": [
        {
          "internalType": "address",
          "name": "",
          "type": "address"
        }
      ],
      "stateMutability": "view",
      "type": "function"
    },
    {
      "inputs": [
        {
          "internalType": "address",
          "name": "receiver",
          "type": "address"
        },
        {
          "internalType": "uint256",
          "name": "amount",
          "type": "uint256"
        },
        {
          "internalType": "enum AutoVault.Choice",
          "name": "choice",
          "type": "uint8"
        },
        {
          "internalType": "uint256",
          "name": "slippage",
          "type": "uint256"
        }
      ],
      "name": "startAction",
      "outputs": [
        {
          "internalType": "bytes32",
          "name": "requestId",
          "type": "bytes32"
        }
      ],
      "stateMutability": "nonpayable",
      "type": "function"
    },
    {
      "inputs": [
        {
          "internalType": "uint256",
          "name": "",
          "type": "uint256"
        }
      ],
      "name": "strategies",
      "outputs": [
        {
          "internalType": "address",
          "name": "",
          "type": "address"
        }
      ],
      "stateMutability": "view",
      "type": "function"
    },
    {
      "inputs": [
        {
          "internalType": "uint256",
          "name": "",
          "type": "uint256"
        }
      ],
      "name": "strategyToActive",
      "outputs": [
        {
          "internalType": "bool",
          "name": "",
          "type": "bool"
        }
      ],
      "stateMutability": "view",
      "type": "function"
    },
    {
      "inputs": [
        {
          "internalType": "uint256",
          "name": "",
          "type": "uint256"
        }
      ],
      "name": "strategyToIndex",
      "outputs": [
        {
          "internalType": "uint32",
          "name": "",
          "type": "uint32"
        }
      ],
      "stateMutability": "view",
      "type": "function"
    },
    {
      "inputs": [],
      "name": "symbol",
      "outputs": [
        {
          "internalType": "string",
          "name": "",
          "type": "string"
        }
      ],
      "stateMutability": "view",
      "type": "function"
    },
    {
      "inputs": [],
      "name": "tArray",
      "outputs": [
        {
          "internalType": "uint256",
          "name": "__placeholder",
          "type": "uint256"
        }
      ],
      "stateMutability": "view",
      "type": "function"
    },
    {
      "inputs": [],
      "name": "totalAssets",
      "outputs": [
        {
          "internalType": "uint256",
          "name": "",
          "type": "uint256"
        }
      ],
      "stateMutability": "nonpayable",
      "type": "function"
    },
    {
      "inputs": [],
      "name": "totalSupply",
      "outputs": [
        {
          "internalType": "uint256",
          "name": "",
          "type": "uint256"
        }
      ],
      "stateMutability": "view",
      "type": "function"
    },
    {
      "inputs": [],
      "name": "totalValueCollateral",
      "outputs": [
        {
          "internalType": "uint256",
          "name": "__placeholder",
          "type": "uint256"
        }
      ],
      "stateMutability": "view",
      "type": "function"
    },
    {
      "inputs": [],
      "name": "trade_path",
      "outputs": [
        {
          "internalType": "string",
          "name": "",
          "type": "string"
        }
      ],
      "stateMutability": "view",
      "type": "function"
    },
    {
      "inputs": [
        {
          "internalType": "address",
          "name": "to",
          "type": "address"
        },
        {
          "internalType": "uint256",
          "name": "value",
          "type": "uint256"
        }
      ],
      "name": "transfer",
      "outputs": [
        {
          "internalType": "bool",
          "name": "",
          "type": "bool"
        }
      ],
      "stateMutability": "nonpayable",
      "type": "function"
    },
    {
      "inputs": [
        {
          "internalType": "address",
          "name": "from",
          "type": "address"
        },
        {
          "internalType": "address",
          "name": "to",
          "type": "address"
        },
        {
          "internalType": "uint256",
          "name": "value",
          "type": "uint256"
        }
      ],
      "name": "transferFrom",
      "outputs": [
        {
          "internalType": "bool",
          "name": "",
          "type": "bool"
        }
      ],
      "stateMutability": "nonpayable",
      "type": "function"
    },
    {
      "inputs": [],
      "name": "unpause",
      "outputs": [],
      "stateMutability": "nonpayable",
      "type": "function"
    },
    {
      "inputs": [],
      "name": "vaultActionFee",
      "outputs": [
        {
          "internalType": "uint256",
          "name": "",
          "type": "uint256"
        }
      ],
      "stateMutability": "view",
      "type": "function"
    },
    {
      "inputs": [
        {
          "internalType": "uint256",
          "name": "assets",
          "type": "uint256"
        },
        {
          "internalType": "address",
          "name": "receiver",
          "type": "address"
        },
        {
          "internalType": "address",
          "name": "owner",
          "type": "address"
        }
      ],
      "name": "withdraw",
      "outputs": [
        {
          "internalType": "uint256",
          "name": "",
          "type": "uint256"
        }
      ],
      "stateMutability": "nonpayable",
      "type": "function"
    }
  ],
  "transactionHash": "0x3e40fcc2ee89535a941cb1910f11bf13b779daf5c3a3af9e580f99ae8e169180",
  "args": [],
  "numDeployments": 1,
  "solcInputHash": "911a0eee87ed0b08303a7de5810c822e",
  "bytecode": "0x60806040526001600a55601580546001600160a01b03191673b46838207d4cdc3b0f6d8862b8f0d29fee9380511790553480156039575f80fd5b50600c805460ff19169055615c6a806100515f395ff3fe608060405234801561000f575f80fd5b50600436106102a7575f3560e01c806301e1d114146102ab57806306fdde03146102c657806307a2d13a146102db578063095ea7b3146102ee5780630a28a4771461031157806318160ddd1461032457806323b872dd1461032c5780632aa94add1461033f578063313ce5671461035f57806338d52e0f146103795780633f4ba83a14610381578063402d267d1461038b57806342a1087b1461039e5780634594726d146103b157806347259a8c146103c457806347535f72146103cc5780634add7a0e146103d55780634cdad506146104305780634f8dd50d146104435780635a4cef7e146104565780635c975abb1461047857806366c700061461048357806368d31659146104965780636e553f65146104ab57806370a08231146104be578063768aebde146104d15780637d229d79146104da578063843f7b89146105145780638456cb591461052d578063887a2f72146105355780638da5cb5b1461054857806392ee03341461055957806394bf804d1461056357806395d89b41146105765780639b7857361461057e578063a2375d1e146105db578063a9059cbb146105f0578063b3d7f6b914610603578063b460af9414610616578063b6d9ef6014610629578063ba0876521461063c578063bceec4de1461064f578063c11c384914610657578063c63d75b61461038b578063c6e6f59214610661578063cba7069414610674578063ce96cb77146106ae578063d3520d2f146106c1578063d574ea3d146106d4578063d905777e146106e7578063d9966fb7146106fa578063d99c5ceb14610719578063dd62ed3e14610738578063e7181f831461074b578063e97355711461075e578063ec60640b14610768578063ef8b30f71461077b578063f9cd3ceb1461078e578063fcea5e2914610797575b5f80fd5b6102b36107aa565b6040519081526020015b60405180910390f35b6102ce610870565b6040516102bd91906146e7565b6102b36102e93660046146f9565b610900565b6103016102fc366004614724565b610911565b60405190151581526020016102bd565b6102b361031f3660046146f9565b610932565b6002546102b3565b61030161033a36600461474e565b610963565b601554610352906001600160a01b031681565b6040516102bd9190614799565b610367610990565b60405160ff90911681526020016102bd565b6103526109ae565b6103896109bd565b005b6102b36103993660046147ad565b6109fa565b6103896103ac366004614b37565b610a00565b6102b36103bf366004614c2c565b610cb5565b6102b3601481565b6102b360225481565b61040c6103e33660046146f9565b60236020525f90815260409020805460018201546002909201549091906001600160a01b031683565b6040805193845260208401929092526001600160a01b0316908201526060016102bd565b6102b361043e3660046146f9565b61102f565b6102b36104513660046146f9565b61105a565b6103016104643660046146f9565b600f6020525f908152604090205460ff1681565b600c5460ff16610301565b601354610352906001600160a01b031681565b61049e611079565b6040516102bd9190614c74565b6102b36104b9366004614cb4565b6110d8565b6102b36104cc3660046147ad565b61113c565b6102b36107d081565b6104ff6104e83660046146f9565b600e6020525f908152604090205463ffffffff1681565b60405163ffffffff90911681526020016102bd565b61051c611156565b6040516102bd959493929190614d0a565b610389611227565b6102b36105433660046146f9565b611262565b6016546001600160a01b0316610352565b6019546102b39081565b6102b3610571366004614cb4565b6113bf565b6102ce611412565b6105ca61058c3660046146f9565b60116020525f9081526040902080546001820154600283015460038401546004909401546001600160a01b03938416949290931692909160ff169085565b6040516102bd959493929190614d69565b6105e3611421565b6040516102bd9190614dab565b6103016105fe366004614724565b611476565b6102b36106113660046146f9565b61148d565b6102b3610624366004614de2565b6114af565b6103896106373660046146f9565b61153a565b6102b361064a366004614de2565b611599565b6103896115f8565b601a546102b39081565b6102b361066f3660046146f9565b61169c565b6102ce6040518060400160405280601b81526020017a3a37ba30b621b7b63630ba32b930b61db13637b1b5a73ab6b132b960291b81525081565b6102b36106bc3660046147ad565b6116a7565b6103896106cf366004614e21565b6116ba565b6103526106e23660046146f9565b611c88565b6102b36106f53660046147ad565b611cb0565b6102b36107083660046146f9565b600d6020525f908152604090205481565b6102b36107273660046146f9565b60106020525f908152604090205481565b6102b3610746366004614ebd565b611ccb565b6102b3610759366004614f30565b611cf5565b6018546102b39081565b610389610776366004614f30565b611d2f565b6102b36107893660046146f9565b611f8d565b6102b360215481565b600554610352906001600160a01b031681565b60135460405163012feb5f60e61b81525f9182916001600160a01b0390911690634bfad7c0906107de903090600401614799565b5f60405180830381865afa1580156107f8573d5f803e3d5ffd5b505050506040513d5f823e601f3d908101601f1916820160405261081f9190810190615129565b51156108575760185c5f03610847576040516365207ee360e01b815260040160405180910390fd5b610854600160185c6151cf565b90505b80610860611fd3565b61086a91906151e2565b91505090565b60606003805461087f906151f5565b80601f01602080910402602001604051908101604052809291908181526020018280546108ab906151f5565b80156108f65780601f106108cd576101008083540402835291602001916108f6565b820191905f5260205f20905b8154815290600101906020018083116108d957829003601f168201915b5050505050905090565b5f61090b825f612042565b92915050565b5f8061091b61207a565b9050610928818585612090565b5060019392505050565b5f806109488360505b61094361207a565b6120a2565b905061095c61095782856151e2565b612151565b9392505050565b5f8061096d61207a565b905061097a85828561215d565b6109858585856121a7565b506001949350505050565b5f806005546109a99190600160a01b900460ff16615227565b905090565b6005546001600160a01b031690565b6109c561220e565b6016546001600160a01b031633146109f0576040516382132dff60e01b815260040160405180910390fd5b6109f8612231565b565b505f1990565b5f610a09612283565b805490915060ff600160401b82041615906001600160401b03165f81158015610a2f5750825b90505f826001600160401b03166001148015610a4a5750303b155b905081158015610a58575080155b15610a765760405163f92ee8a960e01b815260040160405180910390fd5b84546001600160401b03191660011785558315610a9f57845460ff60401b1916600160401b1785555b600580546001600160a01b0319166001600160a01b038f16908117909155610ac6906122a7565b610ad0888861230c565b8551610ae3906012906020890190614629565b5060808a0151601380546001600160a01b03199081166001600160a01b039384161790915560208c015160168054831682851617905560178054339084161790558c51601580549093169316929092179055610b40908c9061232d565b885f602002015160215588600160200201516022819055508b601b5f820151815f01556020820151816001015f6101000a8154816001600160a01b0302191690836001600160a01b0316021790555060408201518160010160146101000a81548163ffffffff021916908360e01c0217905550606082015181600201556080820151816003015f820151815f019081610bd99190615298565b5060209190910151600190910155505060055460808b015160405163095ea7b360e01b81526001600160a01b039092169163095ea7b391610c1f915f1990600401615352565b6020604051808303815f875af1158015610c3b573d5f803e3d5ffd5b505050506040513d601f19601f82011682018060405250810190610c5f919061536b565b508315610ca657845460ff60401b19168555604051600181527fc7f505b2f371ae2175ee4913f4499e1f2633a7b5936321eed1cdaeb6115181d29060200160405180910390a15b50505050505050505050505050565b604080518082018252601b81527a3a37ba30b621b7b63630ba32b930b61db13637b1b5a73ab6b132b960291b6020820152601354915163012feb5f60e61b81525f9283916001600160a01b0390911690634bfad7c090610d19903090600401614799565b5f60405180830381865afa158015610d33573d5f803e3d5ffd5b505050506040513d5f823e601f3d908101601f19168201604052610d5a9190810190615129565b90505f5b8151811015610dbe5782604051602001610d78919061539b565b604051602081830303815290604052925082610d938261238a565b604051602001610da49291906153c4565b60408051601f198184030181529190529250600101610d5e565b5060408051808201825260048152630e0c2e8d60e31b602080830191909152825160a081018452601b80548252601c546001600160a01b03811693830193909352600160a01b90920460e01b6001600160e01b03191681850152601d5460608201528351808501909452601e8054610edb95889492608085019282908290610e45906151f5565b80601f0160208091040260200160405190810160405280929190818152602001828054610e71906151f5565b8015610ebc5780601f10610e9357610100808354040283529160200191610ebc565b820191905f5260205f20905b815481529060010190602001808311610e9f57829003601f168201915b5050509183525050600191909101546020909101529052509190612419565b601754601454604051631f0fa37560e21b81526001600160a01b0390921691637c3e8dd491610f11913391601b916004016153d8565b6020604051808303815f875af1158015610f2d573d5f803e3d5ffd5b505050506040513d601f19601f82011682018060405250810190610f5191906154cd565b92506040518060a00160405280336001600160a01b03168152602001886001600160a01b03168152602001878152602001866003811115610f9457610f94614d55565b815260209081018690525f85815260118252604090819020835181546001600160a01b039182166001600160a01b03199182161783559385015160018084018054929093169190951617905590830151600282015560608301516003808301805493949293909260ff1990911691849081111561101357611013614d55565b0217905550608082015181600401559050505050949350505050565b5f8061103a83610900565b90506110508160505b61104b61207a565b612437565b61095c90826151cf565b60248181548110611069575f80fd5b5f91825260209091200154905081565b606060128054806020026020016040519081016040528092919081815260200182805480156108f657602002820191905f5260205f20905b81546001600160a01b031681526001909101906020018083116110b1575050505050905090565b5f806110e3836109fa565b90508084111561111557828482604051633c8097d960e11b815260040161110c939291906154e4565b60405180910390fd5b5f61111f85611f8d565b905061113461112c61207a565b8587846124ac565b949350505050565b6001600160a01b03165f9081526020819052604090205490565b601b8054601c54601d5460408051808201909152601e805494956001600160a01b03851695600160a01b90950460e01b949092919082908290611198906151f5565b80601f01602080910402602001604051908101604052809291908181526020018280546111c4906151f5565b801561120f5780601f106111e65761010080835404028352916020019161120f565b820191905f5260205f20905b8154815290600101906020018083116111f257829003601f168201915b50505050508152602001600182015481525050905085565b61122f61258f565b6016546001600160a01b0316331461125a576040516382132dff60e01b815260040160405180910390fd5b6109f86125b3565b5f61126b61258f565b5f8061129c6012858154811061128357611283615240565b5f918252602090912001546001600160a01b03166125f1565b8060200190518101906112af9190615552565b50601754601454604051631f0fa37560e21b81529395509193506001600160a01b031691637c3e8dd4916112e9913391869160040161566c565b6020604051808303815f875af1158015611305573d5f803e3d5ffd5b505050506040513d601f19601f8201168201806040525081019061132991906154cd565b925083600d5f8581526020019081526020015f2081905550604051806060016040528061136a602154600261135e91906156e0565b85620f42406001612612565b8152602080820194909452336040918201525f85815260238552819020825181559382015160018501550151600290920180546001600160a01b0319166001600160a01b039093169290921790915550919050565b5f806113ca836109fa565b9050808411156113f35782848260405163284ff66760e01b815260040161110c939291906154e4565b5f6113fd8561148d565b905061113461140a61207a565b8583886124ac565b60606004805461087f906151f5565b606060248054806020026020016040519081016040528092919081815260200182805480156108f657602002820191905f5260205f20905b815481526020019060010190808311611459575050505050905090565b5f8061148061207a565b90506109288185856121a7565b5f8061149883612655565b90506114a581605061093b565b61095c90826151e2565b5f806114ba836116a7565b9050808511156114e357828582604051633fa733bb60e21b815260040161110c939291906154e4565b5f6114ed86610932565b905061151d6040518060400160405280600b81526020016a53656e64696e672068696d60a81b8152508783612661565b61153161152861207a565b868689856126a8565b95945050505050565b6016546001600160a01b03163314611565576040516382132dff60e01b815260040160405180910390fd5b6021819055604051819033907fd1c7e5d57b6811db0273fa5f27c718c9d8119ccd9eed61ce7fdf4db9339bf030905f90a350565b5f6115a584848461275f565b5f6115af83611cb0565b9050808511156115d857828582604051632e52afbb60e21b815260040161110c939291906154e4565b5f6115e28661102f565b90506115316115ef61207a565b8686848a6126a8565b60055460135460405163095ea7b360e01b81526001600160a01b039283169263095ea7b39261162f929116905f1990600401615352565b6020604051808303815f875af115801561164b573d5f803e3d5ffd5b505050506040513d601f19601f8201168201806040525081019061166f919061536b565b5060405133907fc024f0024e98f69c1d2646892abdc79f3dba1964f11b19bd049a78283d94e1c6905f90a2565b5f61090b825f6127a6565b5f61090b6116b48361113c565b5f612042565b6017546001600160a01b031633146116e557604051631e0b442760e31b815260040160405180910390fd5b5f828152601160209081526040808320815160a08101835281546001600160a01b03908116825260018301541693810193909352600281015491830191909152600380820154606084019160ff9091169081111561174557611745614d55565b600381111561175657611756614d55565b8152600491909101546020909101528051909150611776906019906127d5565b6005546040805163313ce56760e01b81529051600a926001600160a01b03169163313ce5679160048083019260209291908290030181865afa1580156117be573d5f803e3d5ffd5b505050506040513d601f19601f820116820180604052508101906117e291906156f7565b60ff1610156118b9576005546040805163313ce56760e01b815290515f926001600160a01b03169163313ce5679160048083019260209291908290030181865afa158015611832573d5f803e3d5ffd5b505050506040513d601f19601f8201168201806040525081019061185691906156f7565b61186190600a615710565b60ff16905061187181600a615804565b835f8151811061188357611883615240565b60200260200101516118959190615823565b835f815181106118a7576118a7615240565b6020026020010181815250505061198e565b5f601260055f9054906101000a90046001600160a01b03166001600160a01b031663313ce5676040518163ffffffff1660e01b8152600401602060405180830381865afa15801561190c573d5f803e3d5ffd5b505050506040513d601f19601f8201168201806040525081019061193091906156f7565b61193a9190615710565b60ff16905061194a81600a615804565b835f8151811061195c5761195c615240565b602002602001015161196e91906156e0565b835f8151811061198057611980615240565b602002602001018181525050505b6119e65f835f815181106119a4576119a4615240565b6020026020010151116119b85760016119de565b825f815181106119ca576119ca615240565b602002602001015160016119de91906151e2565b6018906127d5565b60025b8251811015611a2757611a1f838281518110611a0757611a07615240565b6020026020010151601a6127dc90919063ffffffff16565b6001016119e9565b504360146402540be40084600181518110611a4457611a44615240565b6020026020010151611a569190615823565b611a6091906151e2565b1015611ab7576402540be40082600181518110611a7f57611a7f615240565b6020026020010151611a919190615823565b611a9b90436151cf565b6040516305b8764760e51b815260040161110c91815260200190565b5f8082606001516003811115611acf57611acf614d55565b03611b495760408083015160208401519151636e553f6560e01b81523092636e553f6592611b0292909190600401615836565b6020604051808303815f875af1158015611b1e573d5f803e3d5ffd5b505050506040513d601f19601f82011682018060405250810190611b4291906154cd565b9050611c47565b600182606001516003811115611b6157611b61614d55565b03611b9457604080830151602084015191516394bf804d60e01b815230926394bf804d92611b0292909190600401615836565b600282606001516003811115611bac57611bac614d55565b03611bf057306001600160a01b031663b460af9483604001518460200151611bd261207a565b6040518463ffffffff1660e01b8152600401611b029392919061584d565b600382606001516003811115611c0857611c08614d55565b03611c2e57306001600160a01b031663ba08765283604001518460200151611bd261207a565b604051634a7f394f60e01b815260040160405180910390fd5b8082608001511115611c6c576040516307dd37f760e41b815260040160405180910390fd5b611c7760185f6127d5565b611c8260195f6127d5565b50505050565b60128181548110611c97575f80fd5b5f918252602090912001546001600160a01b0316905081565b5f611cc2611cbd8361113c565b6127f1565b61090b8261113c565b6001600160a01b039182165f90815260016020908152604080832093909416825291909152205490565b5f80611d0d6012868154811061128357611283615240565b806020019051810190611d209190615552565b92505050611531818585612839565b611d3761258f565b6017546001600160a01b03163314611d6257604051631e0b442760e31b815260040160405180910390fd5b436014670de0b6b3a764000084846001818110611d8157611d81615240565b90506020020135611d929190615823565b611d9c91906151e2565b1015611dcf57670de0b6b3a764000082826001818110611dbe57611dbe615240565b90506020020135611a919190615823565b5f838152600d602052604081205490611de9828585611cf5565b9050805f03611e0b576040516397587a3360e01b815260040160405180910390fd5b5f828152600e602052604081205463ffffffff1690819003611eac57601354604051630109786b60e11b81525f916001600160a01b031690630212f0d690611e59903090859060040161586c565b606060405180830381865afa158015611e74573d5f803e3d5ffd5b505050506040513d601f19601f82011682018060405250810190611e989190615899565b8051909150611ea8906001615904565b9150505b5f86815260236020908152604091829020825160608101845281548152600180830154938201939093526002909101546001600160a01b031692810192909252611f2e90611efa9084615920565b6305f5e10088885f818110611f1157611f11615240565b90506020020135611f229190615823565b83602001518688612851565b611f5881604001516003602154611f459190615823565b6005546001600160a01b03169190612ee5565b601754602154611f84916001600160a01b031690611f7890600390615823565b8351611f4591906151cf565b50505050505050565b5f80611f9a836050611043565b9050611fc6604051806040016040528060088152602001677265616c2066656560c01b81525082612f3d565b61095c61066f82856151cf565b6005546040516370a0823160e01b81525f916001600160a01b0316906370a0823190612003903090600401614799565b602060405180830381865afa15801561201e573d5f803e3d5ffd5b505050506040513d601f19601f820116820180604052508101906109a991906154cd565b5f61095c61204e6107aa565b6120599060016151e2565b6120645f600a61593c565b60025461207191906151e2565b85919085612612565b5f60185c5f0361208957503390565b5060195c90565b61209d8383836001612f86565b505050565b5f805f6120ad613058565b91509150816001600160a01b0316846001600160a01b031614806120e25750806001600160a01b0316846001600160a01b0316145b156121275760185c15155b1561211d5760026120fd60225490565b6121079190615823565b60225461211491906151cf565b9250505061095c565b5f9250505061095c565b61214761213360225490565b61214288886127106001612612565b61306f565b9695505050505050565b5f61090b8260016127a6565b5f6121688484611ccb565b90505f198114611c82578181101561219957828183604051637dc7a0d960e11b815260040161110c939291906154e4565b611c8284848484035f612f86565b6121b18383613084565b6001600160a01b0383166121da575f604051634b637e8f60e11b815260040161110c9190614799565b6001600160a01b038216612203575f60405163ec442f0560e01b815260040161110c9190614799565b61209d8383836130c8565b600c5460ff166109f857604051638dfc202b60e01b815260040160405180910390fd5b61223961220e565b600c805460ff191690557f5db9ee0a495bf2e6ff9c91a7834c1ba4fdd244a5e8aa4e537bd38aeae4b073aa61226c61207a565b6040516122799190614799565b60405180910390a1565b7ff0c57e16840df040f15088dc2f81fe391c3923bec73e23a9662efc9c229c6a0090565b6122af6131ce565b5f806122ba836131f3565b91509150816122ca5760126122cc565b805b600580546001600160a01b039095166001600160a01b031960ff93909316600160a01b02929092166001600160a81b031990951694909417179092555050565b6123146131ce565b60036123208382615298565b50600461209d8282615298565b5f61233783611f8d565b905061234382826132c9565b6001600160a01b0382165f8181526020808052604091829020429055815186815290810184905282915f80516020615c1583398151915291015b60405180910390a3505050565b60605f612396836132fd565b60010190505f816001600160401b038111156123b4576123b46147d8565b6040519080825280601f01601f1916602001820160405280156123de576020820181803683370190505b5090508181016020015b5f19016f181899199a1a9b1b9c1cb0b131b232b360811b600a86061a8153600a85049450846123e857509392505050565b608083015161242890836133d2565b608083015161209d90826133d2565b5f805f612442613058565b91509150816001600160a01b0316846001600160a01b031614806124775750806001600160a01b0316846001600160a01b0316145b156124865760185c15156120ed565b61214761249260225490565b612142876124a2612710826151e2565b8a91906001612612565b5f6124b8836050611043565b90505f806124c4613058565b915091506124ef6040518060400160405280600381526020016246656560e81b8152508487876133e9565b5f8311801561250f5750856001600160a01b0316816001600160a01b0316145b1561252b5761252661251f6109ae565b8385612ee5565b61257e565b5f8311801561254357506001600160a01b0381163014155b1561257e575f8061255385613432565b915091506125696125626109ae565b8584612ee5565b61257b6125746109ae565b8483612ee5565b50505b61258a8787878761345d565b611f84565b600c5460ff16156109f85760405163d93c066560e01b815260040160405180910390fd5b6125bb61258f565b600c805460ff191660011790557f62e78cea01bee320cd4e420270b5ea74000d11b0c9f74754ebdbfc544b05a25861226c61207a565b606061090b82600161260d816001600160a01b0384163b6151cf565b6134ba565b5f8061261f8686866134dd565b905061262a8361359c565b801561264557505f84806126405761264061580f565b868809115b15611531576121476001826151e2565b5f61090b826001612042565b61209d8383836040516024016126799392919061594a565b60408051601f198184030181529190526020810180516001600160e01b031663ca47c4eb60e01b1790526135c8565b5f6126b483605061093b565b90505f806126c0613058565b915091506126ce87866135d1565b5f831180156126ee5750866001600160a01b0316816001600160a01b0316145b15612703576126fe61251f6109ae565b612748565b5f8311801561271b57506001600160a01b0381163014155b15612748575f8061272b85613432565b9150915061273a6125626109ae565b6127456125746109ae565b50505b61275588888888886137e3565b5050505050505050565b61209d8383836040516024016127779392919061584d565b60408051601f198184030181529190526020810180516001600160e01b03166305e7ecdf60e51b1790526135c8565b5f61095c6127b582600a61593c565b6002546127c291906151e2565b6127ca6107aa565b6120719060016151e2565b80825d5050565b815c60018101835d818160010184015d505050565b6128368160405160240161280791815260200190565b60408051601f198184030181529190526020810180516001600160e01b031663f82c50f160e01b1790526135c8565b50565b5f80612847855f868661388f565b5095945050505050565b60fc82901c801580159061287357505f828152600f602052604090205460ff16155b1561289157604051631b92e95360e31b815260040160405180910390fd5b61289a816127f1565b805f036129a3575f806128ae858989613bd8565b915091506128ca8261010001516001600160781b031687613ea8565b82610100018181516128dc919061596e565b6001600160781b031690525060135460155460405163111970f960e21b81526001600160a01b0392831692634465c3e49261292392879260ec8c901c9216906004016159a1565b5f604051808303815f87803b15801561293a575f80fd5b505af115801561294c573d5f803e3d5ffd5b5050505f858152600f60205260409020805460ff1916600190811790915561297691508990615904565b5f858152600e60205260409020805463ffffffff191663ffffffff9290921691909117905550612edd9050565b80600103612a2d576013546001600160a01b031663b5d9e9d0876129de6001600160401b03891663ffffffff60dc89901c16620f42406134dd565b6040518363ffffffff1660e01b81526004016129fb929190615af3565b5f604051808303815f87803b158015612a12575f80fd5b505af1158015612a24573d5f803e3d5ffd5b50505050612edd565b80600203612a68576013546001600160a01b031663f401f2bb876129de6001600160401b03891663ffffffff60dc89901c16620f42406134dd565b80600303612b3b576013546001600160a01b031663a4bb127e87612aa36001600160401b03891663ffffffff60cc89901c16620f42406134dd565b612ac4896001600160401b031660ac89901c63ffffffff16620f42406134dd565b612ae58a6001600160401b0316608c8a901c63ffffffff16620f42406134dd565b6040516001600160e01b031960e087901b16815263ffffffff9490941660048501526001600160401b039283166024850152908216604484015216606482015261ffff60ec87901c16608482015260a4016129fb565b80600403612bbc57601354604051638588633360e01b815263ffffffff881660048201526001600160a01b03909116906385886333906024015b5f604051808303815f87803b158015612b8c575f80fd5b505af1158015612b9e573d5f803e3d5ffd5b5050505f838152600f60205260409020805460ff1916905550612edd565b80600503612bf6576013546040516336ce736b60e01b81526001600160a01b03909116906336ce736b90612b759089908990600401615af3565b80600603612c43576013546040516305e74d5560e11b815263ffffffff8816600482015262ffffff60e486901c1660248201526001600160a01b0390911690630bce9aaa906044016129fb565b80600703612d74576013546040516315878e0760e01b81525f916001600160a01b0316906315878e0790612c7d9030908b90600401615b12565b6101a060405180830381865afa158015612c99573d5f803e3d5ffd5b505050506040513d601f19601f82011682018060405250810190612cbd9190615b31565b6013546101008201519192506001600160a01b03169063a7cac572908990612cfc906001600160781b031663ffffffff60dc8a901c16620f42406134dd565b60c488901c612d228b6001600160401b031660a48b901c63ffffffff16620f42406134dd565b6040518563ffffffff1660e01b8152600401612d419493929190615b4c565b5f604051808303815f87803b158015612d58575f80fd5b505af1158015612d6a573d5f803e3d5ffd5b5050505050612edd565b80600803612edd576013546040516315878e0760e01b81525f916001600160a01b0316906315878e0790612dae9030908b90600401615b12565b6101a060405180830381865afa158015612dca573d5f803e3d5ffd5b505050506040513d601f19601f82011682018060405250810190612dee9190615b31565b6013546101008201519192506001600160a01b0316906324058ad3908990612e2d906001600160781b031663ffffffff60cc8a901c16620f42406134dd565b60b488901c612e538b6001600160401b031660948b901c63ffffffff16620f42406134dd565b6040516001600160e01b031960e087901b16815263ffffffff9490941660048501526001600160781b03909216602484015262ffffff1660448301526001600160401b0316606482015261ffff60ec88901c16608482015260a4015f604051808303815f87803b158015612ec5575f80fd5b505af1158015612ed7573d5f803e3d5ffd5b50505050505b505050505050565b61209d83846001600160a01b031663a9059cbb8585604051602401612f0b929190615352565b604051602081830303815290604052915060e01b6020820180516001600160e01b038381831617835250505050613f5d565b612f828282604051602401612f53929190615b86565b60408051601f198184030181529190526020810180516001600160e01b0316632d839cb360e21b1790526135c8565b5050565b6001600160a01b038416612faf575f60405163e602df0560e01b815260040161110c9190614799565b6001600160a01b038316612fd8575f604051634a1406b160e11b815260040161110c9190614799565b6001600160a01b038085165f9081526001602090815260408083209387168352929052208290558015611c8257826001600160a01b0316846001600160a01b03167f8c5be1e5ebec7d5bd14f71427d1e84f3dd0314c0f7b2291e5b200ac8c7c3b9258460405161304a91815260200190565b60405180910390a350505050565b6017546016546001600160a01b0391821692911690565b5f81831161307d578161095c565b5090919050565b6001600160a01b0382165f90815260208052604090205442906130a990603c906151e2565b1115612f825760405163a02bb8e960e01b815260040160405180910390fd5b6001600160a01b0383166130f2578060025f8282546130e791906151e2565b9091555061314f9050565b6001600160a01b0383165f90815260208190526040902054818110156131315783818360405163391434e360e21b815260040161110c939291906154e4565b6001600160a01b0384165f9081526020819052604090209082900390555b6001600160a01b03821661316b57600280548290039055613189565b6001600160a01b0382165f9081526020819052604090208054820190555b816001600160a01b0316836001600160a01b03167fddf252ad1be2c89b69c2b068fc378daa952ba7f163c4a11628f55a4df523b3ef8360405161237d91815260200190565b6131d6613fb5565b6109f857604051631afcd79f60e31b815260040160405180910390fd5b60408051600481526024810182526020810180516001600160e01b031663313ce56760e01b17905290515f918291829182916001600160a01b0387169161323991615ba7565b5f60405180830381855afa9150503d805f8114613271576040519150601f19603f3d011682016040523d82523d5f602084013e613276565b606091505b509150915081801561328a57506020815110155b156132bd575f818060200190518101906132a491906154cd565b905060ff81116132bb576001969095509350505050565b505b505f9485945092505050565b6001600160a01b0382166132f2575f60405163ec442f0560e01b815260040161110c9190614799565b612f825f83836130c8565b5f8072184f03e93ff9f4daa797ed6e38ed64bf6a1f0160401b831061333b5772184f03e93ff9f4daa797ed6e38ed64bf6a1f0160401b830492506040015b6904ee2d6d415b85acef8160201b8310613365576904ee2d6d415b85acef8160201b830492506020015b662386f26fc10000831061338357662386f26fc10000830492506010015b6305f5e100831061339b576305f5e100830492506008015b61271083106133af57612710830492506004015b606483106133c1576064830492506002015b600a831061090b5760010192915050565b6133df8260038351613fce565b61209d82826140d5565b611c82848484846040516024016134039493929190615bb2565b60408051601f198184030181529190526020810180516001600160e01b031663a7a8785360e01b1790526135c8565b5f8061343f600284615823565b61344a600285615823565b61345490856151cf565b91509150915091565b600554613475906001600160a01b03168530856140ee565b61347f83826132c9565b826001600160a01b0316846001600160a01b03165f80516020615c15833981519152848460405161304a929190918252602082015260400190565b60408051603f8301601f19168101909152818152818360208301863c9392505050565b5f838302815f1985870982811083820303915050805f03613511578382816135075761350761580f565b049250505061095c565b8084116135315760405163227bc15360e01b815260040160405180910390fd5b5f848688095f868103871696879004966002600389028118808a02820302808a02820302808a02820302808a02820302808a02820302808a02909103029181900381900460010186841190950394909402919094039290920491909117919091029150509392505050565b5f60028260038111156135b1576135b1614d55565b6135bb9190615be0565b60ff166001149050919050565b61283681614127565b6001600160a01b0382165f90815260208052604090205442906135f690603c906151e2565b11156136155760405163a02bb8e960e01b815260040160405180910390fd5b60135460405163012feb5f60e61b81525f916001600160a01b031690634bfad7c090613645903090600401614799565b5f60405180830381865afa15801561365f573d5f803e3d5ffd5b505050506040513d5f823e601f3d908101601f191682016040526136869190810190615129565b905080515f0361369557505050565b5f306001600160a01b03166301e1d1146040518163ffffffff1660e01b81526004016020604051808303815f875af11580156136d3573d5f803e3d5ffd5b505050506040513d601f19601f820116820180604052508101906136f791906154cd565b90505f5b82518110156137dc575f6137378585848151811061371b5761371b615240565b602002602001015161010001516001600160781b0316856134dd565b60135485519192506001600160a01b03169063a7cac5729086908590811061376157613761615240565b602002602001015160200151835f61378387601a61414690919063ffffffff16565b6040518563ffffffff1660e01b81526004016137a29493929190615b4c565b5f604051808303815f87803b1580156137b9575f80fd5b505af11580156137cb573d5f803e3d5ffd5b5050600190930192506136fb915050565b5050505050565b826001600160a01b0316856001600160a01b0316146138075761380783868361215d565b6138118382614173565b600554613828906001600160a01b03168584612ee5565b826001600160a01b0316846001600160a01b0316866001600160a01b03167ffbde797d201c681b91056529119e0b02407c7bb96a4a2c75c01fc9667232c8db8585604051613880929190918252602082015260400190565b60405180910390a45050505050565b5f805f8686815181106138a4576138a4615240565b016020015160f81c90505f6138ba8760016151e2565b905060ff82166138e4576138ce88826141a7565b6138d98260206151e2565b935093505050613bcf565b5f1960ff831601613976575f6138fa89836141a7565b90508581106139445760405162461bcd60e51b8152602060048201526016602482015275092dcecc2d8d2c840ecc2e4d2c2c4d8ca40d2dcc8caf60531b604482015260640161110c565b86868281811061395657613956615240565b9050602002013582602061396a91906151e2565b94509450505050613bcf565b5f806139848a848a8a61388f565b9350915060011960ff8516016139ab5761399d826141fd565b839550955050505050613bcf565b60021960ff8516016139d75781156139c3575f6139c6565b60015b60ff169550919350613bcf92505050565b6139e38a848a8a61388f565b9350905060031960ff8516016139fd5761399d81836151e2565b60041960ff851601613a135761399d81836151cf565b60051960ff851601613a295761399d81836156e0565b60061960ff851601613a3f5761399d8183615823565b60071960ff851601613a555761399d8282614273565b60081960ff851601613a7e57670de0b6b3a7640000613a7482846156e0565b61399d9190615823565b60091960ff851601613a97578082146139c3575f6139c6565b600a1960ff851601613ab0578082036139c3575f6139c6565b600b1960ff851601613ac9578082106139c3575f6139c6565b600c1960ff851601613ae2578082116139c3575f6139c6565b600d1960ff851601613afc57808211156139c3575f6139c6565b600e1960ff851601613b1657808210156139c3575f6139c6565b600f1960ff851601613b3a578115801590613b3057508015155b6139c3575f6139c6565b60101960ff851601613b5a5781151580613b305750806139c3575f6139c6565b60111960ff851601613b96575f613b738b858b8b61388f565b945090505f839003613b855780613b87565b815b84965096505050505050613bcf565b60405162461bcd60e51b815260206004820152600e60248201526d496e76616c6964206f70636f646560901b604482015260640161110c565b94509492505050565b604080516101a0810182525f80825260208201819052918101829052606081018290526080810182905260a0810182905260c0810182905260e081018290526101008101829052610120810182905261014081018290526101608101829052610180810191909152609884901c5f613ccb613c516109ae565b6001600160a01b03166370a08231306040518263ffffffff1660e01b8152600401613c7c9190614799565b602060405180830381865afa158015613c97573d5f803e3d5ffd5b505050506040513d601f19601f82011682018060405250810190613cbb91906154cd565b8363ffffffff16620f42406134dd565b9050613cd56109ae565b6001600160a01b03166370a08231306040518263ffffffff1660e01b8152600401613d009190614799565b602060405180830381865afa158015613d1b573d5f803e3d5ffd5b505050506040513d601f19601f82011682018060405250810190613d3f91906154cd565b816001600160781b031610613d6757604051631e9acf1760e31b815260040160405180910390fd5b604080516101a08101825230815263ffffffff8716602082015261ffff60dc89901c169181019190915262ffffff60c488901c166060820152600160c31b871615156080820152600160c21b8716151560a082015260ff60ba88901c1660c082015260e08101600360b889901c166002811115613de657613de6614d55565b6002811115613df757613df7614d55565b8152602001826001600160781b03168152602001613e2c866001600160401b031660788a901c63ffffffff16620f42406134dd565b6001600160401b03168152602001613e5b866001600160401b031660588a901c63ffffffff16620f42406134dd565b6001600160401b03168152602001613e8a866001600160401b031660388a901c63ffffffff16620f42406134dd565b6001600160401b031681525f6020909101529250505b935093915050565b5f613ebb836107d0620f42406001612612565b9050613ed6816001600160781b031683620f42406001612612565b60055460175460405163a9059cbb60e01b81526001600160a01b0391821660048201526001600160781b0384166024820152929350169063a9059cbb906044016020604051808303815f875af1158015613f32573d5f803e3d5ffd5b505050506040513d601f19601f82011682018060405250810190613f56919061536b565b5092915050565b5f613f716001600160a01b038416836142c9565b905080515f14158015613f95575080806020019051810190613f93919061536b565b155b1561209d5782604051635274afe760e01b815260040161110c9190614799565b5f613fbe612283565b54600160401b900460ff16919050565b6017816001600160401b031611613ff257611c828360e0600585901b1683176142d6565b60ff816001600160401b03161161402e57614018836018611fe0600586901b16176142d6565b50611c82836001600160401b03831660016142ed565b61ffff816001600160401b03161161406b57614055836019611fe0600586901b16176142d6565b50611c82836001600160401b03831660026142ed565b63ffffffff816001600160401b0316116140aa5761409483601a611fe0600586901b16176142d6565b50611c82836001600160401b03831660046142ed565b6140bf83601b611fe0600586901b16176142d6565b50611c82836001600160401b03831660086142ed565b6140dd61468c565b61095c83845f015151848551614305565b6040516001600160a01b038481166024830152838116604483015260648201839052611c829186918216906323b872dd90608401612f0b565b5f6a636f6e736f6c652e6c6f6790505f80835160208501845afa505050565b5f825c80831061416957604051634e23d03560e01b815260040160405180910390fd5b5050016001015c90565b6001600160a01b03821661419c575f604051634b637e8f60e11b815260040161110c9190614799565b612f82825f836130c8565b81515f906141b68360206151e2565b11156141f45760405162461bcd60e51b815260206004820152600d60248201526c4f7574206f6620626f756e647360981b604482015260640161110c565b50016020015190565b5f815f0361420c57505f919050565b6003821161421c57506001919050565b5f600261422a8460016151e2565b6142349190615823565b90508291505b8181101561426d579050806002816142528186615823565b61425c91906151e2565b6142669190615823565b905061423a565b50919050565b5f815f036142835750600161090b565b60015b821561095c57614297600284615c01565b6001036142ab576142a884826156e0565b90505b6142b584806156e0565b93506142c2600284615823565b9250614286565b606061095c83835f6143df565b6142de61468c565b61095c83845f0151518461446e565b6142f561468c565b61113484855f01515185856144bc565b61430d61468c565b825182111561431a575f80fd5b602085015161432983866151e2565b111561435c5761435c8561434c8760200151878661434791906151e2565b61452f565b6143579060026156e0565b61453f565b5f8086518051876020830101935080888701111561437a5787860182525b505050602084015b602084106143ba57805182526143996020836151e2565b91506143a66020826151e2565b90506143b36020856151cf565b9350614382565b5181515f1960208690036101000a019081169019919091161790525083949350505050565b606081471015614404573060405163cd78605960e01b815260040161110c9190614799565b5f80856001600160a01b0316848660405161441f9190615ba7565b5f6040518083038185875af1925050503d805f8114614459576040519150601f19603f3d011682016040523d82523d5f602084013e61445e565b606091505b5091509150612147868383614556565b61447661468c565b8360200151831061449657614496848560200151600261435791906156e0565b83518051602085830101848153508085036144b2576001810182525b5093949350505050565b6144c461468c565b60208501516144d385846151e2565b11156144e7576144e78561434c86856151e2565b5f60016144f684610100615804565b61450091906151cf565b90508551838682010185831982511617815250805184870111156145245783860181525b509495945050505050565b5f8183111561426d57508161090b565b815161454b83836145a9565b50611c8283826140d5565b60608261456b5761456682614600565b61095c565b815115801561458257506001600160a01b0384163b155b156145a25783604051639996b31560e01b815260040161110c9190614799565b508061095c565b6145b161468c565b6145bc602083615c01565b156145e4576145cc602083615c01565b6145d79060206151cf565b6145e190836151e2565b91505b506020828101829052604080518085525f815290920101905290565b8051156146105780518082602001fd5b604051630a12f52160e11b815260040160405180910390fd5b828054828255905f5260205f2090810192821561467c579160200282015b8281111561467c57825182546001600160a01b0319166001600160a01b03909116178255602090920191600190910190614647565b506146889291506146a5565b5090565b6040518060400160405280606081526020015f81525090565b5b80821115614688575f81556001016146a6565b5f81518084528060208401602086015e5f602082860101526020601f19601f83011685010191505092915050565b602081525f61095c60208301846146b9565b5f60208284031215614709575f80fd5b5035919050565b6001600160a01b0381168114612836575f80fd5b5f8060408385031215614735575f80fd5b823561474081614710565b946020939093013593505050565b5f805f60608486031215614760575f80fd5b833561476b81614710565b9250602084013561477b81614710565b929592945050506040919091013590565b6001600160a01b03169052565b6001600160a01b0391909116815260200190565b5f602082840312156147bd575f80fd5b813561095c81614710565b80356147d381614710565b919050565b634e487b7160e01b5f52604160045260245ffd5b60405160a081016001600160401b038111828210171561480e5761480e6147d8565b60405290565b604080519081016001600160401b038111828210171561480e5761480e6147d8565b6040516101a081016001600160401b038111828210171561480e5761480e6147d8565b604051601f8201601f191681016001600160401b0381118282101715614881576148816147d8565b604052919050565b6001600160e01b031981168114612836575f80fd5b5f6001600160401b038211156148b6576148b66147d8565b50601f01601f191660200190565b5f6148d66148d18461489e565b614859565b90508281528383830111156148e9575f80fd5b828260208301375f602084830101529392505050565b5f60a0828403121561490f575f80fd5b6149176147ec565b823581529050602082013561492b81614710565b6020820152604082013561493e81614889565b60408201526060828101359082015260808201356001600160401b03811115614965575f80fd5b820160408185031215614976575f80fd5b61497e614814565b81356001600160401b03811115614993575f80fd5b8201601f810186136149a3575f80fd5b6149b2868235602084016148c4565b82525060209182013591810191909152608082015292915050565b5f60a082840312156149dd575f80fd5b6149e56147ec565b905081356149f281614710565b81526020820135614a0281614710565b60208201526040820135614a1581614710565b60408201526060820135614a2881614710565b60608201526080820135614a3b81614710565b608082015292915050565b5f82601f830112614a55575f80fd5b614a5d614814565b806040840185811115614a6e575f80fd5b845b81811015614a88578035845260209384019301614a70565b509095945050505050565b5f82601f830112614aa2575f80fd5b61095c838335602085016148c4565b5f6001600160401b03821115614ac957614ac96147d8565b5060051b60200190565b5f82601f830112614ae2575f80fd5b8135614af06148d182614ab1565b8082825260208201915060208360051b860101925085831115614b11575f80fd5b602085015b83811015612847578035614b2981614710565b835260209283019201614b16565b5f805f805f805f806101a0898b031215614b4f575f80fd5b614b58896147c8565b975060208901356001600160401b03811115614b72575f80fd5b614b7e8b828c016148ff565b97505060408901359550614b958a60608b016149cd565b9450614ba58a6101008b01614a46565b93506101408901356001600160401b03811115614bc0575f80fd5b614bcc8b828c01614a93565b9350506101608901356001600160401b03811115614be8575f80fd5b614bf48b828c01614a93565b9250506101808901356001600160401b03811115614c10575f80fd5b614c1c8b828c01614ad3565b9150509295985092959890939650565b5f805f8060808587031215614c3f575f80fd5b8435614c4a81614710565b935060208501359250604085013560048110614c64575f80fd5b9396929550929360600135925050565b602080825282518282018190525f918401906040840190835b81811015614a885783516001600160a01b0316835260209384019390920191600101614c8d565b5f8060408385031215614cc5575f80fd5b823591506020830135614cd781614710565b809150509250929050565b5f815160408452614cf660408501826146b9565b602093840151949093019390935250919050565b8581526001600160a01b03851660208201526001600160e01b0319841660408201526060810183905260a0608082018190525f90614d4a90830184614ce2565b979650505050505050565b634e487b7160e01b5f52602160045260245ffd5b6001600160a01b038681168252851660208201526040810184905260a0810160048410614d9857614d98614d55565b6060820193909352608001529392505050565b602080825282518282018190525f918401906040840190835b81811015614a88578351835260209384019390920191600101614dc4565b5f805f60608486031215614df4575f80fd5b833592506020840135614e0681614710565b91506040840135614e1681614710565b809150509250925092565b5f8060408385031215614e32575f80fd5b8235915060208301356001600160401b03811115614e4e575f80fd5b8301601f81018513614e5e575f80fd5b8035614e6c6148d182614ab1565b8082825260208201915060208360051b850101925087831115614e8d575f80fd5b6020840193505b82841015614eaf578335825260209384019390910190614e94565b809450505050509250929050565b5f8060408385031215614ece575f80fd5b8235614ed981614710565b91506020830135614cd781614710565b5f8083601f840112614ef9575f80fd5b5081356001600160401b03811115614f0f575f80fd5b6020830191508360208260051b8501011115614f29575f80fd5b9250929050565b5f805f60408486031215614f42575f80fd5b8335925060208401356001600160401b03811115614f5e575f80fd5b614f6a86828701614ee9565b9497909650939450505050565b80516147d381614710565b805163ffffffff811681146147d3575f80fd5b805161ffff811681146147d3575f80fd5b805162ffffff811681146147d3575f80fd5b805180151581146147d3575f80fd5b805160ff811681146147d3575f80fd5b8051600381106147d3575f80fd5b80516001600160781b03811681146147d3575f80fd5b80516001600160401b03811681146147d3575f80fd5b80516001600160c01b03811681146147d3575f80fd5b5f6101a08284031215615038575f80fd5b615040614836565b905061504b82614f77565b815261505960208301614f82565b602082015261506a60408301614f95565b604082015261507b60608301614fa6565b606082015261508c60808301614fb8565b608082015261509d60a08301614fb8565b60a08201526150ae60c08301614fc7565b60c08201526150bf60e08301614fd7565b60e08201526150d16101008301614fe5565b6101008201526150e46101208301614ffb565b6101208201526150f76101408301614ffb565b61014082015261510a6101608301614ffb565b61016082015261511d6101808301615011565b61018082015292915050565b5f60208284031215615139575f80fd5b81516001600160401b0381111561514e575f80fd5b8201601f8101841361515e575f80fd5b805161516c6148d182614ab1565b8082825260208201915060206101a0840285010192508683111561518e575f80fd5b6020840193505b82841015612147576151a78785615027565b82526020820191506101a084019350615195565b634e487b7160e01b5f52601160045260245ffd5b8181038181111561090b5761090b6151bb565b8082018082111561090b5761090b6151bb565b600181811c9082168061520957607f821691505b60208210810361426d57634e487b7160e01b5f52602260045260245ffd5b60ff818116838216019081111561090b5761090b6151bb565b634e487b7160e01b5f52603260045260245ffd5b601f82111561209d57805f5260205f20601f840160051c810160208510156152795750805b601f840160051c820191505b818110156137dc575f8155600101615285565b81516001600160401b038111156152b1576152b16147d8565b6152c5816152bf84546151f5565b84615254565b6020601f8211600181146152f7575f83156152e05750848201515b5f19600385901b1c1916600184901b1784556137dc565b5f84815260208120601f198516915b828110156153265787850151825560209485019460019092019101615306565b508482101561534357868401515f19600387901b60f8161c191681555b50505050600190811b01905550565b6001600160a01b03929092168252602082015260400190565b5f6020828403121561537b575f80fd5b61095c82614fb8565b5f81518060208401855e5f93019283525090919050565b5f6153a68284615384565b6d0edb185d195cdd141c9a58d95ccb60921b8152600e019392505050565b5f6111346153d28386615384565b84615384565b6001600160a01b03848116825260606020830181905284549083015260018401549081166080830152604090811b6001600160e01b03191660a083810191909152600285015460c084015260e08301526101008201526003830180545f91908290615442816151f5565b80610140870152600182165f8114615461576001811461547f576154b2565b60ff19831661016088015261016082151560051b88010193506154b2565b845f5260205f205f5b838110156154a85781548982016101600152600190910190602001615488565b8801610160019450505b50505060049590950154610120840152505060400152919050565b5f602082840312156154dd575f80fd5b5051919050565b6001600160a01b039390931683526020830191909152604082015260600190565b5f82601f830112615514575f80fd5b81516155226148d18261489e565b818152846020838601011115615536575f80fd5b8160208501602083015e5f918101602001919091529392505050565b5f805f60608486031215615564575f80fd5b835160208501519093506001600160401b03811115615581575f80fd5b840160a08187031215615592575f80fd5b61559a6147ec565b8151815260208201516155ac81614710565b602082015260408201516155bf81614889565b60408201526060828101519082015260808201516001600160401b038111156155e6575f80fd5b9190910190604082880312156155fa575f80fd5b615602614814565b82516001600160401b03811115615617575f80fd5b61562389828601615505565b82525060209283015192810192909252608081019190915260408501519092506001600160401b03811115615656575f80fd5b61566286828701615505565b9150509250925092565b60018060a01b0384168152606060208201528251606082015260018060a01b03602084015116608082015263ffffffff60e01b60408401511660a0820152606083015160c08201525f608084015160a060e08401526156cf610100840182614ce2565b915050826040830152949350505050565b808202811582820484141761090b5761090b6151bb565b5f60208284031215615707575f80fd5b61095c82614fc7565b60ff828116828216039081111561090b5761090b6151bb565b6001815b6001841115613ea057808504811115615748576157486151bb565b600184161561575657908102905b60019390931c92800261572d565b5f826157725750600161090b565b8161577e57505f61090b565b8160018114615794576002811461579e576157ba565b600191505061090b565b60ff8411156157af576157af6151bb565b50506001821b61090b565b5060208310610133831016604e8410600b84101617156157dd575081810a61090b565b6157e95f198484615729565b805f19048211156157fc576157fc6151bb565b029392505050565b5f61095c8383615764565b634e487b7160e01b5f52601260045260245ffd5b5f826158315761583161580f565b500490565b9182526001600160a01b0316602082015260400190565b9283526001600160a01b03918216602084015216604082015260600190565b6001600160a01b0383168152604081016002831061588c5761588c614d55565b8260208301529392505050565b5f60608284031280156158aa575f80fd5b50604051606081016001600160401b03811182821017156158cd576158cd6147d8565b6040526158d983614f82565b81526158e760208401614f82565b60208201526158f860408401615011565b60408201529392505050565b63ffffffff818116838216019081111561090b5761090b6151bb565b63ffffffff828116828216039081111561090b5761090b6151bb565b5f61095c60ff841683615764565b606081525f61595c60608301866146b9565b60208301949094525060400152919050565b6001600160781b03828116828216039081111561090b5761090b6151bb565b6003811061599d5761599d614d55565b9052565b5f6101e0820190506159b482865161478c565b60208501516159cb602084018263ffffffff169052565b5060408501516159e1604084018261ffff169052565b5060608501516159f8606084018262ffffff169052565b506080850151615a0c608084018215159052565b5060a0850151615a2060a084018215159052565b5060c0850151615a3560c084018260ff169052565b5060e0850151615a4860e084018261598d565b50610100850151615a656101008401826001600160781b03169052565b50610120850151615a826101208401826001600160401b03169052565b50610140850151615a9f6101408401826001600160401b03169052565b50610160850151615abc6101608401826001600160401b03169052565b50610180850151615ad96101808401826001600160c01b03169052565b5061ffff84166101a08301526111346101c083018461478c565b63ffffffff9290921682526001600160401b0316602082015260400190565b6001600160a01b0392909216825263ffffffff16602082015260400190565b5f6101a08284031215615b42575f80fd5b61095c8383615027565b63ffffffff9490941684526001600160781b0392909216602084015262ffffff1660408301526001600160401b0316606082015260800190565b604081525f615b9860408301856146b9565b90508260208301529392505050565b5f61095c8284615384565b608081525f615bc460808301876146b9565b6020830195909552506040810192909252606090910152919050565b5f60ff831680615bf257615bf261580f565b8060ff84160691505092915050565b5f82615c0f57615c0f61580f565b50069056fedcbc1c05240f31ff3ad067ef1ee35ce4997762752e3a095284754544f4c709d7a2646970667358221220be09bdb7b8d0583b2849b59dd94d0b8394f40f9adcab043c263c7dcf87541cab64736f6c634300081a0033",
  "devdoc": {
    "errors": {
      "AddressEmptyCode(address)": [
        {
          "details": "There's no code at `target` (it is not a contract)."
        }
      ],
      "AddressInsufficientBalance(address)": [
        {
          "details": "The ETH balance of the account is not enough to perform the operation."
        }
      ],
      "ERC20InsufficientAllowance(address,uint256,uint256)": [
        {
          "details": "Indicates a failure with the `spender`s `allowance`. Used in transfers.",
          "params": {
            "allowance": "Amount of tokens a `spender` is allowed to operate with.",
            "needed": "Minimum amount required to perform a transfer.",
            "spender": "Address that may be allowed to operate on tokens without being their owner."
          }
        }
      ],
      "ERC20InsufficientBalance(address,uint256,uint256)": [
        {
          "details": "Indicates an error related to the current `balance` of a `sender`. Used in transfers.",
          "params": {
            "balance": "Current balance for the interacting account.",
            "needed": "Minimum amount required to perform a transfer.",
            "sender": "Address whose tokens are being transferred."
          }
        }
      ],
      "ERC20InvalidApprover(address)": [
        {
          "details": "Indicates a failure with the `approver` of a token to be approved. Used in approvals.",
          "params": {
            "approver": "Address initiating an approval operation."
          }
        }
      ],
      "ERC20InvalidReceiver(address)": [
        {
          "details": "Indicates a failure with the token `receiver`. Used in transfers.",
          "params": {
            "receiver": "Address to which tokens are being transferred."
          }
        }
      ],
      "ERC20InvalidSender(address)": [
        {
          "details": "Indicates a failure with the token `sender`. Used in transfers.",
          "params": {
            "sender": "Address whose tokens are being transferred."
          }
        }
      ],
      "ERC20InvalidSpender(address)": [
        {
          "details": "Indicates a failure with the `spender` to be approved. Used in approvals.",
          "params": {
            "spender": "Address that may be allowed to operate on tokens without being their owner."
          }
        }
      ],
      "ERC4626ExceededMaxDeposit(address,uint256,uint256)": [
        {
          "details": "Attempted to deposit more assets than the max amount for `receiver`."
        }
      ],
      "ERC4626ExceededMaxMint(address,uint256,uint256)": [
        {
          "details": "Attempted to mint more shares than the max amount for `receiver`."
        }
      ],
      "ERC4626ExceededMaxRedeem(address,uint256,uint256)": [
        {
          "details": "Attempted to redeem more shares than the max amount for `receiver`."
        }
      ],
      "ERC4626ExceededMaxWithdraw(address,uint256,uint256)": [
        {
          "details": "Attempted to withdraw more assets than the max amount for `receiver`."
        }
      ],
      "EnforcedPause()": [
        {
          "details": "The operation failed because the contract is paused."
        }
      ],
      "ExpectedPause()": [
        {
          "details": "The operation failed because the contract is not paused."
        }
      ],
      "FailedInnerCall()": [
        {
          "details": "A call to an address target failed. The target may have reverted."
        }
      ],
      "InvalidInitialization()": [
        {
          "details": "The contract is already initialized."
        }
      ],
      "MathOverflowedMulDiv()": [
        {
          "details": "Muldiv operation overflow."
        }
      ],
      "NotInitializing()": [
        {
          "details": "The contract is not initializing."
        }
      ],
      "SafeERC20FailedOperation(address)": [
        {
          "details": "An operation with an ERC20 token failed."
        }
      ]
    },
    "events": {
      "Approval(address,address,uint256)": {
        "details": "Emitted when the allowance of a `spender` for an `owner` is set by a call to {approve}. `value` is the new allowance."
      },
      "Initialized(uint64)": {
        "details": "Triggered when the contract has been initialized or reinitialized."
      },
      "Paused(address)": {
        "details": "Emitted when the pause is triggered by `account`."
      },
      "Transfer(address,address,uint256)": {
        "details": "Emitted when `value` tokens are moved from one account (`from`) to another (`to`). Note that `value` may be zero."
      },
      "Unpaused(address)": {
        "details": "Emitted when the pause is lifted by `account`."
      }
    },
    "kind": "dev",
    "methods": {
      "allowance(address,address)": {
        "details": "See {IERC20-allowance}."
      },
      "approve(address,uint256)": {
        "details": "See {IERC20-approve}. NOTE: If `value` is the maximum `uint256`, the allowance is not updated on `transferFrom`. This is semantically equivalent to an infinite approval. Requirements: - `spender` cannot be the zero address."
      },
      "asset()": {
        "details": "See {IERC4626-asset}. "
      },
      "balanceOf(address)": {
        "details": "See {IERC20-balanceOf}."
      },
      "convertToAssets(uint256)": {
        "details": "See {IERC4626-convertToAssets}. "
      },
      "convertToShares(uint256)": {
        "details": "See {IERC4626-convertToShares}. "
      },
      "decimals()": {
        "details": "Decimals are computed by adding the decimal offset on top of the underlying asset's decimals. This \"original\" value is cached during construction of the vault contract. If this read operation fails (e.g., the asset has not been created yet), a default of 18 is used to represent the underlying asset's decimals. See {IERC20Metadata-decimals}."
      },
      "deposit(uint256,address)": {
        "details": "See {IERC4626-deposit}. "
      },
      "maxDeposit(address)": {
        "details": "See {IERC4626-maxDeposit}. "
      },
      "maxMint(address)": {
        "details": "See {IERC4626-maxMint}. "
      },
      "maxRedeem(address)": {
        "details": "See {IERC4626-maxRedeem}. "
      },
      "maxWithdraw(address)": {
        "details": "See {IERC4626-maxWithdraw}. "
      },
      "mint(uint256,address)": {
        "details": "See {IERC4626-mint}. As opposed to {deposit}, minting is allowed even if the vault is in a state where the price of a share is zero. In this case, the shares will be minted without requiring any assets to be deposited."
      },
      "name()": {
        "details": "Returns the name of the token."
      },
      "paused()": {
        "details": "Returns true if the contract is paused, and false otherwise."
      },
      "previewDeposit(uint256)": {
        "details": "Preview taking an entry fee on deposit. See {IERC4626-previewDeposit}."
      },
      "previewMint(uint256)": {
        "details": "Preview adding an entry fee on mint. See {IERC4626-previewMint}."
      },
      "previewRedeem(uint256)": {
        "details": "Preview taking an exit fee on redeem. See {IERC4626-previewRedeem}."
      },
      "previewWithdraw(uint256)": {
        "details": "Preview adding an exit fee on withdraw. See {IERC4626-previewWithdraw}."
      },
      "redeem(uint256,address,address)": {
        "details": "See {IERC4626-redeem}. "
      },
      "symbol()": {
        "details": "Returns the symbol of the token, usually a shorter version of the name."
      },
      "totalAssets()": {
        "details": "See {IERC4626-totalAssets}. "
      },
      "totalSupply()": {
        "details": "See {IERC20-totalSupply}."
      },
      "transfer(address,uint256)": {
        "details": "See {IERC20-transfer}. Requirements: - `to` cannot be the zero address. - the caller must have a balance of at least `value`."
      },
      "transferFrom(address,address,uint256)": {
        "details": "See {IERC20-transferFrom}. Emits an {Approval} event indicating the updated allowance. This is not required by the EIP. See the note at the beginning of {ERC20}. NOTE: Does not update the allowance if the current allowance is the maximum `uint256`. Requirements: - `from` and `to` cannot be the zero address. - `from` must have a balance of at least `value`. - the caller must have allowance for ``from``'s tokens of at least `value`."
      },
      "unpause()": {
        "details": "Returns to normal state. Requirements: - The contract must be paused."
      },
      "withdraw(uint256,address,address)": {
        "details": "See {IERC4626-withdraw}. "
      }
    },
    "version": 1
  },
  "userdoc": {
    "kind": "user",
    "methods": {},
    "version": 1
  },
  "storageLayout": {
    "storage": [
      {
        "astId": 8122,
        "contract": "contracts/AutoVault.sol:AutoVault",
        "label": "_balances",
        "offset": 0,
        "slot": "0",
        "type": "t_mapping(t_address,t_uint256)"
      },
      {
        "astId": 8128,
        "contract": "contracts/AutoVault.sol:AutoVault",
        "label": "_allowances",
        "offset": 0,
        "slot": "1",
        "type": "t_mapping(t_address,t_mapping(t_address,t_uint256))"
      },
      {
        "astId": 8130,
        "contract": "contracts/AutoVault.sol:AutoVault",
        "label": "_totalSupply",
        "offset": 0,
        "slot": "2",
        "type": "t_uint256"
      },
      {
        "astId": 8132,
        "contract": "contracts/AutoVault.sol:AutoVault",
        "label": "_name",
        "offset": 0,
        "slot": "3",
        "type": "t_string_storage"
      },
      {
        "astId": 8134,
        "contract": "contracts/AutoVault.sol:AutoVault",
        "label": "_symbol",
        "offset": 0,
        "slot": "4",
        "type": "t_string_storage"
      },
      {
        "astId": 8655,
        "contract": "contracts/AutoVault.sol:AutoVault",
        "label": "_asset",
        "offset": 0,
        "slot": "5",
        "type": "t_contract(IERC20Metadata)3613"
      },
      {
        "astId": 8657,
        "contract": "contracts/AutoVault.sol:AutoVault",
        "label": "_underlyingDecimals",
        "offset": 20,
        "slot": "5",
        "type": "t_uint8"
      },
      {
        "astId": 325,
        "contract": "contracts/AutoVault.sol:AutoVault",
        "label": "s_ens",
        "offset": 0,
        "slot": "6",
        "type": "t_contract(ENSInterface)982"
      },
      {
        "astId": 327,
        "contract": "contracts/AutoVault.sol:AutoVault",
        "label": "s_ensNode",
        "offset": 0,
        "slot": "7",
        "type": "t_bytes32"
      },
      {
        "astId": 330,
        "contract": "contracts/AutoVault.sol:AutoVault",
        "label": "s_link",
        "offset": 0,
        "slot": "8",
        "type": "t_contract(LinkTokenInterface)1382"
      },
      {
        "astId": 333,
        "contract": "contracts/AutoVault.sol:AutoVault",
        "label": "s_oracle",
        "offset": 0,
        "slot": "9",
        "type": "t_contract(OperatorInterface)1047"
      },
      {
        "astId": 336,
        "contract": "contracts/AutoVault.sol:AutoVault",
        "label": "s_requestCount",
        "offset": 0,
        "slot": "10",
        "type": "t_uint256"
      },
      {
        "astId": 340,
        "contract": "contracts/AutoVault.sol:AutoVault",
        "label": "s_pendingRequests",
        "offset": 0,
        "slot": "11",
        "type": "t_mapping(t_bytes32,t_address)"
      },
      {
        "astId": 4231,
        "contract": "contracts/AutoVault.sol:AutoVault",
        "label": "_paused",
        "offset": 0,
        "slot": "12",
        "type": "t_bool"
      },
      {
        "astId": 5841,
        "contract": "contracts/AutoVault.sol:AutoVault",
        "label": "requestToStrategy",
        "offset": 0,
        "slot": "13",
        "type": "t_mapping(t_bytes32,t_uint256)"
      },
      {
        "astId": 5845,
        "contract": "contracts/AutoVault.sol:AutoVault",
        "label": "strategyToIndex",
        "offset": 0,
        "slot": "14",
        "type": "t_mapping(t_uint256,t_uint32)"
      },
      {
        "astId": 5849,
        "contract": "contracts/AutoVault.sol:AutoVault",
        "label": "strategyToActive",
        "offset": 0,
        "slot": "15",
        "type": "t_mapping(t_uint256,t_bool)"
      },
      {
        "astId": 5853,
        "contract": "contracts/AutoVault.sol:AutoVault",
        "label": "indexToPercentPosition",
        "offset": 0,
        "slot": "16",
        "type": "t_mapping(t_uint256,t_uint256)"
      },
      {
        "astId": 5858,
        "contract": "contracts/AutoVault.sol:AutoVault",
        "label": "requestToAction",
        "offset": 0,
        "slot": "17",
        "type": "t_mapping(t_bytes32,t_struct(VaultAction)5811_storage)"
      },
      {
        "astId": 5861,
        "contract": "contracts/AutoVault.sol:AutoVault",
        "label": "strategies",
        "offset": 0,
        "slot": "18",
        "type": "t_array(t_address)dyn_storage"
      },
      {
        "astId": 5864,
        "contract": "contracts/AutoVault.sol:AutoVault",
        "label": "GainsNetwork",
        "offset": 0,
        "slot": "19",
        "type": "t_contract(IGainsNetwork)7858"
      },
      {
        "astId": 5866,
        "contract": "contracts/AutoVault.sol:AutoVault",
        "label": "fee",
        "offset": 0,
        "slot": "20",
        "type": "t_uint256"
      },
      {
        "astId": 5869,
        "contract": "contracts/AutoVault.sol:AutoVault",
        "label": "specialRefer",
        "offset": 0,
        "slot": "21",
        "type": "t_address"
      },
      {
        "astId": 5871,
        "contract": "contracts/AutoVault.sol:AutoVault",
        "label": "vaultManager",
        "offset": 0,
        "slot": "22",
        "type": "t_address"
      },
      {
        "astId": 5873,
        "contract": "contracts/AutoVault.sol:AutoVault",
        "label": "vaultFactory",
        "offset": 0,
        "slot": "23",
        "type": "t_address"
      },
      {
        "astId": 5882,
        "contract": "contracts/AutoVault.sol:AutoVault",
        "label": "totalValueCollateral",
        "offset": 0,
        "slot": "24",
        "type": "t_struct(tuint256)10808_storage"
      },
      {
        "astId": 5885,
        "contract": "contracts/AutoVault.sol:AutoVault",
        "label": "currentUser",
        "offset": 0,
        "slot": "25",
        "type": "t_struct(taddress)10811_storage"
      },
      {
        "astId": 5888,
        "contract": "contracts/AutoVault.sol:AutoVault",
        "label": "tArray",
        "offset": 0,
        "slot": "26",
        "type": "t_struct(tuint256Array)10814_storage"
      },
      {
        "astId": 5911,
        "contract": "contracts/AutoVault.sol:AutoVault",
        "label": "balanceRequest",
        "offset": 0,
        "slot": "27",
        "type": "t_struct(Request)25_storage"
      },
      {
        "astId": 5921,
        "contract": "contracts/AutoVault.sol:AutoVault",
        "label": "_lastMintTimestamp",
        "offset": 0,
        "slot": "32",
        "type": "t_mapping(t_address,t_uint256)"
      },
      {
        "astId": 5926,
        "contract": "contracts/AutoVault.sol:AutoVault",
        "label": "oracleFee",
        "offset": 0,
        "slot": "33",
        "type": "t_uint256"
      },
      {
        "astId": 5928,
        "contract": "contracts/AutoVault.sol:AutoVault",
        "label": "vaultActionFee",
        "offset": 0,
        "slot": "34",
        "type": "t_uint256"
      },
      {
        "astId": 5933,
        "contract": "contracts/AutoVault.sol:AutoVault",
        "label": "rewardBot",
        "offset": 0,
        "slot": "35",
        "type": "t_mapping(t_bytes32,t_struct(RewardInfo)6433_storage)"
      },
      {
        "astId": 6531,
        "contract": "contracts/AutoVault.sol:AutoVault",
        "label": "c",
        "offset": 0,
        "slot": "36",
        "type": "t_array(t_uint256)dyn_storage"
      }
    ],
    "types": {
      "t_address": {
        "encoding": "inplace",
        "label": "address",
        "numberOfBytes": "20"
      },
      "t_array(t_address)dyn_storage": {
        "base": "t_address",
        "encoding": "dynamic_array",
        "label": "address[]",
        "numberOfBytes": "32"
      },
      "t_array(t_uint256)dyn_storage": {
        "base": "t_uint256",
        "encoding": "dynamic_array",
        "label": "uint256[]",
        "numberOfBytes": "32"
      },
      "t_bool": {
        "encoding": "inplace",
        "label": "bool",
        "numberOfBytes": "1"
      },
      "t_bytes32": {
        "encoding": "inplace",
        "label": "bytes32",
        "numberOfBytes": "32"
      },
      "t_bytes4": {
        "encoding": "inplace",
        "label": "bytes4",
        "numberOfBytes": "4"
      },
      "t_bytes_storage": {
        "encoding": "bytes",
        "label": "bytes",
        "numberOfBytes": "32"
      },
      "t_contract(ENSInterface)982": {
        "encoding": "inplace",
        "label": "contract ENSInterface",
        "numberOfBytes": "20"
      },
      "t_contract(IERC20Metadata)3613": {
        "encoding": "inplace",
        "label": "contract IERC20Metadata",
        "numberOfBytes": "20"
      },
      "t_contract(IGainsNetwork)7858": {
        "encoding": "inplace",
        "label": "contract IGainsNetwork",
        "numberOfBytes": "20"
      },
      "t_contract(LinkTokenInterface)1382": {
        "encoding": "inplace",
        "label": "contract LinkTokenInterface",
        "numberOfBytes": "20"
      },
      "t_contract(OperatorInterface)1047": {
        "encoding": "inplace",
        "label": "contract OperatorInterface",
        "numberOfBytes": "20"
      },
      "t_enum(Choice)5799": {
        "encoding": "inplace",
        "label": "enum AutoVault.Choice",
        "numberOfBytes": "1"
      },
      "t_mapping(t_address,t_mapping(t_address,t_uint256))": {
        "encoding": "mapping",
        "key": "t_address",
        "label": "mapping(address => mapping(address => uint256))",
        "numberOfBytes": "32",
        "value": "t_mapping(t_address,t_uint256)"
      },
      "t_mapping(t_address,t_uint256)": {
        "encoding": "mapping",
        "key": "t_address",
        "label": "mapping(address => uint256)",
        "numberOfBytes": "32",
        "value": "t_uint256"
      },
      "t_mapping(t_bytes32,t_address)": {
        "encoding": "mapping",
        "key": "t_bytes32",
        "label": "mapping(bytes32 => address)",
        "numberOfBytes": "32",
        "value": "t_address"
      },
      "t_mapping(t_bytes32,t_struct(RewardInfo)6433_storage)": {
        "encoding": "mapping",
        "key": "t_bytes32",
        "label": "mapping(bytes32 => struct AutoVault.RewardInfo)",
        "numberOfBytes": "32",
        "value": "t_struct(RewardInfo)6433_storage"
      },
      "t_mapping(t_bytes32,t_struct(VaultAction)5811_storage)": {
        "encoding": "mapping",
        "key": "t_bytes32",
        "label": "mapping(bytes32 => struct AutoVault.VaultAction)",
        "numberOfBytes": "32",
        "value": "t_struct(VaultAction)5811_storage"
      },
      "t_mapping(t_bytes32,t_uint256)": {
        "encoding": "mapping",
        "key": "t_bytes32",
        "label": "mapping(bytes32 => uint256)",
        "numberOfBytes": "32",
        "value": "t_uint256"
      },
      "t_mapping(t_uint256,t_bool)": {
        "encoding": "mapping",
        "key": "t_uint256",
        "label": "mapping(uint256 => bool)",
        "numberOfBytes": "32",
        "value": "t_bool"
      },
      "t_mapping(t_uint256,t_uint256)": {
        "encoding": "mapping",
        "key": "t_uint256",
        "label": "mapping(uint256 => uint256)",
        "numberOfBytes": "32",
        "value": "t_uint256"
      },
      "t_mapping(t_uint256,t_uint32)": {
        "encoding": "mapping",
        "key": "t_uint256",
        "label": "mapping(uint256 => uint32)",
        "numberOfBytes": "32",
        "value": "t_uint32"
      },
      "t_string_storage": {
        "encoding": "bytes",
        "label": "string",
        "numberOfBytes": "32"
      },
      "t_struct(Request)25_storage": {
        "encoding": "inplace",
        "label": "struct Chainlink.Request",
        "members": [
          {
            "astId": 15,
            "contract": "contracts/AutoVault.sol:AutoVault",
            "label": "id",
            "offset": 0,
            "slot": "0",
            "type": "t_bytes32"
          },
          {
            "astId": 17,
            "contract": "contracts/AutoVault.sol:AutoVault",
            "label": "callbackAddress",
            "offset": 0,
            "slot": "1",
            "type": "t_address"
          },
          {
            "astId": 19,
            "contract": "contracts/AutoVault.sol:AutoVault",
            "label": "callbackFunctionId",
            "offset": 20,
            "slot": "1",
            "type": "t_bytes4"
          },
          {
            "astId": 21,
            "contract": "contracts/AutoVault.sol:AutoVault",
            "label": "nonce",
            "offset": 0,
            "slot": "2",
            "type": "t_uint256"
          },
          {
            "astId": 24,
            "contract": "contracts/AutoVault.sol:AutoVault",
            "label": "buf",
            "offset": 0,
            "slot": "3",
            "type": "t_struct(buffer)1391_storage"
          }
        ],
        "numberOfBytes": "160"
      },
      "t_struct(RewardInfo)6433_storage": {
        "encoding": "inplace",
        "label": "struct AutoVault.RewardInfo",
        "members": [
          {
            "astId": 6428,
            "contract": "contracts/AutoVault.sol:AutoVault",
            "label": "masterFee",
            "offset": 0,
            "slot": "0",
            "type": "t_uint256"
          },
          {
            "astId": 6430,
            "contract": "contracts/AutoVault.sol:AutoVault",
            "label": "feeMultiplier",
            "offset": 0,
            "slot": "1",
            "type": "t_uint256"
          },
          {
            "astId": 6432,
            "contract": "contracts/AutoVault.sol:AutoVault",
            "label": "caller",
            "offset": 0,
            "slot": "2",
            "type": "t_address"
          }
        ],
        "numberOfBytes": "96"
      },
      "t_struct(VaultAction)5811_storage": {
        "encoding": "inplace",
        "label": "struct AutoVault.VaultAction",
        "members": [
          {
            "astId": 5801,
            "contract": "contracts/AutoVault.sol:AutoVault",
            "label": "msgSender",
            "offset": 0,
            "slot": "0",
            "type": "t_address"
          },
          {
            "astId": 5803,
            "contract": "contracts/AutoVault.sol:AutoVault",
            "label": "receiver",
            "offset": 0,
            "slot": "1",
            "type": "t_address"
          },
          {
            "astId": 5805,
            "contract": "contracts/AutoVault.sol:AutoVault",
            "label": "amount",
            "offset": 0,
            "slot": "2",
            "type": "t_uint256"
          },
          {
            "astId": 5808,
            "contract": "contracts/AutoVault.sol:AutoVault",
            "label": "choice",
            "offset": 0,
            "slot": "3",
            "type": "t_enum(Choice)5799"
          },
          {
            "astId": 5810,
            "contract": "contracts/AutoVault.sol:AutoVault",
            "label": "slippage",
            "offset": 0,
            "slot": "4",
            "type": "t_uint256"
          }
        ],
        "numberOfBytes": "160"
      },
      "t_struct(buffer)1391_storage": {
        "encoding": "inplace",
        "label": "struct BufferChainlink.buffer",
        "members": [
          {
            "astId": 1388,
            "contract": "contracts/AutoVault.sol:AutoVault",
            "label": "buf",
            "offset": 0,
            "slot": "0",
            "type": "t_bytes_storage"
          },
          {
            "astId": 1390,
            "contract": "contracts/AutoVault.sol:AutoVault",
            "label": "capacity",
            "offset": 0,
            "slot": "1",
            "type": "t_uint256"
          }
        ],
        "numberOfBytes": "64"
      },
      "t_struct(taddress)10811_storage": {
        "encoding": "inplace",
        "label": "struct taddress",
        "members": [
          {
            "astId": 10810,
            "contract": "contracts/AutoVault.sol:AutoVault",
            "label": "__placeholder",
            "offset": 0,
            "slot": "0",
            "type": "t_uint256"
          }
        ],
        "numberOfBytes": "32"
      },
      "t_struct(tuint256)10808_storage": {
        "encoding": "inplace",
        "label": "struct tuint256",
        "members": [
          {
            "astId": 10807,
            "contract": "contracts/AutoVault.sol:AutoVault",
            "label": "__placeholder",
            "offset": 0,
            "slot": "0",
            "type": "t_uint256"
          }
        ],
        "numberOfBytes": "32"
      },
      "t_struct(tuint256Array)10814_storage": {
        "encoding": "inplace",
        "label": "struct tuint256Array",
        "members": [
          {
            "astId": 10813,
            "contract": "contracts/AutoVault.sol:AutoVault",
            "label": "__placeholder",
            "offset": 0,
            "slot": "0",
            "type": "t_uint256"
          }
        ],
        "numberOfBytes": "32"
      },
      "t_uint256": {
        "encoding": "inplace",
        "label": "uint256",
        "numberOfBytes": "32"
      },
      "t_uint32": {
        "encoding": "inplace",
        "label": "uint32",
        "numberOfBytes": "4"
      },
      "t_uint8": {
        "encoding": "inplace",
        "label": "uint8",
        "numberOfBytes": "1"
      }
    }
  }
}