{
  "address": "0x85bC752C944735aEb7E6b4BdC6bF843457fC1C55",
  "abi": [
    {
      "inputs": [
        {
          "internalType": "uint256[]",
          "name": "_expressions",
          "type": "uint256[]"
        }
      ],
      "name": "encodeTree",
      "outputs": [
        {
          "internalType": "bytes",
          "name": "",
          "type": "bytes"
        }
      ],
      "stateMutability": "pure",
      "type": "function"
    },
    {
      "inputs": [
        {
          "internalType": "uint256[]",
          "name": "_expressions",
          "type": "uint256[]"
        }
      ],
      "name": "init",
      "outputs": [
        {
          "internalType": "bytes",
          "name": "",
          "type": "bytes"
        }
      ],
      "stateMutability": "pure",
      "type": "function"
    }
  ],
  "transactionHash": "0x0e85a7e64619426dfe096fd5bddc05602b42c4d3f99114410b72dab0ab895cac",
  "args": [],
  "numDeployments": 1,
  "solcInputHash": "76c3b5d1f613da26b065e9a1ed36d70a",
  "bytecode": "0x61053b610034600b8282823980515f1a607314602857634e487b7160e01b5f525f60045260245ffd5b305f52607381538281f3fe730000000000000000000000000000000000000000301460806040526004361061003f575f3560e01c8063d88b06db14610043578063f6a7fffb1461006c575b5f80fd5b6100566100513660046103a7565b61007f565b6040516100639190610416565b60405180910390f35b61005661007a3660046103a7565b6100f1565b60608115801590610091575061010082105b6100de5760405162461bcd60e51b8152602060048201526019602482015278092dcecc2d8d2c840caf0e0e4cae6e6d2dedc40d8cadccee8d603b1b60448201526064015b60405180910390fd5b6100e883836100f1565b90505b92915050565b60605f6100ff83602161045f565b6001600160401b0381111561011657610116610476565b6040519080825280601f01601f191660200182016040528015610140576020820181803683370190505b5090505f805b848110156102ff575f8686838181106101615761016161048a565b905060200201359050601360ff168160ff16106101b15760405162461bcd60e51b815260206004820152600e60248201526d496e76616c6964206f70636f646560901b60448201526064016100d5565b8060f81b8484806101c19061049e565b9550815181106101d3576101d361048a565b60200101906001600160f81b03191690815f1a90535060ff811615806101fc575060ff81166001145b156102ec578561020d8360016104b6565b1061025a5760405162461bcd60e51b815260206004820152601e60248201527f4d697373696e672076616c756520666f7220434f4e5354206f7220564152000060448201526064016100d5565b5f87876102668561049e565b9450848181106102785761027861048a565b9050602002013590505f5b60208160ff1610156102e95761029a81601f6104c9565b6102a59060086104e2565b60ff1682901c60f81b86866102b98161049e565b9750815181106102cb576102cb61048a565b60200101906001600160f81b03191690815f1a905350600101610283565b50505b816102f68161049e565b92505050610146565b505f816001600160401b0381111561031957610319610476565b6040519080825280601f01601f191660200182016040528015610343576020820181803683370190505b5090505f5b8281101561039d578381815181106103625761036261048a565b602001015160f81c60f81b82828151811061037f5761037f61048a565b60200101906001600160f81b03191690815f1a905350600101610348565b5095945050505050565b5f80602083850312156103b8575f80fd5b82356001600160401b038111156103cd575f80fd5b8301601f810185136103dd575f80fd5b80356001600160401b038111156103f2575f80fd5b8560208260051b8401011115610406575f80fd5b6020919091019590945092505050565b602081525f82518060208401528060208501604085015e5f604082850101526040601f19601f83011684010191505092915050565b634e487b7160e01b5f52601160045260245ffd5b80820281158282048414176100eb576100eb61044b565b634e487b7160e01b5f52604160045260245ffd5b634e487b7160e01b5f52603260045260245ffd5b5f600182016104af576104af61044b565b5060010190565b808201808211156100eb576100eb61044b565b60ff82811682821603908111156100eb576100eb61044b565b60ff81811683821602908116908181146104fe576104fe61044b565b509291505056fea2646970667358221220fb3e935d16bb76ce3e60aeef73d246b14f521a2d71407f82ffd9e4ab929c1b3564736f6c634300081a0033",
  "devdoc": {
    "kind": "dev",
    "methods": {},
    "version": 1
  },
  "userdoc": {
    "kind": "user",
    "methods": {},
    "version": 1
  },
  "storageLayout": {
    "storage": [],
    "types": null
  }
}