{
  "address": "0xC4293593e3efd799Cd08B58A3dA37bAfB29AaeAB",
  "abi": [
    {
      "inputs": [],
      "name": "createCancelOpenOrderAction",
      "outputs": [
        {
          "internalType": "uint256",
          "name": "",
          "type": "uint256"
        }
      ],
      "stateMutability": "pure",
      "type": "function"
    },
    {
      "inputs": [],
      "name": "createCloseTradeMarketAction",
      "outputs": [
        {
          "internalType": "uint256",
          "name": "",
          "type": "uint256"
        }
      ],
      "stateMutability": "pure",
      "type": "function"
    },
    {
      "inputs": [
        {
          "internalType": "uint32",
          "name": "collateralDelta",
          "type": "uint32"
        },
        {
          "internalType": "uint24",
          "name": "leverage",
          "type": "uint24"
        },
        {
          "internalType": "uint32",
          "name": "expectedPrice",
          "type": "uint32"
        }
      ],
      "name": "createDecreasePositionSizeAction",
      "outputs": [
        {
          "internalType": "uint256",
          "name": "",
          "type": "uint256"
        }
      ],
      "stateMutability": "pure",
      "type": "function"
    },
    {
      "inputs": [
        {
          "internalType": "uint16",
          "name": "maxSlippage",
          "type": "uint16"
        },
        {
          "internalType": "uint32",
          "name": "collateralDelta",
          "type": "uint32"
        },
        {
          "internalType": "uint24",
          "name": "leverage",
          "type": "uint24"
        },
        {
          "internalType": "uint32",
          "name": "expectedPrice",
          "type": "uint32"
        }
      ],
      "name": "createIncreasePositionSizeAction",
      "outputs": [
        {
          "internalType": "uint256",
          "name": "",
          "type": "uint256"
        }
      ],
      "stateMutability": "pure",
      "type": "function"
    },
    {
      "inputs": [
        {
          "internalType": "uint16",
          "name": "maxSlippage",
          "type": "uint16"
        },
        {
          "internalType": "uint16",
          "name": "pairIndex",
          "type": "uint16"
        },
        {
          "internalType": "uint24",
          "name": "leverage",
          "type": "uint24"
        },
        {
          "internalType": "bool",
          "name": "long",
          "type": "bool"
        },
        {
          "internalType": "bool",
          "name": "isOpen",
          "type": "bool"
        },
        {
          "internalType": "uint8",
          "name": "collateralIndex",
          "type": "uint8"
        },
        {
          "internalType": "enum TradeType",
          "name": "tradeType",
          "type": "uint8"
        },
        {
          "internalType": "uint32",
          "name": "collateralPercentage",
          "type": "uint32"
        },
        {
          "internalType": "uint32",
          "name": "openPrice",
          "type": "uint32"
        },
        {
          "internalType": "uint32",
          "name": "tp",
          "type": "uint32"
        },
        {
          "internalType": "uint32",
          "name": "sl",
          "type": "uint32"
        }
      ],
      "name": "createOpenTradeAction",
      "outputs": [
        {
          "internalType": "uint256",
          "name": "",
          "type": "uint256"
        }
      ],
      "stateMutability": "pure",
      "type": "function"
    },
    {
      "inputs": [
        {
          "internalType": "uint24",
          "name": "leverage",
          "type": "uint24"
        }
      ],
      "name": "createUpdateLeverageAction",
      "outputs": [
        {
          "internalType": "uint256",
          "name": "",
          "type": "uint256"
        }
      ],
      "stateMutability": "pure",
      "type": "function"
    },
    {
      "inputs": [
        {
          "internalType": "uint16",
          "name": "maxSlippage",
          "type": "uint16"
        },
        {
          "internalType": "uint32",
          "name": "triggerPrice",
          "type": "uint32"
        },
        {
          "internalType": "uint32",
          "name": "tp",
          "type": "uint32"
        },
        {
          "internalType": "uint32",
          "name": "sl",
          "type": "uint32"
        }
      ],
      "name": "createUpdateOpenOrderAction",
      "outputs": [
        {
          "internalType": "uint256",
          "name": "",
          "type": "uint256"
        }
      ],
      "stateMutability": "pure",
      "type": "function"
    },
    {
      "inputs": [
        {
          "internalType": "uint32",
          "name": "sl",
          "type": "uint32"
        }
      ],
      "name": "createUpdateSLAction",
      "outputs": [
        {
          "internalType": "uint256",
          "name": "",
          "type": "uint256"
        }
      ],
      "stateMutability": "pure",
      "type": "function"
    },
    {
      "inputs": [
        {
          "internalType": "uint32",
          "name": "tp",
          "type": "uint32"
        }
      ],
      "name": "createUpdateTPAction",
      "outputs": [
        {
          "internalType": "uint256",
          "name": "",
          "type": "uint256"
        }
      ],
      "stateMutability": "pure",
      "type": "function"
    }
  ],
  "transactionHash": "0xf6322d6445976cf535c55d03596fe712e9f6288e80d0003a238646e400d030bb",
  "args": [],
  "numDeployments": 1,
  "solcInputHash": "99743e559bd5b543c2f44f5113f8be15",
  "bytecode": "0x6080604052348015600e575f80fd5b506105518061001c5f395ff3fe608060405234801561000f575f80fd5b5060043610610081575f3560e01c80630b232fd9146100855780634340e932146100bd57806352b78c18146100e3578063804d6ccb14610138578063811a5dae1461015d578063902d637814610167578063aaa1772c1461017a578063c9b9db0414610184578063cd73d3b7146101ca575b5f80fd5b6100ab610093366004610302565b63ffffffff60dc1b60dc9190911b16600160fd1b1790565b60405190815260200160405180910390f35b6100ab6100cb366004610302565b63ffffffff60dc1b60dc9190911b16600160fc1b1790565b6100ab6100f1366004610333565b63ffffffff608c1b608c82901b1663ffffffff60ac1b60ac84901b1663ffffffff60cc1b60cc86901b1661ffff60ec1b60ec88901b16171717600360fc1b17949350505050565b6100ab610146366004610396565b62ffffff60e41b60e49190911b16600360fd1b1790565b600160fe1b6100ab565b6100ab6101753660046103be565b61021e565b600560fc1b6100ab565b6100ab61019236600461048f565b63ffffffff60a41b60a482901b1662ffffff60c41b60c484901b1663ffffffff60dc1b60dc86901b161717600760fc1b179392505050565b6100ab6101d83660046104cf565b63ffffffff60941b609482901b1662ffffff60b41b60b484901b1663ffffffff60cc1b60cc86901b1661ffff60ec1b60ec88901b16171717600160ff1b17949350505050565b5f62ffffff60c41b60c48b901b1661ffff60dc1b60dc8d901b1661ffff60ec1b60ec8f901b16171760c38a610253575f610256565b60015b60ff16901b1760c289610269575f61026c565b60015b60ff16901b8117905060ba8860ff16901b8117905060b887600281111561029557610295610507565b901b1760989590951b63ffffffff60981b169490941760789390931b63ffffffff60781b169290921760589190911b63ffffffff60581b161760389190911b63ffffffff60381b161798975050505050505050565b803563ffffffff811681146102fd575f80fd5b919050565b5f60208284031215610312575f80fd5b61031b826102ea565b9392505050565b803561ffff811681146102fd575f80fd5b5f805f8060808587031215610346575f80fd5b61034f85610322565b935061035d602086016102ea565b925061036b604086016102ea565b9150610379606086016102ea565b905092959194509250565b803562ffffff811681146102fd575f80fd5b5f602082840312156103a6575f80fd5b61031b82610384565b803580151581146102fd575f80fd5b5f805f805f805f805f805f6101608c8e0312156103d9575f80fd5b6103e28c610322565b9a506103f060208d01610322565b99506103fe60408d01610384565b985061040c60608d016103af565b975061041a60808d016103af565b965060a08c013560ff8116811461042f575f80fd5b955060c08c013560038110610442575f80fd5b945061045060e08d016102ea565b935061045f6101008d016102ea565b925061046e6101208d016102ea565b915061047d6101408d016102ea565b90509295989b509295989b9093969950565b5f805f606084860312156104a1575f80fd5b6104aa846102ea565b92506104b860208501610384565b91506104c6604085016102ea565b90509250925092565b5f805f80608085870312156104e2575f80fd5b6104eb85610322565b93506104f9602086016102ea565b925061036b60408601610384565b634e487b7160e01b5f52602160045260245ffdfea264697066735822122041da8a3b025bb763c525c02e1cfc469c4acf1ef296db4ff51bbeb1bfb9c75acf64736f6c634300081a0033",
  "devdoc": {
    "kind": "dev",
    "methods": {},
    "version": 1
  },
  "userdoc": {
    "kind": "user",
    "methods": {},
    "version": 1
  },
  "storageLayout": {
    "storage": [],
    "types": null
  }
}