{
  "address": "0xc7d492fD6133066d129091c2A998C60CDf8c7974",
  "abi": [
    {
      "inputs": [
        {
          "internalType": "address",
          "name": "chainLinkToken",
          "type": "address"
        },
        {
          "internalType": "address",
          "name": "oraclyAddy",
          "type": "address"
        },
        {
          "internalType": "string",
          "name": "jobID",
          "type": "string"
        }
      ],
      "stateMutability": "nonpayable",
      "type": "constructor"
    },
    {
      "anonymous": false,
      "inputs": [
        {
          "indexed": true,
          "internalType": "bytes32",
          "name": "id",
          "type": "bytes32"
        }
      ],
      "name": "ChainlinkCancelled",
      "type": "event"
    },
    {
      "anonymous": false,
      "inputs": [
        {
          "indexed": true,
          "internalType": "bytes32",
          "name": "id",
          "type": "bytes32"
        }
      ],
      "name": "ChainlinkFulfilled",
      "type": "event"
    },
    {
      "anonymous": false,
      "inputs": [
        {
          "indexed": true,
          "internalType": "bytes32",
          "name": "id",
          "type": "bytes32"
        }
      ],
      "name": "ChainlinkRequested",
      "type": "event"
    },
    {
      "anonymous": false,
      "inputs": [
        {
          "indexed": true,
          "internalType": "address",
          "name": "from",
          "type": "address"
        },
        {
          "indexed": true,
          "internalType": "address",
          "name": "to",
          "type": "address"
        }
      ],
      "name": "OwnershipTransferRequested",
      "type": "event"
    },
    {
      "anonymous": false,
      "inputs": [
        {
          "indexed": true,
          "internalType": "address",
          "name": "from",
          "type": "address"
        },
        {
          "indexed": true,
          "internalType": "address",
          "name": "to",
          "type": "address"
        }
      ],
      "name": "OwnershipTransferred",
      "type": "event"
    },
    {
      "anonymous": false,
      "inputs": [
        {
          "indexed": true,
          "internalType": "bytes32",
          "name": "requestId",
          "type": "bytes32"
        }
      ],
      "name": "RequestFulfilled",
      "type": "event"
    },
    {
      "inputs": [],
      "name": "acceptOwnership",
      "outputs": [],
      "stateMutability": "nonpayable",
      "type": "function"
    },
    {
      "inputs": [
        {
          "internalType": "bytes32",
          "name": "requestId",
          "type": "bytes32"
        },
        {
          "internalType": "uint256",
          "name": "data",
          "type": "uint256"
        }
      ],
      "name": "fulfill",
      "outputs": [],
      "stateMutability": "nonpayable",
      "type": "function"
    },
    {
      "inputs": [],
      "name": "getFeeInHundredthsOfLink",
      "outputs": [
        {
          "internalType": "uint256",
          "name": "",
          "type": "uint256"
        }
      ],
      "stateMutability": "view",
      "type": "function"
    },
    {
      "inputs": [],
      "name": "getJobId",
      "outputs": [
        {
          "internalType": "string",
          "name": "",
          "type": "string"
        }
      ],
      "stateMutability": "view",
      "type": "function"
    },
    {
      "inputs": [],
      "name": "getOracleAddress",
      "outputs": [
        {
          "internalType": "address",
          "name": "",
          "type": "address"
        }
      ],
      "stateMutability": "view",
      "type": "function"
    },
    {
      "inputs": [],
      "name": "owner",
      "outputs": [
        {
          "internalType": "address",
          "name": "",
          "type": "address"
        }
      ],
      "stateMutability": "view",
      "type": "function"
    },
    {
      "inputs": [],
      "name": "request",
      "outputs": [],
      "stateMutability": "nonpayable",
      "type": "function"
    },
    {
      "inputs": [],
      "name": "response",
      "outputs": [
        {
          "internalType": "uint256",
          "name": "",
          "type": "uint256"
        }
      ],
      "stateMutability": "view",
      "type": "function"
    },
    {
      "inputs": [
        {
          "internalType": "uint256",
          "name": "_feeInHundredthsOfLink",
          "type": "uint256"
        }
      ],
      "name": "setFeeInHundredthsOfLink",
      "outputs": [],
      "stateMutability": "nonpayable",
      "type": "function"
    },
    {
      "inputs": [
        {
          "internalType": "uint256",
          "name": "_feeInJuels",
          "type": "uint256"
        }
      ],
      "name": "setFeeInJuels",
      "outputs": [],
      "stateMutability": "nonpayable",
      "type": "function"
    },
    {
      "inputs": [
        {
          "internalType": "string",
          "name": "_jobId",
          "type": "string"
        }
      ],
      "name": "setJobId",
      "outputs": [],
      "stateMutability": "nonpayable",
      "type": "function"
    },
    {
      "inputs": [
        {
          "internalType": "address",
          "name": "_oracleAddress",
          "type": "address"
        }
      ],
      "name": "setOracleAddress",
      "outputs": [],
      "stateMutability": "nonpayable",
      "type": "function"
    },
    {
      "inputs": [
        {
          "internalType": "address",
          "name": "to",
          "type": "address"
        }
      ],
      "name": "transferOwnership",
      "outputs": [],
      "stateMutability": "nonpayable",
      "type": "function"
    },
    {
      "inputs": [],
      "name": "withdrawLink",
      "outputs": [],
      "stateMutability": "nonpayable",
      "type": "function"
    }
  ],
  "transactionHash": "0xa40caa31162ea51380f7140012aadcc86d8508d0ce8fb0d00251689d85d1b570",
  "args": [
    "0xb1D4538B4571d411F07960EF2838Ce337FE1E80E",
    "0xd36c6B1777c7f3Db1B3201bDD87081A9045B7b46",
    "a8356f48569c434eaa4ac5fcb4db5cc0"
  ],
  "numDeployments": 1,
  "solcInputHash": "ec339922e40201b0f70927ddd039f112",
  "bytecode": "0x6080604052600160045534801562000015575f80fd5b50604051620018dd380380620018dd8339810160408190526200003891620002f5565b33805f816200008e5760405162461bcd60e51b815260206004820152601860248201527f43616e6e6f7420736574206f776e657220746f207a65726f000000000000000060448201526064015b60405180910390fd5b600680546001600160a01b0319166001600160a01b0384811691909117909155811615620000c157620000c181620000ff565b505050620000d583620001aa60201b60201c565b620000e082620001cc565b620000eb8162000207565b620000f65f62000222565b50505062000458565b336001600160a01b03821603620001595760405162461bcd60e51b815260206004820152601760248201527f43616e6e6f74207472616e7366657220746f2073656c66000000000000000000604482015260640162000085565b600780546001600160a01b0319166001600160a01b03838116918217909255600654604051919216907fed8889f560326eb138920d842192f0eb3dd22b4f139c87a2c57538e05bae1278905f90a350565b600280546001600160a01b0319166001600160a01b0392909216919091179055565b620001d662000258565b600880546001600160a01b0383166001600160a01b0319918216811790925560038054909116909117905550565b50565b6200021162000258565b6200021c81620003e7565b60095550565b6200022c62000258565b62000204606462000246670de0b6b3a7640000846200040e565b62000252919062000438565b620002b6565b6006546001600160a01b03163314620002b45760405162461bcd60e51b815260206004820152601660248201527f4f6e6c792063616c6c61626c65206279206f776e657200000000000000000000604482015260640162000085565b565b620002c062000258565b600a55565b80516001600160a01b0381168114620002dc575f80fd5b919050565b634e487b7160e01b5f52604160045260245ffd5b5f805f6060848603121562000308575f80fd5b6200031384620002c5565b9250602062000324818601620002c5565b60408601519093506001600160401b038082111562000341575f80fd5b818701915087601f83011262000355575f80fd5b8151818111156200036a576200036a620002e1565b604051601f8201601f19908116603f01168101908382118183101715620003955762000395620002e1565b816040528281528a86848701011115620003ad575f80fd5b5f93505b82841015620003d05784840186015181850187015292850192620003b1565b5f8684830101528096505050505050509250925092565b8051602080830151919081101562000408575f198160200360031b1b821691505b50919050565b80820281158282048414176200043257634e487b7160e01b5f52601160045260245ffd5b92915050565b5f826200045357634e487b7160e01b5f52601260045260245ffd5b500490565b61147780620004665f395ff3fe608060405234801561000f575f80fd5b50600436106100c7575f3560e01c80638da5cb5b116100795780638da5cb5b1461013a5780638dc654a21461015f578063b02f7fe014610167578063b18b78dd1461017c578063e3da201d14610184578063f2fde38b14610197578063f34473a5146101aa575f80fd5b8063129fc1c0146100cb578063338cdca1146100e05780634357855e146100e85780634c69c00f146100fb578063562376821461010e57806379ba5097146101295780637a7f01a714610131575b5f80fd5b6100de6100d9366004610fe1565b6101bd565b005b6100de6101d4565b6100de6100f636600461108b565b6103d2565b6100de6101093660046110ab565b610498565b6101166104d0565b6040519081526020015b60405180910390f35b6100de610500565b610116600b5481565b6006546001600160a01b03165b6040516001600160a01b039091168152602001610120565b6100de6105ad565b61016f6106e8565b6040516101209190611114565b61014761071b565b6100de610192366004611126565b610734565b6100de6101a53660046110ab565b610741565b6100de6101b8366004611126565b610752565b6101c561077b565b6101ce8161113d565b60095550565b5f6101e8600954634357855e60e01b6107d0565b9050610238604051806040016040528060068152602001651b595d1a1bd960d21b8152506040518060400160405280600381526020016211d15560ea1b815250836107f69092919063ffffffff16565b610278604051806040016040528060038152602001621d5c9b60ea1b8152506040518060800160405280604d81526020016113b6604d91398391906107f6565b6102bc604051806040016040528060078152602001666865616465727360c81b8152506040518060600160405280603f8152602001611403603f91398391906107f6565b6102fb60405180604001604052806004815260200163626f647960e01b81525060405180602001604052805f815250836107f69092919063ffffffff16565b61033d6040518060400160405280600781526020016618dbdb9d1858dd60ca1b81525060405180602001604052805f815250836107f69092919063ffffffff16565b61038d604051806040016040528060048152602001630e0c2e8d60e31b815250604051806040016040528060078152602001661155120b1554d160ca1b815250836107f69092919063ffffffff16565b60408051808201909152600a81526936bab63a34b83634b2b960b11b60208201526103c2908290670de0b6b3a7640000610819565b6103ce81600a54610837565b5050565b5f8281526005602052604090205482906001600160a01b0316331461044f5760405162461bcd60e51b815260206004820152602860248201527f536f75726365206d75737420626520746865206f7261636c65206f6620746865604482015267081c995c5d595cdd60c21b60648201526084015b60405180910390fd5b5f8181526005602052604080822080546001600160a01b03191690555182917f7cc135e0cebb02c3480ae5d74d377283180a2601f8f644edf7987b009316c63a91a250600b5550565b6104a061077b565b600880546001600160a01b03929092166001600160a01b0319928316811790915560038054909216179055565b50565b5f6104d961077b565b670de0b6b3a7640000600a5460646104f19190611174565b6104fb919061119f565b905090565b6007546001600160a01b031633146105535760405162461bcd60e51b815260206004820152601660248201527526bab9ba10313290383937b837b9b2b21037bbb732b960511b6044820152606401610446565b600680546001600160a01b0319808216339081179093556007805490911690556040516001600160a01b03909116919082907f8be0079c531659141344cd1fd0a4f28419497f9722a3daafe3b4186f6b6457e0905f90a350565b6105b561077b565b5f6105c86002546001600160a01b031690565b6040516370a0823160e01b81523060048201529091506001600160a01b0382169063a9059cbb90339083906370a0823190602401602060405180830381865afa158015610617573d5f803e3d5ffd5b505050506040513d601f19601f8201168201806040525081019061063b91906111b2565b6040516001600160e01b031960e085901b1681526001600160a01b03909216600483015260248201526044016020604051808303815f875af1158015610683573d5f803e3d5ffd5b505050506040513d601f19601f820116820180604052508101906106a791906111c9565b6104cd5760405162461bcd60e51b81526020600482015260126024820152712ab730b13632903a37903a3930b739b332b960711b6044820152606401610446565b60606106f261077b565b60095460405160200161070791815260200190565b604051602081830303815290604052905090565b5f61072461077b565b506008546001600160a01b031690565b61073c61077b565b600a55565b61074961077b565b6104cd81610857565b61075a61077b565b6104cd6064610771670de0b6b3a764000084611174565b610192919061119f565b6006546001600160a01b031633146107ce5760405162461bcd60e51b815260206004820152601660248201527527b7363c9031b0b63630b1363290313c9037bbb732b960511b6044820152606401610446565b565b6107d8610f80565b6107e0610f80565b6107ec818530866108fa565b9150505b92915050565b60808301516108059083610940565b60808301516108149082610940565b505050565b60808301516108289083610940565b60808301516108149082610957565b6003545f90610850906001600160a01b031684846109b3565b9392505050565b336001600160a01b038216036108a95760405162461bcd60e51b815260206004820152601760248201527621b0b73737ba103a3930b739b332b9103a379039b2b63360491b6044820152606401610446565b600780546001600160a01b0319166001600160a01b03838116918217909255600654604051919216907fed8889f560326eb138920d842192f0eb3dd22b4f139c87a2c57538e05bae1278905f90a350565b610902610f80565b6109128560800151610100610a42565b50508284526001600160a01b03821660208501526001600160e01b031981166040850152835b949350505050565b61094d8260038351610a99565b6108148282610ba6565b67ffffffffffffffff19811215610972576103ce8282610bbf565b6001600160401b0381131561098b576103ce8282610c00565b5f811261099d576103ce825f83610a99565b6103ce8260016109ae845f196111e8565b610a99565b6004545f906109c381600161120e565b600455835160408086015160808701515191515f93633c6d41b960e01b936109f8938693849392899160029190602401611221565b60408051601f198184030181529190526020810180516001600160e01b03166001600160e01b0319909316929092179091529050610a3886838684610c23565b9695505050505050565b610a4a610fb4565b610a55602083611275565b15610a7d57610a65602083611275565b610a70906020611288565b610a7a908361120e565b91505b506020828101829052604080518085525f815290920101905290565b6017816001600160401b031611610ac357610abd8360e0600585901b168317610d7c565b50505050565b60ff816001600160401b031611610aff57610ae9836018611fe0600586901b1617610d7c565b50610abd836001600160401b0383166001610d93565b61ffff816001600160401b031611610b3c57610b26836019611fe0600586901b1617610d7c565b50610abd836001600160401b0383166002610d93565b63ffffffff816001600160401b031611610b7b57610b6583601a611fe0600586901b1617610d7c565b50610abd836001600160401b0383166004610d93565b610b9083601b611fe0600586901b1617610d7c565b50610abd836001600160401b0383166008610d93565b610bae610fb4565b61085083845f015151848551610dab565b610bca8260c3610d7c565b506103ce82610bda835f196111e8565b604051602001610bec91815260200190565b604051602081830303815290604052610e85565b610c0b8260c2610d7c565b506103ce8282604051602001610bec91815260200190565b6040516bffffffffffffffffffffffff193060601b166020820152603481018490525f9060540160408051808303601f1901815282825280516020918201205f818152600590925291812080546001600160a01b0319166001600160a01b038a1617905590925082917fb5e6e01e79f91267dc17b4e6314d5d4d03593d2ceee0fbb452b750bd70ea5af99190a2600254604051630200057560e51b81526001600160a01b0390911690634000aea090610ce49088908790879060040161129b565b6020604051808303815f875af1158015610d00573d5f803e3d5ffd5b505050506040513d601f19601f82011682018060405250810190610d2491906111c9565b6109385760405162461bcd60e51b815260206004820152602360248201527f756e61626c6520746f207472616e73666572416e6443616c6c20746f206f7261604482015262636c6560e81b6064820152608401610446565b610d84610fb4565b61085083845f01515184610e92565b610d9b610fb4565b61093884855f0151518585610ee0565b610db3610fb4565b8251821115610dc0575f80fd5b6020850151610dcf838661120e565b1115610e0257610e0285610df287602001518786610ded919061120e565b610f53565b610dfd906002611174565b610f69565b5f80865180518760208301019350808887011115610e205787860182525b505050602084015b60208410610e605780518252610e3f60208361120e565b9150610e4c60208261120e565b9050610e59602085611288565b9350610e28565b5181515f1960208690036101000a019081169019919091161790525083949350505050565b61094d8260028351610a99565b610e9a610fb4565b83602001518310610eba57610eba8485602001516002610dfd9190611174565b8351805160208583010184815350808503610ed6576001810182525b5093949350505050565b610ee8610fb4565b6020850151610ef7858461120e565b1115610f0b57610f0b85610df2868561120e565b5f6001610f1a846101006113aa565b610f249190611288565b9050855183868201018583198251161781525080518487011115610f485783860181525b509495945050505050565b5f81831115610f635750816107f0565b50919050565b8151610f758383610a42565b50610abd8382610ba6565b6040805160a0810182525f80825260208201819052918101829052606081019190915260808101610faf610fb4565b905290565b6040518060400160405280606081526020015f81525090565b634e487b7160e01b5f52604160045260245ffd5b5f60208284031215610ff1575f80fd5b81356001600160401b0380821115611007575f80fd5b818401915084601f83011261101a575f80fd5b81358181111561102c5761102c610fcd565b604051601f8201601f19908116603f0116810190838211818310171561105457611054610fcd565b8160405282815287602084870101111561106c575f80fd5b826020860160208301375f928101602001929092525095945050505050565b5f806040838503121561109c575f80fd5b50508035926020909101359150565b5f602082840312156110bb575f80fd5b81356001600160a01b0381168114610850575f80fd5b5f81518084525f5b818110156110f5576020818501810151868301820152016110d9565b505f602082860101526020601f19601f83011685010191505092915050565b602081525f61085060208301846110d1565b5f60208284031215611136575f80fd5b5035919050565b80516020808301519190811015610f63575f1960209190910360031b1b16919050565b634e487b7160e01b5f52601160045260245ffd5b80820281158282048414176107f0576107f0611160565b634e487b7160e01b5f52601260045260245ffd5b5f826111ad576111ad61118b565b500490565b5f602082840312156111c2575f80fd5b5051919050565b5f602082840312156111d9575f80fd5b81518015158114610850575f80fd5b8181035f83128015838313168383128216171561120757611207611160565b5092915050565b808201808211156107f0576107f0611160565b60018060a01b038816815286602082015285604082015263ffffffff60e01b851660608201528360808201528260a082015260e060c08201525f61126860e08301846110d1565b9998505050505050505050565b5f826112835761128361118b565b500690565b818103818111156107f0576107f0611160565b60018060a01b0384168152826020820152606060408201525f6112c160608301846110d1565b95945050505050565b600181815b8085111561130457815f19048211156112ea576112ea611160565b808516156112f757918102915b93841c93908002906112cf565b509250929050565b5f8261131a575060016107f0565b8161132657505f6107f0565b816001811461133c576002811461134657611362565b60019150506107f0565b60ff84111561135757611357611160565b50506001821b6107f0565b5060208310610133831016604e8410600b8410161715611385575081810a6107f0565b61138f83836112ca565b805f19048211156113a2576113a2611160565b029392505050565b5f610850838361130c56fe68747470733a2f2f6d696e2d6170692e63727970746f636f6d706172652e636f6d2f646174612f70726963656d756c74693f6673796d733d4254432c455448267473796d733d5553442c4555525b22636f6e74656e742d74797065222c20226170706c69636174696f6e2f6a736f6e222c20227365742d636f6f6b6965222c20227369643d3134413532225da2646970667358221220335c55d856d5e2b7b7bbb73861b11f6f4eaf9b7c880a9139d8baeea1eee3cbb864736f6c63430008180033",
  "devdoc": {
    "kind": "dev",
    "methods": {},
    "version": 1
  },
  "userdoc": {
    "kind": "user",
    "methods": {
      "acceptOwnership()": {
        "notice": "Allows an ownership transfer to be completed by the recipient."
      },
      "owner()": {
        "notice": "Get the current owner"
      },
      "transferOwnership(address)": {
        "notice": "Allows an owner to begin transferring ownership to a new address."
      }
    },
    "notice": "THIS IS AN EXAMPLE CONTRACT THAT USES UN-AUDITED CODE.",
    "version": 1
  },
  "storageLayout": {
    "storage": [
      {
        "astId": 325,
        "contract": "contracts/Test256.sol:Test256",
        "label": "s_ens",
        "offset": 0,
        "slot": "0",
        "type": "t_contract(ENSInterface)982"
      },
      {
        "astId": 327,
        "contract": "contracts/Test256.sol:Test256",
        "label": "s_ensNode",
        "offset": 0,
        "slot": "1",
        "type": "t_bytes32"
      },
      {
        "astId": 330,
        "contract": "contracts/Test256.sol:Test256",
        "label": "s_link",
        "offset": 0,
        "slot": "2",
        "type": "t_contract(LinkTokenInterface)1382"
      },
      {
        "astId": 333,
        "contract": "contracts/Test256.sol:Test256",
        "label": "s_oracle",
        "offset": 0,
        "slot": "3",
        "type": "t_contract(OperatorInterface)1047"
      },
      {
        "astId": 336,
        "contract": "contracts/Test256.sol:Test256",
        "label": "s_requestCount",
        "offset": 0,
        "slot": "4",
        "type": "t_uint256"
      },
      {
        "astId": 340,
        "contract": "contracts/Test256.sol:Test256",
        "label": "s_pendingRequests",
        "offset": 0,
        "slot": "5",
        "type": "t_mapping(t_bytes32,t_address)"
      },
      {
        "astId": 1117,
        "contract": "contracts/Test256.sol:Test256",
        "label": "s_owner",
        "offset": 0,
        "slot": "6",
        "type": "t_address"
      },
      {
        "astId": 1119,
        "contract": "contracts/Test256.sol:Test256",
        "label": "s_pendingOwner",
        "offset": 0,
        "slot": "7",
        "type": "t_address"
      },
      {
        "astId": 2377,
        "contract": "contracts/Test256.sol:Test256",
        "label": "oracleAddress",
        "offset": 0,
        "slot": "8",
        "type": "t_address"
      },
      {
        "astId": 2379,
        "contract": "contracts/Test256.sol:Test256",
        "label": "jobId",
        "offset": 0,
        "slot": "9",
        "type": "t_bytes32"
      },
      {
        "astId": 2381,
        "contract": "contracts/Test256.sol:Test256",
        "label": "fee",
        "offset": 0,
        "slot": "10",
        "type": "t_uint256"
      },
      {
        "astId": 2485,
        "contract": "contracts/Test256.sol:Test256",
        "label": "response",
        "offset": 0,
        "slot": "11",
        "type": "t_uint256"
      }
    ],
    "types": {
      "t_address": {
        "encoding": "inplace",
        "label": "address",
        "numberOfBytes": "20"
      },
      "t_bytes32": {
        "encoding": "inplace",
        "label": "bytes32",
        "numberOfBytes": "32"
      },
      "t_contract(ENSInterface)982": {
        "encoding": "inplace",
        "label": "contract ENSInterface",
        "numberOfBytes": "20"
      },
      "t_contract(LinkTokenInterface)1382": {
        "encoding": "inplace",
        "label": "contract LinkTokenInterface",
        "numberOfBytes": "20"
      },
      "t_contract(OperatorInterface)1047": {
        "encoding": "inplace",
        "label": "contract OperatorInterface",
        "numberOfBytes": "20"
      },
      "t_mapping(t_bytes32,t_address)": {
        "encoding": "mapping",
        "key": "t_bytes32",
        "label": "mapping(bytes32 => address)",
        "numberOfBytes": "32",
        "value": "t_address"
      },
      "t_uint256": {
        "encoding": "inplace",
        "label": "uint256",
        "numberOfBytes": "32"
      }
    }
  }
}