{
  "address": "0x4758fE3995a8A728f74e9B2FAEB0b03594270f38",
  "abi": [
    {
      "inputs": [
        {
          "internalType": "address",
          "name": "oracleAddy",
          "type": "address"
        },
        {
          "internalType": "address",
          "name": "_chainLinkToken",
          "type": "address"
        },
        {
          "internalType": "address",
          "name": "_gainsAddress",
          "type": "address"
        },
        {
          "internalType": "address",
          "name": "_autoVaultImplementation",
          "type": "address"
        }
      ],
      "stateMutability": "nonpayable",
      "type": "constructor"
    },
    {
      "inputs": [],
      "name": "ArraysMustBeSameLength",
      "type": "error"
    },
    {
      "inputs": [],
      "name": "CollateralNotAdded",
      "type": "error"
    },
    {
      "inputs": [],
      "name": "DepositTooLow",
      "type": "error"
    },
    {
      "inputs": [],
      "name": "ERC1167FailedCreateClone",
      "type": "error"
    },
    {
      "inputs": [
        {
          "internalType": "uint256",
          "name": "strategyAmount",
          "type": "uint256"
        },
        {
          "internalType": "uint256",
          "name": "maxAmount",
          "type": "uint256"
        }
      ],
      "name": "ExceedMaxStrategyCount",
      "type": "error"
    },
    {
      "inputs": [
        {
          "internalType": "address",
          "name": "sender",
          "type": "address"
        }
      ],
      "name": "NonApprovedCaller",
      "type": "error"
    },
    {
      "inputs": [
        {
          "internalType": "address",
          "name": "vault",
          "type": "address"
        }
      ],
      "name": "NonApprovedVault",
      "type": "error"
    },
    {
      "inputs": [
        {
          "internalType": "uint256",
          "name": "apiLength",
          "type": "uint256"
        },
        {
          "internalType": "uint256",
          "name": "strategyLength",
          "type": "uint256"
        }
      ],
      "name": "StrategiesAndAPIsSameLength",
      "type": "error"
    },
    {
      "inputs": [
        {
          "internalType": "uint256",
          "name": "value",
          "type": "uint256"
        },
        {
          "internalType": "uint256",
          "name": "length",
          "type": "uint256"
        }
      ],
      "name": "StringsInsufficientHexLength",
      "type": "error"
    },
    {
      "anonymous": false,
      "inputs": [
        {
          "indexed": true,
          "internalType": "address",
          "name": "ChainLinkToken",
          "type": "address"
        }
      ],
      "name": "ChainLinkTokenSet",
      "type": "event"
    },
    {
      "anonymous": false,
      "inputs": [
        {
          "indexed": true,
          "internalType": "bytes32",
          "name": "id",
          "type": "bytes32"
        }
      ],
      "name": "ChainlinkCancelled",
      "type": "event"
    },
    {
      "anonymous": false,
      "inputs": [
        {
          "indexed": true,
          "internalType": "bytes32",
          "name": "id",
          "type": "bytes32"
        }
      ],
      "name": "ChainlinkFulfilled",
      "type": "event"
    },
    {
      "anonymous": false,
      "inputs": [
        {
          "indexed": true,
          "internalType": "bytes32",
          "name": "id",
          "type": "bytes32"
        }
      ],
      "name": "ChainlinkRequested",
      "type": "event"
    },
    {
      "anonymous": false,
      "inputs": [
        {
          "indexed": true,
          "internalType": "address",
          "name": "owner",
          "type": "address"
        },
        {
          "indexed": true,
          "internalType": "contract IERC20Metadata",
          "name": "asset",
          "type": "address"
        },
        {
          "indexed": false,
          "internalType": "uint256",
          "name": "amount",
          "type": "uint256"
        }
      ],
      "name": "FundsClaimed",
      "type": "event"
    },
    {
      "anonymous": false,
      "inputs": [
        {
          "indexed": true,
          "internalType": "address",
          "name": "owner",
          "type": "address"
        },
        {
          "indexed": true,
          "internalType": "contract IERC20MetadataUpgradeable",
          "name": "asset",
          "type": "address"
        },
        {
          "indexed": false,
          "internalType": "uint256",
          "name": "amount",
          "type": "uint256"
        }
      ],
      "name": "FundsClaimed",
      "type": "event"
    },
    {
      "anonymous": false,
      "inputs": [
        {
          "indexed": true,
          "internalType": "address",
          "name": "GainsAddress",
          "type": "address"
        }
      ],
      "name": "GainsAddressSet",
      "type": "event"
    },
    {
      "anonymous": false,
      "inputs": [
        {
          "indexed": true,
          "internalType": "address",
          "name": "oracle",
          "type": "address"
        }
      ],
      "name": "OracleAddressSet",
      "type": "event"
    },
    {
      "anonymous": false,
      "inputs": [
        {
          "indexed": true,
          "internalType": "address",
          "name": "from",
          "type": "address"
        },
        {
          "indexed": true,
          "internalType": "address",
          "name": "to",
          "type": "address"
        }
      ],
      "name": "OwnershipTransferRequested",
      "type": "event"
    },
    {
      "anonymous": false,
      "inputs": [
        {
          "indexed": true,
          "internalType": "address",
          "name": "from",
          "type": "address"
        },
        {
          "indexed": true,
          "internalType": "address",
          "name": "to",
          "type": "address"
        }
      ],
      "name": "OwnershipTransferred",
      "type": "event"
    },
    {
      "anonymous": false,
      "inputs": [
        {
          "indexed": true,
          "internalType": "string",
          "name": "url",
          "type": "string"
        }
      ],
      "name": "PublicApiUpdate",
      "type": "event"
    },
    {
      "anonymous": false,
      "inputs": [
        {
          "indexed": true,
          "internalType": "contract IERC20MetadataUpgradeable[]",
          "name": "collateral",
          "type": "address[]"
        },
        {
          "indexed": false,
          "internalType": "uint256[2][]",
          "name": "amounts",
          "type": "uint256[2][]"
        }
      ],
      "name": "SetStartingFee",
      "type": "event"
    },
    {
      "anonymous": false,
      "inputs": [
        {
          "indexed": true,
          "internalType": "address",
          "name": "vaultCreator",
          "type": "address"
        },
        {
          "indexed": true,
          "internalType": "address",
          "name": "vaultAddress",
          "type": "address"
        },
        {
          "indexed": true,
          "internalType": "contract IERC20MetadataUpgradeable",
          "name": "collateral",
          "type": "address"
        },
        {
          "components": [
            {
              "internalType": "string",
              "name": "method",
              "type": "string"
            },
            {
              "internalType": "string",
              "name": "url",
              "type": "string"
            },
            {
              "internalType": "string",
              "name": "headers",
              "type": "string"
            },
            {
              "internalType": "string",
              "name": "body",
              "type": "string"
            },
            {
              "internalType": "string",
              "name": "path",
              "type": "string"
            },
            {
              "internalType": "string",
              "name": "jobIDs",
              "type": "string"
            }
          ],
          "indexed": false,
          "internalType": "struct VaultFactory.APIInfo[]",
          "name": "apiinfo",
          "type": "tuple[]"
        },
        {
          "indexed": false,
          "internalType": "uint256[][]",
          "name": "strategy",
          "type": "uint256[][]"
        }
      ],
      "name": "VaultCreated",
      "type": "event"
    },
    {
      "inputs": [],
      "name": "BIP",
      "outputs": [
        {
          "internalType": "uint256",
          "name": "",
          "type": "uint256"
        }
      ],
      "stateMutability": "view",
      "type": "function"
    },
    {
      "inputs": [],
      "name": "acceptOwnership",
      "outputs": [],
      "stateMutability": "nonpayable",
      "type": "function"
    },
    {
      "inputs": [
        {
          "internalType": "address",
          "name": "",
          "type": "address"
        }
      ],
      "name": "approvedCaller",
      "outputs": [
        {
          "internalType": "bool",
          "name": "",
          "type": "bool"
        }
      ],
      "stateMutability": "view",
      "type": "function"
    },
    {
      "inputs": [
        {
          "internalType": "address",
          "name": "",
          "type": "address"
        }
      ],
      "name": "approvedVaults",
      "outputs": [
        {
          "internalType": "bool",
          "name": "",
          "type": "bool"
        }
      ],
      "stateMutability": "view",
      "type": "function"
    },
    {
      "inputs": [],
      "name": "autoVaultImplementation",
      "outputs": [
        {
          "internalType": "address",
          "name": "",
          "type": "address"
        }
      ],
      "stateMutability": "view",
      "type": "function"
    },
    {
      "inputs": [
        {
          "internalType": "address",
          "name": "vaultAddress",
          "type": "address"
        }
      ],
      "name": "buildChainlinkTradeRequest",
      "outputs": [
        {
          "components": [
            {
              "internalType": "bytes32",
              "name": "id",
              "type": "bytes32"
            },
            {
              "internalType": "address",
              "name": "callbackAddress",
              "type": "address"
            },
            {
              "internalType": "bytes4",
              "name": "callbackFunctionId",
              "type": "bytes4"
            },
            {
              "internalType": "uint256",
              "name": "nonce",
              "type": "uint256"
            },
            {
              "components": [
                {
                  "internalType": "bytes",
                  "name": "buf",
                  "type": "bytes"
                },
                {
                  "internalType": "uint256",
                  "name": "capacity",
                  "type": "uint256"
                }
              ],
              "internalType": "struct BufferChainlink.buffer",
              "name": "buf",
              "type": "tuple"
            }
          ],
          "internalType": "struct Chainlink.Request",
          "name": "req",
          "type": "tuple"
        }
      ],
      "stateMutability": "view",
      "type": "function"
    },
    {
      "inputs": [],
      "name": "chainLinkToken",
      "outputs": [
        {
          "internalType": "address",
          "name": "",
          "type": "address"
        }
      ],
      "stateMutability": "view",
      "type": "function"
    },
    {
      "inputs": [
        {
          "internalType": "string",
          "name": "headers",
          "type": "string"
        }
      ],
      "name": "changeHeaders",
      "outputs": [],
      "stateMutability": "nonpayable",
      "type": "function"
    },
    {
      "inputs": [
        {
          "internalType": "string",
          "name": "jobID",
          "type": "string"
        }
      ],
      "name": "changeJob",
      "outputs": [],
      "stateMutability": "nonpayable",
      "type": "function"
    },
    {
      "inputs": [
        {
          "internalType": "string",
          "name": "method",
          "type": "string"
        }
      ],
      "name": "changeMethod",
      "outputs": [],
      "stateMutability": "nonpayable",
      "type": "function"
    },
    {
      "inputs": [
        {
          "internalType": "string",
          "name": "url",
          "type": "string"
        },
        {
          "internalType": "uint256",
          "name": "feeMultiplier",
          "type": "uint256"
        }
      ],
      "name": "changePublicAPI",
      "outputs": [],
      "stateMutability": "nonpayable",
      "type": "function"
    },
    {
      "inputs": [
        {
          "internalType": "string",
          "name": "url",
          "type": "string"
        }
      ],
      "name": "changeURl",
      "outputs": [],
      "stateMutability": "nonpayable",
      "type": "function"
    },
    {
      "inputs": [
        {
          "internalType": "contract IERC20MetadataUpgradeable",
          "name": "asset",
          "type": "address"
        },
        {
          "internalType": "uint256",
          "name": "funds",
          "type": "uint256"
        }
      ],
      "name": "claimFunds",
      "outputs": [],
      "stateMutability": "nonpayable",
      "type": "function"
    },
    {
      "inputs": [
        {
          "internalType": "contract IERC20MetadataUpgradeable",
          "name": "collateral",
          "type": "address"
        },
        {
          "internalType": "uint256",
          "name": "initialAmount",
          "type": "uint256"
        },
        {
          "components": [
            {
              "internalType": "string",
              "name": "method",
              "type": "string"
            },
            {
              "internalType": "string",
              "name": "url",
              "type": "string"
            },
            {
              "internalType": "string",
              "name": "headers",
              "type": "string"
            },
            {
              "internalType": "string",
              "name": "body",
              "type": "string"
            },
            {
              "internalType": "string",
              "name": "path",
              "type": "string"
            },
            {
              "internalType": "string",
              "name": "jobIDs",
              "type": "string"
            }
          ],
          "internalType": "struct VaultFactory.APIInfo[]",
          "name": "apiInfo",
          "type": "tuple[]"
        },
        {
          "internalType": "uint256[][]",
          "name": "listOfStrategies",
          "type": "uint256[][]"
        },
        {
          "internalType": "string",
          "name": "collName",
          "type": "string"
        },
        {
          "internalType": "string",
          "name": "collSymbol",
          "type": "string"
        }
      ],
      "name": "createVault",
      "outputs": [
        {
          "internalType": "address payable",
          "name": "clonedVault",
          "type": "address"
        }
      ],
      "stateMutability": "nonpayable",
      "type": "function"
    },
    {
      "inputs": [
        {
          "internalType": "bytes32",
          "name": "requestId",
          "type": "bytes32"
        },
        {
          "internalType": "uint256[]",
          "name": "data",
          "type": "uint256[]"
        }
      ],
      "name": "fulfill",
      "outputs": [],
      "stateMutability": "nonpayable",
      "type": "function"
    },
    {
      "inputs": [],
      "name": "gainsAddress",
      "outputs": [
        {
          "internalType": "address",
          "name": "",
          "type": "address"
        }
      ],
      "stateMutability": "view",
      "type": "function"
    },
    {
      "inputs": [
        {
          "internalType": "address",
          "name": "asset",
          "type": "address"
        }
      ],
      "name": "getOracleFee",
      "outputs": [
        {
          "internalType": "uint256",
          "name": "",
          "type": "uint256"
        }
      ],
      "stateMutability": "view",
      "type": "function"
    },
    {
      "inputs": [
        {
          "internalType": "address",
          "name": "asset",
          "type": "address"
        }
      ],
      "name": "getVaultActionFee",
      "outputs": [
        {
          "internalType": "uint256",
          "name": "",
          "type": "uint256"
        }
      ],
      "stateMutability": "view",
      "type": "function"
    },
    {
      "inputs": [],
      "name": "maxStrategyCount",
      "outputs": [
        {
          "internalType": "uint256",
          "name": "",
          "type": "uint256"
        }
      ],
      "stateMutability": "view",
      "type": "function"
    },
    {
      "inputs": [],
      "name": "oracleAddress",
      "outputs": [
        {
          "internalType": "address",
          "name": "",
          "type": "address"
        }
      ],
      "stateMutability": "view",
      "type": "function"
    },
    {
      "inputs": [],
      "name": "owner",
      "outputs": [
        {
          "internalType": "address",
          "name": "",
          "type": "address"
        }
      ],
      "stateMutability": "view",
      "type": "function"
    },
    {
      "inputs": [
        {
          "internalType": "bytes32",
          "name": "requestId",
          "type": "bytes32"
        },
        {
          "internalType": "uint256[]",
          "name": "data",
          "type": "uint256[]"
        }
      ],
      "name": "preformAction",
      "outputs": [],
      "stateMutability": "nonpayable",
      "type": "function"
    },
    {
      "inputs": [
        {
          "internalType": "string",
          "name": "",
          "type": "string"
        }
      ],
      "name": "publicAPIEndPoints",
      "outputs": [
        {
          "internalType": "uint256",
          "name": "",
          "type": "uint256"
        }
      ],
      "stateMutability": "view",
      "type": "function"
    },
    {
      "inputs": [
        {
          "internalType": "bytes32",
          "name": "",
          "type": "bytes32"
        }
      ],
      "name": "requestToCaller",
      "outputs": [
        {
          "internalType": "contract AutoVault",
          "name": "",
          "type": "address"
        }
      ],
      "stateMutability": "view",
      "type": "function"
    },
    {
      "inputs": [
        {
          "internalType": "address",
          "name": "caller",
          "type": "address"
        },
        {
          "components": [
            {
              "internalType": "bytes32",
              "name": "id",
              "type": "bytes32"
            },
            {
              "internalType": "address",
              "name": "callbackAddress",
              "type": "address"
            },
            {
              "internalType": "bytes4",
              "name": "callbackFunctionId",
              "type": "bytes4"
            },
            {
              "internalType": "uint256",
              "name": "nonce",
              "type": "uint256"
            },
            {
              "components": [
                {
                  "internalType": "bytes",
                  "name": "buf",
                  "type": "bytes"
                },
                {
                  "internalType": "uint256",
                  "name": "capacity",
                  "type": "uint256"
                }
              ],
              "internalType": "struct BufferChainlink.buffer",
              "name": "buf",
              "type": "tuple"
            }
          ],
          "internalType": "struct Chainlink.Request",
          "name": "req",
          "type": "tuple"
        },
        {
          "internalType": "uint256",
          "name": "fee",
          "type": "uint256"
        }
      ],
      "name": "sendInfoRequest",
      "outputs": [
        {
          "internalType": "bytes32",
          "name": "requestId",
          "type": "bytes32"
        }
      ],
      "stateMutability": "nonpayable",
      "type": "function"
    },
    {
      "inputs": [
        {
          "internalType": "uint256",
          "name": "fee",
          "type": "uint256"
        }
      ],
      "name": "sendVaultBalanceReq",
      "outputs": [
        {
          "internalType": "bytes32",
          "name": "requestId",
          "type": "bytes32"
        }
      ],
      "stateMutability": "nonpayable",
      "type": "function"
    },
    {
      "inputs": [
        {
          "internalType": "address",
          "name": "_chainLinkToken",
          "type": "address"
        }
      ],
      "name": "setChainLinkToken",
      "outputs": [],
      "stateMutability": "nonpayable",
      "type": "function"
    },
    {
      "inputs": [
        {
          "internalType": "address",
          "name": "_gainsAddress",
          "type": "address"
        }
      ],
      "name": "setGainsAddress",
      "outputs": [],
      "stateMutability": "nonpayable",
      "type": "function"
    },
    {
      "inputs": [
        {
          "internalType": "address",
          "name": "_oracleAddress",
          "type": "address"
        }
      ],
      "name": "setOracleAddress",
      "outputs": [],
      "stateMutability": "nonpayable",
      "type": "function"
    },
    {
      "inputs": [
        {
          "internalType": "contract IERC20MetadataUpgradeable[]",
          "name": "tokens",
          "type": "address[]"
        },
        {
          "internalType": "uint256[2][]",
          "name": "amounts",
          "type": "uint256[2][]"
        }
      ],
      "name": "setStartingFees",
      "outputs": [],
      "stateMutability": "nonpayable",
      "type": "function"
    },
    {
      "inputs": [
        {
          "internalType": "address",
          "name": "user",
          "type": "address"
        }
      ],
      "name": "toggleCaller",
      "outputs": [],
      "stateMutability": "nonpayable",
      "type": "function"
    },
    {
      "inputs": [
        {
          "internalType": "contract IERC20MetadataUpgradeable",
          "name": "",
          "type": "address"
        },
        {
          "internalType": "uint256",
          "name": "",
          "type": "uint256"
        }
      ],
      "name": "tokenToOracleFee",
      "outputs": [
        {
          "internalType": "uint256",
          "name": "",
          "type": "uint256"
        }
      ],
      "stateMutability": "view",
      "type": "function"
    },
    {
      "inputs": [],
      "name": "trade_headers",
      "outputs": [
        {
          "internalType": "string",
          "name": "",
          "type": "string"
        }
      ],
      "stateMutability": "view",
      "type": "function"
    },
    {
      "inputs": [],
      "name": "trade_job",
      "outputs": [
        {
          "internalType": "string",
          "name": "",
          "type": "string"
        }
      ],
      "stateMutability": "view",
      "type": "function"
    },
    {
      "inputs": [],
      "name": "trade_method",
      "outputs": [
        {
          "internalType": "string",
          "name": "",
          "type": "string"
        }
      ],
      "stateMutability": "view",
      "type": "function"
    },
    {
      "inputs": [],
      "name": "trade_url",
      "outputs": [
        {
          "internalType": "string",
          "name": "",
          "type": "string"
        }
      ],
      "stateMutability": "view",
      "type": "function"
    },
    {
      "inputs": [
        {
          "internalType": "address",
          "name": "to",
          "type": "address"
        }
      ],
      "name": "transferOwnership",
      "outputs": [],
      "stateMutability": "nonpayable",
      "type": "function"
    }
  ],
  "transactionHash": "0x1f4abb46cf2fbc97440b6cf9e768f75cdea52e5a355808ef3a62c778ff5efa39",
  "args": [
    "0xd36c6B1777c7f3Db1B3201bDD87081A9045B7b46",
    "0xb1D4538B4571d411F07960EF2838Ce337FE1E80E",
    "0xd659a15812064c79e189fd950a189b15c75d3186",
    "0xC86Bd33fFF88eb622E2ACC99ffbe77b8158211df"
  ],
  "numDeployments": 1,
  "solcInputHash": "c1dbf08c63bee941ca994153117c7e92",
  "bytecode": "0x6001600490815560e060405260a0908152631413d4d560e21b60c052600b90610028908261032e565b506040518060800160405280604b8152602001613a8d604b9139600c9061004f908261032e565b5060408051602081019091525f8152600d9061006b908261032e565b506040518060400160405280602081526020017f3136383533356337336637623436636438666439613766323162646265646331815250600e90816100b0919061032e565b503480156100bc575f80fd5b50604051613ad8380380613ad88339810160408190526100db91610403565b33805f816101305760405162461bcd60e51b815260206004820152601860248201527f43616e6e6f7420736574206f776e657220746f207a65726f000000000000000060448201526064015b60405180910390fd5b600680546001600160a01b0319166001600160a01b038481169190911790915581161561016057610160816101ed565b5050600880546001600160a01b038781166001600160a01b031992831617909255600980548784169083168117909155600a8054878516908416179055918416608052335f908152601260205260409020805460ff1916600117905560028054909116909117905550600380546001600160a01b0319166001600160a01b03861617905550505050610454565b336001600160a01b038216036102455760405162461bcd60e51b815260206004820152601760248201527f43616e6e6f74207472616e7366657220746f2073656c660000000000000000006044820152606401610127565b600780546001600160a01b0319166001600160a01b03838116918217909255600654604051919216907fed8889f560326eb138920d842192f0eb3dd22b4f139c87a2c57538e05bae1278905f90a350565b634e487b7160e01b5f52604160045260245ffd5b600181811c908216806102be57607f821691505b6020821081036102dc57634e487b7160e01b5f52602260045260245ffd5b50919050565b601f82111561032957805f5260205f20601f840160051c810160208510156103075750805b601f840160051c820191505b81811015610326575f8155600101610313565b50505b505050565b81516001600160401b0381111561034757610347610296565b61035b8161035584546102aa565b846102e2565b6020601f82116001811461038d575f83156103765750848201515b5f19600385901b1c1916600184901b178455610326565b5f84815260208120601f198516915b828110156103bc578785015182556020948501946001909201910161039c565b50848210156103d957868401515f19600387901b60f8161c191681555b50505050600190811b01905550565b80516001600160a01b03811681146103fe575f80fd5b919050565b5f805f8060808587031215610416575f80fd5b61041f856103e8565b935061042d602086016103e8565b925061043b604086016103e8565b9150610449606086016103e8565b905092959194509250565b60805161361a6104735f395f81816102f60152610553015261361a5ff3fe608060405234801561000f575f80fd5b50600436106101b4575f3560e01c8062fa666b146101b8578063011683b8146101e157806311ee244a1461020257806316e1d00d14610217578063257676a81461022a5780632e46f0361461023d578063415588b01461025057806344a05e571461026357806344d53d951461028e5780634600e344146102b65780634c69c00f146102cb5780634cd139db146102de57806355c91e4b146102f157806376365f4f1461031857806379ba50971461032b5780637c3e8dd41461033357806386d6ed51146103465780638da5cb5b146103505780638dca7e6314610358578063977c20c514610360578063a89ae4ba14610380578063af7a060c14610393578063bb9b3d91146103c5578063bc1e26a7146103d8578063c083bc77146103eb578063c7217862146103f3578063cfb4148014610415578063d3520d2f14610428578063d68084ce1461043b578063daf4ca7f1461044e578063df7b659f14610456578063ec15af4b14610469578063ec60640b1461047c578063ed2b40ea1461048f578063f2fde38b146104a2578063f5764fc4146104b5578063fc848229146104c8575b5f80fd5b6101cb6101c63660046125f6565b6104d0565b6040516101d891906126ce565b60405180910390f35b6101f46101ef3660046126e2565b6106c3565b6040519081526020016101d8565b61021561021036600461270c565b6106e5565b005b61021561022536600461273d565b6106fd565b61021561023836600461273d565b61072d565b6101f461024b36600461273d565b61077e565b600a546101cb906001600160a01b031681565b6101f461027136600461270c565b8051602081830181018051600f8252928201919093012091525481565b6101cb61029c36600461275f565b60106020525f90815260409020546001600160a01b031681565b6102be61079f565b6040516101d891906127a4565b6102156102d936600461273d565b61082b565b6102156102ec36600461270c565b61087c565b6101cb7f000000000000000000000000000000000000000000000000000000000000000081565b61021561032636600461273d565b610890565b6102156108e1565b6101f4610341366004612836565b61098e565b6101f4620f424081565b6101cb610a28565b6101f4600a81565b61037361036e36600461273d565b610a37565b6040516101d8919061296f565b6008546101cb906001600160a01b031681565b6103b56103a136600461273d565b60116020525f908152604090205460ff1681565b60405190151581526020016101d8565b6101f46103d336600461273d565b610cdb565b6102156103e636600461270c565b610cf9565b6102be610d0d565b6103b561040136600461273d565b60126020525f908152604090205460ff1681565b610215610423366004612981565b610d1a565b610215610436366004612a1a565b610e12565b610215610449366004612ad0565b610ee8565b6102be610f52565b6101f461046436600461275f565b610f5f565b6009546101cb906001600160a01b031681565b61021561048a366004612b11565b610fcc565b61021561049d3660046126e2565b6110a5565b6102156104b036600461273d565b611105565b6102156104c336600461270c565b611119565b6102be61112d565b5f600a84111561050257604051634a4a48cd60e11b815260048101859052600a60248201526044015b60405180910390fd5b6001600160a01b0389165f9081526013602052604081205490036105395760405163efe5dc4d60e01b815260040160405180910390fd5b61054e6001600160a01b038a1633308b61113a565b6105777f00000000000000000000000000000000000000000000000000000000000000006111ab565b90505f6040518060a0016040528061058d610a28565b6001600160a01b0390811682523360208301526009548116604083015260085481166060830152600a54811660809092019190915290915082166328e9edb98b8b8488886105dd8f8f8f8f61121a565b6040518763ffffffff1660e01b81526004016105fe96959493929190612ba5565b5f604051808303815f87803b158015610615575f80fd5b505af1158015610627573d5f803e3d5ffd5b5050506001600160a01b038084165f908152601160205260409020805460ff1916600117905561065b91508b16838b611767565b896001600160a01b0316826001600160a01b0316336001600160a01b03167f416c14e9c253fda70d363e7812808eb15246d08389dfe8f694f7b73ba43cb1428b8b8b8b6040516106ae9493929190612d76565b60405180910390a45098975050505050505050565b6013602052815f5260405f2081600281106106dc575f80fd5b01549150829050565b6106ed61179c565b600c6106f98282612f3b565b5050565b61070561179c565b6001600160a01b03165f908152601260205260409020805460ff19811660ff90911615179055565b61073561179c565b600980546001600160a01b0319166001600160a01b0383169081179091556040517fb443cb4216741f9e8e4c69f8b4852f9ebaee0fb4c4f5229b3fe8580bed07e822905f90a250565b6001600160a01b0381165f908152601360205260408120815b015492915050565b600b80546107ac90612ebe565b80601f01602080910402602001604051908101604052809291908181526020018280546107d890612ebe565b80156108235780601f106107fa57610100808354040283529160200191610823565b820191905f5260205f20905b81548152906001019060200180831161080657829003601f168201915b505050505081565b61083361179c565b600880546001600160a01b0319166001600160a01b0383169081179091556040517fdd82bdfc28fcc826c53263dc2a2b6083e27e92699ebfee617227e08e21c202f0905f90a250565b61088461179c565b600e6106f98282612f3b565b61089861179c565b600a80546001600160a01b0319166001600160a01b0383169081179091556040517fd287efab3856f26617f93d52384daf9f5f79854cb85cebcbbaafeaa3d7c82169905f90a250565b6007546001600160a01b031633146109345760405162461bcd60e51b815260206004820152601660248201527526bab9ba10313290383937b837b9b2b21037bbb732b960511b60448201526064016104f9565b600680546001600160a01b0319808216339081179093556007805490911690556040516001600160a01b03909116919082907f8be0079c531659141344cd1fd0a4f28419497f9722a3daafe3b4186f6b6457e0905f90a350565b6001600160a01b0383165f9081526012602052604081205460ff166109c8578360405163f928798160e01b81526004016104f991906126ce565b335f9081526011602052604090205460ff166109f95733604051630422e93d60e41b81526004016104f991906126ce565b610a0383836117f1565b5f81815260106020526040902080546001600160a01b03191633179055949350505050565b6006546001600160a01b031690565b610a3f612406565b610a59610a4c600e612ff5565b63d3520d2f60e01b611813565b9050610b16604051806040016040528060068152602001651b595d1a1bd960d21b815250600b8054610a8a90612ebe565b80601f0160208091040260200160405190810160405280929190818152602001828054610ab690612ebe565b8015610b015780601f10610ad857610100808354040283529160200191610b01565b820191905f5260205f20905b815481529060010190602001808311610ae457829003601f168201915b5050505050836118379092919063ffffffff16565b610b42604051806040016040528060038152602001621d5c9b60ea1b815250600c8054610a8a90612ebe565b610b72604051806040016040528060078152602001666865616465727360c81b815250600d8054610a8a90612ebe565b6040805180820190915260118152703d913ab9b2b920b2323932b9b9911d101160791b602082015280610bad6001600160a01b038516611855565b604051602001610bbe929190613049565b604051602081830303815290604052905080604051602001610be0919061305d565b60408051601f198184030181528282019091526004825263626f647960e01b60208301529150610c1290839083611837565b610c5f6040518060400160405280600781526020016618dbdb9d1858dd60ca1b815250604051806040016040528060018152602001604160f81b815250846118379092919063ffffffff16565b610ca0604051806040016040528060048152602001630e0c2e8d60e31b8152506040518060600160405280602181526020016135a460219139849190611837565b60408051808201909152600a81526936bab63a34b83634b2b960b11b6020820152610cd5908390670de0b6b3a764000061186b565b50919050565b6001600160a01b0381165f9081526013602052604081206001610797565b610d0161179c565b600d6106f98282612f3b565b600e80546107ac90612ebe565b610d2261179c565b828114610d4257604051637e0abb9560e11b815260040160405180910390fd5b5f5b83811015610dba57828282818110610d5e57610d5e612b58565b90506040020160135f878785818110610d7957610d79612b58565b9050602002016020810190610d8e919061273d565b6001600160a01b0316815260208101919091526040015f20610db191600261243a565b50600101610d44565b508383604051610dcb92919061307a565b60405180910390207f463a5554c7facc8114d447e5dca10f3a234b70035b36792c11d5615387cce00b8383604051610e049291906130bb565b60405180910390a250505050565b5f8281526005602052604090205482906001600160a01b03163314610e495760405162461bcd60e51b81526004016104f9906130f7565b5f8181526005602052604080822080546001600160a01b03191690555182915f805160206135c583398151915291a25f838152601060205260409081902054905163d3520d2f60e01b81526001600160a01b039091169063d3520d2f90610eb6908690869060040161313f565b5f604051808303815f87803b158015610ecd575f80fd5b505af1158015610edf573d5f803e3d5ffd5b50505050505050565b610ef061179c565b80600f83604051610f019190613180565b90815260405190819003602001812091909155610f1f908390613180565b604051908190038120907f464af60849b1d6d2449131bfbe43238149eba7682e337c2e3376b57873df3ffb905f90a25050565b600c80546107ac90612ebe565b5f80610f6a33610a37565b335f9081526011602052604090205490915060ff16610f9e5733604051630422e93d60e41b81526004016104f991906126ce565b610fa881846117f1565b5f81815260106020526040902080546001600160a01b031916331790559392505050565b5f8381526005602052604090205483906001600160a01b031633146110035760405162461bcd60e51b81526004016104f9906130f7565b5f8181526005602052604080822080546001600160a01b03191690555182915f805160206135c583398151915291a25f848152601060205260409081902054905163ec60640b60e01b81526001600160a01b039091169063ec60640b906110729087908790879060040161318b565b5f604051808303815f87803b158015611089575f80fd5b505af115801561109b573d5f803e3d5ffd5b5050505050505050565b6110ad61179c565b6110c16001600160a01b0383163383611767565b6040518181526001600160a01b0383169033907f716942921e9b67ee05c4c2ffcf216f189086c9053b444c8928a49db4bdb1ae8e9060200160405180910390a35050565b61110d61179c565b61111681611889565b50565b61112161179c565b600b6106f98282612f3b565b600d80546107ac90612ebe565b6040516001600160a01b03808516602483015283166044820152606481018290526111a59085906323b872dd60e01b906084015b60408051601f198184030181529190526020810180516001600160e01b03166001600160e01b03199093169290921790915261192c565b50505050565b5f763d602d80600a3d3981f3363d3d373d3d3d363d730000008260601b60e81c175f526e5af43d82803e903d91602b57fd5bf38260781b17602052603760095ff090506001600160a01b038116611215576040516330be1a3d60e21b815260040160405180910390fd5b919050565b606083821461124657604051631fa3127b60e31b815260048101859052602481018390526044016104f9565b816001600160401b0381111561125e5761125e61250b565b604051908082528060200260200182016040528015611287578160200160208202803683370190505b5090505f5b8281101561175e575f6112e08787848181106112aa576112aa612b58565b90506020028101906112bc91906131ad565b6112ca9060a08101906131cb565b6112d39161320d565b63ec60640b60e01b611813565b905061136f604051806040016040528060068152602001651b595d1a1bd960d21b81525088888581811061131657611316612b58565b905060200281019061132891906131ad565b61133290806131cb565b8080601f0160208091040260200160405190810160405280939291908181526020018383808284375f920191909152508694939250506118379050565b6113c0604051806040016040528060038152602001621d5c9b60ea1b8152508888858181106113a0576113a0612b58565b90506020028101906113b291906131ad565b6113329060208101906131cb565b5f600f8888858181106113d5576113d5612b58565b90506020028101906113e791906131ad565b6113f59060208101906131cb565b60405161140392919061322a565b908152602001604051809103902054620f4240611420919061324d565b90505f88888581811061143557611435612b58565b905060200281019061144791906131ad565b6114559060408101906131cb565b905011156114ef576114ef604051806040016040528060078152602001666865616465727360c81b81525089898681811061149257611492612b58565b90506020028101906114a491906131ad565b6114b29060408101906131cb565b8080601f0160208091040260200160405190810160405280939291908181526020018383808284375f920191909152508794939250506118379050565b5f88888581811061150257611502612b58565b905060200281019061151491906131ad565b6115229060608101906131cb565b9050111561157c5761157c60405180604001604052806004815260200163626f647960e01b81525089898681811061155c5761155c612b58565b905060200281019061156e91906131ad565b6114b29060608101906131cb565b6115c96040518060400160405280600781526020016618dbdb9d1858dd60ca1b815250604051806040016040528060018152602001604160f81b815250846118379092919063ffffffff16565b61161b604051806040016040528060048152602001630e0c2e8d60e31b8152508989868181106115fb576115fb612b58565b905060200281019061160d91906131ad565b6114b29060808101906131cb565b60408051808201909152600a81526936bab63a34b83634b2b960b11b6020820152611650908390670de0b6b3a764000061186b565b5f731eD48b0A7eC2E5b9B8368466a18E3c45A1288a5763d88b06db88888781811061167d5761167d612b58565b905060200281019061168f9190613260565b6040518363ffffffff1660e01b81526004016116ac9291906132a5565b5f60405180830381865af41580156116c6573d5f803e3d5ffd5b505050506040513d5f823e601f3d908101601f191682016040526116ed91908101906132b8565b90505f8284836040516020016117059392919061332c565b60405160208183030381529060405290505f611720826119ff565b90508087878151811061173557611735612b58565b6001600160a01b039092166020928302919091019091015250506001909301925061128c915050565b50949350505050565b6040516001600160a01b03831660248201526044810182905261179790849063a9059cbb60e01b9060640161116e565b505050565b6006546001600160a01b031633146117ef5760405162461bcd60e51b815260206004820152601660248201527527b7363c9031b0b63630b1363290313c9037bbb732b960511b60448201526064016104f9565b565b6003545f9061180a906001600160a01b03168484611aa1565b90505b92915050565b61181b612406565b611823612406565b61182f81853086611b32565b949350505050565b60808301516118469083611b6f565b60808301516117979082611b6f565b606061180d6001600160a01b0383166014611b86565b608083015161187a9083611b6f565b60808301516117979082611cf7565b336001600160a01b038216036118db5760405162461bcd60e51b815260206004820152601760248201527621b0b73737ba103a3930b739b332b9103a379039b2b63360491b60448201526064016104f9565b600780546001600160a01b0319166001600160a01b03838116918217909255600654604051919216907fed8889f560326eb138920d842192f0eb3dd22b4f139c87a2c57538e05bae1278905f90a350565b5f611980826040518060400160405280602081526020017f5361666545524332303a206c6f772d6c6576656c2063616c6c206661696c6564815250856001600160a01b0316611d529092919063ffffffff16565b905080515f14806119a05750808060200190518101906119a09190613356565b6117975760405162461bcd60e51b815260206004820152602a60248201527f5361666545524332303a204552433230206f7065726174696f6e20646964206e6044820152691bdd081cdd58d8d9595960b21b60648201526084016104f9565b5f8082604051602001611a129190613375565b60405160208183030381529060405290505f81604051602001611a359190613386565b60405160208183030381529060405290508051602082015ff092506001600160a01b038316611a9a5760405162461bcd60e51b81526020600482015260116024820152701111541313d65351539517d19052531151607a1b60448201526064016104f9565b5050919050565b6004545f90611ab181600161324d565b600455835160408086015160808701515191515f936320214ca360e11b93611ae89386938493923092918a916001916024016133a5565b60408051601f198184030181529190526020810180516001600160e01b03166001600160e01b0319909316929092179091529050611b2886838684611d60565b9695505050505050565b611b3a612406565b611b4a8560800151610100611eb4565b50509183526001600160a01b031660208301526001600160e01b031916604082015290565b611b7c8260038351611f0b565b6117978282612012565b6060825f611b9584600261340b565b611ba090600261324d565b6001600160401b03811115611bb757611bb761250b565b6040519080825280601f01601f191660200182016040528015611be1576020820181803683370190505b509050600360fc1b815f81518110611bfb57611bfb612b58565b60200101906001600160f81b03191690815f1a905350600f60fb1b81600181518110611c2957611c29612b58565b60200101906001600160f81b03191690815f1a9053505f611c4b85600261340b565b611c5690600161324d565b90505b6001811115611ccd576f181899199a1a9b1b9c1cb0b131b232b360811b83600f1660108110611c8a57611c8a612b58565b1a60f81b828281518110611ca057611ca0612b58565b60200101906001600160f81b03191690815f1a90535060049290921c91611cc681613422565b9050611c59565b50811561182f5760405163e22e27eb60e01b815260048101869052602481018590526044016104f9565b6001600160401b0319811215611d11576106f9828261202b565b6001600160401b03811315611d2a576106f9828261206c565b5f8112611d3c576106f9825f83611f0b565b6106f9826001611d4d845f19613437565b611f0b565b606061182f84845f8561208f565b6040516001600160601b03193060601b166020820152603481018490525f9060540160408051808303601f1901815282825280516020918201205f818152600590925291812080546001600160a01b0319166001600160a01b038a1617905590925082917fb5e6e01e79f91267dc17b4e6314d5d4d03593d2ceee0fbb452b750bd70ea5af99190a2600254604051630200057560e51b81526001600160a01b0390911690634000aea090611e1c9088908790879060040161345d565b6020604051808303815f875af1158015611e38573d5f803e3d5ffd5b505050506040513d601f19601f82011682018060405250810190611e5c9190613356565b61182f5760405162461bcd60e51b815260206004820152602360248201527f756e61626c6520746f207472616e73666572416e6443616c6c20746f206f7261604482015262636c6560e81b60648201526084016104f9565b611ebc612478565b611ec7602083613483565b15611eef57611ed7602083613483565b611ee29060206134a2565b611eec908361324d565b91505b506020828101829052604080518085525f815290920101905290565b6017816001600160401b031611611f2f576111a58360e0600585901b168317612166565b60ff816001600160401b031611611f6b57611f55836018611fe0600586901b1617612166565b506111a5836001600160401b038316600161217d565b61ffff816001600160401b031611611fa857611f92836019611fe0600586901b1617612166565b506111a5836001600160401b038316600261217d565b63ffffffff816001600160401b031611611fe757611fd183601a611fe0600586901b1617612166565b506111a5836001600160401b038316600461217d565b611ffc83601b611fe0600586901b1617612166565b506111a5836001600160401b038316600861217d565b61201a612478565b61180a83845f015151848551612195565b6120368260c3612166565b506106f982612046835f19613437565b60405160200161205891815260200190565b60405160208183030381529060405261226f565b6120778260c2612166565b506106f9828260405160200161205891815260200190565b6060824710156120f05760405162461bcd60e51b815260206004820152602660248201527f416464726573733a20696e73756666696369656e742062616c616e636520666f6044820152651c8818d85b1b60d21b60648201526084016104f9565b5f80866001600160a01b0316858760405161210b9190613180565b5f6040518083038185875af1925050503d805f8114612145576040519150601f19603f3d011682016040523d82523d5f602084013e61214a565b606091505b509150915061215b8783838761227c565b979650505050505050565b61216e612478565b61180a83845f015151846122f4565b612185612478565b61182f84855f0151518585612342565b61219d612478565b82518211156121aa575f80fd5b60208501516121b9838661324d565b11156121ec576121ec856121dc876020015187866121d7919061324d565b6123b5565b6121e790600261340b565b6123c5565b5f8086518051876020830101935080888701111561220a5787860182525b505050602084015b6020841061224a578051825261222960208361324d565b915061223660208261324d565b90506122436020856134a2565b9350612212565b5181515f1960208690036101000a019081169019919091161790525083949350505050565b611b7c8260028351611f0b565b606083156122ea5782515f036122e3576001600160a01b0385163b6122e35760405162461bcd60e51b815260206004820152601d60248201527f416464726573733a2063616c6c20746f206e6f6e2d636f6e747261637400000060448201526064016104f9565b508161182f565b61182f83836123dc565b6122fc612478565b8360200151831061231c5761231c84856020015160026121e7919061340b565b8351805160208583010184815350808503612338576001810182525b5093949350505050565b61234a612478565b6020850151612359858461324d565b111561236d5761236d856121dc868561324d565b5f600161237c84610100613598565b61238691906134a2565b90508551838682010185831982511617815250805184870111156123aa5783860181525b509495945050505050565b5f81831115610cd557508161180d565b81516123d18383611eb4565b506111a58382612012565b8151156123ec5781518083602001fd5b8060405162461bcd60e51b81526004016104f991906127a4565b6040805160a0810182525f80825260208201819052918101829052606081019190915260808101612435612478565b905290565b8260028101928215612468579160200282015b8281111561246857823582559160200191906001019061244d565b50612474929150612491565b5090565b6040518060400160405280606081526020015f81525090565b5b80821115612474575f8155600101612492565b6001600160a01b0381168114611116575f80fd5b8035611215816124a5565b5f8083601f8401126124d4575f80fd5b5081356001600160401b038111156124ea575f80fd5b6020830191508360208260051b8501011115612504575f80fd5b9250929050565b634e487b7160e01b5f52604160045260245ffd5b60405160a081016001600160401b03811182821017156125415761254161250b565b60405290565b604051601f8201601f191681016001600160401b038111828210171561256f5761256f61250b565b604052919050565b5f6001600160401b0382111561258f5761258f61250b565b50601f01601f191660200190565b5f6125af6125aa84612577565b612547565b90508281528383830111156125c2575f80fd5b828260208301375f602084830101529392505050565b5f82601f8301126125e7575f80fd5b61180a8383356020850161259d565b5f805f805f805f8060c0898b03121561260d575f80fd5b612616896124b9565b97506020890135965060408901356001600160401b03811115612637575f80fd5b6126438b828c016124c4565b90975095505060608901356001600160401b03811115612661575f80fd5b61266d8b828c016124c4565b90955093505060808901356001600160401b0381111561268b575f80fd5b6126978b828c016125d8565b92505060a08901356001600160401b038111156126b2575f80fd5b6126be8b828c016125d8565b9150509295985092959890939650565b6001600160a01b0391909116815260200190565b5f80604083850312156126f3575f80fd5b82356126fe816124a5565b946020939093013593505050565b5f6020828403121561271c575f80fd5b81356001600160401b03811115612731575f80fd5b61182f848285016125d8565b5f6020828403121561274d575f80fd5b8135612758816124a5565b9392505050565b5f6020828403121561276f575f80fd5b5035919050565b5f81518084528060208401602086015e5f602082860101526020601f19601f83011685010191505092915050565b602081525f61180a6020830184612776565b5f604082840312156127c6575f80fd5b604080519081016001600160401b03811182821017156127e8576127e861250b565b60405290508082356001600160401b03811115612803575f80fd5b8301601f81018513612813575f80fd5b6128228582356020840161259d565b825250602092830135920191909152919050565b5f805f60608486031215612848575f80fd5b8335612853816124a5565b925060208401356001600160401b0381111561286d575f80fd5b840160a0818703121561287e575f80fd5b61288661251f565b813581526020820135612898816124a5565b602082015260408201356001600160e01b0319811681146128b7575f80fd5b60408201526060828101359082015260808201356001600160401b038111156128de575f80fd5b6128ea888285016127b6565b60808301525093969395505050506040919091013590565b8051825260018060a01b03602082015116602083015263ffffffff60e01b6040820151166040830152606081015160608301525f608082015160a060808501528051604060a086015261295860e0860182612776565b9050602082015160c0860152809250505092915050565b602081525f61180a6020830184612902565b5f805f8060408587031215612994575f80fd5b84356001600160401b038111156129a9575f80fd5b6129b5878288016124c4565b90955093505060208501356001600160401b038111156129d3575f80fd5b8501601f810187136129e3575f80fd5b80356001600160401b038111156129f8575f80fd5b8760208260061b8401011115612a0c575f80fd5b949793965060200194505050565b5f8060408385031215612a2b575f80fd5b8235915060208301356001600160401b03811115612a47575f80fd5b8301601f81018513612a57575f80fd5b80356001600160401b03811115612a7057612a7061250b565b8060051b612a8060208201612547565b91825260208184018101929081019088841115612a9b575f80fd5b6020850194505b83851015612ac157843580835260209586019590935090910190612aa2565b80955050505050509250929050565b5f8060408385031215612ae1575f80fd5b82356001600160401b03811115612af6575f80fd5b612b02858286016125d8565b95602094909401359450505050565b5f805f60408486031215612b23575f80fd5b8335925060208401356001600160401b03811115612b3f575f80fd5b612b4b868287016124c4565b9497909650939450505050565b634e487b7160e01b5f52603260045260245ffd5b5f8151808452602084019350602083015f5b828110156123385781516001600160a01b0316865260209586019590910190600101612b7e565b6001600160a01b03878116825260208083018890528651821660408085019190915290870151821660608085019190915290870151821660808085019190915290870151821660a08401528601511660c082015261014060e082018190525f90612c1190830186612776565b828103610100840152612c248186612776565b9050828103610120840152612c398185612b6c565b9998505050505050505050565b5f808335601e19843603018112612c5b575f80fd5b83016020810192503590506001600160401b03811115612c79575f80fd5b803603821315612504575f80fd5b81835281816020850137505f828201602090810191909152601f909101601f19169091010190565b8183525f6001600160fb1b03831115612cc6575f80fd5b8260051b80836020870137939093016020019392505050565b5f8383855260208501945060208460051b820101835f5b86811015612d6a57838303601f19018852813536879003601e19018112612d1b575f80fd5b86016020810190356001600160401b03811115612d36575f80fd5b8060051b3603821315612d47575f80fd5b612d52858284612caf565b60209a8b019a90955093909301925050600101612cf6565b50909695505050505050565b604080825281018490525f6060600586901b83018101908301878360be1936839003015b89821015612ea757868503605f190184528235818112612db8575f80fd5b8b01612dc48180612c46565b60c08852612dd660c089018284612c87565b915050612de66020830183612c46565b88830360208a0152612df9838284612c87565b92505050612e0a6040830183612c46565b88830360408a0152612e1d838284612c87565b92505050612e2e6060830183612c46565b88830360608a0152612e41838284612c87565b92505050612e526080830183612c46565b88830360808a0152612e65838284612c87565b92505050612e7660a0830183612c46565b925087820360a0890152612e8b828483612c87565b9750505050602083019250602084019350600182019150612d9a565b50505050828103602084015261215b818587612cdf565b600181811c90821680612ed257607f821691505b602082108103610cd557634e487b7160e01b5f52602260045260245ffd5b601f82111561179757805f5260205f20601f840160051c81016020851015612f155750805b601f840160051c820191505b81811015612f34575f8155600101612f21565b5050505050565b81516001600160401b03811115612f5457612f5461250b565b612f6881612f628454612ebe565b84612ef0565b6020601f821160018114612f9a575f8315612f835750848201515b5f19600385901b1c1916600184901b178455612f34565b5f84815260208120601f198516915b82811015612fc95787850151825560209485019460019092019101612fa9565b5084821015612fe657868401515f19600387901b60f8161c191681555b50505050600190811b01905550565b5f6130008254612ebe565b82601f82111561301457835f5260205f2090505b5491506020811015610cd5575f1960209190910360031b1b16919050565b5f81518060208401855e5f93019283525090919050565b5f61182f6130578386613032565b84613032565b5f6130688284613032565b61227d60f01b81526002019392505050565b5f8184825b858110156130b0578135613092816124a5565b6001600160a01b03168352602092830192919091019060010161307f565b509095945050505050565b602080825281018290525f8360408301825b858110156130ed57604083833760409283019291909101906001016130cd565b5095945050505050565b60208082526028908201527f536f75726365206d75737420626520746865206f7261636c65206f6620746865604082015267081c995c5d595cdd60c21b606082015260800190565b5f60408201848352604060208401528084518083526060850191506020860192505f5b81811015612d6a578351835260209384019390920191600101613162565b5f61180a8284613032565b838152604060208201525f6131a4604083018486612caf565b95945050505050565b5f823560be198336030181126131c1575f80fd5b9190910192915050565b5f808335601e198436030181126131e0575f80fd5b8301803591506001600160401b038211156131f9575f80fd5b602001915036819003821315612504575f80fd5b8035602083101561180d575f19602084900360031b1b1692915050565b818382375f9101908152919050565b634e487b7160e01b5f52601160045260245ffd5b8082018082111561180d5761180d613239565b5f808335601e19843603018112613275575f80fd5b8301803591506001600160401b0382111561328e575f80fd5b6020019150600581901b3603821315612504575f80fd5b602081525f61182f602083018486612caf565b5f602082840312156132c8575f80fd5b81516001600160401b038111156132dd575f80fd5b8201601f810184136132ed575f80fd5b80516132fb6125aa82612577565b81815285602083850101111561330f575f80fd5b8160208401602083015e5f91810160200191909152949350505050565b838152606060208201525f6133446060830185612902565b8281036040840152611b288185612776565b5f60208284031215613366575f80fd5b81518015158114612758575f80fd5b5f81525f61180a6001830184613032565b6a600b5981380380925939f360a81b81525f61180a600b830184613032565b6001600160a01b0389811682526020820189905260408201889052861660608201526001600160e01b03198516608082015260a0810184905260c0810183905261010060e082018190525f906133fd90830184612776565b9a9950505050505050505050565b808202811582820484141761180d5761180d613239565b5f8161343057613430613239565b505f190190565b8181035f83128015838313168383128216171561345657613456613239565b5092915050565b60018060a01b0384168152826020820152606060408201525f6131a46060830184612776565b5f8261349d57634e487b7160e01b5f52601260045260245ffd5b500690565b8181038181111561180d5761180d613239565b6001815b60018411156134f0578085048111156134d4576134d4613239565b60018416156134e257908102905b60019390931c9280026134b9565b935093915050565b5f826135065750600161180d565b8161351257505f61180d565b816001811461352857600281146135325761354e565b600191505061180d565b60ff84111561354357613543613239565b50506001821b61180d565b5060208310610133831016604e8410600b8410161715613571575081810a61180d565b61357d5f1984846134b5565b805f190482111561359057613590613239565b029392505050565b5f61180a83836134f856fe746f74616c6e6577436f6c6c61746572616c3b626c6f636b54696d657374616d707cc135e0cebb02c3480ae5d74d377283180a2601f8f644edf7987b009316c63aa2646970667358221220ca336bb45e80747de2e551242c3d47b7f36cf5e8b1b5ed134c087a22e40256df64736f6c634300081a003368747470733a2f2f78707a7969686d63756e7777796b6a70666467792e73757061626173652e636f2f66756e6374696f6e732f76312f6765742d74726164696e672d7661726961626c6573",
  "deployedBytecode": "0x608060405234801561000f575f80fd5b50600436106101b4575f3560e01c8062fa666b146101b8578063011683b8146101e157806311ee244a1461020257806316e1d00d14610217578063257676a81461022a5780632e46f0361461023d578063415588b01461025057806344a05e571461026357806344d53d951461028e5780634600e344146102b65780634c69c00f146102cb5780634cd139db146102de57806355c91e4b146102f157806376365f4f1461031857806379ba50971461032b5780637c3e8dd41461033357806386d6ed51146103465780638da5cb5b146103505780638dca7e6314610358578063977c20c514610360578063a89ae4ba14610380578063af7a060c14610393578063bb9b3d91146103c5578063bc1e26a7146103d8578063c083bc77146103eb578063c7217862146103f3578063cfb4148014610415578063d3520d2f14610428578063d68084ce1461043b578063daf4ca7f1461044e578063df7b659f14610456578063ec15af4b14610469578063ec60640b1461047c578063ed2b40ea1461048f578063f2fde38b146104a2578063f5764fc4146104b5578063fc848229146104c8575b5f80fd5b6101cb6101c63660046125f6565b6104d0565b6040516101d891906126ce565b60405180910390f35b6101f46101ef3660046126e2565b6106c3565b6040519081526020016101d8565b61021561021036600461270c565b6106e5565b005b61021561022536600461273d565b6106fd565b61021561023836600461273d565b61072d565b6101f461024b36600461273d565b61077e565b600a546101cb906001600160a01b031681565b6101f461027136600461270c565b8051602081830181018051600f8252928201919093012091525481565b6101cb61029c36600461275f565b60106020525f90815260409020546001600160a01b031681565b6102be61079f565b6040516101d891906127a4565b6102156102d936600461273d565b61082b565b6102156102ec36600461270c565b61087c565b6101cb7f000000000000000000000000000000000000000000000000000000000000000081565b61021561032636600461273d565b610890565b6102156108e1565b6101f4610341366004612836565b61098e565b6101f4620f424081565b6101cb610a28565b6101f4600a81565b61037361036e36600461273d565b610a37565b6040516101d8919061296f565b6008546101cb906001600160a01b031681565b6103b56103a136600461273d565b60116020525f908152604090205460ff1681565b60405190151581526020016101d8565b6101f46103d336600461273d565b610cdb565b6102156103e636600461270c565b610cf9565b6102be610d0d565b6103b561040136600461273d565b60126020525f908152604090205460ff1681565b610215610423366004612981565b610d1a565b610215610436366004612a1a565b610e12565b610215610449366004612ad0565b610ee8565b6102be610f52565b6101f461046436600461275f565b610f5f565b6009546101cb906001600160a01b031681565b61021561048a366004612b11565b610fcc565b61021561049d3660046126e2565b6110a5565b6102156104b036600461273d565b611105565b6102156104c336600461270c565b611119565b6102be61112d565b5f600a84111561050257604051634a4a48cd60e11b815260048101859052600a60248201526044015b60405180910390fd5b6001600160a01b0389165f9081526013602052604081205490036105395760405163efe5dc4d60e01b815260040160405180910390fd5b61054e6001600160a01b038a1633308b61113a565b6105777f00000000000000000000000000000000000000000000000000000000000000006111ab565b90505f6040518060a0016040528061058d610a28565b6001600160a01b0390811682523360208301526009548116604083015260085481166060830152600a54811660809092019190915290915082166328e9edb98b8b8488886105dd8f8f8f8f61121a565b6040518763ffffffff1660e01b81526004016105fe96959493929190612ba5565b5f604051808303815f87803b158015610615575f80fd5b505af1158015610627573d5f803e3d5ffd5b5050506001600160a01b038084165f908152601160205260409020805460ff1916600117905561065b91508b16838b611767565b896001600160a01b0316826001600160a01b0316336001600160a01b03167f416c14e9c253fda70d363e7812808eb15246d08389dfe8f694f7b73ba43cb1428b8b8b8b6040516106ae9493929190612d76565b60405180910390a45098975050505050505050565b6013602052815f5260405f2081600281106106dc575f80fd5b01549150829050565b6106ed61179c565b600c6106f98282612f3b565b5050565b61070561179c565b6001600160a01b03165f908152601260205260409020805460ff19811660ff90911615179055565b61073561179c565b600980546001600160a01b0319166001600160a01b0383169081179091556040517fb443cb4216741f9e8e4c69f8b4852f9ebaee0fb4c4f5229b3fe8580bed07e822905f90a250565b6001600160a01b0381165f908152601360205260408120815b015492915050565b600b80546107ac90612ebe565b80601f01602080910402602001604051908101604052809291908181526020018280546107d890612ebe565b80156108235780601f106107fa57610100808354040283529160200191610823565b820191905f5260205f20905b81548152906001019060200180831161080657829003601f168201915b505050505081565b61083361179c565b600880546001600160a01b0319166001600160a01b0383169081179091556040517fdd82bdfc28fcc826c53263dc2a2b6083e27e92699ebfee617227e08e21c202f0905f90a250565b61088461179c565b600e6106f98282612f3b565b61089861179c565b600a80546001600160a01b0319166001600160a01b0383169081179091556040517fd287efab3856f26617f93d52384daf9f5f79854cb85cebcbbaafeaa3d7c82169905f90a250565b6007546001600160a01b031633146109345760405162461bcd60e51b815260206004820152601660248201527526bab9ba10313290383937b837b9b2b21037bbb732b960511b60448201526064016104f9565b600680546001600160a01b0319808216339081179093556007805490911690556040516001600160a01b03909116919082907f8be0079c531659141344cd1fd0a4f28419497f9722a3daafe3b4186f6b6457e0905f90a350565b6001600160a01b0383165f9081526012602052604081205460ff166109c8578360405163f928798160e01b81526004016104f991906126ce565b335f9081526011602052604090205460ff166109f95733604051630422e93d60e41b81526004016104f991906126ce565b610a0383836117f1565b5f81815260106020526040902080546001600160a01b03191633179055949350505050565b6006546001600160a01b031690565b610a3f612406565b610a59610a4c600e612ff5565b63d3520d2f60e01b611813565b9050610b16604051806040016040528060068152602001651b595d1a1bd960d21b815250600b8054610a8a90612ebe565b80601f0160208091040260200160405190810160405280929190818152602001828054610ab690612ebe565b8015610b015780601f10610ad857610100808354040283529160200191610b01565b820191905f5260205f20905b815481529060010190602001808311610ae457829003601f168201915b5050505050836118379092919063ffffffff16565b610b42604051806040016040528060038152602001621d5c9b60ea1b815250600c8054610a8a90612ebe565b610b72604051806040016040528060078152602001666865616465727360c81b815250600d8054610a8a90612ebe565b6040805180820190915260118152703d913ab9b2b920b2323932b9b9911d101160791b602082015280610bad6001600160a01b038516611855565b604051602001610bbe929190613049565b604051602081830303815290604052905080604051602001610be0919061305d565b60408051601f198184030181528282019091526004825263626f647960e01b60208301529150610c1290839083611837565b610c5f6040518060400160405280600781526020016618dbdb9d1858dd60ca1b815250604051806040016040528060018152602001604160f81b815250846118379092919063ffffffff16565b610ca0604051806040016040528060048152602001630e0c2e8d60e31b8152506040518060600160405280602181526020016135a460219139849190611837565b60408051808201909152600a81526936bab63a34b83634b2b960b11b6020820152610cd5908390670de0b6b3a764000061186b565b50919050565b6001600160a01b0381165f9081526013602052604081206001610797565b610d0161179c565b600d6106f98282612f3b565b600e80546107ac90612ebe565b610d2261179c565b828114610d4257604051637e0abb9560e11b815260040160405180910390fd5b5f5b83811015610dba57828282818110610d5e57610d5e612b58565b90506040020160135f878785818110610d7957610d79612b58565b9050602002016020810190610d8e919061273d565b6001600160a01b0316815260208101919091526040015f20610db191600261243a565b50600101610d44565b508383604051610dcb92919061307a565b60405180910390207f463a5554c7facc8114d447e5dca10f3a234b70035b36792c11d5615387cce00b8383604051610e049291906130bb565b60405180910390a250505050565b5f8281526005602052604090205482906001600160a01b03163314610e495760405162461bcd60e51b81526004016104f9906130f7565b5f8181526005602052604080822080546001600160a01b03191690555182915f805160206135c583398151915291a25f838152601060205260409081902054905163d3520d2f60e01b81526001600160a01b039091169063d3520d2f90610eb6908690869060040161313f565b5f604051808303815f87803b158015610ecd575f80fd5b505af1158015610edf573d5f803e3d5ffd5b50505050505050565b610ef061179c565b80600f83604051610f019190613180565b90815260405190819003602001812091909155610f1f908390613180565b604051908190038120907f464af60849b1d6d2449131bfbe43238149eba7682e337c2e3376b57873df3ffb905f90a25050565b600c80546107ac90612ebe565b5f80610f6a33610a37565b335f9081526011602052604090205490915060ff16610f9e5733604051630422e93d60e41b81526004016104f991906126ce565b610fa881846117f1565b5f81815260106020526040902080546001600160a01b031916331790559392505050565b5f8381526005602052604090205483906001600160a01b031633146110035760405162461bcd60e51b81526004016104f9906130f7565b5f8181526005602052604080822080546001600160a01b03191690555182915f805160206135c583398151915291a25f848152601060205260409081902054905163ec60640b60e01b81526001600160a01b039091169063ec60640b906110729087908790879060040161318b565b5f604051808303815f87803b158015611089575f80fd5b505af115801561109b573d5f803e3d5ffd5b5050505050505050565b6110ad61179c565b6110c16001600160a01b0383163383611767565b6040518181526001600160a01b0383169033907f716942921e9b67ee05c4c2ffcf216f189086c9053b444c8928a49db4bdb1ae8e9060200160405180910390a35050565b61110d61179c565b61111681611889565b50565b61112161179c565b600b6106f98282612f3b565b600d80546107ac90612ebe565b6040516001600160a01b03808516602483015283166044820152606481018290526111a59085906323b872dd60e01b906084015b60408051601f198184030181529190526020810180516001600160e01b03166001600160e01b03199093169290921790915261192c565b50505050565b5f763d602d80600a3d3981f3363d3d373d3d3d363d730000008260601b60e81c175f526e5af43d82803e903d91602b57fd5bf38260781b17602052603760095ff090506001600160a01b038116611215576040516330be1a3d60e21b815260040160405180910390fd5b919050565b606083821461124657604051631fa3127b60e31b815260048101859052602481018390526044016104f9565b816001600160401b0381111561125e5761125e61250b565b604051908082528060200260200182016040528015611287578160200160208202803683370190505b5090505f5b8281101561175e575f6112e08787848181106112aa576112aa612b58565b90506020028101906112bc91906131ad565b6112ca9060a08101906131cb565b6112d39161320d565b63ec60640b60e01b611813565b905061136f604051806040016040528060068152602001651b595d1a1bd960d21b81525088888581811061131657611316612b58565b905060200281019061132891906131ad565b61133290806131cb565b8080601f0160208091040260200160405190810160405280939291908181526020018383808284375f920191909152508694939250506118379050565b6113c0604051806040016040528060038152602001621d5c9b60ea1b8152508888858181106113a0576113a0612b58565b90506020028101906113b291906131ad565b6113329060208101906131cb565b5f600f8888858181106113d5576113d5612b58565b90506020028101906113e791906131ad565b6113f59060208101906131cb565b60405161140392919061322a565b908152602001604051809103902054620f4240611420919061324d565b90505f88888581811061143557611435612b58565b905060200281019061144791906131ad565b6114559060408101906131cb565b905011156114ef576114ef604051806040016040528060078152602001666865616465727360c81b81525089898681811061149257611492612b58565b90506020028101906114a491906131ad565b6114b29060408101906131cb565b8080601f0160208091040260200160405190810160405280939291908181526020018383808284375f920191909152508794939250506118379050565b5f88888581811061150257611502612b58565b905060200281019061151491906131ad565b6115229060608101906131cb565b9050111561157c5761157c60405180604001604052806004815260200163626f647960e01b81525089898681811061155c5761155c612b58565b905060200281019061156e91906131ad565b6114b29060608101906131cb565b6115c96040518060400160405280600781526020016618dbdb9d1858dd60ca1b815250604051806040016040528060018152602001604160f81b815250846118379092919063ffffffff16565b61161b604051806040016040528060048152602001630e0c2e8d60e31b8152508989868181106115fb576115fb612b58565b905060200281019061160d91906131ad565b6114b29060808101906131cb565b60408051808201909152600a81526936bab63a34b83634b2b960b11b6020820152611650908390670de0b6b3a764000061186b565b5f73__$77e209f1cfce518b56cf43f841bb659a66$__63d88b06db88888781811061167d5761167d612b58565b905060200281019061168f9190613260565b6040518363ffffffff1660e01b81526004016116ac9291906132a5565b5f60405180830381865af41580156116c6573d5f803e3d5ffd5b505050506040513d5f823e601f3d908101601f191682016040526116ed91908101906132b8565b90505f8284836040516020016117059392919061332c565b60405160208183030381529060405290505f611720826119ff565b90508087878151811061173557611735612b58565b6001600160a01b039092166020928302919091019091015250506001909301925061128c915050565b50949350505050565b6040516001600160a01b03831660248201526044810182905261179790849063a9059cbb60e01b9060640161116e565b505050565b6006546001600160a01b031633146117ef5760405162461bcd60e51b815260206004820152601660248201527527b7363c9031b0b63630b1363290313c9037bbb732b960511b60448201526064016104f9565b565b6003545f9061180a906001600160a01b03168484611aa1565b90505b92915050565b61181b612406565b611823612406565b61182f81853086611b32565b949350505050565b60808301516118469083611b6f565b60808301516117979082611b6f565b606061180d6001600160a01b0383166014611b86565b608083015161187a9083611b6f565b60808301516117979082611cf7565b336001600160a01b038216036118db5760405162461bcd60e51b815260206004820152601760248201527621b0b73737ba103a3930b739b332b9103a379039b2b63360491b60448201526064016104f9565b600780546001600160a01b0319166001600160a01b03838116918217909255600654604051919216907fed8889f560326eb138920d842192f0eb3dd22b4f139c87a2c57538e05bae1278905f90a350565b5f611980826040518060400160405280602081526020017f5361666545524332303a206c6f772d6c6576656c2063616c6c206661696c6564815250856001600160a01b0316611d529092919063ffffffff16565b905080515f14806119a05750808060200190518101906119a09190613356565b6117975760405162461bcd60e51b815260206004820152602a60248201527f5361666545524332303a204552433230206f7065726174696f6e20646964206e6044820152691bdd081cdd58d8d9595960b21b60648201526084016104f9565b5f8082604051602001611a129190613375565b60405160208183030381529060405290505f81604051602001611a359190613386565b60405160208183030381529060405290508051602082015ff092506001600160a01b038316611a9a5760405162461bcd60e51b81526020600482015260116024820152701111541313d65351539517d19052531151607a1b60448201526064016104f9565b5050919050565b6004545f90611ab181600161324d565b600455835160408086015160808701515191515f936320214ca360e11b93611ae89386938493923092918a916001916024016133a5565b60408051601f198184030181529190526020810180516001600160e01b03166001600160e01b0319909316929092179091529050611b2886838684611d60565b9695505050505050565b611b3a612406565b611b4a8560800151610100611eb4565b50509183526001600160a01b031660208301526001600160e01b031916604082015290565b611b7c8260038351611f0b565b6117978282612012565b6060825f611b9584600261340b565b611ba090600261324d565b6001600160401b03811115611bb757611bb761250b565b6040519080825280601f01601f191660200182016040528015611be1576020820181803683370190505b509050600360fc1b815f81518110611bfb57611bfb612b58565b60200101906001600160f81b03191690815f1a905350600f60fb1b81600181518110611c2957611c29612b58565b60200101906001600160f81b03191690815f1a9053505f611c4b85600261340b565b611c5690600161324d565b90505b6001811115611ccd576f181899199a1a9b1b9c1cb0b131b232b360811b83600f1660108110611c8a57611c8a612b58565b1a60f81b828281518110611ca057611ca0612b58565b60200101906001600160f81b03191690815f1a90535060049290921c91611cc681613422565b9050611c59565b50811561182f5760405163e22e27eb60e01b815260048101869052602481018590526044016104f9565b6001600160401b0319811215611d11576106f9828261202b565b6001600160401b03811315611d2a576106f9828261206c565b5f8112611d3c576106f9825f83611f0b565b6106f9826001611d4d845f19613437565b611f0b565b606061182f84845f8561208f565b6040516001600160601b03193060601b166020820152603481018490525f9060540160408051808303601f1901815282825280516020918201205f818152600590925291812080546001600160a01b0319166001600160a01b038a1617905590925082917fb5e6e01e79f91267dc17b4e6314d5d4d03593d2ceee0fbb452b750bd70ea5af99190a2600254604051630200057560e51b81526001600160a01b0390911690634000aea090611e1c9088908790879060040161345d565b6020604051808303815f875af1158015611e38573d5f803e3d5ffd5b505050506040513d601f19601f82011682018060405250810190611e5c9190613356565b61182f5760405162461bcd60e51b815260206004820152602360248201527f756e61626c6520746f207472616e73666572416e6443616c6c20746f206f7261604482015262636c6560e81b60648201526084016104f9565b611ebc612478565b611ec7602083613483565b15611eef57611ed7602083613483565b611ee29060206134a2565b611eec908361324d565b91505b506020828101829052604080518085525f815290920101905290565b6017816001600160401b031611611f2f576111a58360e0600585901b168317612166565b60ff816001600160401b031611611f6b57611f55836018611fe0600586901b1617612166565b506111a5836001600160401b038316600161217d565b61ffff816001600160401b031611611fa857611f92836019611fe0600586901b1617612166565b506111a5836001600160401b038316600261217d565b63ffffffff816001600160401b031611611fe757611fd183601a611fe0600586901b1617612166565b506111a5836001600160401b038316600461217d565b611ffc83601b611fe0600586901b1617612166565b506111a5836001600160401b038316600861217d565b61201a612478565b61180a83845f015151848551612195565b6120368260c3612166565b506106f982612046835f19613437565b60405160200161205891815260200190565b60405160208183030381529060405261226f565b6120778260c2612166565b506106f9828260405160200161205891815260200190565b6060824710156120f05760405162461bcd60e51b815260206004820152602660248201527f416464726573733a20696e73756666696369656e742062616c616e636520666f6044820152651c8818d85b1b60d21b60648201526084016104f9565b5f80866001600160a01b0316858760405161210b9190613180565b5f6040518083038185875af1925050503d805f8114612145576040519150601f19603f3d011682016040523d82523d5f602084013e61214a565b606091505b509150915061215b8783838761227c565b979650505050505050565b61216e612478565b61180a83845f015151846122f4565b612185612478565b61182f84855f0151518585612342565b61219d612478565b82518211156121aa575f80fd5b60208501516121b9838661324d565b11156121ec576121ec856121dc876020015187866121d7919061324d565b6123b5565b6121e790600261340b565b6123c5565b5f8086518051876020830101935080888701111561220a5787860182525b505050602084015b6020841061224a578051825261222960208361324d565b915061223660208261324d565b90506122436020856134a2565b9350612212565b5181515f1960208690036101000a019081169019919091161790525083949350505050565b611b7c8260028351611f0b565b606083156122ea5782515f036122e3576001600160a01b0385163b6122e35760405162461bcd60e51b815260206004820152601d60248201527f416464726573733a2063616c6c20746f206e6f6e2d636f6e747261637400000060448201526064016104f9565b508161182f565b61182f83836123dc565b6122fc612478565b8360200151831061231c5761231c84856020015160026121e7919061340b565b8351805160208583010184815350808503612338576001810182525b5093949350505050565b61234a612478565b6020850151612359858461324d565b111561236d5761236d856121dc868561324d565b5f600161237c84610100613598565b61238691906134a2565b90508551838682010185831982511617815250805184870111156123aa5783860181525b509495945050505050565b5f81831115610cd557508161180d565b81516123d18383611eb4565b506111a58382612012565b8151156123ec5781518083602001fd5b8060405162461bcd60e51b81526004016104f991906127a4565b6040805160a0810182525f80825260208201819052918101829052606081019190915260808101612435612478565b905290565b8260028101928215612468579160200282015b8281111561246857823582559160200191906001019061244d565b50612474929150612491565b5090565b6040518060400160405280606081526020015f81525090565b5b80821115612474575f8155600101612492565b6001600160a01b0381168114611116575f80fd5b8035611215816124a5565b5f8083601f8401126124d4575f80fd5b5081356001600160401b038111156124ea575f80fd5b6020830191508360208260051b8501011115612504575f80fd5b9250929050565b634e487b7160e01b5f52604160045260245ffd5b60405160a081016001600160401b03811182821017156125415761254161250b565b60405290565b604051601f8201601f191681016001600160401b038111828210171561256f5761256f61250b565b604052919050565b5f6001600160401b0382111561258f5761258f61250b565b50601f01601f191660200190565b5f6125af6125aa84612577565b612547565b90508281528383830111156125c2575f80fd5b828260208301375f602084830101529392505050565b5f82601f8301126125e7575f80fd5b61180a8383356020850161259d565b5f805f805f805f8060c0898b03121561260d575f80fd5b612616896124b9565b97506020890135965060408901356001600160401b03811115612637575f80fd5b6126438b828c016124c4565b90975095505060608901356001600160401b03811115612661575f80fd5b61266d8b828c016124c4565b90955093505060808901356001600160401b0381111561268b575f80fd5b6126978b828c016125d8565b92505060a08901356001600160401b038111156126b2575f80fd5b6126be8b828c016125d8565b9150509295985092959890939650565b6001600160a01b0391909116815260200190565b5f80604083850312156126f3575f80fd5b82356126fe816124a5565b946020939093013593505050565b5f6020828403121561271c575f80fd5b81356001600160401b03811115612731575f80fd5b61182f848285016125d8565b5f6020828403121561274d575f80fd5b8135612758816124a5565b9392505050565b5f6020828403121561276f575f80fd5b5035919050565b5f81518084528060208401602086015e5f602082860101526020601f19601f83011685010191505092915050565b602081525f61180a6020830184612776565b5f604082840312156127c6575f80fd5b604080519081016001600160401b03811182821017156127e8576127e861250b565b60405290508082356001600160401b03811115612803575f80fd5b8301601f81018513612813575f80fd5b6128228582356020840161259d565b825250602092830135920191909152919050565b5f805f60608486031215612848575f80fd5b8335612853816124a5565b925060208401356001600160401b0381111561286d575f80fd5b840160a0818703121561287e575f80fd5b61288661251f565b813581526020820135612898816124a5565b602082015260408201356001600160e01b0319811681146128b7575f80fd5b60408201526060828101359082015260808201356001600160401b038111156128de575f80fd5b6128ea888285016127b6565b60808301525093969395505050506040919091013590565b8051825260018060a01b03602082015116602083015263ffffffff60e01b6040820151166040830152606081015160608301525f608082015160a060808501528051604060a086015261295860e0860182612776565b9050602082015160c0860152809250505092915050565b602081525f61180a6020830184612902565b5f805f8060408587031215612994575f80fd5b84356001600160401b038111156129a9575f80fd5b6129b5878288016124c4565b90955093505060208501356001600160401b038111156129d3575f80fd5b8501601f810187136129e3575f80fd5b80356001600160401b038111156129f8575f80fd5b8760208260061b8401011115612a0c575f80fd5b949793965060200194505050565b5f8060408385031215612a2b575f80fd5b8235915060208301356001600160401b03811115612a47575f80fd5b8301601f81018513612a57575f80fd5b80356001600160401b03811115612a7057612a7061250b565b8060051b612a8060208201612547565b91825260208184018101929081019088841115612a9b575f80fd5b6020850194505b83851015612ac157843580835260209586019590935090910190612aa2565b80955050505050509250929050565b5f8060408385031215612ae1575f80fd5b82356001600160401b03811115612af6575f80fd5b612b02858286016125d8565b95602094909401359450505050565b5f805f60408486031215612b23575f80fd5b8335925060208401356001600160401b03811115612b3f575f80fd5b612b4b868287016124c4565b9497909650939450505050565b634e487b7160e01b5f52603260045260245ffd5b5f8151808452602084019350602083015f5b828110156123385781516001600160a01b0316865260209586019590910190600101612b7e565b6001600160a01b03878116825260208083018890528651821660408085019190915290870151821660608085019190915290870151821660808085019190915290870151821660a08401528601511660c082015261014060e082018190525f90612c1190830186612776565b828103610100840152612c248186612776565b9050828103610120840152612c398185612b6c565b9998505050505050505050565b5f808335601e19843603018112612c5b575f80fd5b83016020810192503590506001600160401b03811115612c79575f80fd5b803603821315612504575f80fd5b81835281816020850137505f828201602090810191909152601f909101601f19169091010190565b8183525f6001600160fb1b03831115612cc6575f80fd5b8260051b80836020870137939093016020019392505050565b5f8383855260208501945060208460051b820101835f5b86811015612d6a57838303601f19018852813536879003601e19018112612d1b575f80fd5b86016020810190356001600160401b03811115612d36575f80fd5b8060051b3603821315612d47575f80fd5b612d52858284612caf565b60209a8b019a90955093909301925050600101612cf6565b50909695505050505050565b604080825281018490525f6060600586901b83018101908301878360be1936839003015b89821015612ea757868503605f190184528235818112612db8575f80fd5b8b01612dc48180612c46565b60c08852612dd660c089018284612c87565b915050612de66020830183612c46565b88830360208a0152612df9838284612c87565b92505050612e0a6040830183612c46565b88830360408a0152612e1d838284612c87565b92505050612e2e6060830183612c46565b88830360608a0152612e41838284612c87565b92505050612e526080830183612c46565b88830360808a0152612e65838284612c87565b92505050612e7660a0830183612c46565b925087820360a0890152612e8b828483612c87565b9750505050602083019250602084019350600182019150612d9a565b50505050828103602084015261215b818587612cdf565b600181811c90821680612ed257607f821691505b602082108103610cd557634e487b7160e01b5f52602260045260245ffd5b601f82111561179757805f5260205f20601f840160051c81016020851015612f155750805b601f840160051c820191505b81811015612f34575f8155600101612f21565b5050505050565b81516001600160401b03811115612f5457612f5461250b565b612f6881612f628454612ebe565b84612ef0565b6020601f821160018114612f9a575f8315612f835750848201515b5f19600385901b1c1916600184901b178455612f34565b5f84815260208120601f198516915b82811015612fc95787850151825560209485019460019092019101612fa9565b5084821015612fe657868401515f19600387901b60f8161c191681555b50505050600190811b01905550565b5f6130008254612ebe565b82601f82111561301457835f5260205f2090505b5491506020811015610cd5575f1960209190910360031b1b16919050565b5f81518060208401855e5f93019283525090919050565b5f61182f6130578386613032565b84613032565b5f6130688284613032565b61227d60f01b81526002019392505050565b5f8184825b858110156130b0578135613092816124a5565b6001600160a01b03168352602092830192919091019060010161307f565b509095945050505050565b602080825281018290525f8360408301825b858110156130ed57604083833760409283019291909101906001016130cd565b5095945050505050565b60208082526028908201527f536f75726365206d75737420626520746865206f7261636c65206f6620746865604082015267081c995c5d595cdd60c21b606082015260800190565b5f60408201848352604060208401528084518083526060850191506020860192505f5b81811015612d6a578351835260209384019390920191600101613162565b5f61180a8284613032565b838152604060208201525f6131a4604083018486612caf565b95945050505050565b5f823560be198336030181126131c1575f80fd5b9190910192915050565b5f808335601e198436030181126131e0575f80fd5b8301803591506001600160401b038211156131f9575f80fd5b602001915036819003821315612504575f80fd5b8035602083101561180d575f19602084900360031b1b1692915050565b818382375f9101908152919050565b634e487b7160e01b5f52601160045260245ffd5b8082018082111561180d5761180d613239565b5f808335601e19843603018112613275575f80fd5b8301803591506001600160401b0382111561328e575f80fd5b6020019150600581901b3603821315612504575f80fd5b602081525f61182f602083018486612caf565b5f602082840312156132c8575f80fd5b81516001600160401b038111156132dd575f80fd5b8201601f810184136132ed575f80fd5b80516132fb6125aa82612577565b81815285602083850101111561330f575f80fd5b8160208401602083015e5f91810160200191909152949350505050565b838152606060208201525f6133446060830185612902565b8281036040840152611b288185612776565b5f60208284031215613366575f80fd5b81518015158114612758575f80fd5b5f81525f61180a6001830184613032565b6a600b5981380380925939f360a81b81525f61180a600b830184613032565b6001600160a01b0389811682526020820189905260408201889052861660608201526001600160e01b03198516608082015260a0810184905260c0810183905261010060e082018190525f906133fd90830184612776565b9a9950505050505050505050565b808202811582820484141761180d5761180d613239565b5f8161343057613430613239565b505f190190565b8181035f83128015838313168383128216171561345657613456613239565b5092915050565b60018060a01b0384168152826020820152606060408201525f6131a46060830184612776565b5f8261349d57634e487b7160e01b5f52601260045260245ffd5b500690565b8181038181111561180d5761180d613239565b6001815b60018411156134f0578085048111156134d4576134d4613239565b60018416156134e257908102905b60019390931c9280026134b9565b935093915050565b5f826135065750600161180d565b8161351257505f61180d565b816001811461352857600281146135325761354e565b600191505061180d565b60ff84111561354357613543613239565b50506001821b61180d565b5060208310610133831016604e8410600b8410161715613571575081810a61180d565b61357d5f1984846134b5565b805f190482111561359057613590613239565b029392505050565b5f61180a83836134f856fe746f74616c6e6577436f6c6c61746572616c3b626c6f636b54696d657374616d707cc135e0cebb02c3480ae5d74d377283180a2601f8f644edf7987b009316c63aa2646970667358221220ca336bb45e80747de2e551242c3d47b7f36cf5e8b1b5ed134c087a22e40256df64736f6c634300081a0033",
  "libraries": {
    "Equation": "0x1eD48b0A7eC2E5b9B8368466a18E3c45A1288a57"
  },
  "devdoc": {
    "details": "A factory contract for creating and managing AutoVault instances",
    "errors": {
      "ERC1167FailedCreateClone()": [
        {
          "details": "A clone instance deployment failed."
        }
      ],
      "StringsInsufficientHexLength(uint256,uint256)": [
        {
          "details": "The `value` string doesn't fit in the specified `length`."
        }
      ]
    },
    "kind": "dev",
    "methods": {
      "buildChainlinkTradeRequest(address)": {
        "details": "Builds a Chainlink request for trade execution",
        "params": {
          "vaultAddress": "The address of the vault"
        },
        "returns": {
          "req": "The built Chainlink request"
        }
      },
      "changeHeaders(string)": {
        "details": "Changes the headers used to call for the balance API",
        "params": {
          "headers": "The new string headers for requests"
        }
      },
      "changeJob(string)": {
        "details": "Changes the jobID used to call for the balance API",
        "params": {
          "jobID": "The new string jobID for requests"
        }
      },
      "changeMethod(string)": {
        "details": "Changes the method used to call for the balance API",
        "params": {
          "method": "The new string method for requests"
        }
      },
      "changePublicAPI(string,uint256)": {
        "details": "Toggles the public API status for a given URL",
        "params": {
          "url": "The URL to toggle"
        }
      },
      "changeURl(string)": {
        "details": "Changes the url used to call for the balance API",
        "params": {
          "url": "The new string url for requests"
        }
      },
      "claimFunds(address,uint256)": {
        "details": "Claims funds from the contract",
        "params": {
          "asset": "The token to claim",
          "funds": "The amount of funds to claim"
        }
      },
      "constructor": {
        "details": "Constructor for the VaultFactory contract",
        "params": {
          "_autoVaultImplementation": "Address of the AutoVault implementation contract",
          "_chainLinkToken": "Address of the LINK token",
          "_gainsAddress": "Address of the Gains Network contract",
          "oracleAddy": "Address of the Chainlink oracle"
        }
      },
      "createVault(address,uint256,(string,string,string,string,string,string)[],uint256[][],string,string)": {
        "details": "Creates a new AutoVault instance",
        "params": {
          "apiInfo": "Array of API information for strategies",
          "collateral": "The collateral token for the vault",
          "initialAmount": "The initial amount to deposit",
          "listOfStrategies": "Array of strategy parameters"
        },
        "returns": {
          "clonedVault": "The address of the newly created vault"
        }
      },
      "fulfill(bytes32,uint256[])": {
        "details": "Fulfills a Chainlink request",
        "params": {
          "data": "The data returned by the oracle",
          "requestId": "The ID of the request"
        }
      },
      "getOracleFee(address)": {
        "details": "Returns the oracle fee for a given asset",
        "params": {
          "asset": "The address of the asset"
        },
        "returns": {
          "_0": "The oracle fee for that given asset"
        }
      },
      "getVaultActionFee(address)": {
        "details": "Returns the vault fee for a given asset",
        "params": {
          "asset": "The address of the asset"
        },
        "returns": {
          "_0": "The vault action fee for that given asset"
        }
      },
      "preformAction(bytes32,uint256[])": {
        "details": "Performs an action based on the Chainlink response",
        "params": {
          "data": "The data returned by the oracle",
          "requestId": "The ID of the request"
        }
      },
      "sendInfoRequest(address,(bytes32,address,bytes4,uint256,(bytes,uint256)),uint256)": {
        "details": "Sends an info request to the Chainlink oracle",
        "params": {
          "caller": "The address of the caller",
          "fee": "The fee for the request",
          "req": "The Chainlink request"
        },
        "returns": {
          "requestId": "The ID of the Chainlink request"
        }
      },
      "sendVaultBalanceReq(uint256)": {
        "details": "Sends an info request to the Chainlink oracle",
        "params": {
          "fee": "The fee for the request"
        },
        "returns": {
          "requestId": "The ID of the Chainlink request"
        }
      },
      "setChainLinkToken(address)": {
        "details": "Sets the Chainlink token address",
        "params": {
          "_chainLinkToken": "The new Chainlink token address"
        }
      },
      "setGainsAddress(address)": {
        "details": "Sets the Gains Network address",
        "params": {
          "_gainsAddress": "The new Gains Network address"
        }
      },
      "setOracleAddress(address)": {
        "details": "Sets the oracle address",
        "params": {
          "_oracleAddress": "The new oracle address"
        }
      },
      "setStartingFees(address[],uint256[2][])": {
        "details": "Sets the starting fees for multiple tokens",
        "params": {
          "amounts": "Array of fee amounts",
          "tokens": "Array of token addresses"
        }
      },
      "toggleCaller(address)": {
        "details": "Toggles the approved caller status for a user",
        "params": {
          "user": "The address of the user"
        }
      }
    },
    "stateVariables": {
      "approvedCaller": {
        "details": "Keys are caller addresses, values indicate whether the caller is approved (true) or not (false)"
      },
      "approvedVaults": {
        "details": "Keys are vault addresses, values indicate whether the vault is approved (true) or not (false)"
      },
      "autoVaultImplementation": {
        "details": "This immutable address is used as the base for creating new vault instances"
      },
      "chainLinkToken": {
        "details": "This token is used to pay for Chainlink oracle requests"
      },
      "gainsAddress": {
        "details": "This contract is used for trading operations within the vaults"
      },
      "maxStrategyCount": {
        "details": "This is the maximum amount of strategies that a position can have"
      },
      "minimumDeposit": {
        "details": "This constant is used to ensure a minimum initial deposit when creating a new vault"
      },
      "oracleAddress": {
        "details": "This address is used to send Chainlink requests for external data"
      },
      "publicAPIEndPoints": {
        "details": "Keys are API URLs, values indicate whether the API is public (true) or not (false)"
      },
      "requestDecimals": {
        "details": "This constant is used to denote the decimals needed for the chainlink reqest"
      },
      "requestToCaller": {
        "details": "Keys are Chainlink request IDs, values are the AutoVault contract addresses"
      },
      "tokenToOracleFee": {
        "details": "Keys are token addresses, values are arrays containing two fee valuesThe first value is typically the oracle fee, and the second is the vault action fee"
      },
      "trade_headers": {
        "details": "This string is used for denoting the method of the api request"
      },
      "trade_job": {
        "details": "This string is used for denoting the method of the api request"
      },
      "trade_method": {
        "details": "This string is used for denoting the method of the api request"
      },
      "trade_url": {
        "details": "This string is used for denoting the method of the api request"
      }
    },
    "title": "VaultFactory",
    "version": 1
  },
  "userdoc": {
    "kind": "user",
    "methods": {
      "acceptOwnership()": {
        "notice": "Allows an ownership transfer to be completed by the recipient."
      },
      "approvedCaller(address)": {
        "notice": "Mapping to track approved caller addresses"
      },
      "approvedVaults(address)": {
        "notice": "Mapping to track approved vault addresses"
      },
      "changeHeaders(string)": {
        "notice": "This is used in case the API for user positions changes"
      },
      "changeJob(string)": {
        "notice": "This is used in case the API for user positions changes"
      },
      "changeMethod(string)": {
        "notice": "This is used in case the API for user positions changes"
      },
      "changeURl(string)": {
        "notice": "This is used in case the API for user positions changes"
      },
      "getOracleFee(address)": {
        "notice": "This is the min fee for actions when there is a trade"
      },
      "getVaultActionFee(address)": {
        "notice": "This is generally the min fee for all actions when there are no trades"
      },
      "owner()": {
        "notice": "Get the current owner"
      },
      "publicAPIEndPoints(string)": {
        "notice": "Mapping to track public API endpoints"
      },
      "requestToCaller(bytes32)": {
        "notice": "Mapping to associate Chainlink request IDs with corresponding AutoVault instances"
      },
      "tokenToOracleFee(address,uint256)": {
        "notice": "Mapping to store oracle fees for different tokens"
      },
      "trade_method()": {
        "notice": "the state vars below are for getting the balance of the vault"
      },
      "transferOwnership(address)": {
        "notice": "Allows an owner to begin transferring ownership to a new address."
      }
    },
    "version": 1
  },
  "storageLayout": {
    "storage": [
      {
        "astId": 325,
        "contract": "contracts/VaultFactory.sol:VaultFactory",
        "label": "s_ens",
        "offset": 0,
        "slot": "0",
        "type": "t_contract(ENSInterface)982"
      },
      {
        "astId": 327,
        "contract": "contracts/VaultFactory.sol:VaultFactory",
        "label": "s_ensNode",
        "offset": 0,
        "slot": "1",
        "type": "t_bytes32"
      },
      {
        "astId": 330,
        "contract": "contracts/VaultFactory.sol:VaultFactory",
        "label": "s_link",
        "offset": 0,
        "slot": "2",
        "type": "t_contract(LinkTokenInterface)1382"
      },
      {
        "astId": 333,
        "contract": "contracts/VaultFactory.sol:VaultFactory",
        "label": "s_oracle",
        "offset": 0,
        "slot": "3",
        "type": "t_contract(OperatorInterface)1047"
      },
      {
        "astId": 336,
        "contract": "contracts/VaultFactory.sol:VaultFactory",
        "label": "s_requestCount",
        "offset": 0,
        "slot": "4",
        "type": "t_uint256"
      },
      {
        "astId": 340,
        "contract": "contracts/VaultFactory.sol:VaultFactory",
        "label": "s_pendingRequests",
        "offset": 0,
        "slot": "5",
        "type": "t_mapping(t_bytes32,t_address)"
      },
      {
        "astId": 1117,
        "contract": "contracts/VaultFactory.sol:VaultFactory",
        "label": "s_owner",
        "offset": 0,
        "slot": "6",
        "type": "t_address"
      },
      {
        "astId": 1119,
        "contract": "contracts/VaultFactory.sol:VaultFactory",
        "label": "s_pendingOwner",
        "offset": 0,
        "slot": "7",
        "type": "t_address"
      },
      {
        "astId": 12977,
        "contract": "contracts/VaultFactory.sol:VaultFactory",
        "label": "oracleAddress",
        "offset": 0,
        "slot": "8",
        "type": "t_address"
      },
      {
        "astId": 12980,
        "contract": "contracts/VaultFactory.sol:VaultFactory",
        "label": "chainLinkToken",
        "offset": 0,
        "slot": "9",
        "type": "t_address"
      },
      {
        "astId": 12983,
        "contract": "contracts/VaultFactory.sol:VaultFactory",
        "label": "gainsAddress",
        "offset": 0,
        "slot": "10",
        "type": "t_address"
      },
      {
        "astId": 12990,
        "contract": "contracts/VaultFactory.sol:VaultFactory",
        "label": "trade_method",
        "offset": 0,
        "slot": "11",
        "type": "t_string_storage"
      },
      {
        "astId": 12994,
        "contract": "contracts/VaultFactory.sol:VaultFactory",
        "label": "trade_url",
        "offset": 0,
        "slot": "12",
        "type": "t_string_storage"
      },
      {
        "astId": 12998,
        "contract": "contracts/VaultFactory.sol:VaultFactory",
        "label": "trade_headers",
        "offset": 0,
        "slot": "13",
        "type": "t_string_storage"
      },
      {
        "astId": 13002,
        "contract": "contracts/VaultFactory.sol:VaultFactory",
        "label": "trade_job",
        "offset": 0,
        "slot": "14",
        "type": "t_string_storage"
      },
      {
        "astId": 13007,
        "contract": "contracts/VaultFactory.sol:VaultFactory",
        "label": "publicAPIEndPoints",
        "offset": 0,
        "slot": "15",
        "type": "t_mapping(t_string_memory_ptr,t_uint256)"
      },
      {
        "astId": 13013,
        "contract": "contracts/VaultFactory.sol:VaultFactory",
        "label": "requestToCaller",
        "offset": 0,
        "slot": "16",
        "type": "t_mapping(t_bytes32,t_contract(AutoVault)10940)"
      },
      {
        "astId": 13018,
        "contract": "contracts/VaultFactory.sol:VaultFactory",
        "label": "approvedVaults",
        "offset": 0,
        "slot": "17",
        "type": "t_mapping(t_address,t_bool)"
      },
      {
        "astId": 13023,
        "contract": "contracts/VaultFactory.sol:VaultFactory",
        "label": "approvedCaller",
        "offset": 0,
        "slot": "18",
        "type": "t_mapping(t_address,t_bool)"
      },
      {
        "astId": 13031,
        "contract": "contracts/VaultFactory.sol:VaultFactory",
        "label": "tokenToOracleFee",
        "offset": 0,
        "slot": "19",
        "type": "t_mapping(t_contract(IERC20MetadataUpgradeable)4075,t_array(t_uint256)2_storage)"
      }
    ],
    "types": {
      "t_address": {
        "encoding": "inplace",
        "label": "address",
        "numberOfBytes": "20"
      },
      "t_array(t_uint256)2_storage": {
        "base": "t_uint256",
        "encoding": "inplace",
        "label": "uint256[2]",
        "numberOfBytes": "64"
      },
      "t_bool": {
        "encoding": "inplace",
        "label": "bool",
        "numberOfBytes": "1"
      },
      "t_bytes32": {
        "encoding": "inplace",
        "label": "bytes32",
        "numberOfBytes": "32"
      },
      "t_contract(AutoVault)10940": {
        "encoding": "inplace",
        "label": "contract AutoVault",
        "numberOfBytes": "20"
      },
      "t_contract(ENSInterface)982": {
        "encoding": "inplace",
        "label": "contract ENSInterface",
        "numberOfBytes": "20"
      },
      "t_contract(IERC20MetadataUpgradeable)4075": {
        "encoding": "inplace",
        "label": "contract IERC20MetadataUpgradeable",
        "numberOfBytes": "20"
      },
      "t_contract(LinkTokenInterface)1382": {
        "encoding": "inplace",
        "label": "contract LinkTokenInterface",
        "numberOfBytes": "20"
      },
      "t_contract(OperatorInterface)1047": {
        "encoding": "inplace",
        "label": "contract OperatorInterface",
        "numberOfBytes": "20"
      },
      "t_mapping(t_address,t_bool)": {
        "encoding": "mapping",
        "key": "t_address",
        "label": "mapping(address => bool)",
        "numberOfBytes": "32",
        "value": "t_bool"
      },
      "t_mapping(t_bytes32,t_address)": {
        "encoding": "mapping",
        "key": "t_bytes32",
        "label": "mapping(bytes32 => address)",
        "numberOfBytes": "32",
        "value": "t_address"
      },
      "t_mapping(t_bytes32,t_contract(AutoVault)10940)": {
        "encoding": "mapping",
        "key": "t_bytes32",
        "label": "mapping(bytes32 => contract AutoVault)",
        "numberOfBytes": "32",
        "value": "t_contract(AutoVault)10940"
      },
      "t_mapping(t_contract(IERC20MetadataUpgradeable)4075,t_array(t_uint256)2_storage)": {
        "encoding": "mapping",
        "key": "t_contract(IERC20MetadataUpgradeable)4075",
        "label": "mapping(contract IERC20MetadataUpgradeable => uint256[2])",
        "numberOfBytes": "32",
        "value": "t_array(t_uint256)2_storage"
      },
      "t_mapping(t_string_memory_ptr,t_uint256)": {
        "encoding": "mapping",
        "key": "t_string_memory_ptr",
        "label": "mapping(string => uint256)",
        "numberOfBytes": "32",
        "value": "t_uint256"
      },
      "t_string_memory_ptr": {
        "encoding": "bytes",
        "label": "string",
        "numberOfBytes": "32"
      },
      "t_string_storage": {
        "encoding": "bytes",
        "label": "string",
        "numberOfBytes": "32"
      },
      "t_uint256": {
        "encoding": "inplace",
        "label": "uint256",
        "numberOfBytes": "32"
      }
    }
  }
}