{
  "address": "0x6C784a4421Ea9565B70D9A9e1687da6CA5297912",
  "abi": [
    {
      "inputs": [
        {
          "internalType": "address",
          "name": "oracleAddy",
          "type": "address"
        },
        {
          "internalType": "address",
          "name": "_chainLinkToken",
          "type": "address"
        },
        {
          "internalType": "address",
          "name": "_gainsAddress",
          "type": "address"
        },
        {
          "internalType": "address",
          "name": "_autoVaultImplementation",
          "type": "address"
        }
      ],
      "stateMutability": "nonpayable",
      "type": "constructor"
    },
    {
      "inputs": [
        {
          "internalType": "address",
          "name": "target",
          "type": "address"
        }
      ],
      "name": "AddressEmptyCode",
      "type": "error"
    },
    {
      "inputs": [
        {
          "internalType": "address",
          "name": "account",
          "type": "address"
        }
      ],
      "name": "AddressInsufficientBalance",
      "type": "error"
    },
    {
      "inputs": [],
      "name": "ArraysMustBeSameLength",
      "type": "error"
    },
    {
      "inputs": [],
      "name": "CollateralNotAdded",
      "type": "error"
    },
    {
      "inputs": [],
      "name": "ERC1167FailedCreateClone",
      "type": "error"
    },
    {
      "inputs": [],
      "name": "FailedInnerCall",
      "type": "error"
    },
    {
      "inputs": [
        {
          "internalType": "address",
          "name": "sender",
          "type": "address"
        }
      ],
      "name": "NonApprovedCaller",
      "type": "error"
    },
    {
      "inputs": [
        {
          "internalType": "address",
          "name": "vault",
          "type": "address"
        }
      ],
      "name": "NonApprovedVault",
      "type": "error"
    },
    {
      "inputs": [
        {
          "internalType": "address",
          "name": "token",
          "type": "address"
        }
      ],
      "name": "SafeERC20FailedOperation",
      "type": "error"
    },
    {
      "inputs": [
        {
          "internalType": "uint256",
          "name": "value",
          "type": "uint256"
        },
        {
          "internalType": "uint256",
          "name": "length",
          "type": "uint256"
        }
      ],
      "name": "StringsInsufficientHexLength",
      "type": "error"
    },
    {
      "anonymous": false,
      "inputs": [
        {
          "indexed": true,
          "internalType": "address",
          "name": "ChainLinkToken",
          "type": "address"
        }
      ],
      "name": "ChainLinkTokenSet",
      "type": "event"
    },
    {
      "anonymous": false,
      "inputs": [
        {
          "indexed": true,
          "internalType": "bytes32",
          "name": "id",
          "type": "bytes32"
        }
      ],
      "name": "ChainlinkCancelled",
      "type": "event"
    },
    {
      "anonymous": false,
      "inputs": [
        {
          "indexed": true,
          "internalType": "bytes32",
          "name": "id",
          "type": "bytes32"
        }
      ],
      "name": "ChainlinkFulfilled",
      "type": "event"
    },
    {
      "anonymous": false,
      "inputs": [
        {
          "indexed": true,
          "internalType": "bytes32",
          "name": "id",
          "type": "bytes32"
        }
      ],
      "name": "ChainlinkRequested",
      "type": "event"
    },
    {
      "anonymous": false,
      "inputs": [
        {
          "indexed": true,
          "internalType": "address",
          "name": "owner",
          "type": "address"
        },
        {
          "indexed": true,
          "internalType": "contract IERC20Metadata",
          "name": "asset",
          "type": "address"
        },
        {
          "indexed": false,
          "internalType": "uint256",
          "name": "amount",
          "type": "uint256"
        }
      ],
      "name": "FundsClaimed",
      "type": "event"
    },
    {
      "anonymous": false,
      "inputs": [
        {
          "indexed": true,
          "internalType": "address",
          "name": "GainsAddress",
          "type": "address"
        }
      ],
      "name": "GainsAddressSet",
      "type": "event"
    },
    {
      "anonymous": false,
      "inputs": [
        {
          "indexed": true,
          "internalType": "address",
          "name": "oracle",
          "type": "address"
        }
      ],
      "name": "OracleAddressSet",
      "type": "event"
    },
    {
      "anonymous": false,
      "inputs": [
        {
          "indexed": true,
          "internalType": "address",
          "name": "from",
          "type": "address"
        },
        {
          "indexed": true,
          "internalType": "address",
          "name": "to",
          "type": "address"
        }
      ],
      "name": "OwnershipTransferRequested",
      "type": "event"
    },
    {
      "anonymous": false,
      "inputs": [
        {
          "indexed": true,
          "internalType": "address",
          "name": "from",
          "type": "address"
        },
        {
          "indexed": true,
          "internalType": "address",
          "name": "to",
          "type": "address"
        }
      ],
      "name": "OwnershipTransferred",
      "type": "event"
    },
    {
      "anonymous": false,
      "inputs": [
        {
          "indexed": true,
          "internalType": "string",
          "name": "url",
          "type": "string"
        }
      ],
      "name": "PublicApiUpdate",
      "type": "event"
    },
    {
      "anonymous": false,
      "inputs": [
        {
          "indexed": true,
          "internalType": "contract IERC20Metadata[]",
          "name": "collateral",
          "type": "address[]"
        },
        {
          "indexed": false,
          "internalType": "uint256[2][]",
          "name": "amounts",
          "type": "uint256[2][]"
        }
      ],
      "name": "SetStartingFee",
      "type": "event"
    },
    {
      "anonymous": false,
      "inputs": [
        {
          "indexed": true,
          "internalType": "address",
          "name": "vaultCreator",
          "type": "address"
        },
        {
          "indexed": true,
          "internalType": "address",
          "name": "vaultAddress",
          "type": "address"
        },
        {
          "indexed": true,
          "internalType": "contract IERC20Metadata",
          "name": "collateral",
          "type": "address"
        },
        {
          "components": [
            {
              "internalType": "string",
              "name": "method",
              "type": "string"
            },
            {
              "internalType": "string",
              "name": "url",
              "type": "string"
            },
            {
              "internalType": "string",
              "name": "headers",
              "type": "string"
            },
            {
              "internalType": "string",
              "name": "body",
              "type": "string"
            },
            {
              "internalType": "string",
              "name": "path",
              "type": "string"
            },
            {
              "internalType": "string",
              "name": "jobIDs",
              "type": "string"
            }
          ],
          "indexed": false,
          "internalType": "struct VaultFactory.APIInfo[]",
          "name": "apiinfo",
          "type": "tuple[]"
        },
        {
          "indexed": false,
          "internalType": "uint256[][]",
          "name": "strategy",
          "type": "uint256[][]"
        }
      ],
      "name": "VaultCreated",
      "type": "event"
    },
    {
      "inputs": [],
      "name": "acceptOwnership",
      "outputs": [],
      "stateMutability": "nonpayable",
      "type": "function"
    },
    {
      "inputs": [
        {
          "internalType": "address",
          "name": "",
          "type": "address"
        }
      ],
      "name": "approvedCaller",
      "outputs": [
        {
          "internalType": "bool",
          "name": "",
          "type": "bool"
        }
      ],
      "stateMutability": "view",
      "type": "function"
    },
    {
      "inputs": [
        {
          "internalType": "address",
          "name": "",
          "type": "address"
        }
      ],
      "name": "approvedVaults",
      "outputs": [
        {
          "internalType": "bool",
          "name": "",
          "type": "bool"
        }
      ],
      "stateMutability": "view",
      "type": "function"
    },
    {
      "inputs": [],
      "name": "autoVaultImplementation",
      "outputs": [
        {
          "internalType": "address",
          "name": "",
          "type": "address"
        }
      ],
      "stateMutability": "view",
      "type": "function"
    },
    {
      "inputs": [],
      "name": "bodyA",
      "outputs": [
        {
          "internalType": "string",
          "name": "",
          "type": "string"
        }
      ],
      "stateMutability": "view",
      "type": "function"
    },
    {
      "inputs": [],
      "name": "chainLinkToken",
      "outputs": [
        {
          "internalType": "address",
          "name": "",
          "type": "address"
        }
      ],
      "stateMutability": "view",
      "type": "function"
    },
    {
      "inputs": [
        {
          "internalType": "contract IERC20Metadata",
          "name": "asset",
          "type": "address"
        },
        {
          "internalType": "uint256",
          "name": "funds",
          "type": "uint256"
        }
      ],
      "name": "claimFunds",
      "outputs": [],
      "stateMutability": "nonpayable",
      "type": "function"
    },
    {
      "inputs": [
        {
          "internalType": "contract IERC20Metadata",
          "name": "collateral",
          "type": "address"
        },
        {
          "internalType": "uint256",
          "name": "initialAmount",
          "type": "uint256"
        },
        {
          "components": [
            {
              "internalType": "string",
              "name": "method",
              "type": "string"
            },
            {
              "internalType": "string",
              "name": "url",
              "type": "string"
            },
            {
              "internalType": "string",
              "name": "headers",
              "type": "string"
            },
            {
              "internalType": "string",
              "name": "body",
              "type": "string"
            },
            {
              "internalType": "string",
              "name": "path",
              "type": "string"
            },
            {
              "internalType": "string",
              "name": "jobIDs",
              "type": "string"
            }
          ],
          "internalType": "struct VaultFactory.APIInfo[]",
          "name": "apiInfo",
          "type": "tuple[]"
        },
        {
          "internalType": "uint256[][]",
          "name": "listOfStrategies",
          "type": "uint256[][]"
        }
      ],
      "name": "createVault",
      "outputs": [
        {
          "internalType": "address payable",
          "name": "clonedVault",
          "type": "address"
        }
      ],
      "stateMutability": "nonpayable",
      "type": "function"
    },
    {
      "inputs": [
        {
          "internalType": "bytes32",
          "name": "requestId",
          "type": "bytes32"
        },
        {
          "internalType": "uint256[]",
          "name": "data",
          "type": "uint256[]"
        }
      ],
      "name": "fulfill",
      "outputs": [],
      "stateMutability": "nonpayable",
      "type": "function"
    },
    {
      "inputs": [],
      "name": "gainsAddress",
      "outputs": [
        {
          "internalType": "address",
          "name": "",
          "type": "address"
        }
      ],
      "stateMutability": "view",
      "type": "function"
    },
    {
      "inputs": [],
      "name": "oracleAddress",
      "outputs": [
        {
          "internalType": "address",
          "name": "",
          "type": "address"
        }
      ],
      "stateMutability": "view",
      "type": "function"
    },
    {
      "inputs": [],
      "name": "owner",
      "outputs": [
        {
          "internalType": "address",
          "name": "",
          "type": "address"
        }
      ],
      "stateMutability": "view",
      "type": "function"
    },
    {
      "inputs": [
        {
          "internalType": "bytes32",
          "name": "requestId",
          "type": "bytes32"
        },
        {
          "internalType": "uint256[]",
          "name": "data",
          "type": "uint256[]"
        }
      ],
      "name": "preformAction",
      "outputs": [],
      "stateMutability": "nonpayable",
      "type": "function"
    },
    {
      "inputs": [
        {
          "internalType": "string",
          "name": "",
          "type": "string"
        }
      ],
      "name": "publicAPIEndPoints",
      "outputs": [
        {
          "internalType": "bool",
          "name": "",
          "type": "bool"
        }
      ],
      "stateMutability": "view",
      "type": "function"
    },
    {
      "inputs": [
        {
          "internalType": "bytes32",
          "name": "",
          "type": "bytes32"
        }
      ],
      "name": "requestToCaller",
      "outputs": [
        {
          "internalType": "contract AutoVault",
          "name": "",
          "type": "address"
        }
      ],
      "stateMutability": "view",
      "type": "function"
    },
    {
      "inputs": [
        {
          "internalType": "address",
          "name": "caller",
          "type": "address"
        },
        {
          "components": [
            {
              "internalType": "bytes32",
              "name": "id",
              "type": "bytes32"
            },
            {
              "internalType": "address",
              "name": "callbackAddress",
              "type": "address"
            },
            {
              "internalType": "bytes4",
              "name": "callbackFunctionId",
              "type": "bytes4"
            },
            {
              "internalType": "uint256",
              "name": "nonce",
              "type": "uint256"
            },
            {
              "components": [
                {
                  "internalType": "bytes",
                  "name": "buf",
                  "type": "bytes"
                },
                {
                  "internalType": "uint256",
                  "name": "capacity",
                  "type": "uint256"
                }
              ],
              "internalType": "struct BufferChainlink.buffer",
              "name": "buf",
              "type": "tuple"
            }
          ],
          "internalType": "struct Chainlink.Request",
          "name": "req",
          "type": "tuple"
        },
        {
          "internalType": "uint256",
          "name": "fee",
          "type": "uint256"
        }
      ],
      "name": "sendInfoRequest",
      "outputs": [
        {
          "internalType": "bytes32",
          "name": "requestId",
          "type": "bytes32"
        }
      ],
      "stateMutability": "nonpayable",
      "type": "function"
    },
    {
      "inputs": [
        {
          "internalType": "address",
          "name": "_chainLinkToken",
          "type": "address"
        }
      ],
      "name": "setChainLinkToken",
      "outputs": [],
      "stateMutability": "nonpayable",
      "type": "function"
    },
    {
      "inputs": [
        {
          "internalType": "address",
          "name": "_gainsAddress",
          "type": "address"
        }
      ],
      "name": "setGainsAddress",
      "outputs": [],
      "stateMutability": "nonpayable",
      "type": "function"
    },
    {
      "inputs": [
        {
          "internalType": "address",
          "name": "_oracleAddress",
          "type": "address"
        }
      ],
      "name": "setOracleAddress",
      "outputs": [],
      "stateMutability": "nonpayable",
      "type": "function"
    },
    {
      "inputs": [
        {
          "internalType": "contract IERC20Metadata[]",
          "name": "tokens",
          "type": "address[]"
        },
        {
          "internalType": "uint256[2][]",
          "name": "amounts",
          "type": "uint256[2][]"
        }
      ],
      "name": "setStartingFees",
      "outputs": [],
      "stateMutability": "nonpayable",
      "type": "function"
    },
    {
      "inputs": [
        {
          "internalType": "address",
          "name": "user",
          "type": "address"
        }
      ],
      "name": "toggleCaller",
      "outputs": [],
      "stateMutability": "nonpayable",
      "type": "function"
    },
    {
      "inputs": [
        {
          "internalType": "string",
          "name": "url",
          "type": "string"
        }
      ],
      "name": "togglePublicAPI",
      "outputs": [],
      "stateMutability": "nonpayable",
      "type": "function"
    },
    {
      "inputs": [
        {
          "internalType": "contract IERC20Metadata",
          "name": "",
          "type": "address"
        },
        {
          "internalType": "uint256",
          "name": "",
          "type": "uint256"
        }
      ],
      "name": "tokenToOracleFee",
      "outputs": [
        {
          "internalType": "uint256",
          "name": "",
          "type": "uint256"
        }
      ],
      "stateMutability": "view",
      "type": "function"
    },
    {
      "inputs": [],
      "name": "trade_headers",
      "outputs": [
        {
          "internalType": "string",
          "name": "",
          "type": "string"
        }
      ],
      "stateMutability": "view",
      "type": "function"
    },
    {
      "inputs": [],
      "name": "trade_job",
      "outputs": [
        {
          "internalType": "string",
          "name": "",
          "type": "string"
        }
      ],
      "stateMutability": "view",
      "type": "function"
    },
    {
      "inputs": [],
      "name": "trade_method",
      "outputs": [
        {
          "internalType": "string",
          "name": "",
          "type": "string"
        }
      ],
      "stateMutability": "view",
      "type": "function"
    },
    {
      "inputs": [],
      "name": "trade_url",
      "outputs": [
        {
          "internalType": "string",
          "name": "",
          "type": "string"
        }
      ],
      "stateMutability": "view",
      "type": "function"
    },
    {
      "inputs": [
        {
          "internalType": "address",
          "name": "to",
          "type": "address"
        }
      ],
      "name": "transferOwnership",
      "outputs": [],
      "stateMutability": "nonpayable",
      "type": "function"
    }
  ],
  "transactionHash": "0x0187140363c56916df5cd634261bcbb5554d7c50ec552fa8efca73409f2f7089",
  "args": [
    "0xd36c6B1777c7f3Db1B3201bDD87081A9045B7b46",
    "0xb1D4538B4571d411F07960EF2838Ce337FE1E80E",
    "0xd659a15812064c79e189fd950a189b15c75d3186",
    "0x7B9aAbe5c5710094c4B8E224BC92562CFbf7a414"
  ],
  "numDeployments": 1,
  "solcInputHash": "096d38da1608af36023920e89471860c",
  "bytecode": "0x60a06040526001600455626acfc060105534801561001b575f80fd5b5060405161384838038061384883398101604081905261003a91610210565b33805f8161008f5760405162461bcd60e51b815260206004820152601860248201527f43616e6e6f7420736574206f776e657220746f207a65726f000000000000000060448201526064015b60405180910390fd5b600680546001600160a01b0319166001600160a01b03848116919091179091558116156100bf576100bf8161014c565b5050600880546001600160a01b038781166001600160a01b031992831617909255600980548784169083168117909155600a8054878516908416179055918416608052335f908152601160205260409020805460ff1916600117905560028054909116909117905550600380546001600160a01b0319166001600160a01b03861617905550505050610261565b336001600160a01b038216036101a45760405162461bcd60e51b815260206004820152601760248201527f43616e6e6f74207472616e7366657220746f2073656c660000000000000000006044820152606401610086565b600780546001600160a01b0319166001600160a01b03838116918217909255600654604051919216907fed8889f560326eb138920d842192f0eb3dd22b4f139c87a2c57538e05bae1278905f90a350565b80516001600160a01b038116811461020b575f80fd5b919050565b5f805f8060808587031215610223575f80fd5b61022c856101f5565b935061023a602086016101f5565b9250610248604086016101f5565b9150610256606086016101f5565b905092959194509250565b6080516135c86102805f395f818161027a015261085301526135c85ff3fe608060405234801561000f575f80fd5b5060043610610152575f3560e01c8063011683b81461015657806316e1d00d1461017c578063257676a814610191578063415588b0146101a4578063436bbbdb146101c457806344a05e57146101d957806344d53d95146102175780634600e3441461023f5780634c69c00f1461026257806355c91e4b1461027557806355e2c6e61461029c57806376365f4f146102af57806379ba5097146102c25780637c3e8dd4146102ca5780638da5cb5b146102dd5780639d9a2fad146102e5578063a89ae4ba146102f8578063af7a060c1461030b578063c083bc771461032d578063c721786214610356578063cfb4148014610378578063d3520d2f1461038b578063daf4ca7f1461039e578063ec15af4b146103a6578063ec60640b146103b9578063ed2b40ea146103cc578063f2fde38b146103df578063fc848229146103f2575b5f80fd5b610169610164366004612340565b6103fa565b6040519081526020015b60405180910390f35b61018f61018a36600461236a565b61041c565b005b61018f61019f36600461236a565b61044c565b600a546101b7906001600160a01b031681565b6040516101739190612385565b6101cc61049d565b60405161017391906123c7565b6102076101e73660046124a6565b8051602081830181018051600b8252928201919093012091525460ff1681565b6040519015158152602001610173565b6101b76102253660046124ea565b600c6020525f90815260409020546001600160a01b031681565b6101cc604051806040016040528060048152602001631413d4d560e21b81525081565b61018f61027036600461236a565b610529565b6101b77f000000000000000000000000000000000000000000000000000000000000000081565b61018f6102aa3660046124a6565b61057a565b61018f6102bd36600461236a565b610613565b61018f610664565b6101696102d8366004612581565b610716565b6101b76107b0565b6101b76102f3366004612694565b6107bf565b6008546101b7906001600160a01b031681565b61020761031936600461236a565b600d6020525f908152604090205460ff1681565b6101cc6040518060400160405280602081526020015f8051602061344a83398151915281525081565b61020761036436600461236a565b60116020525f908152604090205460ff1681565b61018f61038636600461271d565b610b4b565b61018f6103993660046127b6565b610c43565b6101cc610d19565b6009546101b7906001600160a01b031681565b61018f6103c736600461286c565b610d35565b61018f6103da366004612340565b610e0e565b61018f6103ed36600461236a565b610e6e565b6101cc610e82565b600e602052815f5260405f208160028110610413575f80fd5b01549150829050565b610424610ea1565b6001600160a01b03165f908152601160205260409020805460ff19811660ff90911615179055565b610454610ea1565b600980546001600160a01b0319166001600160a01b0383169081179091556040517fb443cb4216741f9e8e4c69f8b4852f9ebaee0fb4c4f5229b3fe8580bed07e822905f90a250565b600f80546104aa906128b3565b80601f01602080910402602001604051908101604052809291908181526020018280546104d6906128b3565b80156105215780601f106104f857610100808354040283529160200191610521565b820191905f5260205f20905b81548152906001019060200180831161050457829003601f168201915b505050505081565b610531610ea1565b600880546001600160a01b0319166001600160a01b0383169081179091556040517fdd82bdfc28fcc826c53263dc2a2b6083e27e92699ebfee617227e08e21c202f0905f90a250565b610582610ea1565b600b8160405161059291906128fc565b9081526040519081900360200181205460ff161590600b906105b59084906128fc565b908152604051908190036020018120805492151560ff19909316929092179091556105e19082906128fc565b604051908190038120907f464af60849b1d6d2449131bfbe43238149eba7682e337c2e3376b57873df3ffb905f90a250565b61061b610ea1565b600a80546001600160a01b0319166001600160a01b0383169081179091556040517fd287efab3856f26617f93d52384daf9f5f79854cb85cebcbbaafeaa3d7c82169905f90a250565b6007546001600160a01b031633146106bc5760405162461bcd60e51b815260206004820152601660248201527526bab9ba10313290383937b837b9b2b21037bbb732b960511b60448201526064015b60405180910390fd5b600680546001600160a01b0319808216339081179093556007805490911690556040516001600160a01b03909116919082907f8be0079c531659141344cd1fd0a4f28419497f9722a3daafe3b4186f6b6457e0905f90a350565b6001600160a01b0383165f9081526011602052604081205460ff16610750578360405163f928798160e01b81526004016106b39190612385565b335f908152600d602052604090205460ff166107815733604051630422e93d60e41b81526004016106b39190612385565b61078b8383610ef6565b5f818152600c6020526040902080546001600160a01b03191633179055949350505050565b6006546001600160a01b031690565b5f606486116108025760405162461bcd60e51b815260206004820152600f60248201526e4465706f73697420746f6f206c6f7760881b60448201526064016106b3565b6001600160a01b0387165f908152600e602052604081205490036108395760405163efe5dc4d60e01b815260040160405180910390fd5b61084e6001600160a01b038816333089610f18565b6108777f0000000000000000000000000000000000000000000000000000000000000000610f85565b90505f6040518060a0016040528061088d6107b0565b6001600160a01b03908116825233602080840191909152600954821660408085019190915260085483166060850152600a548316608090940193909352825163313ce56760e01b81529251939450858216936342a1087b938d936109419389939186169263313ce56792600480830193928290030181865afa158015610915573d5f803e3d5ffd5b505050506040513d601f19601f82011682018060405250810190610939919061291b565b60ff16610ff4565b6001600160a01b038c165f818152600e602052604080822081516306fdde0360e01b815291518f948a94929390926306fdde03926004808401938290030181865afa158015610992573d5f803e3d5ffd5b505050506040513d5f823e601f3d908101601f191682016040526109b99190810190612971565b6040516020016109c991906129b5565b6040516020818303038152906040528f6001600160a01b03166395d89b416040518163ffffffff1660e01b81526004015f60405180830381865afa158015610a13573d5f803e3d5ffd5b505050506040513d5f823e601f3d908101601f19168201604052610a3a9190810190612971565b604051602001610a4a91906129cd565b604051602081830303815290604052610a658f8f8f8f61124d565b6040518963ffffffff1660e01b8152600401610a88989796959493929190612aaa565b5f604051808303815f87803b158015610a9f575f80fd5b505af1158015610ab1573d5f803e3d5ffd5b5050506001600160a01b038084165f908152600d60205260409020805460ff19166001179055610ae5915089168389611742565b876001600160a01b0316826001600160a01b0316336001600160a01b03167f416c14e9c253fda70d363e7812808eb15246d08389dfe8f694f7b73ba43cb14289898989604051610b389493929190612ca5565b60405180910390a4509695505050505050565b610b53610ea1565b828114610b7357604051637e0abb9560e11b815260040160405180910390fd5b5f5b83811015610beb57828282818110610b8f57610b8f612907565b905060400201600e5f878785818110610baa57610baa612907565b9050602002016020810190610bbf919061236a565b6001600160a01b0316815260208101919091526040015f20610be291600261228d565b50600101610b75565b508383604051610bfc929190612df8565b60405180910390207f463a5554c7facc8114d447e5dca10f3a234b70035b36792c11d5615387cce00b8383604051610c35929190612e39565b60405180910390a250505050565b5f8281526005602052604090205482906001600160a01b03163314610c7a5760405162461bcd60e51b81526004016106b390612e75565b5f8181526005602052604080822080546001600160a01b03191690555182915f8051602061357383398151915291a25f838152600c60205260409081902054905163d3520d2f60e01b81526001600160a01b039091169063d3520d2f90610ce79086908690600401612ebd565b5f604051808303815f87803b158015610cfe575f80fd5b505af1158015610d10573d5f803e3d5ffd5b50505050505050565b6040518060800160405280604b81526020016133ff604b913981565b5f8381526005602052604090205483906001600160a01b03163314610d6c5760405162461bcd60e51b81526004016106b390612e75565b5f8181526005602052604080822080546001600160a01b03191690555182915f8051602061357383398151915291a25f848152600c60205260409081902054905163ec60640b60e01b81526001600160a01b039091169063ec60640b90610ddb90879087908790600401612efe565b5f604051808303815f87803b158015610df2575f80fd5b505af1158015610e04573d5f803e3d5ffd5b5050505050505050565b610e16610ea1565b610e2a6001600160a01b0383163383611742565b6040518181526001600160a01b0383169033907f716942921e9b67ee05c4c2ffcf216f189086c9053b444c8928a49db4bdb1ae8e9060200160405180910390a35050565b610e76610ea1565b610e7f81611778565b50565b604051806101400160405280610109815260200161346a610109913981565b6006546001600160a01b03163314610ef45760405162461bcd60e51b815260206004820152601660248201527527b7363c9031b0b63630b1363290313c9037bbb732b960511b60448201526064016106b3565b565b6003545f90610f0f906001600160a01b0316848461181b565b90505b92915050565b6040516001600160a01b038481166024830152838116604483015260648201839052610f7f9186918216906323b872dd906084015b604051602081830303815290604052915060e01b6020820180516001600160e01b0383818316178352505050506118ae565b50505050565b5f763d602d80600a3d3981f3363d3d373d3d3d363d730000008260601b60e81c175f526e5af43d82803e903d91602b57fd5bf38260781b17602052603760095ff090506001600160a01b038116610fef576040516330be1a3d60e21b815260040160405180910390fd5b919050565b610ffc6122cb565b6110386040518060400160405280602081526020015f8051602061344a83398151915281525061102b90612f20565b63d3520d2f60e01b611906565b9050611089604051806040016040528060068152602001651b595d1a1bd960d21b815250604051806040016040528060048152602001631413d4d560e21b8152508361192a9092919063ffffffff16565b6110c9604051806040016040528060038152602001621d5c9b60ea1b8152506040518060800160405280604b81526020016133ff604b913983919061192a565b611110604051806040016040528060078152602001666865616465727360c81b815250604051806101400160405280610109815260200161346a610109913983919061192a565b6040805180820190915260118152703d913ab9b2b920b2323932b9b9911d101160791b60208201528061114b6001600160a01b038616611948565b60405160200161115c929190612f43565b60405160208183030381529060405290508060405160200161117e9190612f57565b60408051601f198184030181529190529050600f61119c8282612fbf565b50604080518082019091526004815263626f647960e01b60208201526111c49083908361192a565b6112116040518060400160405280600781526020016618dbdb9d1858dd60ca1b815250604051806040016040528060018152602001604160f81b8152508461192a9092919063ffffffff16565b60408051808201909152600a81526936bab63a34b83634b2b960b11b6020820152611246908390670de0b6b3a764000061195e565b5092915050565b606083821461125a575f80fd5b816001600160401b03811115611272576112726123d9565b60405190808252806020026020018201604052801561129b578160200160208202803683370190505b5090505f5b82811015611739575f6112f48787848181106112be576112be612907565b90506020028101906112d09190613079565b6112de9060a0810190613097565b6112e7916130d9565b63ec60640b60e01b611906565b9050611383604051806040016040528060068152602001651b595d1a1bd960d21b81525088888581811061132a5761132a612907565b905060200281019061133c9190613079565b6113469080613097565b8080601f0160208091040260200160405190810160405280939291908181526020018383808284375f9201919091525086949392505061192a9050565b6113d4604051806040016040528060038152602001621d5c9b60ea1b8152508888858181106113b4576113b4612907565b90506020028101906113c69190613079565b611346906020810190613097565b620f4240600b8888858181106113ec576113ec612907565b90506020028101906113fe9190613079565b61140c906020810190613097565b60405161141a9291906130f6565b9081526040519081900360200190205460ff161561143857506216e3605b6114ca604051806040016040528060078152602001666865616465727360c81b81525089898681811061146d5761146d612907565b905060200281019061147f9190613079565b61148d906040810190613097565b8080601f0160208091040260200160405190810160405280939291908181526020018383808284375f9201919091525087949392505061192a9050565b5f8888858181106114dd576114dd612907565b90506020028101906114ef9190613079565b6114fd906060810190613097565b905011156115575761155760405180604001604052806004815260200163626f647960e01b81525089898681811061153757611537612907565b90506020028101906115499190613079565b61148d906060810190613097565b6115a46040518060400160405280600781526020016618dbdb9d1858dd60ca1b815250604051806040016040528060018152602001604160f81b8152508461192a9092919063ffffffff16565b6115f6604051806040016040528060048152602001630e0c2e8d60e31b8152508989868181106115d6576115d6612907565b90506020028101906115e89190613079565b61148d906080810190613097565b60408051808201909152600a81526936bab63a34b83634b2b960b11b602082015261162b908390670de0b6b3a764000061195e565b5f7385bC752C944735aEb7E6b4BdC6bF843457fC1C5563d88b06db88888781811061165857611658612907565b905060200281019061166a9190613105565b6040518363ffffffff1660e01b815260040161168792919061314a565b5f60405180830381865af41580156116a1573d5f803e3d5ffd5b505050506040513d5f823e601f3d908101601f191682016040526116c89190810190612971565b90505f8284836040516020016116e09392919061315d565b60405160208183030381529060405290505f6116fb8261197c565b90508087878151811061171057611710612907565b6001600160a01b03909216602092830291909101909101525050600190930192506112a0915050565b50949350505050565b6040516001600160a01b0383811660248301526044820183905261177391859182169063a9059cbb90606401610f4d565b505050565b336001600160a01b038216036117ca5760405162461bcd60e51b815260206004820152601760248201527621b0b73737ba103a3930b739b332b9103a379039b2b63360491b60448201526064016106b3565b600780546001600160a01b0319166001600160a01b03838116918217909255600654604051919216907fed8889f560326eb138920d842192f0eb3dd22b4f139c87a2c57538e05bae1278905f90a350565b6004545f9061182b8160016131a5565b600455835160408086015160808701515191515f936320214ca360e11b936118629386938493923092918a916001916024016131b8565b60408051601f198184030181529190526020810180516001600160e01b03166001600160e01b03199093169290921790915290506118a286838684611a1e565b925050505b9392505050565b5f6118c26001600160a01b03841683611b72565b905080515f141580156118e65750808060200190518101906118e4919061321e565b155b156117735782604051635274afe760e01b81526004016106b39190612385565b61190e6122cb565b6119166122cb565b61192281853086611b7f565b949350505050565b60808301516119399083611bbc565b60808301516117739082611bbc565b6060610f126001600160a01b0383166014611bd3565b608083015161196d9083611bbc565b60808301516117739082611d44565b5f808260405160200161198f919061323d565b60405160208183030381529060405290505f816040516020016119b2919061324e565b60405160208183030381529060405290508051602082015ff092506001600160a01b038316611a175760405162461bcd60e51b81526020600482015260116024820152701111541313d65351539517d19052531151607a1b60448201526064016106b3565b5050919050565b6040516001600160601b03193060601b166020820152603481018490525f9060540160408051808303601f1901815282825280516020918201205f818152600590925291812080546001600160a01b0319166001600160a01b038a1617905590925082917fb5e6e01e79f91267dc17b4e6314d5d4d03593d2ceee0fbb452b750bd70ea5af99190a2600254604051630200057560e51b81526001600160a01b0390911690634000aea090611ada9088908790879060040161326d565b6020604051808303815f875af1158015611af6573d5f803e3d5ffd5b505050506040513d601f19601f82011682018060405250810190611b1a919061321e565b6119225760405162461bcd60e51b815260206004820152602360248201527f756e61626c6520746f207472616e73666572416e6443616c6c20746f206f7261604482015262636c6560e81b60648201526084016106b3565b6060610f0f83835f611da3565b611b876122cb565b611b978560800151610100611e32565b50509183526001600160a01b031660208301526001600160e01b031916604082015290565b611bc98260038351611e89565b6117738282611f90565b6060825f611be2846002613293565b611bed9060026131a5565b6001600160401b03811115611c0457611c046123d9565b6040519080825280601f01601f191660200182016040528015611c2e576020820181803683370190505b509050600360fc1b815f81518110611c4857611c48612907565b60200101906001600160f81b03191690815f1a905350600f60fb1b81600181518110611c7657611c76612907565b60200101906001600160f81b03191690815f1a9053505f611c98856002613293565b611ca39060016131a5565b90505b6001811115611d1a576f181899199a1a9b1b9c1cb0b131b232b360811b83600f1660108110611cd757611cd7612907565b1a60f81b828281518110611ced57611ced612907565b60200101906001600160f81b03191690815f1a90535060049290921c91611d13816132aa565b9050611ca6565b5081156119225760405163e22e27eb60e01b815260048101869052602481018590526044016106b3565b6001600160401b0319811215611d6257611d5e8282611fa9565b5050565b6001600160401b03811315611d7b57611d5e8282611fea565b5f8112611d8d57611d5e825f83611e89565b611d5e826001611d9e845f196132bf565b611e89565b606081471015611dc8573060405163cd78605960e01b81526004016106b39190612385565b5f80856001600160a01b03168486604051611de391906128fc565b5f6040518083038185875af1925050503d805f8114611e1d576040519150601f19603f3d011682016040523d82523d5f602084013e611e22565b606091505b50915091506118a286838361200d565b611e3a6122ff565b611e456020836132de565b15611e6d57611e556020836132de565b611e609060206132fd565b611e6a90836131a5565b91505b506020828101829052604080518085525f815290920101905290565b6017816001600160401b031611611ead57610f7f8360e0600585901b168317612060565b60ff816001600160401b031611611ee957611ed3836018611fe0600586901b1617612060565b50610f7f836001600160401b0383166001612077565b61ffff816001600160401b031611611f2657611f10836019611fe0600586901b1617612060565b50610f7f836001600160401b0383166002612077565b63ffffffff816001600160401b031611611f6557611f4f83601a611fe0600586901b1617612060565b50610f7f836001600160401b0383166004612077565b611f7a83601b611fe0600586901b1617612060565b50610f7f836001600160401b0383166008612077565b611f986122ff565b610f0f83845f01515184855161208f565b611fb48260c3612060565b50611d5e82611fc4835f196132bf565b604051602001611fd691815260200190565b604051602081830303815290604052612169565b611ff58260c2612060565b50611d5e8282604051602001611fd691815260200190565b6060826120225761201d82612176565b6118a7565b815115801561203957506001600160a01b0384163b155b156120595783604051639996b31560e01b81526004016106b39190612385565b50806118a7565b6120686122ff565b610f0f83845f0151518461219f565b61207f6122ff565b61192284855f01515185856121ed565b6120976122ff565b82518211156120a4575f80fd5b60208501516120b383866131a5565b11156120e6576120e6856120d6876020015187866120d191906131a5565b612260565b6120e1906002613293565b612276565b5f808651805187602083010193508088870111156121045787860182525b505050602084015b6020841061214457805182526121236020836131a5565b91506121306020826131a5565b905061213d6020856132fd565b935061210c565b5181515f1960208690036101000a019081169019919091161790525083949350505050565b611bc98260028351611e89565b8051156121865780518082602001fd5b604051630a12f52160e11b815260040160405180910390fd5b6121a76122ff565b836020015183106121c7576121c784856020015160026120e19190613293565b83518051602085830101848153508085036121e3576001810182525b5093949350505050565b6121f56122ff565b602085015161220485846131a5565b111561221857612218856120d686856131a5565b5f6001612227846101006133f3565b61223191906132fd565b90508551838682010185831982511617815250805184870111156122555783860181525b509495945050505050565b5f81831115612270575081610f12565b50919050565b81516122828383611e32565b50610f7f8382611f90565b82600281019282156122bb579160200282015b828111156122bb5782358255916020019190600101906122a0565b506122c7929150612318565b5090565b6040805160a0810182525f808252602082018190529181018290526060810191909152608081016122fa6122ff565b905290565b6040518060400160405280606081526020015f81525090565b5b808211156122c7575f8155600101612319565b6001600160a01b0381168114610e7f575f80fd5b5f8060408385031215612351575f80fd5b823561235c8161232c565b946020939093013593505050565b5f6020828403121561237a575f80fd5b81356118a78161232c565b6001600160a01b0391909116815260200190565b5f81518084528060208401602086015e5f602082860101526020601f19601f83011685010191505092915050565b602081525f610f0f6020830184612399565b634e487b7160e01b5f52604160045260245ffd5b60405160a081016001600160401b038111828210171561240f5761240f6123d9565b60405290565b604051601f8201601f191681016001600160401b038111828210171561243d5761243d6123d9565b604052919050565b5f6001600160401b0382111561245d5761245d6123d9565b50601f01601f191660200190565b5f61247d61247884612445565b612415565b9050828152838383011115612490575f80fd5b828260208301375f602084830101529392505050565b5f602082840312156124b6575f80fd5b81356001600160401b038111156124cb575f80fd5b8201601f810184136124db575f80fd5b6119228482356020840161246b565b5f602082840312156124fa575f80fd5b5035919050565b5f60408284031215612511575f80fd5b604080519081016001600160401b0381118282101715612533576125336123d9565b60405290508082356001600160401b0381111561254e575f80fd5b8301601f8101851361255e575f80fd5b61256d8582356020840161246b565b825250602092830135920191909152919050565b5f805f60608486031215612593575f80fd5b833561259e8161232c565b925060208401356001600160401b038111156125b8575f80fd5b840160a081870312156125c9575f80fd5b6125d16123ed565b8135815260208201356125e38161232c565b602082015260408201356001600160e01b031981168114612602575f80fd5b60408201526060828101359082015260808201356001600160401b03811115612629575f80fd5b61263588828501612501565b60808301525093969395505050506040919091013590565b5f8083601f84011261265d575f80fd5b5081356001600160401b03811115612673575f80fd5b6020830191508360208260051b850101111561268d575f80fd5b9250929050565b5f805f805f80608087890312156126a9575f80fd5b86356126b48161232c565b95506020870135945060408701356001600160401b038111156126d5575f80fd5b6126e189828a0161264d565b90955093505060608701356001600160401b038111156126ff575f80fd5b61270b89828a0161264d565b979a9699509497509295939492505050565b5f805f8060408587031215612730575f80fd5b84356001600160401b03811115612745575f80fd5b6127518782880161264d565b90955093505060208501356001600160401b0381111561276f575f80fd5b8501601f8101871361277f575f80fd5b80356001600160401b03811115612794575f80fd5b8760208260061b84010111156127a8575f80fd5b949793965060200194505050565b5f80604083850312156127c7575f80fd5b8235915060208301356001600160401b038111156127e3575f80fd5b8301601f810185136127f3575f80fd5b80356001600160401b0381111561280c5761280c6123d9565b8060051b61281c60208201612415565b91825260208184018101929081019088841115612837575f80fd5b6020850194505b8385101561285d5784358083526020958601959093509091019061283e565b80955050505050509250929050565b5f805f6040848603121561287e575f80fd5b8335925060208401356001600160401b0381111561289a575f80fd5b6128a68682870161264d565b9497909650939450505050565b600181811c908216806128c757607f821691505b60208210810361227057634e487b7160e01b5f52602260045260245ffd5b5f81518060208401855e5f93019283525090919050565b5f610f0f82846128e5565b634e487b7160e01b5f52603260045260245ffd5b5f6020828403121561292b575f80fd5b815160ff811681146118a7575f80fd5b5f61294861247884612445565b905082815283838301111561295b575f80fd5b8282602083015e5f602084830101529392505050565b5f60208284031215612981575f80fd5b81516001600160401b03811115612996575f80fd5b8201601f810184136129a6575f80fd5b6119228482516020840161293b565b634175746f60e01b81525f610f0f60048301846128e5565b606160f81b81525f610f0f60018301846128e5565b8051825260018060a01b03602082015116602083015263ffffffff60e01b6040820151166040830152606081015160608301525f608082015160a060808501528051604060a0860152612a3860e0860182612399565b9050602082015160c0860152809250505092915050565b805f5b6002811015610f7f578154845260209093019260019182019101612a52565b5f8151808452602084019350602083015f5b828110156121e35781516001600160a01b0316865260209586019590910190600101612a83565b6001600160a01b03891681526101a0602082018190525f90612ace9083018a6129e2565b60408381018a905288516001600160a01b0390811660608087019190915260208b01518216608080880191909152928b0151821660a08701528a0151811660c0860152908901511660e0840152612b29610100840188612a4f565b828103610140840152612b3c8187612399565b9050828103610160840152612b518186612399565b9050828103610180840152612b668185612a71565b9b9a5050505050505050505050565b5f808335601e19843603018112612b8a575f80fd5b83016020810192503590506001600160401b03811115612ba8575f80fd5b80360382131561268d575f80fd5b81835281816020850137505f828201602090810191909152601f909101601f19169091010190565b8183525f6001600160fb1b03831115612bf5575f80fd5b8260051b80836020870137939093016020019392505050565b5f8383855260208501945060208460051b820101835f5b86811015612c9957838303601f19018852813536879003601e19018112612c4a575f80fd5b86016020810190356001600160401b03811115612c65575f80fd5b8060051b3603821315612c76575f80fd5b612c81858284612bde565b60209a8b019a90955093909301925050600101612c25565b50909695505050505050565b604080825281018490525f6060600586901b83018101908301878360be1936839003015b89821015612dd657868503605f190184528235818112612ce7575f80fd5b8b01612cf38180612b75565b60c08852612d0560c089018284612bb6565b915050612d156020830183612b75565b88830360208a0152612d28838284612bb6565b92505050612d396040830183612b75565b88830360408a0152612d4c838284612bb6565b92505050612d5d6060830183612b75565b88830360608a0152612d70838284612bb6565b92505050612d816080830183612b75565b88830360808a0152612d94838284612bb6565b92505050612da560a0830183612b75565b925087820360a0890152612dba828483612bb6565b9750505050602083019250602084019350600182019150612cc9565b505050508281036020840152612ded818587612c0e565b979650505050505050565b5f8184825b85811015612e2e578135612e108161232c565b6001600160a01b031683526020928301929190910190600101612dfd565b509095945050505050565b602080825281018290525f8360408301825b85811015612e6b5760408383376040928301929190910190600101612e4b565b5095945050505050565b60208082526028908201527f536f75726365206d75737420626520746865206f7261636c65206f6620746865604082015267081c995c5d595cdd60c21b606082015260800190565b5f60408201848352604060208401528084518083526060850191506020860192505f5b81811015612c99578351835260209384019390920191600101612ee0565b838152604060208201525f612f17604083018486612bde565b95945050505050565b80516020808301519190811015612270575f1960209190910360031b1b16919050565b5f611922612f5183866128e5565b846128e5565b5f612f6282846128e5565b61227d60f01b81526002019392505050565b601f82111561177357805f5260205f20601f840160051c81016020851015612f995750805b601f840160051c820191505b81811015612fb8575f8155600101612fa5565b5050505050565b81516001600160401b03811115612fd857612fd86123d9565b612fec81612fe684546128b3565b84612f74565b6020601f82116001811461301e575f83156130075750848201515b5f19600385901b1c1916600184901b178455612fb8565b5f84815260208120601f198516915b8281101561304d578785015182556020948501946001909201910161302d565b508482101561306a57868401515f19600387901b60f8161c191681555b50505050600190811b01905550565b5f823560be1983360301811261308d575f80fd5b9190910192915050565b5f808335601e198436030181126130ac575f80fd5b8301803591506001600160401b038211156130c5575f80fd5b60200191503681900382131561268d575f80fd5b80356020831015610f12575f19602084900360031b1b1692915050565b818382375f9101908152919050565b5f808335601e1984360301811261311a575f80fd5b8301803591506001600160401b03821115613133575f80fd5b6020019150600581901b360382131561268d575f80fd5b602081525f611922602083018486612bde565b838152606060208201525f61317560608301856129e2565b82810360408401526131878185612399565b9695505050505050565b634e487b7160e01b5f52601160045260245ffd5b80820180821115610f1257610f12613191565b6001600160a01b0389811682526020820189905260408201889052861660608201526001600160e01b03198516608082015260a0810184905260c0810183905261010060e082018190525f9061321090830184612399565b9a9950505050505050505050565b5f6020828403121561322e575f80fd5b815180151581146118a7575f80fd5b5f81525f610f0f60018301846128e5565b6a600b5981380380925939f360a81b81525f610f0f600b8301846128e5565b60018060a01b0384168152826020820152606060408201525f612f176060830184612399565b8082028115828204841417610f1257610f12613191565b5f816132b8576132b8613191565b505f190190565b8181035f83128015838313168383128216171561124657611246613191565b5f826132f857634e487b7160e01b5f52601260045260245ffd5b500690565b81810381811115610f1257610f12613191565b6001815b600184111561334b5780850481111561332f5761332f613191565b600184161561333d57908102905b60019390931c928002613314565b935093915050565b5f8261336157506001610f12565b8161336d57505f610f12565b8160018114613383576002811461338d576133a9565b6001915050610f12565b60ff84111561339e5761339e613191565b50506001821b610f12565b5060208310610133831016604e8410600b84101617156133cc575081810a610f12565b6133d85f198484613310565b805f19048211156133eb576133eb613191565b029392505050565b5f610f0f838361335356fe68747470733a2f2f78707a7969686d63756e7777796b6a70666467792e73757061626173652e636f2f66756e6374696f6e732f76312f6765742d74726164696e672d7661726961626c657331363835333563373366376234366364386664396137663231626462656463315b22616363657074222c20226170706c69636174696f6e2f6a736f6e222c2022417574686f72697a6174696f6e222c224265617265722065794a68624763694f694a49557a49314e694973496e523563434936496b705856434a392e65794a7063334d694f694a7a64584268596d467a5a534973496e4a6c5a694936496e6877656e6c706147316a6457353364336c72616e426d5a47643549697769636d39735a534936496d4675623234694c434a70595851694f6a45334d6a49304d6a55334f444973496d5634634349364d6a417a4f4441774d5463344d6e302e6d67755f70633266475a67415150536c4d54595f46504c637349766570495a623367654458413761752d30225d7cc135e0cebb02c3480ae5d74d377283180a2601f8f644edf7987b009316c63aa2646970667358221220972d5fd2a51d5d56498f4b93e89d6fa5846d404451e0efa0781a97d572f7826e64736f6c634300081a0033",
  "deployedBytecode": "0x608060405234801561000f575f80fd5b5060043610610152575f3560e01c8063011683b81461015657806316e1d00d1461017c578063257676a814610191578063415588b0146101a4578063436bbbdb146101c457806344a05e57146101d957806344d53d95146102175780634600e3441461023f5780634c69c00f1461026257806355c91e4b1461027557806355e2c6e61461029c57806376365f4f146102af57806379ba5097146102c25780637c3e8dd4146102ca5780638da5cb5b146102dd5780639d9a2fad146102e5578063a89ae4ba146102f8578063af7a060c1461030b578063c083bc771461032d578063c721786214610356578063cfb4148014610378578063d3520d2f1461038b578063daf4ca7f1461039e578063ec15af4b146103a6578063ec60640b146103b9578063ed2b40ea146103cc578063f2fde38b146103df578063fc848229146103f2575b5f80fd5b610169610164366004612340565b6103fa565b6040519081526020015b60405180910390f35b61018f61018a36600461236a565b61041c565b005b61018f61019f36600461236a565b61044c565b600a546101b7906001600160a01b031681565b6040516101739190612385565b6101cc61049d565b60405161017391906123c7565b6102076101e73660046124a6565b8051602081830181018051600b8252928201919093012091525460ff1681565b6040519015158152602001610173565b6101b76102253660046124ea565b600c6020525f90815260409020546001600160a01b031681565b6101cc604051806040016040528060048152602001631413d4d560e21b81525081565b61018f61027036600461236a565b610529565b6101b77f000000000000000000000000000000000000000000000000000000000000000081565b61018f6102aa3660046124a6565b61057a565b61018f6102bd36600461236a565b610613565b61018f610664565b6101696102d8366004612581565b610716565b6101b76107b0565b6101b76102f3366004612694565b6107bf565b6008546101b7906001600160a01b031681565b61020761031936600461236a565b600d6020525f908152604090205460ff1681565b6101cc6040518060400160405280602081526020015f8051602061344a83398151915281525081565b61020761036436600461236a565b60116020525f908152604090205460ff1681565b61018f61038636600461271d565b610b4b565b61018f6103993660046127b6565b610c43565b6101cc610d19565b6009546101b7906001600160a01b031681565b61018f6103c736600461286c565b610d35565b61018f6103da366004612340565b610e0e565b61018f6103ed36600461236a565b610e6e565b6101cc610e82565b600e602052815f5260405f208160028110610413575f80fd5b01549150829050565b610424610ea1565b6001600160a01b03165f908152601160205260409020805460ff19811660ff90911615179055565b610454610ea1565b600980546001600160a01b0319166001600160a01b0383169081179091556040517fb443cb4216741f9e8e4c69f8b4852f9ebaee0fb4c4f5229b3fe8580bed07e822905f90a250565b600f80546104aa906128b3565b80601f01602080910402602001604051908101604052809291908181526020018280546104d6906128b3565b80156105215780601f106104f857610100808354040283529160200191610521565b820191905f5260205f20905b81548152906001019060200180831161050457829003601f168201915b505050505081565b610531610ea1565b600880546001600160a01b0319166001600160a01b0383169081179091556040517fdd82bdfc28fcc826c53263dc2a2b6083e27e92699ebfee617227e08e21c202f0905f90a250565b610582610ea1565b600b8160405161059291906128fc565b9081526040519081900360200181205460ff161590600b906105b59084906128fc565b908152604051908190036020018120805492151560ff19909316929092179091556105e19082906128fc565b604051908190038120907f464af60849b1d6d2449131bfbe43238149eba7682e337c2e3376b57873df3ffb905f90a250565b61061b610ea1565b600a80546001600160a01b0319166001600160a01b0383169081179091556040517fd287efab3856f26617f93d52384daf9f5f79854cb85cebcbbaafeaa3d7c82169905f90a250565b6007546001600160a01b031633146106bc5760405162461bcd60e51b815260206004820152601660248201527526bab9ba10313290383937b837b9b2b21037bbb732b960511b60448201526064015b60405180910390fd5b600680546001600160a01b0319808216339081179093556007805490911690556040516001600160a01b03909116919082907f8be0079c531659141344cd1fd0a4f28419497f9722a3daafe3b4186f6b6457e0905f90a350565b6001600160a01b0383165f9081526011602052604081205460ff16610750578360405163f928798160e01b81526004016106b39190612385565b335f908152600d602052604090205460ff166107815733604051630422e93d60e41b81526004016106b39190612385565b61078b8383610ef6565b5f818152600c6020526040902080546001600160a01b03191633179055949350505050565b6006546001600160a01b031690565b5f606486116108025760405162461bcd60e51b815260206004820152600f60248201526e4465706f73697420746f6f206c6f7760881b60448201526064016106b3565b6001600160a01b0387165f908152600e602052604081205490036108395760405163efe5dc4d60e01b815260040160405180910390fd5b61084e6001600160a01b038816333089610f18565b6108777f0000000000000000000000000000000000000000000000000000000000000000610f85565b90505f6040518060a0016040528061088d6107b0565b6001600160a01b03908116825233602080840191909152600954821660408085019190915260085483166060850152600a548316608090940193909352825163313ce56760e01b81529251939450858216936342a1087b938d936109419389939186169263313ce56792600480830193928290030181865afa158015610915573d5f803e3d5ffd5b505050506040513d601f19601f82011682018060405250810190610939919061291b565b60ff16610ff4565b6001600160a01b038c165f818152600e602052604080822081516306fdde0360e01b815291518f948a94929390926306fdde03926004808401938290030181865afa158015610992573d5f803e3d5ffd5b505050506040513d5f823e601f3d908101601f191682016040526109b99190810190612971565b6040516020016109c991906129b5565b6040516020818303038152906040528f6001600160a01b03166395d89b416040518163ffffffff1660e01b81526004015f60405180830381865afa158015610a13573d5f803e3d5ffd5b505050506040513d5f823e601f3d908101601f19168201604052610a3a9190810190612971565b604051602001610a4a91906129cd565b604051602081830303815290604052610a658f8f8f8f61124d565b6040518963ffffffff1660e01b8152600401610a88989796959493929190612aaa565b5f604051808303815f87803b158015610a9f575f80fd5b505af1158015610ab1573d5f803e3d5ffd5b5050506001600160a01b038084165f908152600d60205260409020805460ff19166001179055610ae5915089168389611742565b876001600160a01b0316826001600160a01b0316336001600160a01b03167f416c14e9c253fda70d363e7812808eb15246d08389dfe8f694f7b73ba43cb14289898989604051610b389493929190612ca5565b60405180910390a4509695505050505050565b610b53610ea1565b828114610b7357604051637e0abb9560e11b815260040160405180910390fd5b5f5b83811015610beb57828282818110610b8f57610b8f612907565b905060400201600e5f878785818110610baa57610baa612907565b9050602002016020810190610bbf919061236a565b6001600160a01b0316815260208101919091526040015f20610be291600261228d565b50600101610b75565b508383604051610bfc929190612df8565b60405180910390207f463a5554c7facc8114d447e5dca10f3a234b70035b36792c11d5615387cce00b8383604051610c35929190612e39565b60405180910390a250505050565b5f8281526005602052604090205482906001600160a01b03163314610c7a5760405162461bcd60e51b81526004016106b390612e75565b5f8181526005602052604080822080546001600160a01b03191690555182915f8051602061357383398151915291a25f838152600c60205260409081902054905163d3520d2f60e01b81526001600160a01b039091169063d3520d2f90610ce79086908690600401612ebd565b5f604051808303815f87803b158015610cfe575f80fd5b505af1158015610d10573d5f803e3d5ffd5b50505050505050565b6040518060800160405280604b81526020016133ff604b913981565b5f8381526005602052604090205483906001600160a01b03163314610d6c5760405162461bcd60e51b81526004016106b390612e75565b5f8181526005602052604080822080546001600160a01b03191690555182915f8051602061357383398151915291a25f848152600c60205260409081902054905163ec60640b60e01b81526001600160a01b039091169063ec60640b90610ddb90879087908790600401612efe565b5f604051808303815f87803b158015610df2575f80fd5b505af1158015610e04573d5f803e3d5ffd5b5050505050505050565b610e16610ea1565b610e2a6001600160a01b0383163383611742565b6040518181526001600160a01b0383169033907f716942921e9b67ee05c4c2ffcf216f189086c9053b444c8928a49db4bdb1ae8e9060200160405180910390a35050565b610e76610ea1565b610e7f81611778565b50565b604051806101400160405280610109815260200161346a610109913981565b6006546001600160a01b03163314610ef45760405162461bcd60e51b815260206004820152601660248201527527b7363c9031b0b63630b1363290313c9037bbb732b960511b60448201526064016106b3565b565b6003545f90610f0f906001600160a01b0316848461181b565b90505b92915050565b6040516001600160a01b038481166024830152838116604483015260648201839052610f7f9186918216906323b872dd906084015b604051602081830303815290604052915060e01b6020820180516001600160e01b0383818316178352505050506118ae565b50505050565b5f763d602d80600a3d3981f3363d3d373d3d3d363d730000008260601b60e81c175f526e5af43d82803e903d91602b57fd5bf38260781b17602052603760095ff090506001600160a01b038116610fef576040516330be1a3d60e21b815260040160405180910390fd5b919050565b610ffc6122cb565b6110386040518060400160405280602081526020015f8051602061344a83398151915281525061102b90612f20565b63d3520d2f60e01b611906565b9050611089604051806040016040528060068152602001651b595d1a1bd960d21b815250604051806040016040528060048152602001631413d4d560e21b8152508361192a9092919063ffffffff16565b6110c9604051806040016040528060038152602001621d5c9b60ea1b8152506040518060800160405280604b81526020016133ff604b913983919061192a565b611110604051806040016040528060078152602001666865616465727360c81b815250604051806101400160405280610109815260200161346a610109913983919061192a565b6040805180820190915260118152703d913ab9b2b920b2323932b9b9911d101160791b60208201528061114b6001600160a01b038616611948565b60405160200161115c929190612f43565b60405160208183030381529060405290508060405160200161117e9190612f57565b60408051601f198184030181529190529050600f61119c8282612fbf565b50604080518082019091526004815263626f647960e01b60208201526111c49083908361192a565b6112116040518060400160405280600781526020016618dbdb9d1858dd60ca1b815250604051806040016040528060018152602001604160f81b8152508461192a9092919063ffffffff16565b60408051808201909152600a81526936bab63a34b83634b2b960b11b6020820152611246908390670de0b6b3a764000061195e565b5092915050565b606083821461125a575f80fd5b816001600160401b03811115611272576112726123d9565b60405190808252806020026020018201604052801561129b578160200160208202803683370190505b5090505f5b82811015611739575f6112f48787848181106112be576112be612907565b90506020028101906112d09190613079565b6112de9060a0810190613097565b6112e7916130d9565b63ec60640b60e01b611906565b9050611383604051806040016040528060068152602001651b595d1a1bd960d21b81525088888581811061132a5761132a612907565b905060200281019061133c9190613079565b6113469080613097565b8080601f0160208091040260200160405190810160405280939291908181526020018383808284375f9201919091525086949392505061192a9050565b6113d4604051806040016040528060038152602001621d5c9b60ea1b8152508888858181106113b4576113b4612907565b90506020028101906113c69190613079565b611346906020810190613097565b620f4240600b8888858181106113ec576113ec612907565b90506020028101906113fe9190613079565b61140c906020810190613097565b60405161141a9291906130f6565b9081526040519081900360200190205460ff161561143857506216e3605b6114ca604051806040016040528060078152602001666865616465727360c81b81525089898681811061146d5761146d612907565b905060200281019061147f9190613079565b61148d906040810190613097565b8080601f0160208091040260200160405190810160405280939291908181526020018383808284375f9201919091525087949392505061192a9050565b5f8888858181106114dd576114dd612907565b90506020028101906114ef9190613079565b6114fd906060810190613097565b905011156115575761155760405180604001604052806004815260200163626f647960e01b81525089898681811061153757611537612907565b90506020028101906115499190613079565b61148d906060810190613097565b6115a46040518060400160405280600781526020016618dbdb9d1858dd60ca1b815250604051806040016040528060018152602001604160f81b8152508461192a9092919063ffffffff16565b6115f6604051806040016040528060048152602001630e0c2e8d60e31b8152508989868181106115d6576115d6612907565b90506020028101906115e89190613079565b61148d906080810190613097565b60408051808201909152600a81526936bab63a34b83634b2b960b11b602082015261162b908390670de0b6b3a764000061195e565b5f73__$77e209f1cfce518b56cf43f841bb659a66$__63d88b06db88888781811061165857611658612907565b905060200281019061166a9190613105565b6040518363ffffffff1660e01b815260040161168792919061314a565b5f60405180830381865af41580156116a1573d5f803e3d5ffd5b505050506040513d5f823e601f3d908101601f191682016040526116c89190810190612971565b90505f8284836040516020016116e09392919061315d565b60405160208183030381529060405290505f6116fb8261197c565b90508087878151811061171057611710612907565b6001600160a01b03909216602092830291909101909101525050600190930192506112a0915050565b50949350505050565b6040516001600160a01b0383811660248301526044820183905261177391859182169063a9059cbb90606401610f4d565b505050565b336001600160a01b038216036117ca5760405162461bcd60e51b815260206004820152601760248201527621b0b73737ba103a3930b739b332b9103a379039b2b63360491b60448201526064016106b3565b600780546001600160a01b0319166001600160a01b03838116918217909255600654604051919216907fed8889f560326eb138920d842192f0eb3dd22b4f139c87a2c57538e05bae1278905f90a350565b6004545f9061182b8160016131a5565b600455835160408086015160808701515191515f936320214ca360e11b936118629386938493923092918a916001916024016131b8565b60408051601f198184030181529190526020810180516001600160e01b03166001600160e01b03199093169290921790915290506118a286838684611a1e565b925050505b9392505050565b5f6118c26001600160a01b03841683611b72565b905080515f141580156118e65750808060200190518101906118e4919061321e565b155b156117735782604051635274afe760e01b81526004016106b39190612385565b61190e6122cb565b6119166122cb565b61192281853086611b7f565b949350505050565b60808301516119399083611bbc565b60808301516117739082611bbc565b6060610f126001600160a01b0383166014611bd3565b608083015161196d9083611bbc565b60808301516117739082611d44565b5f808260405160200161198f919061323d565b60405160208183030381529060405290505f816040516020016119b2919061324e565b60405160208183030381529060405290508051602082015ff092506001600160a01b038316611a175760405162461bcd60e51b81526020600482015260116024820152701111541313d65351539517d19052531151607a1b60448201526064016106b3565b5050919050565b6040516001600160601b03193060601b166020820152603481018490525f9060540160408051808303601f1901815282825280516020918201205f818152600590925291812080546001600160a01b0319166001600160a01b038a1617905590925082917fb5e6e01e79f91267dc17b4e6314d5d4d03593d2ceee0fbb452b750bd70ea5af99190a2600254604051630200057560e51b81526001600160a01b0390911690634000aea090611ada9088908790879060040161326d565b6020604051808303815f875af1158015611af6573d5f803e3d5ffd5b505050506040513d601f19601f82011682018060405250810190611b1a919061321e565b6119225760405162461bcd60e51b815260206004820152602360248201527f756e61626c6520746f207472616e73666572416e6443616c6c20746f206f7261604482015262636c6560e81b60648201526084016106b3565b6060610f0f83835f611da3565b611b876122cb565b611b978560800151610100611e32565b50509183526001600160a01b031660208301526001600160e01b031916604082015290565b611bc98260038351611e89565b6117738282611f90565b6060825f611be2846002613293565b611bed9060026131a5565b6001600160401b03811115611c0457611c046123d9565b6040519080825280601f01601f191660200182016040528015611c2e576020820181803683370190505b509050600360fc1b815f81518110611c4857611c48612907565b60200101906001600160f81b03191690815f1a905350600f60fb1b81600181518110611c7657611c76612907565b60200101906001600160f81b03191690815f1a9053505f611c98856002613293565b611ca39060016131a5565b90505b6001811115611d1a576f181899199a1a9b1b9c1cb0b131b232b360811b83600f1660108110611cd757611cd7612907565b1a60f81b828281518110611ced57611ced612907565b60200101906001600160f81b03191690815f1a90535060049290921c91611d13816132aa565b9050611ca6565b5081156119225760405163e22e27eb60e01b815260048101869052602481018590526044016106b3565b6001600160401b0319811215611d6257611d5e8282611fa9565b5050565b6001600160401b03811315611d7b57611d5e8282611fea565b5f8112611d8d57611d5e825f83611e89565b611d5e826001611d9e845f196132bf565b611e89565b606081471015611dc8573060405163cd78605960e01b81526004016106b39190612385565b5f80856001600160a01b03168486604051611de391906128fc565b5f6040518083038185875af1925050503d805f8114611e1d576040519150601f19603f3d011682016040523d82523d5f602084013e611e22565b606091505b50915091506118a286838361200d565b611e3a6122ff565b611e456020836132de565b15611e6d57611e556020836132de565b611e609060206132fd565b611e6a90836131a5565b91505b506020828101829052604080518085525f815290920101905290565b6017816001600160401b031611611ead57610f7f8360e0600585901b168317612060565b60ff816001600160401b031611611ee957611ed3836018611fe0600586901b1617612060565b50610f7f836001600160401b0383166001612077565b61ffff816001600160401b031611611f2657611f10836019611fe0600586901b1617612060565b50610f7f836001600160401b0383166002612077565b63ffffffff816001600160401b031611611f6557611f4f83601a611fe0600586901b1617612060565b50610f7f836001600160401b0383166004612077565b611f7a83601b611fe0600586901b1617612060565b50610f7f836001600160401b0383166008612077565b611f986122ff565b610f0f83845f01515184855161208f565b611fb48260c3612060565b50611d5e82611fc4835f196132bf565b604051602001611fd691815260200190565b604051602081830303815290604052612169565b611ff58260c2612060565b50611d5e8282604051602001611fd691815260200190565b6060826120225761201d82612176565b6118a7565b815115801561203957506001600160a01b0384163b155b156120595783604051639996b31560e01b81526004016106b39190612385565b50806118a7565b6120686122ff565b610f0f83845f0151518461219f565b61207f6122ff565b61192284855f01515185856121ed565b6120976122ff565b82518211156120a4575f80fd5b60208501516120b383866131a5565b11156120e6576120e6856120d6876020015187866120d191906131a5565b612260565b6120e1906002613293565b612276565b5f808651805187602083010193508088870111156121045787860182525b505050602084015b6020841061214457805182526121236020836131a5565b91506121306020826131a5565b905061213d6020856132fd565b935061210c565b5181515f1960208690036101000a019081169019919091161790525083949350505050565b611bc98260028351611e89565b8051156121865780518082602001fd5b604051630a12f52160e11b815260040160405180910390fd5b6121a76122ff565b836020015183106121c7576121c784856020015160026120e19190613293565b83518051602085830101848153508085036121e3576001810182525b5093949350505050565b6121f56122ff565b602085015161220485846131a5565b111561221857612218856120d686856131a5565b5f6001612227846101006133f3565b61223191906132fd565b90508551838682010185831982511617815250805184870111156122555783860181525b509495945050505050565b5f81831115612270575081610f12565b50919050565b81516122828383611e32565b50610f7f8382611f90565b82600281019282156122bb579160200282015b828111156122bb5782358255916020019190600101906122a0565b506122c7929150612318565b5090565b6040805160a0810182525f808252602082018190529181018290526060810191909152608081016122fa6122ff565b905290565b6040518060400160405280606081526020015f81525090565b5b808211156122c7575f8155600101612319565b6001600160a01b0381168114610e7f575f80fd5b5f8060408385031215612351575f80fd5b823561235c8161232c565b946020939093013593505050565b5f6020828403121561237a575f80fd5b81356118a78161232c565b6001600160a01b0391909116815260200190565b5f81518084528060208401602086015e5f602082860101526020601f19601f83011685010191505092915050565b602081525f610f0f6020830184612399565b634e487b7160e01b5f52604160045260245ffd5b60405160a081016001600160401b038111828210171561240f5761240f6123d9565b60405290565b604051601f8201601f191681016001600160401b038111828210171561243d5761243d6123d9565b604052919050565b5f6001600160401b0382111561245d5761245d6123d9565b50601f01601f191660200190565b5f61247d61247884612445565b612415565b9050828152838383011115612490575f80fd5b828260208301375f602084830101529392505050565b5f602082840312156124b6575f80fd5b81356001600160401b038111156124cb575f80fd5b8201601f810184136124db575f80fd5b6119228482356020840161246b565b5f602082840312156124fa575f80fd5b5035919050565b5f60408284031215612511575f80fd5b604080519081016001600160401b0381118282101715612533576125336123d9565b60405290508082356001600160401b0381111561254e575f80fd5b8301601f8101851361255e575f80fd5b61256d8582356020840161246b565b825250602092830135920191909152919050565b5f805f60608486031215612593575f80fd5b833561259e8161232c565b925060208401356001600160401b038111156125b8575f80fd5b840160a081870312156125c9575f80fd5b6125d16123ed565b8135815260208201356125e38161232c565b602082015260408201356001600160e01b031981168114612602575f80fd5b60408201526060828101359082015260808201356001600160401b03811115612629575f80fd5b61263588828501612501565b60808301525093969395505050506040919091013590565b5f8083601f84011261265d575f80fd5b5081356001600160401b03811115612673575f80fd5b6020830191508360208260051b850101111561268d575f80fd5b9250929050565b5f805f805f80608087890312156126a9575f80fd5b86356126b48161232c565b95506020870135945060408701356001600160401b038111156126d5575f80fd5b6126e189828a0161264d565b90955093505060608701356001600160401b038111156126ff575f80fd5b61270b89828a0161264d565b979a9699509497509295939492505050565b5f805f8060408587031215612730575f80fd5b84356001600160401b03811115612745575f80fd5b6127518782880161264d565b90955093505060208501356001600160401b0381111561276f575f80fd5b8501601f8101871361277f575f80fd5b80356001600160401b03811115612794575f80fd5b8760208260061b84010111156127a8575f80fd5b949793965060200194505050565b5f80604083850312156127c7575f80fd5b8235915060208301356001600160401b038111156127e3575f80fd5b8301601f810185136127f3575f80fd5b80356001600160401b0381111561280c5761280c6123d9565b8060051b61281c60208201612415565b91825260208184018101929081019088841115612837575f80fd5b6020850194505b8385101561285d5784358083526020958601959093509091019061283e565b80955050505050509250929050565b5f805f6040848603121561287e575f80fd5b8335925060208401356001600160401b0381111561289a575f80fd5b6128a68682870161264d565b9497909650939450505050565b600181811c908216806128c757607f821691505b60208210810361227057634e487b7160e01b5f52602260045260245ffd5b5f81518060208401855e5f93019283525090919050565b5f610f0f82846128e5565b634e487b7160e01b5f52603260045260245ffd5b5f6020828403121561292b575f80fd5b815160ff811681146118a7575f80fd5b5f61294861247884612445565b905082815283838301111561295b575f80fd5b8282602083015e5f602084830101529392505050565b5f60208284031215612981575f80fd5b81516001600160401b03811115612996575f80fd5b8201601f810184136129a6575f80fd5b6119228482516020840161293b565b634175746f60e01b81525f610f0f60048301846128e5565b606160f81b81525f610f0f60018301846128e5565b8051825260018060a01b03602082015116602083015263ffffffff60e01b6040820151166040830152606081015160608301525f608082015160a060808501528051604060a0860152612a3860e0860182612399565b9050602082015160c0860152809250505092915050565b805f5b6002811015610f7f578154845260209093019260019182019101612a52565b5f8151808452602084019350602083015f5b828110156121e35781516001600160a01b0316865260209586019590910190600101612a83565b6001600160a01b03891681526101a0602082018190525f90612ace9083018a6129e2565b60408381018a905288516001600160a01b0390811660608087019190915260208b01518216608080880191909152928b0151821660a08701528a0151811660c0860152908901511660e0840152612b29610100840188612a4f565b828103610140840152612b3c8187612399565b9050828103610160840152612b518186612399565b9050828103610180840152612b668185612a71565b9b9a5050505050505050505050565b5f808335601e19843603018112612b8a575f80fd5b83016020810192503590506001600160401b03811115612ba8575f80fd5b80360382131561268d575f80fd5b81835281816020850137505f828201602090810191909152601f909101601f19169091010190565b8183525f6001600160fb1b03831115612bf5575f80fd5b8260051b80836020870137939093016020019392505050565b5f8383855260208501945060208460051b820101835f5b86811015612c9957838303601f19018852813536879003601e19018112612c4a575f80fd5b86016020810190356001600160401b03811115612c65575f80fd5b8060051b3603821315612c76575f80fd5b612c81858284612bde565b60209a8b019a90955093909301925050600101612c25565b50909695505050505050565b604080825281018490525f6060600586901b83018101908301878360be1936839003015b89821015612dd657868503605f190184528235818112612ce7575f80fd5b8b01612cf38180612b75565b60c08852612d0560c089018284612bb6565b915050612d156020830183612b75565b88830360208a0152612d28838284612bb6565b92505050612d396040830183612b75565b88830360408a0152612d4c838284612bb6565b92505050612d5d6060830183612b75565b88830360608a0152612d70838284612bb6565b92505050612d816080830183612b75565b88830360808a0152612d94838284612bb6565b92505050612da560a0830183612b75565b925087820360a0890152612dba828483612bb6565b9750505050602083019250602084019350600182019150612cc9565b505050508281036020840152612ded818587612c0e565b979650505050505050565b5f8184825b85811015612e2e578135612e108161232c565b6001600160a01b031683526020928301929190910190600101612dfd565b509095945050505050565b602080825281018290525f8360408301825b85811015612e6b5760408383376040928301929190910190600101612e4b565b5095945050505050565b60208082526028908201527f536f75726365206d75737420626520746865206f7261636c65206f6620746865604082015267081c995c5d595cdd60c21b606082015260800190565b5f60408201848352604060208401528084518083526060850191506020860192505f5b81811015612c99578351835260209384019390920191600101612ee0565b838152604060208201525f612f17604083018486612bde565b95945050505050565b80516020808301519190811015612270575f1960209190910360031b1b16919050565b5f611922612f5183866128e5565b846128e5565b5f612f6282846128e5565b61227d60f01b81526002019392505050565b601f82111561177357805f5260205f20601f840160051c81016020851015612f995750805b601f840160051c820191505b81811015612fb8575f8155600101612fa5565b5050505050565b81516001600160401b03811115612fd857612fd86123d9565b612fec81612fe684546128b3565b84612f74565b6020601f82116001811461301e575f83156130075750848201515b5f19600385901b1c1916600184901b178455612fb8565b5f84815260208120601f198516915b8281101561304d578785015182556020948501946001909201910161302d565b508482101561306a57868401515f19600387901b60f8161c191681555b50505050600190811b01905550565b5f823560be1983360301811261308d575f80fd5b9190910192915050565b5f808335601e198436030181126130ac575f80fd5b8301803591506001600160401b038211156130c5575f80fd5b60200191503681900382131561268d575f80fd5b80356020831015610f12575f19602084900360031b1b1692915050565b818382375f9101908152919050565b5f808335601e1984360301811261311a575f80fd5b8301803591506001600160401b03821115613133575f80fd5b6020019150600581901b360382131561268d575f80fd5b602081525f611922602083018486612bde565b838152606060208201525f61317560608301856129e2565b82810360408401526131878185612399565b9695505050505050565b634e487b7160e01b5f52601160045260245ffd5b80820180821115610f1257610f12613191565b6001600160a01b0389811682526020820189905260408201889052861660608201526001600160e01b03198516608082015260a0810184905260c0810183905261010060e082018190525f9061321090830184612399565b9a9950505050505050505050565b5f6020828403121561322e575f80fd5b815180151581146118a7575f80fd5b5f81525f610f0f60018301846128e5565b6a600b5981380380925939f360a81b81525f610f0f600b8301846128e5565b60018060a01b0384168152826020820152606060408201525f612f176060830184612399565b8082028115828204841417610f1257610f12613191565b5f816132b8576132b8613191565b505f190190565b8181035f83128015838313168383128216171561124657611246613191565b5f826132f857634e487b7160e01b5f52601260045260245ffd5b500690565b81810381811115610f1257610f12613191565b6001815b600184111561334b5780850481111561332f5761332f613191565b600184161561333d57908102905b60019390931c928002613314565b935093915050565b5f8261336157506001610f12565b8161336d57505f610f12565b8160018114613383576002811461338d576133a9565b6001915050610f12565b60ff84111561339e5761339e613191565b50506001821b610f12565b5060208310610133831016604e8410600b84101617156133cc575081810a610f12565b6133d85f198484613310565b805f19048211156133eb576133eb613191565b029392505050565b5f610f0f838361335356fe68747470733a2f2f78707a7969686d63756e7777796b6a70666467792e73757061626173652e636f2f66756e6374696f6e732f76312f6765742d74726164696e672d7661726961626c657331363835333563373366376234366364386664396137663231626462656463315b22616363657074222c20226170706c69636174696f6e2f6a736f6e222c2022417574686f72697a6174696f6e222c224265617265722065794a68624763694f694a49557a49314e694973496e523563434936496b705856434a392e65794a7063334d694f694a7a64584268596d467a5a534973496e4a6c5a694936496e6877656e6c706147316a6457353364336c72616e426d5a47643549697769636d39735a534936496d4675623234694c434a70595851694f6a45334d6a49304d6a55334f444973496d5634634349364d6a417a4f4441774d5463344d6e302e6d67755f70633266475a67415150536c4d54595f46504c637349766570495a623367654458413761752d30225d7cc135e0cebb02c3480ae5d74d377283180a2601f8f644edf7987b009316c63aa2646970667358221220972d5fd2a51d5d56498f4b93e89d6fa5846d404451e0efa0781a97d572f7826e64736f6c634300081a0033",
  "libraries": {
    "Equation": "0x85bC752C944735aEb7E6b4BdC6bF843457fC1C55"
  },
  "devdoc": {
    "errors": {
      "AddressEmptyCode(address)": [
        {
          "details": "There's no code at `target` (it is not a contract)."
        }
      ],
      "AddressInsufficientBalance(address)": [
        {
          "details": "The ETH balance of the account is not enough to perform the operation."
        }
      ],
      "ERC1167FailedCreateClone()": [
        {
          "details": "A clone instance deployment failed."
        }
      ],
      "FailedInnerCall()": [
        {
          "details": "A call to an address target failed. The target may have reverted."
        }
      ],
      "SafeERC20FailedOperation(address)": [
        {
          "details": "An operation with an ERC20 token failed."
        }
      ],
      "StringsInsufficientHexLength(uint256,uint256)": [
        {
          "details": "The `value` string doesn't fit in the specified `length`."
        }
      ]
    },
    "kind": "dev",
    "methods": {},
    "version": 1
  },
  "userdoc": {
    "kind": "user",
    "methods": {
      "acceptOwnership()": {
        "notice": "Allows an ownership transfer to be completed by the recipient."
      },
      "owner()": {
        "notice": "Get the current owner"
      },
      "transferOwnership(address)": {
        "notice": "Allows an owner to begin transferring ownership to a new address."
      }
    },
    "version": 1
  },
  "storageLayout": {
    "storage": [
      {
        "astId": 325,
        "contract": "contracts/VaultFactory.sol:VaultFactory",
        "label": "s_ens",
        "offset": 0,
        "slot": "0",
        "type": "t_contract(ENSInterface)982"
      },
      {
        "astId": 327,
        "contract": "contracts/VaultFactory.sol:VaultFactory",
        "label": "s_ensNode",
        "offset": 0,
        "slot": "1",
        "type": "t_bytes32"
      },
      {
        "astId": 330,
        "contract": "contracts/VaultFactory.sol:VaultFactory",
        "label": "s_link",
        "offset": 0,
        "slot": "2",
        "type": "t_contract(LinkTokenInterface)1382"
      },
      {
        "astId": 333,
        "contract": "contracts/VaultFactory.sol:VaultFactory",
        "label": "s_oracle",
        "offset": 0,
        "slot": "3",
        "type": "t_contract(OperatorInterface)1047"
      },
      {
        "astId": 336,
        "contract": "contracts/VaultFactory.sol:VaultFactory",
        "label": "s_requestCount",
        "offset": 0,
        "slot": "4",
        "type": "t_uint256"
      },
      {
        "astId": 340,
        "contract": "contracts/VaultFactory.sol:VaultFactory",
        "label": "s_pendingRequests",
        "offset": 0,
        "slot": "5",
        "type": "t_mapping(t_bytes32,t_address)"
      },
      {
        "astId": 1117,
        "contract": "contracts/VaultFactory.sol:VaultFactory",
        "label": "s_owner",
        "offset": 0,
        "slot": "6",
        "type": "t_address"
      },
      {
        "astId": 1119,
        "contract": "contracts/VaultFactory.sol:VaultFactory",
        "label": "s_pendingOwner",
        "offset": 0,
        "slot": "7",
        "type": "t_address"
      },
      {
        "astId": 11280,
        "contract": "contracts/VaultFactory.sol:VaultFactory",
        "label": "oracleAddress",
        "offset": 0,
        "slot": "8",
        "type": "t_address"
      },
      {
        "astId": 11282,
        "contract": "contracts/VaultFactory.sol:VaultFactory",
        "label": "chainLinkToken",
        "offset": 0,
        "slot": "9",
        "type": "t_address"
      },
      {
        "astId": 11284,
        "contract": "contracts/VaultFactory.sol:VaultFactory",
        "label": "gainsAddress",
        "offset": 0,
        "slot": "10",
        "type": "t_address"
      },
      {
        "astId": 11290,
        "contract": "contracts/VaultFactory.sol:VaultFactory",
        "label": "publicAPIEndPoints",
        "offset": 0,
        "slot": "11",
        "type": "t_mapping(t_string_memory_ptr,t_bool)"
      },
      {
        "astId": 11295,
        "contract": "contracts/VaultFactory.sol:VaultFactory",
        "label": "requestToCaller",
        "offset": 0,
        "slot": "12",
        "type": "t_mapping(t_bytes32,t_contract(AutoVault)7839)"
      },
      {
        "astId": 11299,
        "contract": "contracts/VaultFactory.sol:VaultFactory",
        "label": "approvedVaults",
        "offset": 0,
        "slot": "13",
        "type": "t_mapping(t_address,t_bool)"
      },
      {
        "astId": 11308,
        "contract": "contracts/VaultFactory.sol:VaultFactory",
        "label": "tokenToOracleFee",
        "offset": 0,
        "slot": "14",
        "type": "t_mapping(t_contract(IERC20Metadata)3613,t_array(t_uint256)2_storage)"
      },
      {
        "astId": 11561,
        "contract": "contracts/VaultFactory.sol:VaultFactory",
        "label": "bodyA",
        "offset": 0,
        "slot": "15",
        "type": "t_string_storage"
      },
      {
        "astId": 11982,
        "contract": "contracts/VaultFactory.sol:VaultFactory",
        "label": "ownerPercentShare",
        "offset": 0,
        "slot": "16",
        "type": "t_uint256"
      },
      {
        "astId": 12032,
        "contract": "contracts/VaultFactory.sol:VaultFactory",
        "label": "approvedCaller",
        "offset": 0,
        "slot": "17",
        "type": "t_mapping(t_address,t_bool)"
      }
    ],
    "types": {
      "t_address": {
        "encoding": "inplace",
        "label": "address",
        "numberOfBytes": "20"
      },
      "t_array(t_uint256)2_storage": {
        "base": "t_uint256",
        "encoding": "inplace",
        "label": "uint256[2]",
        "numberOfBytes": "64"
      },
      "t_bool": {
        "encoding": "inplace",
        "label": "bool",
        "numberOfBytes": "1"
      },
      "t_bytes32": {
        "encoding": "inplace",
        "label": "bytes32",
        "numberOfBytes": "32"
      },
      "t_contract(AutoVault)7839": {
        "encoding": "inplace",
        "label": "contract AutoVault",
        "numberOfBytes": "20"
      },
      "t_contract(ENSInterface)982": {
        "encoding": "inplace",
        "label": "contract ENSInterface",
        "numberOfBytes": "20"
      },
      "t_contract(IERC20Metadata)3613": {
        "encoding": "inplace",
        "label": "contract IERC20Metadata",
        "numberOfBytes": "20"
      },
      "t_contract(LinkTokenInterface)1382": {
        "encoding": "inplace",
        "label": "contract LinkTokenInterface",
        "numberOfBytes": "20"
      },
      "t_contract(OperatorInterface)1047": {
        "encoding": "inplace",
        "label": "contract OperatorInterface",
        "numberOfBytes": "20"
      },
      "t_mapping(t_address,t_bool)": {
        "encoding": "mapping",
        "key": "t_address",
        "label": "mapping(address => bool)",
        "numberOfBytes": "32",
        "value": "t_bool"
      },
      "t_mapping(t_bytes32,t_address)": {
        "encoding": "mapping",
        "key": "t_bytes32",
        "label": "mapping(bytes32 => address)",
        "numberOfBytes": "32",
        "value": "t_address"
      },
      "t_mapping(t_bytes32,t_contract(AutoVault)7839)": {
        "encoding": "mapping",
        "key": "t_bytes32",
        "label": "mapping(bytes32 => contract AutoVault)",
        "numberOfBytes": "32",
        "value": "t_contract(AutoVault)7839"
      },
      "t_mapping(t_contract(IERC20Metadata)3613,t_array(t_uint256)2_storage)": {
        "encoding": "mapping",
        "key": "t_contract(IERC20Metadata)3613",
        "label": "mapping(contract IERC20Metadata => uint256[2])",
        "numberOfBytes": "32",
        "value": "t_array(t_uint256)2_storage"
      },
      "t_mapping(t_string_memory_ptr,t_bool)": {
        "encoding": "mapping",
        "key": "t_string_memory_ptr",
        "label": "mapping(string => bool)",
        "numberOfBytes": "32",
        "value": "t_bool"
      },
      "t_string_memory_ptr": {
        "encoding": "bytes",
        "label": "string",
        "numberOfBytes": "32"
      },
      "t_string_storage": {
        "encoding": "bytes",
        "label": "string",
        "numberOfBytes": "32"
      },
      "t_uint256": {
        "encoding": "inplace",
        "label": "uint256",
        "numberOfBytes": "32"
      }
    }
  }
}